{
  "contractName": "CErc20",
  "abi": [
    {
      "anonymous": false,
      "inputs": [
        {
          "indexed": false,
          "internalType": "uint256",
          "name": "cashPrior",
          "type": "uint256"
        },
        {
          "indexed": false,
          "internalType": "uint256",
          "name": "interestAccumulated",
          "type": "uint256"
        },
        {
          "indexed": false,
          "internalType": "uint256",
          "name": "borrowIndex",
          "type": "uint256"
        },
        {
          "indexed": false,
          "internalType": "uint256",
          "name": "totalBorrows",
          "type": "uint256"
        }
      ],
      "name": "AccrueInterest",
      "type": "event"
    },
    {
      "anonymous": false,
      "inputs": [
        {
          "indexed": true,
          "internalType": "address",
          "name": "owner",
          "type": "address"
        },
        {
          "indexed": true,
          "internalType": "address",
          "name": "spender",
          "type": "address"
        },
        {
          "indexed": false,
          "internalType": "uint256",
          "name": "amount",
          "type": "uint256"
        }
      ],
      "name": "Approval",
      "type": "event"
    },
    {
      "anonymous": false,
      "inputs": [
        {
          "indexed": false,
          "internalType": "address",
          "name": "borrower",
          "type": "address"
        },
        {
          "indexed": false,
          "internalType": "uint256",
          "name": "borrowAmount",
          "type": "uint256"
        },
        {
          "indexed": false,
          "internalType": "uint256",
          "name": "accountBorrows",
          "type": "uint256"
        },
        {
          "indexed": false,
          "internalType": "uint256",
          "name": "totalBorrows",
          "type": "uint256"
        }
      ],
      "name": "Borrow",
      "type": "event"
    },
    {
      "anonymous": false,
      "inputs": [
        {
          "indexed": false,
          "internalType": "uint256",
          "name": "error",
          "type": "uint256"
        },
        {
          "indexed": false,
          "internalType": "uint256",
          "name": "info",
          "type": "uint256"
        },
        {
          "indexed": false,
          "internalType": "uint256",
          "name": "detail",
          "type": "uint256"
        }
      ],
      "name": "Failure",
      "type": "event"
    },
    {
      "anonymous": false,
      "inputs": [
        {
          "indexed": false,
          "internalType": "address",
          "name": "liquidator",
          "type": "address"
        },
        {
          "indexed": false,
          "internalType": "address",
          "name": "borrower",
          "type": "address"
        },
        {
          "indexed": false,
          "internalType": "uint256",
          "name": "repayAmount",
          "type": "uint256"
        },
        {
          "indexed": false,
          "internalType": "address",
          "name": "cTokenCollateral",
          "type": "address"
        },
        {
          "indexed": false,
          "internalType": "uint256",
          "name": "seizeTokens",
          "type": "uint256"
        }
      ],
      "name": "LiquidateBorrow",
      "type": "event"
    },
    {
      "anonymous": false,
      "inputs": [
        {
          "indexed": false,
          "internalType": "address",
          "name": "minter",
          "type": "address"
        },
        {
          "indexed": false,
          "internalType": "uint256",
          "name": "mintAmount",
          "type": "uint256"
        },
        {
          "indexed": false,
          "internalType": "uint256",
          "name": "mintTokens",
          "type": "uint256"
        }
      ],
      "name": "Mint",
      "type": "event"
    },
    {
      "anonymous": false,
      "inputs": [
        {
          "indexed": false,
          "internalType": "address",
          "name": "oldAdmin",
          "type": "address"
        },
        {
          "indexed": false,
          "internalType": "address",
          "name": "newAdmin",
          "type": "address"
        }
      ],
      "name": "NewAdmin",
      "type": "event"
    },
    {
      "anonymous": false,
      "inputs": [
        {
          "indexed": false,
          "internalType": "contract ComptrollerInterface",
          "name": "oldComptroller",
          "type": "address"
        },
        {
          "indexed": false,
          "internalType": "contract ComptrollerInterface",
          "name": "newComptroller",
          "type": "address"
        }
      ],
      "name": "NewComptroller",
      "type": "event"
    },
    {
      "anonymous": false,
      "inputs": [
        {
          "indexed": false,
          "internalType": "contract InterestRateModel",
          "name": "oldInterestRateModel",
          "type": "address"
        },
        {
          "indexed": false,
          "internalType": "contract InterestRateModel",
          "name": "newInterestRateModel",
          "type": "address"
        }
      ],
      "name": "NewMarketInterestRateModel",
      "type": "event"
    },
    {
      "anonymous": false,
      "inputs": [
        {
          "indexed": false,
          "internalType": "address",
          "name": "oldPendingAdmin",
          "type": "address"
        },
        {
          "indexed": false,
          "internalType": "address",
          "name": "newPendingAdmin",
          "type": "address"
        }
      ],
      "name": "NewPendingAdmin",
      "type": "event"
    },
    {
      "anonymous": false,
      "inputs": [
        {
          "indexed": false,
          "internalType": "uint256",
          "name": "oldReserveFactorMantissa",
          "type": "uint256"
        },
        {
          "indexed": false,
          "internalType": "uint256",
          "name": "newReserveFactorMantissa",
          "type": "uint256"
        }
      ],
      "name": "NewReserveFactor",
      "type": "event"
    },
    {
      "anonymous": false,
      "inputs": [
        {
          "indexed": false,
          "internalType": "address",
          "name": "redeemer",
          "type": "address"
        },
        {
          "indexed": false,
          "internalType": "uint256",
          "name": "redeemAmount",
          "type": "uint256"
        },
        {
          "indexed": false,
          "internalType": "uint256",
          "name": "redeemTokens",
          "type": "uint256"
        }
      ],
      "name": "Redeem",
      "type": "event"
    },
    {
      "anonymous": false,
      "inputs": [
        {
          "indexed": false,
          "internalType": "address",
          "name": "payer",
          "type": "address"
        },
        {
          "indexed": false,
          "internalType": "address",
          "name": "borrower",
          "type": "address"
        },
        {
          "indexed": false,
          "internalType": "uint256",
          "name": "repayAmount",
          "type": "uint256"
        },
        {
          "indexed": false,
          "internalType": "uint256",
          "name": "accountBorrows",
          "type": "uint256"
        },
        {
          "indexed": false,
          "internalType": "uint256",
          "name": "totalBorrows",
          "type": "uint256"
        }
      ],
      "name": "RepayBorrow",
      "type": "event"
    },
    {
      "anonymous": false,
      "inputs": [
        {
          "indexed": false,
          "internalType": "address",
          "name": "benefactor",
          "type": "address"
        },
        {
          "indexed": false,
          "internalType": "uint256",
          "name": "addAmount",
          "type": "uint256"
        },
        {
          "indexed": false,
          "internalType": "uint256",
          "name": "newTotalReserves",
          "type": "uint256"
        }
      ],
      "name": "ReservesAdded",
      "type": "event"
    },
    {
      "anonymous": false,
      "inputs": [
        {
          "indexed": false,
          "internalType": "address",
          "name": "admin",
          "type": "address"
        },
        {
          "indexed": false,
          "internalType": "uint256",
          "name": "reduceAmount",
          "type": "uint256"
        },
        {
          "indexed": false,
          "internalType": "uint256",
          "name": "newTotalReserves",
          "type": "uint256"
        }
      ],
      "name": "ReservesReduced",
      "type": "event"
    },
    {
      "anonymous": false,
      "inputs": [
        {
          "indexed": true,
          "internalType": "address",
          "name": "from",
          "type": "address"
        },
        {
          "indexed": true,
          "internalType": "address",
          "name": "to",
          "type": "address"
        },
        {
          "indexed": false,
          "internalType": "uint256",
          "name": "amount",
          "type": "uint256"
        }
      ],
      "name": "Transfer",
      "type": "event"
    },
    {
      "constant": false,
      "inputs": [],
      "name": "_acceptAdmin",
      "outputs": [
        {
          "internalType": "uint256",
          "name": "",
          "type": "uint256"
        }
      ],
      "payable": false,
      "stateMutability": "nonpayable",
      "type": "function"
    },
    {
      "constant": false,
      "inputs": [
        {
          "internalType": "uint256",
          "name": "reduceAmount",
          "type": "uint256"
        }
      ],
      "name": "_reduceReserves",
      "outputs": [
        {
          "internalType": "uint256",
          "name": "",
          "type": "uint256"
        }
      ],
      "payable": false,
      "stateMutability": "nonpayable",
      "type": "function"
    },
    {
      "constant": false,
      "inputs": [
        {
          "internalType": "contract ComptrollerInterface",
          "name": "newComptroller",
          "type": "address"
        }
      ],
      "name": "_setComptroller",
      "outputs": [
        {
          "internalType": "uint256",
          "name": "",
          "type": "uint256"
        }
      ],
      "payable": false,
      "stateMutability": "nonpayable",
      "type": "function"
    },
    {
      "constant": false,
      "inputs": [
        {
          "internalType": "contract InterestRateModel",
          "name": "newInterestRateModel",
          "type": "address"
        }
      ],
      "name": "_setInterestRateModel",
      "outputs": [
        {
          "internalType": "uint256",
          "name": "",
          "type": "uint256"
        }
      ],
      "payable": false,
      "stateMutability": "nonpayable",
      "type": "function"
    },
    {
      "constant": false,
      "inputs": [
        {
          "internalType": "address payable",
          "name": "newPendingAdmin",
          "type": "address"
        }
      ],
      "name": "_setPendingAdmin",
      "outputs": [
        {
          "internalType": "uint256",
          "name": "",
          "type": "uint256"
        }
      ],
      "payable": false,
      "stateMutability": "nonpayable",
      "type": "function"
    },
    {
      "constant": false,
      "inputs": [
        {
          "internalType": "uint256",
          "name": "newReserveFactorMantissa",
          "type": "uint256"
        }
      ],
      "name": "_setReserveFactor",
      "outputs": [
        {
          "internalType": "uint256",
          "name": "",
          "type": "uint256"
        }
      ],
      "payable": false,
      "stateMutability": "nonpayable",
      "type": "function"
    },
    {
      "constant": true,
      "inputs": [],
      "name": "accrualBlockNumber",
      "outputs": [
        {
          "internalType": "uint256",
          "name": "",
          "type": "uint256"
        }
      ],
      "payable": false,
      "stateMutability": "view",
      "type": "function"
    },
    {
      "constant": false,
      "inputs": [],
      "name": "accrueInterest",
      "outputs": [
        {
          "internalType": "uint256",
          "name": "",
          "type": "uint256"
        }
      ],
      "payable": false,
      "stateMutability": "nonpayable",
      "type": "function"
    },
    {
      "constant": true,
      "inputs": [],
      "name": "admin",
      "outputs": [
        {
          "internalType": "address payable",
          "name": "",
          "type": "address"
        }
      ],
      "payable": false,
      "stateMutability": "view",
      "type": "function"
    },
    {
      "constant": true,
      "inputs": [
        {
          "internalType": "address",
          "name": "owner",
          "type": "address"
        },
        {
          "internalType": "address",
          "name": "spender",
          "type": "address"
        }
      ],
      "name": "allowance",
      "outputs": [
        {
          "internalType": "uint256",
          "name": "",
          "type": "uint256"
        }
      ],
      "payable": false,
      "stateMutability": "view",
      "type": "function"
    },
    {
      "constant": false,
      "inputs": [
        {
          "internalType": "address",
          "name": "spender",
          "type": "address"
        },
        {
          "internalType": "uint256",
          "name": "amount",
          "type": "uint256"
        }
      ],
      "name": "approve",
      "outputs": [
        {
          "internalType": "bool",
          "name": "",
          "type": "bool"
        }
      ],
      "payable": false,
      "stateMutability": "nonpayable",
      "type": "function"
    },
    {
      "constant": true,
      "inputs": [
        {
          "internalType": "address",
          "name": "owner",
          "type": "address"
        }
      ],
      "name": "balanceOf",
      "outputs": [
        {
          "internalType": "uint256",
          "name": "",
          "type": "uint256"
        }
      ],
      "payable": false,
      "stateMutability": "view",
      "type": "function"
    },
    {
      "constant": false,
      "inputs": [
        {
          "internalType": "address",
          "name": "owner",
          "type": "address"
        }
      ],
      "name": "balanceOfUnderlying",
      "outputs": [
        {
          "internalType": "uint256",
          "name": "",
          "type": "uint256"
        }
      ],
      "payable": false,
      "stateMutability": "nonpayable",
      "type": "function"
    },
    {
      "constant": false,
      "inputs": [
        {
          "internalType": "address",
          "name": "account",
          "type": "address"
        }
      ],
      "name": "borrowBalanceCurrent",
      "outputs": [
        {
          "internalType": "uint256",
          "name": "",
          "type": "uint256"
        }
      ],
      "payable": false,
      "stateMutability": "nonpayable",
      "type": "function"
    },
    {
      "constant": true,
      "inputs": [
        {
          "internalType": "address",
          "name": "account",
          "type": "address"
        }
      ],
      "name": "borrowBalanceStored",
      "outputs": [
        {
          "internalType": "uint256",
          "name": "",
          "type": "uint256"
        }
      ],
      "payable": false,
      "stateMutability": "view",
      "type": "function"
    },
    {
      "constant": true,
      "inputs": [],
      "name": "borrowIndex",
      "outputs": [
        {
          "internalType": "uint256",
          "name": "",
          "type": "uint256"
        }
      ],
      "payable": false,
      "stateMutability": "view",
      "type": "function"
    },
    {
      "constant": true,
      "inputs": [],
      "name": "borrowRatePerBlock",
      "outputs": [
        {
          "internalType": "uint256",
          "name": "",
          "type": "uint256"
        }
      ],
      "payable": false,
      "stateMutability": "view",
      "type": "function"
    },
    {
      "constant": true,
      "inputs": [],
      "name": "comptroller",
      "outputs": [
        {
          "internalType": "contract ComptrollerInterface",
          "name": "",
          "type": "address"
        }
      ],
      "payable": false,
      "stateMutability": "view",
      "type": "function"
    },
    {
      "constant": true,
      "inputs": [],
      "name": "decimals",
      "outputs": [
        {
          "internalType": "uint8",
          "name": "",
          "type": "uint8"
        }
      ],
      "payable": false,
      "stateMutability": "view",
      "type": "function"
    },
    {
      "constant": false,
      "inputs": [],
      "name": "exchangeRateCurrent",
      "outputs": [
        {
          "internalType": "uint256",
          "name": "",
          "type": "uint256"
        }
      ],
      "payable": false,
      "stateMutability": "nonpayable",
      "type": "function"
    },
    {
      "constant": true,
      "inputs": [],
      "name": "exchangeRateStored",
      "outputs": [
        {
          "internalType": "uint256",
          "name": "",
          "type": "uint256"
        }
      ],
      "payable": false,
      "stateMutability": "view",
      "type": "function"
    },
    {
      "constant": true,
      "inputs": [
        {
          "internalType": "address",
          "name": "account",
          "type": "address"
        }
      ],
      "name": "getAccountSnapshot",
      "outputs": [
        {
          "internalType": "uint256",
          "name": "",
          "type": "uint256"
        },
        {
          "internalType": "uint256",
          "name": "",
          "type": "uint256"
        },
        {
          "internalType": "uint256",
          "name": "",
          "type": "uint256"
        },
        {
          "internalType": "uint256",
          "name": "",
          "type": "uint256"
        }
      ],
      "payable": false,
      "stateMutability": "view",
      "type": "function"
    },
    {
      "constant": true,
      "inputs": [],
      "name": "getCash",
      "outputs": [
        {
          "internalType": "uint256",
          "name": "",
          "type": "uint256"
        }
      ],
      "payable": false,
      "stateMutability": "view",
      "type": "function"
    },
    {
      "constant": true,
      "inputs": [],
      "name": "interestRateModel",
      "outputs": [
        {
          "internalType": "contract InterestRateModel",
          "name": "",
          "type": "address"
        }
      ],
      "payable": false,
      "stateMutability": "view",
      "type": "function"
    },
    {
      "constant": true,
      "inputs": [],
      "name": "isCToken",
      "outputs": [
        {
          "internalType": "bool",
          "name": "",
          "type": "bool"
        }
      ],
      "payable": false,
      "stateMutability": "view",
      "type": "function"
    },
    {
      "constant": true,
      "inputs": [],
      "name": "name",
      "outputs": [
        {
          "internalType": "string",
          "name": "",
          "type": "string"
        }
      ],
      "payable": false,
      "stateMutability": "view",
      "type": "function"
    },
    {
      "constant": true,
      "inputs": [],
      "name": "pendingAdmin",
      "outputs": [
        {
          "internalType": "address payable",
          "name": "",
          "type": "address"
        }
      ],
      "payable": false,
      "stateMutability": "view",
      "type": "function"
    },
    {
      "constant": true,
      "inputs": [],
      "name": "protocolSeizeShareMantissa",
      "outputs": [
        {
          "internalType": "uint256",
          "name": "",
          "type": "uint256"
        }
      ],
      "payable": false,
      "stateMutability": "view",
      "type": "function"
    },
    {
      "constant": true,
      "inputs": [],
      "name": "reserveFactorMantissa",
      "outputs": [
        {
          "internalType": "uint256",
          "name": "",
          "type": "uint256"
        }
      ],
      "payable": false,
      "stateMutability": "view",
      "type": "function"
    },
    {
      "constant": false,
      "inputs": [
        {
          "internalType": "address",
          "name": "liquidator",
          "type": "address"
        },
        {
          "internalType": "address",
          "name": "borrower",
          "type": "address"
        },
        {
          "internalType": "uint256",
          "name": "seizeTokens",
          "type": "uint256"
        }
      ],
      "name": "seize",
      "outputs": [
        {
          "internalType": "uint256",
          "name": "",
          "type": "uint256"
        }
      ],
      "payable": false,
      "stateMutability": "nonpayable",
      "type": "function"
    },
    {
      "constant": true,
      "inputs": [],
      "name": "supplyRatePerBlock",
      "outputs": [
        {
          "internalType": "uint256",
          "name": "",
          "type": "uint256"
        }
      ],
      "payable": false,
      "stateMutability": "view",
      "type": "function"
    },
    {
      "constant": true,
      "inputs": [],
      "name": "symbol",
      "outputs": [
        {
          "internalType": "string",
          "name": "",
          "type": "string"
        }
      ],
      "payable": false,
      "stateMutability": "view",
      "type": "function"
    },
    {
      "constant": true,
      "inputs": [],
      "name": "totalBorrows",
      "outputs": [
        {
          "internalType": "uint256",
          "name": "",
          "type": "uint256"
        }
      ],
      "payable": false,
      "stateMutability": "view",
      "type": "function"
    },
    {
      "constant": false,
      "inputs": [],
      "name": "totalBorrowsCurrent",
      "outputs": [
        {
          "internalType": "uint256",
          "name": "",
          "type": "uint256"
        }
      ],
      "payable": false,
      "stateMutability": "nonpayable",
      "type": "function"
    },
    {
      "constant": true,
      "inputs": [],
      "name": "totalReserves",
      "outputs": [
        {
          "internalType": "uint256",
          "name": "",
          "type": "uint256"
        }
      ],
      "payable": false,
      "stateMutability": "view",
      "type": "function"
    },
    {
      "constant": true,
      "inputs": [],
      "name": "totalSupply",
      "outputs": [
        {
          "internalType": "uint256",
          "name": "",
          "type": "uint256"
        }
      ],
      "payable": false,
      "stateMutability": "view",
      "type": "function"
    },
    {
      "constant": false,
      "inputs": [
        {
          "internalType": "address",
          "name": "dst",
          "type": "address"
        },
        {
          "internalType": "uint256",
          "name": "amount",
          "type": "uint256"
        }
      ],
      "name": "transfer",
      "outputs": [
        {
          "internalType": "bool",
          "name": "",
          "type": "bool"
        }
      ],
      "payable": false,
      "stateMutability": "nonpayable",
      "type": "function"
    },
    {
      "constant": false,
      "inputs": [
        {
          "internalType": "address",
          "name": "src",
          "type": "address"
        },
        {
          "internalType": "address",
          "name": "dst",
          "type": "address"
        },
        {
          "internalType": "uint256",
          "name": "amount",
          "type": "uint256"
        }
      ],
      "name": "transferFrom",
      "outputs": [
        {
          "internalType": "bool",
          "name": "",
          "type": "bool"
        }
      ],
      "payable": false,
      "stateMutability": "nonpayable",
      "type": "function"
    },
    {
      "constant": true,
      "inputs": [],
      "name": "underlying",
      "outputs": [
        {
          "internalType": "address",
          "name": "",
          "type": "address"
        }
      ],
      "payable": false,
      "stateMutability": "view",
      "type": "function"
    },
    {
      "constant": false,
      "inputs": [
        {
          "internalType": "address",
          "name": "underlying_",
          "type": "address"
        },
        {
          "internalType": "contract ComptrollerInterface",
          "name": "comptroller_",
          "type": "address"
        },
        {
          "internalType": "contract InterestRateModel",
          "name": "interestRateModel_",
          "type": "address"
        },
        {
          "internalType": "uint256",
          "name": "initialExchangeRateMantissa_",
          "type": "uint256"
        },
        {
          "internalType": "string",
          "name": "name_",
          "type": "string"
        },
        {
          "internalType": "string",
          "name": "symbol_",
          "type": "string"
        },
        {
          "internalType": "uint8",
          "name": "decimals_",
          "type": "uint8"
        }
      ],
      "name": "initialize",
      "outputs": [],
      "payable": false,
      "stateMutability": "nonpayable",
      "type": "function"
    },
    {
      "constant": false,
      "inputs": [
        {
          "internalType": "contract ComptrollerInterface",
          "name": "comptroller_",
          "type": "address"
        },
        {
          "internalType": "contract InterestRateModel",
          "name": "interestRateModel_",
          "type": "address"
        },
        {
          "internalType": "uint256",
          "name": "initialExchangeRateMantissa_",
          "type": "uint256"
        },
        {
          "internalType": "string",
          "name": "name_",
          "type": "string"
        },
        {
          "internalType": "string",
          "name": "symbol_",
          "type": "string"
        },
        {
          "internalType": "uint8",
          "name": "decimals_",
          "type": "uint8"
        }
      ],
      "name": "initialize",
      "outputs": [],
      "payable": false,
      "stateMutability": "nonpayable",
      "type": "function"
    },
    {
      "constant": false,
      "inputs": [
        {
          "internalType": "uint256",
          "name": "mintAmount",
          "type": "uint256"
        }
      ],
      "name": "mint",
      "outputs": [
        {
          "internalType": "uint256",
          "name": "",
          "type": "uint256"
        }
      ],
      "payable": false,
      "stateMutability": "nonpayable",
      "type": "function"
    },
    {
      "constant": false,
      "inputs": [
        {
          "internalType": "uint256",
          "name": "redeemTokens",
          "type": "uint256"
        }
      ],
      "name": "redeem",
      "outputs": [
        {
          "internalType": "uint256",
          "name": "",
          "type": "uint256"
        }
      ],
      "payable": false,
      "stateMutability": "nonpayable",
      "type": "function"
    },
    {
      "constant": false,
      "inputs": [
        {
          "internalType": "uint256",
          "name": "redeemAmount",
          "type": "uint256"
        }
      ],
      "name": "redeemUnderlying",
      "outputs": [
        {
          "internalType": "uint256",
          "name": "",
          "type": "uint256"
        }
      ],
      "payable": false,
      "stateMutability": "nonpayable",
      "type": "function"
    },
    {
      "constant": false,
      "inputs": [
        {
          "internalType": "uint256",
          "name": "borrowAmount",
          "type": "uint256"
        }
      ],
      "name": "borrow",
      "outputs": [
        {
          "internalType": "uint256",
          "name": "",
          "type": "uint256"
        }
      ],
      "payable": false,
      "stateMutability": "nonpayable",
      "type": "function"
    },
    {
      "constant": false,
      "inputs": [
        {
          "internalType": "uint256",
          "name": "repayAmount",
          "type": "uint256"
        }
      ],
      "name": "repayBorrow",
      "outputs": [
        {
          "internalType": "uint256",
          "name": "",
          "type": "uint256"
        }
      ],
      "payable": false,
      "stateMutability": "nonpayable",
      "type": "function"
    },
    {
      "constant": false,
      "inputs": [
        {
          "internalType": "address",
          "name": "borrower",
          "type": "address"
        },
        {
          "internalType": "uint256",
          "name": "repayAmount",
          "type": "uint256"
        }
      ],
      "name": "repayBorrowBehalf",
      "outputs": [
        {
          "internalType": "uint256",
          "name": "",
          "type": "uint256"
        }
      ],
      "payable": false,
      "stateMutability": "nonpayable",
      "type": "function"
    },
    {
      "constant": false,
      "inputs": [
        {
          "internalType": "address",
          "name": "borrower",
          "type": "address"
        },
        {
          "internalType": "uint256",
          "name": "repayAmount",
          "type": "uint256"
        },
        {
          "internalType": "contract CTokenInterface",
          "name": "cTokenCollateral",
          "type": "address"
        }
      ],
      "name": "liquidateBorrow",
      "outputs": [
        {
          "internalType": "uint256",
          "name": "",
          "type": "uint256"
        }
      ],
      "payable": false,
      "stateMutability": "nonpayable",
      "type": "function"
    },
    {
      "constant": false,
      "inputs": [
        {
          "internalType": "contract EIP20NonStandardInterface",
          "name": "token",
          "type": "address"
        }
      ],
      "name": "sweepToken",
      "outputs": [],
      "payable": false,
      "stateMutability": "nonpayable",
      "type": "function"
    },
    {
      "constant": false,
      "inputs": [
        {
          "internalType": "uint256",
          "name": "addAmount",
          "type": "uint256"
        }
      ],
      "name": "_addReserves",
      "outputs": [
        {
          "internalType": "uint256",
          "name": "",
          "type": "uint256"
        }
      ],
      "payable": false,
      "stateMutability": "nonpayable",
      "type": "function"
    },
    {
      "constant": false,
      "inputs": [
        {
          "internalType": "address",
          "name": "compLikeDelegatee",
          "type": "address"
        }
      ],
      "name": "_delegateCompLikeTo",
      "outputs": [],
      "payable": false,
      "stateMutability": "nonpayable",
      "type": "function"
    }
  ],
  "bytecode": "0x60806040523480156200001157600080fd5b50618c1180620000226000396000f3fe608060405234801561001057600080fd5b50600436106102f15760003560e01c80637f1e06be1161019d578063bd6d894d116100e9578063f2b3abbd116100a2578063f851a4401161007c578063f851a440146112b9578063f8f9da2814611303578063fca7820b14611321578063fe9c44ae14611363576102f1565b8063f2b3abbd14611195578063f3fdb15a146111ed578063f5e3c46214611237576102f1565b8063bd6d894d14610ff0578063c37f68e21461100e578063c5ebeaec1461107b578063db006a75146110bd578063dd62ed3e146110ff578063e9c714f214611177576102f1565b8063a0712d6811610156578063aa5af0fd11610130578063aa5af0fd14610eda578063ae9d70b014610ef8578063b2a02ff114610f16578063b71d1a0c14610f98576102f1565b8063a0712d6814610e14578063a6afed9514610e56578063a9059cbb14610e74576102f1565b80637f1e06be14610aec578063852a12e314610b305780638f840ddd14610b7257806395d89b4114610b9057806395dd919314610c1357806399d8c1b414610c6b576102f1565b8063313ce5671161025c5780635fe3b567116102155780636c540baf116101ef5780636c540baf14610a0e5780636f307dc314610a2c57806370a0823114610a7657806373acee9814610ace576102f1565b80635fe3b56714610964578063601a0bf1146109ae5780636752e702146109f0576102f1565b8063313ce567146108125780633af9e669146108365780633b1d21a21461088e5780633e941010146108ac5780634576b5db146108ee57806347bd371814610946576102f1565b8063182df0f5116102ae578063182df0f5146104b55780631a31d465146104d35780631be195601461069c57806323b872dd146106e05780632608f8181461076657806326782247146107c8576102f1565b806306fdde03146102f6578063095ea7b3146103795780630e752702146103df578063173b99041461042157806317bfdfbc1461043f57806318160ddd14610497575b600080fd5b6102fe611385565b6040518080602001828103825283818151815260200191508051906020019080838360005b8381101561033e578082015181840152602081019050610323565b50505050905090810190601f16801561036b5780820380516001836020036101000a031916815260200191505b509250505060405180910390f35b6103c56004803603604081101561038f57600080fd5b81019080803573ffffffffffffffffffffffffffffffffffffffff16906020019092919080359060200190929190505050611423565b604051808215151515815260200191505060405180910390f35b61040b600480360360208110156103f557600080fd5b810190808035906020019092919050505061151a565b6040518082815260200191505060405180910390f35b610429611532565b6040518082815260200191505060405180910390f35b6104816004803603602081101561045557600080fd5b81019080803573ffffffffffffffffffffffffffffffffffffffff169060200190929190505050611538565b6040518082815260200191505060405180910390f35b61049f611687565b6040518082815260200191505060405180910390f35b6104bd61168d565b6040518082815260200191505060405180910390f35b61069a600480360360e08110156104e957600080fd5b81019080803573ffffffffffffffffffffffffffffffffffffffff169060200190929190803573ffffffffffffffffffffffffffffffffffffffff169060200190929190803573ffffffffffffffffffffffffffffffffffffffff169060200190929190803590602001909291908035906020019064010000000081111561057057600080fd5b82018360208201111561058257600080fd5b803590602001918460018302840111640100000000831117156105a457600080fd5b91908080601f016020809104026020016040519081016040528093929190818152602001838380828437600081840152601f19601f8201169050808301925050505050505091929192908035906020019064010000000081111561060757600080fd5b82018360208201111561061957600080fd5b8035906020019184600183028401116401000000008311171561063b57600080fd5b91908080601f016020809104026020016040519081016040528093929190818152602001838380828437600081840152601f19601f820116905080830192505050505050509192919290803560ff169060200190929190505050611715565b005b6106de600480360360208110156106b257600080fd5b81019080803573ffffffffffffffffffffffffffffffffffffffff169060200190929190505050611811565b005b61074c600480360360608110156106f657600080fd5b81019080803573ffffffffffffffffffffffffffffffffffffffff169060200190929190803573ffffffffffffffffffffffffffffffffffffffff16906020019092919080359060200190929190505050611a39565b604051808215151515815260200191505060405180910390f35b6107b26004803603604081101561077c57600080fd5b81019080803573ffffffffffffffffffffffffffffffffffffffff16906020019092919080359060200190929190505050611b13565b6040518082815260200191505060405180910390f35b6107d0611b2d565b604051808273ffffffffffffffffffffffffffffffffffffffff1673ffffffffffffffffffffffffffffffffffffffff16815260200191505060405180910390f35b61081a611b53565b604051808260ff1660ff16815260200191505060405180910390f35b6108786004803603602081101561084c57600080fd5b81019080803573ffffffffffffffffffffffffffffffffffffffff169060200190929190505050611b66565b6040518082815260200191505060405180910390f35b610896611c6f565b6040518082815260200191505060405180910390f35b6108d8600480360360208110156108c257600080fd5b8101908080359060200190929190505050611c7e565b6040518082815260200191505060405180910390f35b6109306004803603602081101561090457600080fd5b81019080803573ffffffffffffffffffffffffffffffffffffffff169060200190929190505050611c90565b6040518082815260200191505060405180910390f35b61094e611f01565b6040518082815260200191505060405180910390f35b61096c611f07565b604051808273ffffffffffffffffffffffffffffffffffffffff1673ffffffffffffffffffffffffffffffffffffffff16815260200191505060405180910390f35b6109da600480360360208110156109c457600080fd5b8101908080359060200190929190505050611f2d565b6040518082815260200191505060405180910390f35b6109f8612033565b6040518082815260200191505060405180910390f35b610a1661203e565b6040518082815260200191505060405180910390f35b610a34612044565b604051808273ffffffffffffffffffffffffffffffffffffffff1673ffffffffffffffffffffffffffffffffffffffff16815260200191505060405180910390f35b610ab860048036036020811015610a8c57600080fd5b81019080803573ffffffffffffffffffffffffffffffffffffffff16906020019092919050505061206a565b6040518082815260200191505060405180910390f35b610ad66120b3565b6040518082815260200191505060405180910390f35b610b2e60048036036020811015610b0257600080fd5b81019080803573ffffffffffffffffffffffffffffffffffffffff1690602001909291905050506121fa565b005b610b5c60048036036020811015610b4657600080fd5b810190808035906020019092919050505061235c565b6040518082815260200191505060405180910390f35b610b7a61236e565b6040518082815260200191505060405180910390f35b610b98612374565b6040518080602001828103825283818151815260200191508051906020019080838360005b83811015610bd8578082015181840152602081019050610bbd565b50505050905090810190601f168015610c055780820380516001836020036101000a031916815260200191505b509250505060405180910390f35b610c5560048036036020811015610c2957600080fd5b81019080803573ffffffffffffffffffffffffffffffffffffffff169060200190929190505050612412565b6040518082815260200191505060405180910390f35b610e12600480360360c0811015610c8157600080fd5b81019080803573ffffffffffffffffffffffffffffffffffffffff169060200190929190803573ffffffffffffffffffffffffffffffffffffffff1690602001909291908035906020019092919080359060200190640100000000811115610ce857600080fd5b820183602082011115610cfa57600080fd5b80359060200191846001830284011164010000000083111715610d1c57600080fd5b91908080601f016020809104026020016040519081016040528093929190818152602001838380828437600081840152601f19601f82011690508083019250505050505050919291929080359060200190640100000000811115610d7f57600080fd5b820183602082011115610d9157600080fd5b80359060200191846001830284011164010000000083111715610db357600080fd5b91908080601f016020809104026020016040519081016040528093929190818152602001838380828437600081840152601f19601f820116905080830192505050505050509192919290803560ff16906020019092919050505061249d565b005b610e4060048036036020811015610e2a57600080fd5b8101908080359060200190929190505050612794565b6040518082815260200191505060405180910390f35b610e5e6127ac565b6040518082815260200191505060405180910390f35b610ec060048036036040811015610e8a57600080fd5b81019080803573ffffffffffffffffffffffffffffffffffffffff16906020019092919080359060200190929190505050612c65565b604051808215151515815260200191505060405180910390f35b610ee2612d3e565b6040518082815260200191505060405180910390f35b610f00612d44565b6040518082815260200191505060405180910390f35b610f8260048036036060811015610f2c57600080fd5b81019080803573ffffffffffffffffffffffffffffffffffffffff169060200190929190803573ffffffffffffffffffffffffffffffffffffffff16906020019092919080359060200190929190505050612e1e565b6040518082815260200191505060405180910390f35b610fda60048036036020811015610fae57600080fd5b81019080803573ffffffffffffffffffffffffffffffffffffffff169060200190929190505050612eea565b6040518082815260200191505060405180910390f35b610ff8613069565b6040518082815260200191505060405180910390f35b6110506004803603602081101561102457600080fd5b81019080803573ffffffffffffffffffffffffffffffffffffffff1690602001909291905050506131b5565b6040518085815260200184815260200183815260200182815260200194505050505060405180910390f35b6110a76004803603602081101561109157600080fd5b81019080803590602001909291905050506132dd565b6040518082815260200191505060405180910390f35b6110e9600480360360208110156110d357600080fd5b81019080803590602001909291905050506132ef565b6040518082815260200191505060405180910390f35b6111616004803603604081101561111557600080fd5b81019080803573ffffffffffffffffffffffffffffffffffffffff169060200190929190803573ffffffffffffffffffffffffffffffffffffffff169060200190929190505050613301565b6040518082815260200191505060405180910390f35b61117f613388565b6040518082815260200191505060405180910390f35b6111d7600480360360208110156111ab57600080fd5b81019080803573ffffffffffffffffffffffffffffffffffffffff1690602001909291905050506136a5565b6040518082815260200191505060405180910390f35b6111f56136f5565b604051808273ffffffffffffffffffffffffffffffffffffffff1673ffffffffffffffffffffffffffffffffffffffff16815260200191505060405180910390f35b6112a36004803603606081101561124d57600080fd5b81019080803573ffffffffffffffffffffffffffffffffffffffff16906020019092919080359060200190929190803573ffffffffffffffffffffffffffffffffffffffff16906020019092919050505061371b565b6040518082815260200191505060405180910390f35b6112c1613737565b604051808273ffffffffffffffffffffffffffffffffffffffff1673ffffffffffffffffffffffffffffffffffffffff16815260200191505060405180910390f35b61130b61375d565b6040518082815260200191505060405180910390f35b61134d6004803603602081101561133757600080fd5b810190808035906020019092919050505061382d565b6040518082815260200191505060405180910390f35b61136b613933565b604051808215151515815260200191505060405180910390f35b60018054600181600116156101000203166002900480601f01602080910402602001604051908101604052809291908181526020018280546001816001161561010002031660029004801561141b5780601f106113f05761010080835404028352916020019161141b565b820191906000526020600020905b8154815290600101906020018083116113fe57829003601f168201915b505050505081565b60008033905082600f60008373ffffffffffffffffffffffffffffffffffffffff1673ffffffffffffffffffffffffffffffffffffffff16815260200190815260200160002060008673ffffffffffffffffffffffffffffffffffffffff1673ffffffffffffffffffffffffffffffffffffffff168152602001908152602001600020819055508373ffffffffffffffffffffffffffffffffffffffff168173ffffffffffffffffffffffffffffffffffffffff167f8c5be1e5ebec7d5bd14f71427d1e84f3dd0314c0f7b2291e5b200ac8c7c3b925856040518082815260200191505060405180910390a3600191505092915050565b60008061152683613938565b50905080915050919050565b60085481565b60008060009054906101000a900460ff166115bb576040517f08c379a000000000000000000000000000000000000000000000000000000000815260040180806020018281038252600a8152602001807f72652d656e74657265640000000000000000000000000000000000000000000081525060200191505060405180910390fd5b60008060006101000a81548160ff021916908315150217905550600060108111156115e257fe5b6115ea6127ac565b1461165d576040517f08c379a00000000000000000000000000000000000000000000000000000000081526004018080602001828103825260168152602001807f61636372756520696e746572657374206661696c65640000000000000000000081525060200191505060405180910390fd5b61166682612412565b905060016000806101000a81548160ff021916908315150217905550919050565b600d5481565b600080600061169a613a4a565b91509150600060038111156116ab57fe5b8260038111156116b757fe5b1461170d576040517f08c379a0000000000000000000000000000000000000000000000000000000008152600401808060200182810382526035815260200180618b286035913960400191505060405180910390fd5b809250505090565b61172386868686868661249d565b86601160006101000a81548173ffffffffffffffffffffffffffffffffffffffff021916908373ffffffffffffffffffffffffffffffffffffffff160217905550601160009054906101000a900473ffffffffffffffffffffffffffffffffffffffff1673ffffffffffffffffffffffffffffffffffffffff166318160ddd6040518163ffffffff1660e01b815260040160206040518083038186803b1580156117cc57600080fd5b505afa1580156117e0573d6000803e3d6000fd5b505050506040513d60208110156117f657600080fd5b81019080805190602001909291905050505050505050505050565b601160009054906101000a900473ffffffffffffffffffffffffffffffffffffffff1673ffffffffffffffffffffffffffffffffffffffff168173ffffffffffffffffffffffffffffffffffffffff1614156118b8576040517f08c379a00000000000000000000000000000000000000000000000000000000081526004018080602001828103825260328152602001806189776032913960400191505060405180910390fd5b60008173ffffffffffffffffffffffffffffffffffffffff166370a08231306040518263ffffffff1660e01b8152600401808273ffffffffffffffffffffffffffffffffffffffff1673ffffffffffffffffffffffffffffffffffffffff16815260200191505060206040518083038186803b15801561193757600080fd5b505afa15801561194b573d6000803e3d6000fd5b505050506040513d602081101561196157600080fd5b810190808051906020019092919050505090508173ffffffffffffffffffffffffffffffffffffffff1663a9059cbb600360019054906101000a900473ffffffffffffffffffffffffffffffffffffffff16836040518363ffffffff1660e01b8152600401808373ffffffffffffffffffffffffffffffffffffffff1673ffffffffffffffffffffffffffffffffffffffff16815260200182815260200192505050600060405180830381600087803b158015611a1d57600080fd5b505af1158015611a31573d6000803e3d6000fd5b505050505050565b60008060009054906101000a900460ff16611abc576040517f08c379a000000000000000000000000000000000000000000000000000000000815260040180806020018281038252600a8152602001807f72652d656e74657265640000000000000000000000000000000000000000000081525060200191505060405180910390fd5b60008060006101000a81548160ff02191690831515021790555060006010811115611ae357fe5b611aef33868686613b26565b14905060016000806101000a81548160ff0219169083151502179055509392505050565b600080611b2084846140d0565b5090508091505092915050565b600460009054906101000a900473ffffffffffffffffffffffffffffffffffffffff1681565b600360009054906101000a900460ff1681565b6000611b706186ec565b6040518060200160405280611b83613069565b8152509050600080611bd483600e60008873ffffffffffffffffffffffffffffffffffffffff1673ffffffffffffffffffffffffffffffffffffffff168152602001908152602001600020546141e4565b9150915060006003811115611be557fe5b826003811115611bf157fe5b14611c64576040517f08c379a000000000000000000000000000000000000000000000000000000000815260040180806020018281038252601f8152602001807f62616c616e636520636f756c64206e6f742062652063616c63756c617465640081525060200191505060405180910390fd5b809350505050919050565b6000611c79614247565b905090565b6000611c898261432d565b9050919050565b6000600360019054906101000a900473ffffffffffffffffffffffffffffffffffffffff1673ffffffffffffffffffffffffffffffffffffffff163373ffffffffffffffffffffffffffffffffffffffff1614611cfa57611cf36001603f614439565b9050611efc565b6000600560009054906101000a900473ffffffffffffffffffffffffffffffffffffffff1690508273ffffffffffffffffffffffffffffffffffffffff16627e3dd26040518163ffffffff1660e01b815260040160206040518083038186803b158015611d6657600080fd5b505afa158015611d7a573d6000803e3d6000fd5b505050506040513d6020811015611d9057600080fd5b8101908080519060200190929190505050611e13576040517f08c379a000000000000000000000000000000000000000000000000000000000815260040180806020018281038252601c8152602001807f6d61726b6572206d6574686f642072657475726e65642066616c73650000000081525060200191505060405180910390fd5b82600560006101000a81548173ffffffffffffffffffffffffffffffffffffffff021916908373ffffffffffffffffffffffffffffffffffffffff1602179055507f7ac369dbd14fa5ea3f473ed67cc9d598964a77501540ba6751eb0b3decf5870d8184604051808373ffffffffffffffffffffffffffffffffffffffff1673ffffffffffffffffffffffffffffffffffffffff1681526020018273ffffffffffffffffffffffffffffffffffffffff1673ffffffffffffffffffffffffffffffffffffffff1681526020019250505060405180910390a160006010811115611ef857fe5b9150505b919050565b600b5481565b600560009054906101000a900473ffffffffffffffffffffffffffffffffffffffff1681565b60008060009054906101000a900460ff16611fb0576040517f08c379a000000000000000000000000000000000000000000000000000000000815260040180806020018281038252600a8152602001807f72652d656e74657265640000000000000000000000000000000000000000000081525060200191505060405180910390fd5b60008060006101000a81548160ff0219169083151502179055506000611fd46127ac565b905060006010811115611fe357fe5b811461200757611fff816010811115611ff857fe5b6030614439565b915050612014565b612010836144ad565b9150505b60016000806101000a81548160ff021916908315150217905550919050565b666379da05b6000081565b60095481565b601160009054906101000a900473ffffffffffffffffffffffffffffffffffffffff1681565b6000600e60008373ffffffffffffffffffffffffffffffffffffffff1673ffffffffffffffffffffffffffffffffffffffff168152602001908152602001600020549050919050565b60008060009054906101000a900460ff16612136576040517f08c379a000000000000000000000000000000000000000000000000000000000815260040180806020018281038252600a8152602001807f72652d656e74657265640000000000000000000000000000000000000000000081525060200191505060405180910390fd5b60008060006101000a81548160ff0219169083151502179055506000601081111561215d57fe5b6121656127ac565b146121d8576040517f08c379a00000000000000000000000000000000000000000000000000000000081526004018080602001828103825260168152602001807f61636372756520696e746572657374206661696c65640000000000000000000081525060200191505060405180910390fd5b600b54905060016000806101000a81548160ff02191690831515021790555090565b600360019054906101000a900473ffffffffffffffffffffffffffffffffffffffff1673ffffffffffffffffffffffffffffffffffffffff163373ffffffffffffffffffffffffffffffffffffffff16146122a0576040517f08c379a000000000000000000000000000000000000000000000000000000000815260040180806020018281038252602d8152602001806189d9602d913960400191505060405180910390fd5b601160009054906101000a900473ffffffffffffffffffffffffffffffffffffffff1673ffffffffffffffffffffffffffffffffffffffff16635c19a95c826040518263ffffffff1660e01b8152600401808273ffffffffffffffffffffffffffffffffffffffff1673ffffffffffffffffffffffffffffffffffffffff168152602001915050600060405180830381600087803b15801561234157600080fd5b505af1158015612355573d6000803e3d6000fd5b5050505050565b6000612367826146be565b9050919050565b600c5481565b60028054600181600116156101000203166002900480601f01602080910402602001604051908101604052809291908181526020018280546001816001161561010002031660029004801561240a5780601f106123df5761010080835404028352916020019161240a565b820191906000526020600020905b8154815290600101906020018083116123ed57829003601f168201915b505050505081565b6000806000612420846147c7565b915091506000600381111561243157fe5b82600381111561243d57fe5b14612493576040517f08c379a0000000000000000000000000000000000000000000000000000000008152600401808060200182810382526037815260200180618a536037913960400191505060405180910390fd5b8092505050919050565b600360019054906101000a900473ffffffffffffffffffffffffffffffffffffffff1673ffffffffffffffffffffffffffffffffffffffff163373ffffffffffffffffffffffffffffffffffffffff1614612543576040517f08c379a00000000000000000000000000000000000000000000000000000000081526004018080602001828103825260248152602001806189306024913960400191505060405180910390fd5b600060095414801561255757506000600a54145b6125ac576040517f08c379a00000000000000000000000000000000000000000000000000000000081526004018080602001828103825260238152602001806189546023913960400191505060405180910390fd5b8360078190555060006007541161260e576040517f08c379a00000000000000000000000000000000000000000000000000000000081526004018080602001828103825260308152602001806189a96030913960400191505060405180910390fd5b600061261987611c90565b90506000601081111561262857fe5b811461269c576040517f08c379a000000000000000000000000000000000000000000000000000000000815260040180806020018281038252601a8152602001807f73657474696e6720636f6d7074726f6c6c6572206661696c656400000000000081525060200191505060405180910390fd5b6126a46148d2565b600981905550670de0b6b3a7640000600a819055506126c2866148da565b9050600060108111156126d157fe5b8114612728576040517f08c379a0000000000000000000000000000000000000000000000000000000008152600401808060200182810382526022815260200180618a066022913960400191505060405180910390fd5b836001908051906020019061273e9291906186ff565b5082600290805190602001906127559291906186ff565b5081600360006101000a81548160ff021916908360ff16021790555060016000806101000a81548160ff02191690831515021790555050505050505050565b6000806127a083614b70565b50905080915050919050565b6000806127b76148d2565b905060006009549050818114156127de57600060108111156127d557fe5b92505050612c62565b60006127e8614247565b90506000600b5490506000600c5490506000600a5490506000600660009054906101000a900473ffffffffffffffffffffffffffffffffffffffff1673ffffffffffffffffffffffffffffffffffffffff166315f240538686866040518463ffffffff1660e01b815260040180848152602001838152602001828152602001935050505060206040518083038186803b15801561288457600080fd5b505afa158015612898573d6000803e3d6000fd5b505050506040513d60208110156128ae57600080fd5b8101908080519060200190929190505050905065048c2739500081111561293d576040517f08c379a000000000000000000000000000000000000000000000000000000000815260040180806020018281038252601c8152602001807f626f72726f772072617465206973206162737572646c7920686967680000000081525060200191505060405180910390fd5b60008061294a8989614c81565b915091506000600381111561295b57fe5b82600381111561296757fe5b146129da576040517f08c379a000000000000000000000000000000000000000000000000000000000815260040180806020018281038252601f8152602001807f636f756c64206e6f742063616c63756c61746520626c6f636b2064656c74610081525060200191505060405180910390fd5b6129e26186ec565b600080600080612a0060405180602001604052808a81525087614cac565b809650819850505060006003811115612a1557fe5b876003811115612a2157fe5b14612a5357612a3e60096006896003811115612a3957fe5b614d2a565b9e505050505050505050505050505050612c62565b612a5d858c6141e4565b809550819850505060006003811115612a7257fe5b876003811115612a7e57fe5b14612ab057612a9b60096001896003811115612a9657fe5b614d2a565b9e505050505050505050505050505050612c62565b612aba848c614d9e565b809450819850505060006003811115612acf57fe5b876003811115612adb57fe5b14612b0d57612af860096004896003811115612af357fe5b614d2a565b9e505050505050505050505050505050612c62565b612b286040518060200160405280600854815250858c614dd0565b809350819850505060006003811115612b3d57fe5b876003811115612b4957fe5b14612b7b57612b6660096005896003811115612b6157fe5b614d2a565b9e505050505050505050505050505050612c62565b612b86858a8b614dd0565b809250819850505060006003811115612b9b57fe5b876003811115612ba757fe5b14612bd957612bc460096003896003811115612bbf57fe5b614d2a565b9e505050505050505050505050505050612c62565b8d60098190555080600a8190555082600b8190555081600c819055507f4dec04e750ca11537cabcd8a9eab06494de08da3735bc8871cd41250e190bc048c8583866040518085815260200184815260200183815260200182815260200194505050505060405180910390a160006010811115612c5157fe5b9e5050505050505050505050505050505b90565b60008060009054906101000a900460ff16612ce8576040517f08c379a000000000000000000000000000000000000000000000000000000000815260040180806020018281038252600a8152602001807f72652d656e74657265640000000000000000000000000000000000000000000081525060200191505060405180910390fd5b60008060006101000a81548160ff02191690831515021790555060006010811115612d0f57fe5b612d1b33338686613b26565b14905060016000806101000a81548160ff02191690831515021790555092915050565b600a5481565b6000600660009054906101000a900473ffffffffffffffffffffffffffffffffffffffff1673ffffffffffffffffffffffffffffffffffffffff1663b8168816612d8c614247565b600b54600c546008546040518563ffffffff1660e01b81526004018085815260200184815260200183815260200182815260200194505050505060206040518083038186803b158015612dde57600080fd5b505afa158015612df2573d6000803e3d6000fd5b505050506040513d6020811015612e0857600080fd5b8101908080519060200190929190505050905090565b60008060009054906101000a900460ff16612ea1576040517f08c379a000000000000000000000000000000000000000000000000000000000815260040180806020018281038252600a8152602001807f72652d656e74657265640000000000000000000000000000000000000000000081525060200191505060405180910390fd5b60008060006101000a81548160ff021916908315150217905550612ec733858585614e3b565b905060016000806101000a81548160ff0219169083151502179055509392505050565b6000600360019054906101000a900473ffffffffffffffffffffffffffffffffffffffff1673ffffffffffffffffffffffffffffffffffffffff163373ffffffffffffffffffffffffffffffffffffffff1614612f5457612f4d60016045614439565b9050613064565b6000600460009054906101000a900473ffffffffffffffffffffffffffffffffffffffff16905082600460006101000a81548173ffffffffffffffffffffffffffffffffffffffff021916908373ffffffffffffffffffffffffffffffffffffffff1602179055507fca4f2f25d0898edd99413412fb94012f9e54ec8142f9b093e7720646a95b16a98184604051808373ffffffffffffffffffffffffffffffffffffffff1673ffffffffffffffffffffffffffffffffffffffff1681526020018273ffffffffffffffffffffffffffffffffffffffff1673ffffffffffffffffffffffffffffffffffffffff1681526020019250505060405180910390a16000601081111561306057fe5b9150505b919050565b60008060009054906101000a900460ff166130ec576040517f08c379a000000000000000000000000000000000000000000000000000000000815260040180806020018281038252600a8152602001807f72652d656e74657265640000000000000000000000000000000000000000000081525060200191505060405180910390fd5b60008060006101000a81548160ff0219169083151502179055506000601081111561311357fe5b61311b6127ac565b1461318e576040517f08c379a00000000000000000000000000000000000000000000000000000000081526004018080602001828103825260168152602001807f61636372756520696e746572657374206661696c65640000000000000000000081525060200191505060405180910390fd5b61319661168d565b905060016000806101000a81548160ff02191690831515021790555090565b6000806000806000600e60008773ffffffffffffffffffffffffffffffffffffffff1673ffffffffffffffffffffffffffffffffffffffff168152602001908152602001600020549050600080600061320d896147c7565b80945081925050506000600381111561322257fe5b81600381111561322e57fe5b1461325f576009601081111561324057fe5b60008060008292508191508090509750975097509750505050506132d6565b613267613a4a565b80935081925050506000600381111561327c57fe5b81600381111561328857fe5b146132b9576009601081111561329a57fe5b60008060008292508191508090509750975097509750505050506132d6565b600060108111156132c657fe5b8484849750975097509750505050505b9193509193565b60006132e88261550a565b9050919050565b60006132fa82615611565b9050919050565b6000600f60008473ffffffffffffffffffffffffffffffffffffffff1673ffffffffffffffffffffffffffffffffffffffff16815260200190815260200160002060008373ffffffffffffffffffffffffffffffffffffffff1673ffffffffffffffffffffffffffffffffffffffff16815260200190815260200160002054905092915050565b6000600460009054906101000a900473ffffffffffffffffffffffffffffffffffffffff1673ffffffffffffffffffffffffffffffffffffffff163373ffffffffffffffffffffffffffffffffffffffff161415806134135750600073ffffffffffffffffffffffffffffffffffffffff163373ffffffffffffffffffffffffffffffffffffffff16145b1561342b5761342460016000614439565b90506136a2565b6000600360019054906101000a900473ffffffffffffffffffffffffffffffffffffffff1690506000600460009054906101000a900473ffffffffffffffffffffffffffffffffffffffff169050600460009054906101000a900473ffffffffffffffffffffffffffffffffffffffff16600360016101000a81548173ffffffffffffffffffffffffffffffffffffffff021916908373ffffffffffffffffffffffffffffffffffffffff1602179055506000600460006101000a81548173ffffffffffffffffffffffffffffffffffffffff021916908373ffffffffffffffffffffffffffffffffffffffff1602179055507ff9ffabca9c8276e99321725bcb43fb076a6c66a54b7f21c4e8146d8519b417dc82600360019054906101000a900473ffffffffffffffffffffffffffffffffffffffff16604051808373ffffffffffffffffffffffffffffffffffffffff1673ffffffffffffffffffffffffffffffffffffffff1681526020018273ffffffffffffffffffffffffffffffffffffffff1673ffffffffffffffffffffffffffffffffffffffff1681526020019250505060405180910390a17fca4f2f25d0898edd99413412fb94012f9e54ec8142f9b093e7720646a95b16a981600460009054906101000a900473ffffffffffffffffffffffffffffffffffffffff16604051808373ffffffffffffffffffffffffffffffffffffffff1673ffffffffffffffffffffffffffffffffffffffff1681526020018273ffffffffffffffffffffffffffffffffffffffff1673ffffffffffffffffffffffffffffffffffffffff1681526020019250505060405180910390a16000601081111561369d57fe5b925050505b90565b6000806136b06127ac565b9050600060108111156136bf57fe5b81146136e3576136db8160108111156136d457fe5b6040614439565b9150506136f0565b6136ec836148da565b9150505b919050565b600660009054906101000a900473ffffffffffffffffffffffffffffffffffffffff1681565b60008061372985858561571a565b509050809150509392505050565b600360019054906101000a900473ffffffffffffffffffffffffffffffffffffffff1681565b6000600660009054906101000a900473ffffffffffffffffffffffffffffffffffffffff1673ffffffffffffffffffffffffffffffffffffffff166315f240536137a5614247565b600b54600c546040518463ffffffff1660e01b815260040180848152602001838152602001828152602001935050505060206040518083038186803b1580156137ed57600080fd5b505afa158015613801573d6000803e3d6000fd5b505050506040513d602081101561381757600080fd5b8101908080519060200190929190505050905090565b60008060009054906101000a900460ff166138b0576040517f08c379a000000000000000000000000000000000000000000000000000000000815260040180806020018281038252600a8152602001807f72652d656e74657265640000000000000000000000000000000000000000000081525060200191505060405180910390fd5b60008060006101000a81548160ff02191690831515021790555060006138d46127ac565b9050600060108111156138e357fe5b8114613907576138ff8160108111156138f857fe5b6046614439565b915050613914565b613910836158ed565b9150505b60016000806101000a81548160ff021916908315150217905550919050565b600181565b6000806000809054906101000a900460ff166139bc576040517f08c379a000000000000000000000000000000000000000000000000000000000815260040180806020018281038252600a8152602001807f72652d656e74657265640000000000000000000000000000000000000000000081525060200191505060405180910390fd5b60008060006101000a81548160ff02191690831515021790555060006139e06127ac565b9050600060108111156139ef57fe5b8114613a1a57613a0b816010811115613a0457fe5b6036614439565b60008090509250925050613a2b565b613a25333386615a00565b92509250505b60016000806101000a81548160ff021916908315150217905550915091565b6000806000600d5490506000811415613a6c5760006007549250925050613b22565b6000613a76614247565b90506000613a826186ec565b6000613a9384600b54600c54615fa5565b809450819250505060006003811115613aa857fe5b816003811115613ab457fe5b14613acd57806000809050965096505050505050613b22565b613ad78386616001565b809350819250505060006003811115613aec57fe5b816003811115613af857fe5b14613b1157806000809050965096505050505050613b22565b600082600001519650965050505050505b9091565b600080600560009054906101000a900473ffffffffffffffffffffffffffffffffffffffff1673ffffffffffffffffffffffffffffffffffffffff1663bdcdc258308787876040518563ffffffff1660e01b8152600401808573ffffffffffffffffffffffffffffffffffffffff1673ffffffffffffffffffffffffffffffffffffffff1681526020018473ffffffffffffffffffffffffffffffffffffffff1673ffffffffffffffffffffffffffffffffffffffff1681526020018373ffffffffffffffffffffffffffffffffffffffff1673ffffffffffffffffffffffffffffffffffffffff168152602001828152602001945050505050602060405180830381600087803b158015613c3a57600080fd5b505af1158015613c4e573d6000803e3d6000fd5b505050506040513d6020811015613c6457600080fd5b8101908080519060200190929190505050905060008114613c9457613c8c6003604a83614d2a565b9150506140c8565b8373ffffffffffffffffffffffffffffffffffffffff168573ffffffffffffffffffffffffffffffffffffffff161415613cdc57613cd46002604b614439565b9150506140c8565b60008090508573ffffffffffffffffffffffffffffffffffffffff168773ffffffffffffffffffffffffffffffffffffffff161415613d3d577fffffffffffffffffffffffffffffffffffffffffffffffffffffffffffffffff9050613dbd565b600f60008773ffffffffffffffffffffffffffffffffffffffff1673ffffffffffffffffffffffffffffffffffffffff16815260200190815260200160002060008873ffffffffffffffffffffffffffffffffffffffff1673ffffffffffffffffffffffffffffffffffffffff1681526020019081526020016000205490505b600080600080613dcd8589614c81565b809450819550505060006003811115613de257fe5b846003811115613dee57fe5b14613e0c57613dff6009604b614439565b96505050505050506140c8565b613e55600e60008c73ffffffffffffffffffffffffffffffffffffffff1673ffffffffffffffffffffffffffffffffffffffff1681526020019081526020016000205489614c81565b809350819550505060006003811115613e6a57fe5b846003811115613e7657fe5b14613e9457613e876009604c614439565b96505050505050506140c8565b613edd600e60008b73ffffffffffffffffffffffffffffffffffffffff1673ffffffffffffffffffffffffffffffffffffffff1681526020019081526020016000205489614d9e565b809250819550505060006003811115613ef257fe5b846003811115613efe57fe5b14613f1c57613f0f6009604d614439565b96505050505050506140c8565b81600e60008c73ffffffffffffffffffffffffffffffffffffffff1673ffffffffffffffffffffffffffffffffffffffff1681526020019081526020016000208190555080600e60008b73ffffffffffffffffffffffffffffffffffffffff1673ffffffffffffffffffffffffffffffffffffffff168152602001908152602001600020819055507fffffffffffffffffffffffffffffffffffffffffffffffffffffffffffffffff851461404d5782600f60008c73ffffffffffffffffffffffffffffffffffffffff1673ffffffffffffffffffffffffffffffffffffffff16815260200190815260200160002060008d73ffffffffffffffffffffffffffffffffffffffff1673ffffffffffffffffffffffffffffffffffffffff168152602001908152602001600020819055505b8873ffffffffffffffffffffffffffffffffffffffff168a73ffffffffffffffffffffffffffffffffffffffff167fddf252ad1be2c89b69c2b068fc378daa952ba7f163c4a11628f55a4df523b3ef8a6040518082815260200191505060405180910390a3600060108111156140bf57fe5b96505050505050505b949350505050565b6000806000809054906101000a900460ff16614154576040517f08c379a000000000000000000000000000000000000000000000000000000000815260040180806020018281038252600a8152602001807f72652d656e74657265640000000000000000000000000000000000000000000081525060200191505060405180910390fd5b60008060006101000a81548160ff02191690831515021790555060006141786127ac565b90506000601081111561418757fe5b81146141b2576141a381601081111561419c57fe5b6035614439565b600080905092509250506141c3565b6141bd338686615a00565b92509250505b60016000806101000a81548160ff0219169083151502179055509250929050565b60008060006141f16186ec565b6141fb8686614cac565b915091506000600381111561420c57fe5b82600381111561421857fe5b1461422e57816000809050935093505050614240565b6000614239826160d5565b9350935050505b9250929050565b600080601160009054906101000a900473ffffffffffffffffffffffffffffffffffffffff1690508073ffffffffffffffffffffffffffffffffffffffff166370a08231306040518263ffffffff1660e01b8152600401808273ffffffffffffffffffffffffffffffffffffffff1673ffffffffffffffffffffffffffffffffffffffff16815260200191505060206040518083038186803b1580156142ec57600080fd5b505afa158015614300573d6000803e3d6000fd5b505050506040513d602081101561431657600080fd5b810190808051906020019092919050505091505090565b60008060009054906101000a900460ff166143b0576040517f08c379a000000000000000000000000000000000000000000000000000000000815260040180806020018281038252600a8152602001807f72652d656e74657265640000000000000000000000000000000000000000000081525060200191505060405180910390fd5b60008060006101000a81548160ff02191690831515021790555060006143d46127ac565b9050600060108111156143e357fe5b8114614407576143ff8160108111156143f857fe5b604e614439565b91505061441a565b614410836160f4565b5080915050809150505b60016000806101000a81548160ff021916908315150217905550919050565b60007f45b96fe442630264581b197e84bbada861235052c5a1aadfff9ea4e40a969aa083601081111561446857fe5b83605081111561447457fe5b600060405180848152602001838152602001828152602001935050505060405180910390a18260108111156144a557fe5b905092915050565b600080600360019054906101000a900473ffffffffffffffffffffffffffffffffffffffff1673ffffffffffffffffffffffffffffffffffffffff163373ffffffffffffffffffffffffffffffffffffffff16146145195761451160016031614439565b9150506146b9565b6145216148d2565b6009541461453d57614535600a6033614439565b9150506146b9565b82614546614247565b101561456057614558600e6032614439565b9150506146b9565b600c5483111561457e5761457660026034614439565b9150506146b9565b82600c54039050600c548111156145e0576040517f08c379a0000000000000000000000000000000000000000000000000000000008152600401808060200182810382526024815260200180618bb96024913960400191505060405180910390fd5b80600c81905550614613600360019054906101000a900473ffffffffffffffffffffffffffffffffffffffff1684616241565b7f3bad0c59cf2f06e7314077049f48a93578cd16f5ef92329f1dab1420a99c177e600360019054906101000a900473ffffffffffffffffffffffffffffffffffffffff168483604051808473ffffffffffffffffffffffffffffffffffffffff1673ffffffffffffffffffffffffffffffffffffffff168152602001838152602001828152602001935050505060405180910390a1600060108111156146b557fe5b9150505b919050565b60008060009054906101000a900460ff16614741576040517f08c379a000000000000000000000000000000000000000000000000000000000815260040180806020018281038252600a8152602001807f72652d656e74657265640000000000000000000000000000000000000000000081525060200191505060405180910390fd5b60008060006101000a81548160ff02191690831515021790555060006147656127ac565b90506000601081111561477457fe5b81146147985761479081601081111561478957fe5b6027614439565b9150506147a8565b6147a4336000856163af565b9150505b60016000806101000a81548160ff021916908315150217905550919050565b600080600080600080601060008873ffffffffffffffffffffffffffffffffffffffff1673ffffffffffffffffffffffffffffffffffffffff16815260200190815260200160002090506000816000015414156148315760008080905095509550505050506148cd565b6148418160000154600a54616af2565b80945081955050506000600381111561485657fe5b84600381111561486257fe5b1461487a5783600080905095509550505050506148cd565b614888838260010154616b45565b80935081955050506000600381111561489d57fe5b8460038111156148a957fe5b146148c15783600080905095509550505050506148cd565b60008295509550505050505b915091565b600043905090565b600080600360019054906101000a900473ffffffffffffffffffffffffffffffffffffffff1673ffffffffffffffffffffffffffffffffffffffff163373ffffffffffffffffffffffffffffffffffffffff16146149465761493e60016042614439565b915050614b6b565b61494e6148d2565b6009541461496a57614962600a6041614439565b915050614b6b565b600660009054906101000a900473ffffffffffffffffffffffffffffffffffffffff1690508273ffffffffffffffffffffffffffffffffffffffff16632191f92a6040518163ffffffff1660e01b815260040160206040518083038186803b1580156149d557600080fd5b505afa1580156149e9573d6000803e3d6000fd5b505050506040513d60208110156149ff57600080fd5b8101908080519060200190929190505050614a82576040517f08c379a000000000000000000000000000000000000000000000000000000000815260040180806020018281038252601c8152602001807f6d61726b6572206d6574686f642072657475726e65642066616c73650000000081525060200191505060405180910390fd5b82600660006101000a81548173ffffffffffffffffffffffffffffffffffffffff021916908373ffffffffffffffffffffffffffffffffffffffff1602179055507fedffc32e068c7c95dfd4bdfd5c4d939a084d6b11c4199eac8436ed234d72f9268184604051808373ffffffffffffffffffffffffffffffffffffffff1673ffffffffffffffffffffffffffffffffffffffff1681526020018273ffffffffffffffffffffffffffffffffffffffff1673ffffffffffffffffffffffffffffffffffffffff1681526020019250505060405180910390a160006010811115614b6757fe5b9150505b919050565b6000806000809054906101000a900460ff16614bf4576040517f08c379a000000000000000000000000000000000000000000000000000000000815260040180806020018281038252600a8152602001807f72652d656e74657265640000000000000000000000000000000000000000000081525060200191505060405180910390fd5b60008060006101000a81548160ff0219169083151502179055506000614c186127ac565b905060006010811115614c2757fe5b8114614c5257614c43816010811115614c3c57fe5b601e614439565b60008090509250925050614c62565b614c5c3385616b79565b92509250505b60016000806101000a81548160ff021916908315150217905550915091565b600080838311614c9957600083850391509150614ca5565b60036000809050915091505b9250929050565b6000614cb66186ec565b600080614cc7866000015186616af2565b9150915060006003811115614cd857fe5b826003811115614ce457fe5b14614d08578160405180602001604052806000815250809050935093505050614d23565b60006040518060200160405280838152508090509350935050505b9250929050565b60007f45b96fe442630264581b197e84bbada861235052c5a1aadfff9ea4e40a969aa0846010811115614d5957fe5b846050811115614d6557fe5b8460405180848152602001838152602001828152602001935050505060405180910390a1836010811115614d9557fe5b90509392505050565b60008060008385019050848110614dbc576000819250925050614dc9565b6002600080905092509250505b9250929050565b6000806000614ddd6186ec565b614de78787614cac565b9150915060006003811115614df857fe5b826003811115614e0457fe5b14614e1a57816000809050935093505050614e33565b614e2c614e26826160d5565b86614d9e565b9350935050505b935093915050565b600080600560009054906101000a900473ffffffffffffffffffffffffffffffffffffffff1673ffffffffffffffffffffffffffffffffffffffff1663d02f735130888888886040518663ffffffff1660e01b8152600401808673ffffffffffffffffffffffffffffffffffffffff1673ffffffffffffffffffffffffffffffffffffffff1681526020018573ffffffffffffffffffffffffffffffffffffffff1673ffffffffffffffffffffffffffffffffffffffff1681526020018473ffffffffffffffffffffffffffffffffffffffff1673ffffffffffffffffffffffffffffffffffffffff1681526020018373ffffffffffffffffffffffffffffffffffffffff1673ffffffffffffffffffffffffffffffffffffffff16815260200182815260200195505050505050602060405180830381600087803b158015614f8357600080fd5b505af1158015614f97573d6000803e3d6000fd5b505050506040513d6020811015614fad57600080fd5b8101908080519060200190929190505050905060008114614fdd57614fd56003601b83614d2a565b915050615502565b8473ffffffffffffffffffffffffffffffffffffffff168473ffffffffffffffffffffffffffffffffffffffff1614156150255761501d6006601c614439565b915050615502565b61502d61877f565b615076600e60008773ffffffffffffffffffffffffffffffffffffffff1673ffffffffffffffffffffffffffffffffffffffff1681526020019081526020016000205485614c81565b82600001836020018281525082600381111561508e57fe5b600381111561509957fe5b8152505050600060038111156150ab57fe5b816000015160038111156150bb57fe5b146150e5576150dc6009601a836000015160038111156150d757fe5b614d2a565b92505050615502565b615104846040518060200160405280666379da05b60000815250617142565b81608001818152505061511b84826080015161716b565b81606001818152505061512c613a4a565b826000018360c0018281525082600381111561514457fe5b600381111561514f57fe5b81525050506000600381111561516157fe5b8160000151600381111561517157fe5b146151e4576040517f08c379a00000000000000000000000000000000000000000000000000000000081526004018080602001828103825260188152602001807f65786368616e67652072617465206d617468206572726f72000000000000000081525060200191505060405180910390fd5b61520460405180602001604052808360c0015181525082608001516171b5565b8160a001818152505061521d600c548260a001516171dd565b8160e0018181525050615236600d54826080015161716b565b8161010001818152505061528d600e60008873ffffffffffffffffffffffffffffffffffffffff1673ffffffffffffffffffffffffffffffffffffffff168152602001908152602001600020548260600151614d9e565b8260000183604001828152508260038111156152a557fe5b60038111156152b057fe5b8152505050600060038111156152c257fe5b816000015160038111156152d257fe5b146152fc576152f360096019836000015160038111156152ee57fe5b614d2a565b92505050615502565b8060e00151600c81905550806101000151600d819055508060200151600e60008773ffffffffffffffffffffffffffffffffffffffff1673ffffffffffffffffffffffffffffffffffffffff168152602001908152602001600020819055508060400151600e60008873ffffffffffffffffffffffffffffffffffffffff1673ffffffffffffffffffffffffffffffffffffffff168152602001908152602001600020819055508573ffffffffffffffffffffffffffffffffffffffff168573ffffffffffffffffffffffffffffffffffffffff167fddf252ad1be2c89b69c2b068fc378daa952ba7f163c4a11628f55a4df523b3ef83606001516040518082815260200191505060405180910390a33073ffffffffffffffffffffffffffffffffffffffff168573ffffffffffffffffffffffffffffffffffffffff167fddf252ad1be2c89b69c2b068fc378daa952ba7f163c4a11628f55a4df523b3ef83608001516040518082815260200191505060405180910390a37fa91e67c5ea634cd43a12c5a482724b03de01e85ca68702a53d0c2f45cb7c1dc5308260a001518360e00151604051808473ffffffffffffffffffffffffffffffffffffffff1673ffffffffffffffffffffffffffffffffffffffff168152602001838152602001828152602001935050505060405180910390a1600060108111156154fd57fe5b925050505b949350505050565b60008060009054906101000a900460ff1661558d576040517f08c379a000000000000000000000000000000000000000000000000000000000815260040180806020018281038252600a8152602001807f72652d656e74657265640000000000000000000000000000000000000000000081525060200191505060405180910390fd5b60008060006101000a81548160ff02191690831515021790555060006155b16127ac565b9050600060108111156155c057fe5b81146155e4576155dc8160108111156155d557fe5b6008614439565b9150506155f2565b6155ee3384617227565b9150505b60016000806101000a81548160ff021916908315150217905550919050565b60008060009054906101000a900460ff16615694576040517f08c379a000000000000000000000000000000000000000000000000000000000815260040180806020018281038252600a8152602001807f72652d656e74657265640000000000000000000000000000000000000000000081525060200191505060405180910390fd5b60008060006101000a81548160ff02191690831515021790555060006156b86127ac565b9050600060108111156156c757fe5b81146156eb576156e38160108111156156dc57fe5b6027614439565b9150506156fb565b6156f7338460006163af565b9150505b60016000806101000a81548160ff021916908315150217905550919050565b6000806000809054906101000a900460ff1661579e576040517f08c379a000000000000000000000000000000000000000000000000000000000815260040180806020018281038252600a8152602001807f72652d656e74657265640000000000000000000000000000000000000000000081525060200191505060405180910390fd5b60008060006101000a81548160ff02191690831515021790555060006157c26127ac565b9050600060108111156157d157fe5b81146157fc576157ed8160108111156157e657fe5b600f614439565b600080905092509250506158cb565b8373ffffffffffffffffffffffffffffffffffffffff1663a6afed956040518163ffffffff1660e01b8152600401602060405180830381600087803b15801561584457600080fd5b505af1158015615858573d6000803e3d6000fd5b505050506040513d602081101561586e57600080fd5b810190808051906020019092919050505090506000601081111561588e57fe5b81146158b9576158aa8160108111156158a357fe5b6010614439565b600080905092509250506158cb565b6158c533878787617663565b92509250505b60016000806101000a81548160ff021916908315150217905550935093915050565b6000600360019054906101000a900473ffffffffffffffffffffffffffffffffffffffff1673ffffffffffffffffffffffffffffffffffffffff163373ffffffffffffffffffffffffffffffffffffffff16146159575761595060016047614439565b90506159fb565b61595f6148d2565b6009541461597a57615973600a6048614439565b90506159fb565b670de0b6b3a764000082111561599d5761599660026049614439565b90506159fb565b60006008549050826008819055507faaa68312e2ea9d50e16af5068410ab56e1a1fd06037b1a35664812c30f8214608184604051808381526020018281526020019250505060405180910390a1600060108111156159f757fe5b9150505b919050565b6000806000600560009054906101000a900473ffffffffffffffffffffffffffffffffffffffff1673ffffffffffffffffffffffffffffffffffffffff166324008a62308888886040518563ffffffff1660e01b8152600401808573ffffffffffffffffffffffffffffffffffffffff1673ffffffffffffffffffffffffffffffffffffffff1681526020018473ffffffffffffffffffffffffffffffffffffffff1673ffffffffffffffffffffffffffffffffffffffff1681526020018373ffffffffffffffffffffffffffffffffffffffff1673ffffffffffffffffffffffffffffffffffffffff168152602001828152602001945050505050602060405180830381600087803b158015615b1657600080fd5b505af1158015615b2a573d6000803e3d6000fd5b505050506040513d6020811015615b4057600080fd5b8101908080519060200190929190505050905060008114615b7757615b686003603883614d2a565b60008090509250925050615f9d565b615b7f6148d2565b60095414615ba257615b93600a6039614439565b60008090509250925050615f9d565b615baa6187d6565b601060008773ffffffffffffffffffffffffffffffffffffffff1673ffffffffffffffffffffffffffffffffffffffff16815260200190815260200160002060010154816060018181525050615bff866147c7565b826020018360800182815250826003811115615c1757fe5b6003811115615c2257fe5b815250505060006003811115615c3457fe5b81602001516003811115615c4457fe5b14615c7557615c656009603783602001516003811115615c6057fe5b614d2a565b6000809050935093505050615f9d565b7fffffffffffffffffffffffffffffffffffffffffffffffffffffffffffffffff851415615cb0578060800151816040018181525050615cbb565b848160400181815250505b615cc9878260400151617f5b565b8160e0018181525050615ce481608001518260e00151614c81565b826020018360a00182815250826003811115615cfc57fe5b6003811115615d0757fe5b815250505060006003811115615d1957fe5b81602001516003811115615d2957fe5b14615d7f576040517f08c379a000000000000000000000000000000000000000000000000000000000815260040180806020018281038252603a815260200180618a8a603a913960400191505060405180910390fd5b615d8f600b548260e00151614c81565b826020018360c00182815250826003811115615da757fe5b6003811115615db257fe5b815250505060006003811115615dc457fe5b81602001516003811115615dd457fe5b14615e2a576040517f08c379a0000000000000000000000000000000000000000000000000000000008152600401808060200182810382526031815260200180618ac46031913960400191505060405180910390fd5b8060a00151601060008873ffffffffffffffffffffffffffffffffffffffff1673ffffffffffffffffffffffffffffffffffffffff16815260200190815260200160002060000181905550600a54601060008873ffffffffffffffffffffffffffffffffffffffff1673ffffffffffffffffffffffffffffffffffffffff168152602001908152602001600020600101819055508060c00151600b819055507f1a2a22cb034d26d1854bdc6666a5b91fe25efbbb5dcad3b0355478d6f5c362a187878360e001518460a001518560c00151604051808673ffffffffffffffffffffffffffffffffffffffff1673ffffffffffffffffffffffffffffffffffffffff1681526020018573ffffffffffffffffffffffffffffffffffffffff1673ffffffffffffffffffffffffffffffffffffffff1681526020018481526020018381526020018281526020019550505050505060405180910390a160006010811115615f9157fe5b8160e001519350935050505b935093915050565b600080600080615fb58787614d9e565b9150915060006003811115615fc657fe5b826003811115615fd257fe5b14615fe857816000809050935093505050615ff9565b615ff28186614c81565b9350935050505b935093915050565b600061600b6186ec565b60008061602086670de0b6b3a7640000616af2565b915091506000600381111561603157fe5b82600381111561603d57fe5b146160615781604051806020016040528060008152508090509350935050506160ce565b60008061606e8388616b45565b915091506000600381111561607f57fe5b82600381111561608b57fe5b146160b157816040518060200160405280600081525080905095509550505050506160ce565b600060405180602001604052808381525080905095509550505050505b9250929050565b6000670de0b6b3a76400008260000151816160ec57fe5b049050919050565b6000806000806161026148d2565b6009541461612257616116600a604f614439565b8193509350505061623c565b61612c3386617f5b565b905080600c54019150600c548210156161ad576040517f08c379a00000000000000000000000000000000000000000000000000000000081526004018080602001828103825260208152602001807f61646420726573657276657320756e6578706563746564206f766572666c6f7781525060200191505060405180910390fd5b81600c819055507fa91e67c5ea634cd43a12c5a482724b03de01e85ca68702a53d0c2f45cb7c1dc5338284604051808473ffffffffffffffffffffffffffffffffffffffff1673ffffffffffffffffffffffffffffffffffffffff168152602001838152602001828152602001935050505060405180910390a16000601081111561623457fe5b819350935050505b915091565b6000601160009054906101000a900473ffffffffffffffffffffffffffffffffffffffff1690508073ffffffffffffffffffffffffffffffffffffffff1663a9059cbb84846040518363ffffffff1660e01b8152600401808373ffffffffffffffffffffffffffffffffffffffff1673ffffffffffffffffffffffffffffffffffffffff16815260200182815260200192505050600060405180830381600087803b1580156162ef57600080fd5b505af1158015616303573d6000803e3d6000fd5b5050505060003d6000811461631f576020811461632957600080fd5b6000199150616335565b60206000803e60005191505b50806163a9576040517f08c379a00000000000000000000000000000000000000000000000000000000081526004018080602001828103825260198152602001807f544f4b454e5f5452414e534645525f4f55545f4641494c45440000000000000081525060200191505060405180910390fd5b50505050565b6000808314806163bf5750600082145b616414576040517f08c379a0000000000000000000000000000000000000000000000000000000008152600401808060200182810382526034815260200180618b856034913960400191505060405180910390fd5b61641c618831565b616424613a4a565b82602001836040018281525082600381111561643c57fe5b600381111561644757fe5b81525050506000600381111561645957fe5b8160200151600381111561646957fe5b146164925761648a6009602b8360200151600381111561648557fe5b614d2a565b915050616aeb565b600084111561653457838160600181815250506164c160405180602001604052808360400151815250856141e4565b8260200183608001828152508260038111156164d957fe5b60038111156164e457fe5b8152505050600060038111156164f657fe5b8160200151600381111561650657fe5b1461652f57616527600960298360200151600381111561652257fe5b614d2a565b915050616aeb565b6165c9565b6165508360405180602001604052808460400151815250618339565b82602001836060018281525082600381111561656857fe5b600381111561657357fe5b81525050506000600381111561658557fe5b8160200151600381111561659557fe5b146165be576165b66009602a836020015160038111156165b157fe5b614d2a565b915050616aeb565b828160800181815250505b6000600560009054906101000a900473ffffffffffffffffffffffffffffffffffffffff1673ffffffffffffffffffffffffffffffffffffffff1663eabe7d91308885606001516040518463ffffffff1660e01b8152600401808473ffffffffffffffffffffffffffffffffffffffff1673ffffffffffffffffffffffffffffffffffffffff1681526020018373ffffffffffffffffffffffffffffffffffffffff1673ffffffffffffffffffffffffffffffffffffffff1681526020018281526020019350505050602060405180830381600087803b1580156166ac57600080fd5b505af11580156166c0573d6000803e3d6000fd5b505050506040513d60208110156166d657600080fd5b8101908080519060200190929190505050905060008114616707576166fe6003602883614d2a565b92505050616aeb565b61670f6148d2565b6009541461672c57616723600a602c614439565b92505050616aeb565b61673c600d548360600151614c81565b836020018460a0018281525082600381111561675457fe5b600381111561675f57fe5b81525050506000600381111561677157fe5b8260200151600381111561678157fe5b146167ab576167a26009602e8460200151600381111561679d57fe5b614d2a565b92505050616aeb565b6167f8600e60008873ffffffffffffffffffffffffffffffffffffffff1673ffffffffffffffffffffffffffffffffffffffff168152602001908152602001600020548360600151614c81565b836020018460c0018281525082600381111561681057fe5b600381111561681b57fe5b81525050506000600381111561682d57fe5b8260200151600381111561683d57fe5b146168675761685e6009602d8460200151600381111561685957fe5b614d2a565b92505050616aeb565b8160800151616874614247565b101561688f57616886600e602f614439565b92505050616aeb565b61689d868360800151616241565b8160a00151600d819055508160c00151600e60008873ffffffffffffffffffffffffffffffffffffffff1673ffffffffffffffffffffffffffffffffffffffff168152602001908152602001600020819055503073ffffffffffffffffffffffffffffffffffffffff168673ffffffffffffffffffffffffffffffffffffffff167fddf252ad1be2c89b69c2b068fc378daa952ba7f163c4a11628f55a4df523b3ef84606001516040518082815260200191505060405180910390a37fe5b754fb1abb7f01b499791d0b820ae3b6af3424ac1c59768edb53f4ec31a9298683608001518460600151604051808473ffffffffffffffffffffffffffffffffffffffff1673ffffffffffffffffffffffffffffffffffffffff168152602001838152602001828152602001935050505060405180910390a1600560009054906101000a900473ffffffffffffffffffffffffffffffffffffffff1673ffffffffffffffffffffffffffffffffffffffff166351dff9893088856080015186606001516040518563ffffffff1660e01b8152600401808573ffffffffffffffffffffffffffffffffffffffff1673ffffffffffffffffffffffffffffffffffffffff1681526020018473ffffffffffffffffffffffffffffffffffffffff1673ffffffffffffffffffffffffffffffffffffffff168152602001838152602001828152602001945050505050600060405180830381600087803b158015616ac157600080fd5b505af1158015616ad5573d6000803e3d6000fd5b5050505060006010811115616ae657fe5b925050505b9392505050565b6000806000841415616b0d5760008080905091509150616b3e565b6000838502905083858281616b1e57fe5b0414616b3557600260008090509250925050616b3e565b60008192509250505b9250929050565b6000806000831415616b61576001600080905091509150616b72565b6000838581616b6c57fe5b04915091505b9250929050565b6000806000600560009054906101000a900473ffffffffffffffffffffffffffffffffffffffff1673ffffffffffffffffffffffffffffffffffffffff16634ef4c3e13087876040518463ffffffff1660e01b8152600401808473ffffffffffffffffffffffffffffffffffffffff1673ffffffffffffffffffffffffffffffffffffffff1681526020018373ffffffffffffffffffffffffffffffffffffffff1673ffffffffffffffffffffffffffffffffffffffff1681526020018281526020019350505050602060405180830381600087803b158015616c5b57600080fd5b505af1158015616c6f573d6000803e3d6000fd5b505050506040513d6020811015616c8557600080fd5b8101908080519060200190929190505050905060008114616cbc57616cad6003601f83614d2a565b6000809050925092505061713b565b616cc46148d2565b60095414616ce757616cd8600a6022614439565b6000809050925092505061713b565b616cef618884565b616cf7613a4a565b826020018360400182815250826003811115616d0f57fe5b6003811115616d1a57fe5b815250505060006003811115616d2c57fe5b81602001516003811115616d3c57fe5b14616d6d57616d5d6009602183602001516003811115616d5857fe5b614d2a565b600080905093509350505061713b565b616d778686617f5b565b8160c0018181525050616da08160c0015160405180602001604052808460400151815250618339565b826020018360600182815250826003811115616db857fe5b6003811115616dc357fe5b815250505060006003811115616dd557fe5b81602001516003811115616de557fe5b14616e58576040517f08c379a00000000000000000000000000000000000000000000000000000000081526004018080602001828103825260208152602001807f4d494e545f45584348414e47455f43414c43554c4154494f4e5f4641494c454481525060200191505060405180910390fd5b616e68600d548260600151614d9e565b826020018360800182815250826003811115616e8057fe5b6003811115616e8b57fe5b815250505060006003811115616e9d57fe5b81602001516003811115616ead57fe5b14616f03576040517f08c379a0000000000000000000000000000000000000000000000000000000008152600401808060200182810382526028815260200180618b5d6028913960400191505060405180910390fd5b616f50600e60008873ffffffffffffffffffffffffffffffffffffffff1673ffffffffffffffffffffffffffffffffffffffff168152602001908152602001600020548260600151614d9e565b826020018360a00182815250826003811115616f6857fe5b6003811115616f7357fe5b815250505060006003811115616f8557fe5b81602001516003811115616f9557fe5b14616feb576040517f08c379a000000000000000000000000000000000000000000000000000000000815260040180806020018281038252602b815260200180618a28602b913960400191505060405180910390fd5b8060800151600d819055508060a00151600e60008873ffffffffffffffffffffffffffffffffffffffff1673ffffffffffffffffffffffffffffffffffffffff168152602001908152602001600020819055507f4c209b5fc8ad50758f13e2e1088ba56a560dff690a1c6fef26394f4c03821c4f868260c001518360600151604051808473ffffffffffffffffffffffffffffffffffffffff1673ffffffffffffffffffffffffffffffffffffffff168152602001838152602001828152602001935050505060405180910390a18573ffffffffffffffffffffffffffffffffffffffff163073ffffffffffffffffffffffffffffffffffffffff167fddf252ad1be2c89b69c2b068fc378daa952ba7f163c4a11628f55a4df523b3ef83606001516040518082815260200191505060405180910390a36000601081111561712f57fe5b8160c001519350935050505b9250929050565b6000670de0b6b3a764000061715b84846000015161839c565b8161716257fe5b04905092915050565b60006171ad83836040518060400160405280601581526020017f7375627472616374696f6e20756e646572666c6f7700000000000000000000008152506183e6565b905092915050565b60006171bf6186ec565b6171c984846184a0565b90506171d4816160d5565b91505092915050565b600061721f83836040518060400160405280601181526020017f6164646974696f6e206f766572666c6f770000000000000000000000000000008152506184cc565b905092915050565b600080600560009054906101000a900473ffffffffffffffffffffffffffffffffffffffff1673ffffffffffffffffffffffffffffffffffffffff1663da3d454c3086866040518463ffffffff1660e01b8152600401808473ffffffffffffffffffffffffffffffffffffffff1673ffffffffffffffffffffffffffffffffffffffff1681526020018373ffffffffffffffffffffffffffffffffffffffff1673ffffffffffffffffffffffffffffffffffffffff1681526020018281526020019350505050602060405180830381600087803b15801561730757600080fd5b505af115801561731b573d6000803e3d6000fd5b505050506040513d602081101561733157600080fd5b8101908080519060200190929190505050905060008114617361576173596003600e83614d2a565b91505061765d565b6173696148d2565b600954146173845761737c600a80614439565b91505061765d565b8261738d614247565b10156173a75761739f600e6009614439565b91505061765d565b6173af6188d7565b6173b8856147c7565b8260000183602001828152508260038111156173d057fe5b60038111156173db57fe5b8152505050600060038111156173ed57fe5b816000015160038111156173fd57fe5b146174275761741e600960078360000151600381111561741957fe5b614d2a565b9250505061765d565b617435816020015185614d9e565b82600001836040018281525082600381111561744d57fe5b600381111561745857fe5b81525050506000600381111561746a57fe5b8160000151600381111561747a57fe5b146174a45761749b6009600c8360000151600381111561749657fe5b614d2a565b9250505061765d565b6174b0600b5485614d9e565b8260000183606001828152508260038111156174c857fe5b60038111156174d357fe5b8152505050600060038111156174e557fe5b816000015160038111156174f557fe5b1461751f576175166009600b8360000151600381111561751157fe5b614d2a565b9250505061765d565b6175298585616241565b8060400151601060008773ffffffffffffffffffffffffffffffffffffffff1673ffffffffffffffffffffffffffffffffffffffff16815260200190815260200160002060000181905550600a54601060008773ffffffffffffffffffffffffffffffffffffffff1673ffffffffffffffffffffffffffffffffffffffff168152602001908152602001600020600101819055508060600151600b819055507f13ed6866d4e1ee6da46f845c46d7e54120883d75c5ea9a2dacc1c4ca8984ab80858583604001518460600151604051808573ffffffffffffffffffffffffffffffffffffffff1673ffffffffffffffffffffffffffffffffffffffff16815260200184815260200183815260200182815260200194505050505060405180910390a16000601081111561765857fe5b925050505b92915050565b6000806000600560009054906101000a900473ffffffffffffffffffffffffffffffffffffffff1673ffffffffffffffffffffffffffffffffffffffff16635fc7e71e30868a8a8a6040518663ffffffff1660e01b8152600401808673ffffffffffffffffffffffffffffffffffffffff1673ffffffffffffffffffffffffffffffffffffffff1681526020018573ffffffffffffffffffffffffffffffffffffffff1673ffffffffffffffffffffffffffffffffffffffff1681526020018473ffffffffffffffffffffffffffffffffffffffff1673ffffffffffffffffffffffffffffffffffffffff1681526020018373ffffffffffffffffffffffffffffffffffffffff1673ffffffffffffffffffffffffffffffffffffffff16815260200182815260200195505050505050602060405180830381600087803b1580156177ad57600080fd5b505af11580156177c1573d6000803e3d6000fd5b505050506040513d60208110156177d757600080fd5b810190808051906020019092919050505090506000811461780e576177ff6003601283614d2a565b60008090509250925050617f52565b6178166148d2565b600954146178395761782a600a6016614439565b60008090509250925050617f52565b6178416148d2565b8473ffffffffffffffffffffffffffffffffffffffff16636c540baf6040518163ffffffff1660e01b815260040160206040518083038186803b15801561788757600080fd5b505afa15801561789b573d6000803e3d6000fd5b505050506040513d60208110156178b157600080fd5b8101908080519060200190929190505050146178e2576178d3600a6011614439565b60008090509250925050617f52565b8673ffffffffffffffffffffffffffffffffffffffff168673ffffffffffffffffffffffffffffffffffffffff1614156179315761792260066017614439565b60008090509250925050617f52565b60008514156179555761794660076015614439565b60008090509250925050617f52565b7fffffffffffffffffffffffffffffffffffffffffffffffffffffffffffffffff8514156179985761798960076014614439565b60008090509250925050617f52565b6000806179a6898989615a00565b91509150600060108111156179b757fe5b82146179e4576179d38260108111156179cc57fe5b6018614439565b600080905094509450505050617f52565b600080600560009054906101000a900473ffffffffffffffffffffffffffffffffffffffff1673ffffffffffffffffffffffffffffffffffffffff1663c488847b308a866040518463ffffffff1660e01b8152600401808473ffffffffffffffffffffffffffffffffffffffff1673ffffffffffffffffffffffffffffffffffffffff1681526020018373ffffffffffffffffffffffffffffffffffffffff1673ffffffffffffffffffffffffffffffffffffffff1681526020018281526020019350505050604080518083038186803b158015617ac157600080fd5b505afa158015617ad5573d6000803e3d6000fd5b505050506040513d6040811015617aeb57600080fd5b8101908080519060200190929190805190602001909291905050509150915060006010811115617b1757fe5b8214617b6e576040517f08c379a0000000000000000000000000000000000000000000000000000000008152600401808060200182810382526033815260200180618af56033913960400191505060405180910390fd5b808873ffffffffffffffffffffffffffffffffffffffff166370a082318c6040518263ffffffff1660e01b8152600401808273ffffffffffffffffffffffffffffffffffffffff1673ffffffffffffffffffffffffffffffffffffffff16815260200191505060206040518083038186803b158015617bec57600080fd5b505afa158015617c00573d6000803e3d6000fd5b505050506040513d6020811015617c1657600080fd5b81019080805190602001909291905050501015617c9b576040517f08c379a00000000000000000000000000000000000000000000000000000000081526004018080602001828103825260188152602001807f4c49515549444154455f5345495a455f544f4f5f4d554348000000000000000081525060200191505060405180910390fd5b60003073ffffffffffffffffffffffffffffffffffffffff168973ffffffffffffffffffffffffffffffffffffffff161415617ce457617cdd308d8d85614e3b565b9050617ddd565b8873ffffffffffffffffffffffffffffffffffffffff1663b2a02ff18d8d856040518463ffffffff1660e01b8152600401808473ffffffffffffffffffffffffffffffffffffffff1673ffffffffffffffffffffffffffffffffffffffff1681526020018373ffffffffffffffffffffffffffffffffffffffff1673ffffffffffffffffffffffffffffffffffffffff1681526020018281526020019350505050602060405180830381600087803b158015617d9f57600080fd5b505af1158015617db3573d6000803e3d6000fd5b505050506040513d6020811015617dc957600080fd5b810190808051906020019092919050505090505b60006010811115617dea57fe5b8114617e5e576040517f08c379a00000000000000000000000000000000000000000000000000000000081526004018080602001828103825260148152602001807f746f6b656e207365697a757265206661696c656400000000000000000000000081525060200191505060405180910390fd5b7f298637f684da70674f26509b10f07ec2fbc77a335ab1e7d6215a4b2484d8bb528c8c868c86604051808673ffffffffffffffffffffffffffffffffffffffff1673ffffffffffffffffffffffffffffffffffffffff1681526020018573ffffffffffffffffffffffffffffffffffffffff1673ffffffffffffffffffffffffffffffffffffffff1681526020018481526020018373ffffffffffffffffffffffffffffffffffffffff1673ffffffffffffffffffffffffffffffffffffffff1681526020018281526020019550505050505060405180910390a160006010811115617f4657fe5b84975097505050505050505b94509492505050565b600080601160009054906101000a900473ffffffffffffffffffffffffffffffffffffffff1690506000601160009054906101000a900473ffffffffffffffffffffffffffffffffffffffff1673ffffffffffffffffffffffffffffffffffffffff166370a08231306040518263ffffffff1660e01b8152600401808273ffffffffffffffffffffffffffffffffffffffff1673ffffffffffffffffffffffffffffffffffffffff16815260200191505060206040518083038186803b15801561802457600080fd5b505afa158015618038573d6000803e3d6000fd5b505050506040513d602081101561804e57600080fd5b810190808051906020019092919050505090508173ffffffffffffffffffffffffffffffffffffffff166323b872dd8630876040518463ffffffff1660e01b8152600401808473ffffffffffffffffffffffffffffffffffffffff1673ffffffffffffffffffffffffffffffffffffffff1681526020018373ffffffffffffffffffffffffffffffffffffffff1673ffffffffffffffffffffffffffffffffffffffff1681526020018281526020019350505050600060405180830381600087803b15801561811c57600080fd5b505af1158015618130573d6000803e3d6000fd5b5050505060003d6000811461814c576020811461815657600080fd5b6000199150618162565b60206000803e60005191505b50806181d6576040517f08c379a00000000000000000000000000000000000000000000000000000000081526004018080602001828103825260188152602001807f544f4b454e5f5452414e534645525f494e5f4641494c4544000000000000000081525060200191505060405180910390fd5b6000601160009054906101000a900473ffffffffffffffffffffffffffffffffffffffff1673ffffffffffffffffffffffffffffffffffffffff166370a08231306040518263ffffffff1660e01b8152600401808273ffffffffffffffffffffffffffffffffffffffff1673ffffffffffffffffffffffffffffffffffffffff16815260200191505060206040518083038186803b15801561827757600080fd5b505afa15801561828b573d6000803e3d6000fd5b505050506040513d60208110156182a157600080fd5b810190808051906020019092919050505090508281101561832a576040517f08c379a000000000000000000000000000000000000000000000000000000000815260040180806020018281038252601a8152602001807f544f4b454e5f5452414e534645525f494e5f4f564552464c4f5700000000000081525060200191505060405180910390fd5b82810394505050505092915050565b60008060006183466186ec565b618350868661858b565b915091506000600381111561836157fe5b82600381111561836d57fe5b1461838357816000809050935093505050618395565b600061838e826160d5565b9350935050505b9250929050565b60006183de83836040518060400160405280601781526020017f6d756c7469706c69636174696f6e206f766572666c6f77000000000000000000815250618607565b905092915050565b6000838311158290618493576040517f08c379a00000000000000000000000000000000000000000000000000000000081526004018080602001828103825283818151815260200191508051906020019080838360005b8381101561845857808201518184015260208101905061843d565b50505050905090810190601f1680156184855780820380516001836020036101000a031916815260200191505b509250505060405180910390fd5b5082840390509392505050565b6184a86186ec565b60405180602001604052806184c185600001518561839c565b815250905092915050565b600080838501905084811015839061857f576040517f08c379a00000000000000000000000000000000000000000000000000000000081526004018080602001828103825283818151815260200191508051906020019080838360005b83811015618544578082015181840152602081019050618529565b50505050905090810190601f1680156185715780820380516001836020036101000a031916815260200191505b509250505060405180910390fd5b50809150509392505050565b60006185956186ec565b6000806185aa670de0b6b3a764000087616af2565b91509150600060038111156185bb57fe5b8260038111156185c757fe5b146185eb578160405180602001604052806000815250809050935093505050618600565b6185f9818660000151616001565b9350935050505b9250929050565b6000808414806186175750600083145b1561862557600090506186e5565b600083850290508385828161863657fe5b041483906186df576040517f08c379a00000000000000000000000000000000000000000000000000000000081526004018080602001828103825283818151815260200191508051906020019080838360005b838110156186a4578082015181840152602081019050618689565b50505050905090810190601f1680156186d15780820380516001836020036101000a031916815260200191505b509250505060405180910390fd5b50809150505b9392505050565b6040518060200160405280600081525090565b828054600181600116156101000203166002900490600052602060002090601f016020900481019282601f1061874057805160ff191683800117855561876e565b8280016001018555821561876e579182015b8281111561876d578251825591602001919060010190618752565b5b50905061877b919061890a565b5090565b6040518061012001604052806000600381111561879857fe5b815260200160008152602001600081526020016000815260200160008152602001600081526020016000815260200160008152602001600081525090565b604051806101000160405280600060108111156187ef57fe5b81526020016000600381111561880157fe5b81526020016000815260200160008152602001600081526020016000815260200160008152602001600081525090565b6040518060e001604052806000601081111561884957fe5b81526020016000600381111561885b57fe5b815260200160008152602001600081526020016000815260200160008152602001600081525090565b6040518060e001604052806000601081111561889c57fe5b8152602001600060038111156188ae57fe5b815260200160008152602001600081526020016000815260200160008152602001600081525090565b6040518060800160405280600060038111156188ef57fe5b81526020016000815260200160008152602001600081525090565b61892c91905b80821115618928576000816000905550600101618910565b5090565b9056fe6f6e6c792061646d696e206d617920696e697469616c697a6520746865206d61726b65746d61726b6574206d6179206f6e6c7920626520696e697469616c697a6564206f6e63654345726332303a3a7377656570546f6b656e3a2063616e206e6f7420737765657020756e6465726c79696e6720746f6b656e696e697469616c2065786368616e67652072617465206d7573742062652067726561746572207468616e207a65726f2e6f6e6c79207468652061646d696e206d6179207365742074686520636f6d702d6c696b652064656c656761746573657474696e6720696e7465726573742072617465206d6f64656c206661696c65644d494e545f4e45575f4143434f554e545f42414c414e43455f43414c43554c4154494f4e5f4641494c4544626f72726f7742616c616e636553746f7265643a20626f72726f7742616c616e636553746f726564496e7465726e616c206661696c656452455041595f424f52524f575f4e45575f4143434f554e545f424f52524f575f42414c414e43455f43414c43554c4154494f4e5f4641494c454452455041595f424f52524f575f4e45575f544f54414c5f42414c414e43455f43414c43554c4154494f4e5f4641494c45444c49515549444154455f434f4d5054524f4c4c45525f43414c43554c4154455f414d4f554e545f5345495a455f4641494c454465786368616e67655261746553746f7265643a2065786368616e67655261746553746f726564496e7465726e616c206661696c65644d494e545f4e45575f544f54414c5f535550504c595f43414c43554c4154494f4e5f4641494c45446f6e65206f662072656465656d546f6b656e73496e206f722072656465656d416d6f756e74496e206d757374206265207a65726f72656475636520726573657276657320756e657870656374656420756e646572666c6f77a265627a7a72315820cb9bc56a27aed8a47319f47b07a2f347cf9f241702e9aecad0916097402cedd064736f6c63430005100032",
  "source": "pragma solidity ^0.5.16;\n\nimport \"./CToken.sol\";\n\ninterface CompLike {\n  function delegate(address delegatee) external;\n}\n\n/**\n * @title Compound's CErc20 Contract\n * @notice CTokens which wrap an EIP-20 underlying\n * @author Compound\n */\ncontract CErc20 is CToken, CErc20Interface {\n    /**\n     * @notice Initialize the new money market\n     * @param underlying_ The address of the underlying asset\n     * @param comptroller_ The address of the Comptroller\n     * @param interestRateModel_ The address of the interest rate model\n     * @param initialExchangeRateMantissa_ The initial exchange rate, scaled by 1e18\n     * @param name_ ERC-20 name of this token\n     * @param symbol_ ERC-20 symbol of this token\n     * @param decimals_ ERC-20 decimal precision of this token\n     */\n    function initialize(address underlying_,\n                        ComptrollerInterface comptroller_,\n                        InterestRateModel interestRateModel_,\n                        uint initialExchangeRateMantissa_,\n                        string memory name_,\n                        string memory symbol_,\n                        uint8 decimals_) public {\n        // CToken initialize does the bulk of the work\n        super.initialize(comptroller_, interestRateModel_, initialExchangeRateMantissa_, name_, symbol_, decimals_);\n\n        // Set underlying and sanity check it\n        underlying = underlying_;\n        EIP20Interface(underlying).totalSupply();\n    }\n\n    /*** User Interface ***/\n\n    /**\n     * @notice Sender supplies assets into the market and receives cTokens in exchange\n     * @dev Accrues interest whether or not the operation succeeds, unless reverted\n     * @param mintAmount The amount of the underlying asset to supply\n     * @return uint 0=success, otherwise a failure (see ErrorReporter.sol for details)\n     */\n    function mint(uint mintAmount) external returns (uint) {\n        (uint err,) = mintInternal(mintAmount);\n        return err;\n    }\n\n    /**\n     * @notice Sender redeems cTokens in exchange for the underlying asset\n     * @dev Accrues interest whether or not the operation succeeds, unless reverted\n     * @param redeemTokens The number of cTokens to redeem into underlying\n     * @return uint 0=success, otherwise a failure (see ErrorReporter.sol for details)\n     */\n    function redeem(uint redeemTokens) external returns (uint) {\n        return redeemInternal(redeemTokens);\n    }\n\n    /**\n     * @notice Sender redeems cTokens in exchange for a specified amount of underlying asset\n     * @dev Accrues interest whether or not the operation succeeds, unless reverted\n     * @param redeemAmount The amount of underlying to redeem\n     * @return uint 0=success, otherwise a failure (see ErrorReporter.sol for details)\n     */\n    function redeemUnderlying(uint redeemAmount) external returns (uint) {\n        return redeemUnderlyingInternal(redeemAmount);\n    }\n\n    /**\n      * @notice Sender borrows assets from the protocol to their own address\n      * @param borrowAmount The amount of the underlying asset to borrow\n      * @return uint 0=success, otherwise a failure (see ErrorReporter.sol for details)\n      */\n    function borrow(uint borrowAmount) external returns (uint) {\n        return borrowInternal(borrowAmount);\n    }\n\n    /**\n     * @notice Sender repays their own borrow\n     * @param repayAmount The amount to repay\n     * @return uint 0=success, otherwise a failure (see ErrorReporter.sol for details)\n     */\n    function repayBorrow(uint repayAmount) external returns (uint) {\n        (uint err,) = repayBorrowInternal(repayAmount);\n        return err;\n    }\n\n    /**\n     * @notice Sender repays a borrow belonging to borrower\n     * @param borrower the account with the debt being payed off\n     * @param repayAmount The amount to repay\n     * @return uint 0=success, otherwise a failure (see ErrorReporter.sol for details)\n     */\n    function repayBorrowBehalf(address borrower, uint repayAmount) external returns (uint) {\n        (uint err,) = repayBorrowBehalfInternal(borrower, repayAmount);\n        return err;\n    }\n\n    /**\n     * @notice The sender liquidates the borrowers collateral.\n     *  The collateral seized is transferred to the liquidator.\n     * @param borrower The borrower of this cToken to be liquidated\n     * @param repayAmount The amount of the underlying borrowed asset to repay\n     * @param cTokenCollateral The market in which to seize collateral from the borrower\n     * @return uint 0=success, otherwise a failure (see ErrorReporter.sol for details)\n     */\n    function liquidateBorrow(address borrower, uint repayAmount, CTokenInterface cTokenCollateral) external returns (uint) {\n        (uint err,) = liquidateBorrowInternal(borrower, repayAmount, cTokenCollateral);\n        return err;\n    }\n\n    /**\n     * @notice A public function to sweep accidental ERC-20 transfers to this contract. Tokens are sent to admin (timelock)\n     * @param token The address of the ERC-20 token to sweep\n     */\n    function sweepToken(EIP20NonStandardInterface token) external {\n    \trequire(address(token) != underlying, \"CErc20::sweepToken: can not sweep underlying token\");\n    \tuint256 balance = token.balanceOf(address(this));\n    \ttoken.transfer(admin, balance);\n    }\n\n    /**\n     * @notice The sender adds to reserves.\n     * @param addAmount The amount fo underlying token to add as reserves\n     * @return uint 0=success, otherwise a failure (see ErrorReporter.sol for details)\n     */\n    function _addReserves(uint addAmount) external returns (uint) {\n        return _addReservesInternal(addAmount);\n    }\n\n    /*** Safe Token ***/\n\n    /**\n     * @notice Gets balance of this contract in terms of the underlying\n     * @dev This excludes the value of the current message, if any\n     * @return The quantity of underlying tokens owned by this contract\n     */\n    function getCashPrior() internal view returns (uint) {\n        EIP20Interface token = EIP20Interface(underlying);\n        return token.balanceOf(address(this));\n    }\n\n    /**\n     * @dev Similar to EIP20 transfer, except it handles a False result from `transferFrom` and reverts in that case.\n     *      This will revert due to insufficient balance or insufficient allowance.\n     *      This function returns the actual amount received,\n     *      which may be less than `amount` if there is a fee attached to the transfer.\n     *\n     *      Note: This wrapper safely handles non-standard ERC-20 tokens that do not return a value.\n     *            See here: https://medium.com/coinmonks/missing-return-value-bug-at-least-130-tokens-affected-d67bf08521ca\n     */\n    function doTransferIn(address from, uint amount) internal returns (uint) {\n        EIP20NonStandardInterface token = EIP20NonStandardInterface(underlying);\n        uint balanceBefore = EIP20Interface(underlying).balanceOf(address(this));\n        token.transferFrom(from, address(this), amount);\n\n        bool success;\n        assembly {\n            switch returndatasize()\n                case 0 {                       // This is a non-standard ERC-20\n                    success := not(0)          // set success to true\n                }\n                case 32 {                      // This is a compliant ERC-20\n                    returndatacopy(0, 0, 32)\n                    success := mload(0)        // Set `success = returndata` of external call\n                }\n                default {                      // This is an excessively non-compliant ERC-20, revert.\n                    revert(0, 0)\n                }\n        }\n        require(success, \"TOKEN_TRANSFER_IN_FAILED\");\n\n        // Calculate the amount that was *actually* transferred\n        uint balanceAfter = EIP20Interface(underlying).balanceOf(address(this));\n        require(balanceAfter >= balanceBefore, \"TOKEN_TRANSFER_IN_OVERFLOW\");\n        return balanceAfter - balanceBefore;   // underflow already checked above, just subtract\n    }\n\n    /**\n     * @dev Similar to EIP20 transfer, except it handles a False success from `transfer` and returns an explanatory\n     *      error code rather than reverting. If caller has not called checked protocol's balance, this may revert due to\n     *      insufficient cash held in this contract. If caller has checked protocol's balance prior to this call, and verified\n     *      it is >= amount, this should not revert in normal conditions.\n     *\n     *      Note: This wrapper safely handles non-standard ERC-20 tokens that do not return a value.\n     *            See here: https://medium.com/coinmonks/missing-return-value-bug-at-least-130-tokens-affected-d67bf08521ca\n     */\n    function doTransferOut(address payable to, uint amount) internal {\n        EIP20NonStandardInterface token = EIP20NonStandardInterface(underlying);\n        token.transfer(to, amount);\n\n        bool success;\n        assembly {\n            switch returndatasize()\n                case 0 {                      // This is a non-standard ERC-20\n                    success := not(0)          // set success to true\n                }\n                case 32 {                     // This is a compliant ERC-20\n                    returndatacopy(0, 0, 32)\n                    success := mload(0)        // Set `success = returndata` of external call\n                }\n                default {                     // This is an excessively non-compliant ERC-20, revert.\n                    revert(0, 0)\n                }\n        }\n        require(success, \"TOKEN_TRANSFER_OUT_FAILED\");\n    }\n\n    /**\n    * @notice Admin call to delegate the votes of the COMP-like underlying\n    * @param compLikeDelegatee The address to delegate votes to\n    * @dev CTokens whose underlying are not CompLike should revert here\n    */\n    function _delegateCompLikeTo(address compLikeDelegatee) external {\n        require(msg.sender == admin, \"only the admin may set the comp-like delegate\");\n        CompLike(underlying).delegate(compLikeDelegatee);\n    }\n}\n",
  "sourcePath": "C:\\Users\\dmelo\\VS-workspace\\blockchain-workspace\\compound-protocol\\contracts\\CErc20.sol",
  "compiler": {
    "name": "solc",
    "version": "0.5.16+commit.9c3226ce.Emscripten.clang"
  },
  "schemaVersion": "3.0.23",
  "updatedAt": "2022-03-22T18:34:23.594Z",
  "devdoc": {
    "author": "Compound",
    "methods": {
      "_acceptAdmin()": {
        "details": "Admin function for pending admin to accept role and update admin",
        "return": "uint 0=success, otherwise a failure (see ErrorReporter.sol for details)"
      },
      "_addReserves(uint256)": {
        "params": {
          "addAmount": "The amount fo underlying token to add as reserves"
        },
        "return": "uint 0=success, otherwise a failure (see ErrorReporter.sol for details)"
      },
      "_delegateCompLikeTo(address)": {
        "details": "CTokens whose underlying are not CompLike should revert here",
        "params": {
          "compLikeDelegatee": "The address to delegate votes to"
        }
      },
      "_reduceReserves(uint256)": {
        "params": {
          "reduceAmount": "Amount of reduction to reserves"
        },
        "return": "uint 0=success, otherwise a failure (see ErrorReporter.sol for details)"
      },
      "_setComptroller(address)": {
        "details": "Admin function to set a new comptroller",
        "return": "uint 0=success, otherwise a failure (see ErrorReporter.sol for details)"
      },
      "_setInterestRateModel(address)": {
        "details": "Admin function to accrue interest and update the interest rate model",
        "params": {
          "newInterestRateModel": "the new interest rate model to use"
        },
        "return": "uint 0=success, otherwise a failure (see ErrorReporter.sol for details)"
      },
      "_setPendingAdmin(address)": {
        "details": "Admin function to begin change of admin. The newPendingAdmin must call `_acceptAdmin` to finalize the transfer.",
        "params": {
          "newPendingAdmin": "New pending admin."
        },
        "return": "uint 0=success, otherwise a failure (see ErrorReporter.sol for details)"
      },
      "_setReserveFactor(uint256)": {
        "details": "Admin function to accrue interest and set a new reserve factor",
        "return": "uint 0=success, otherwise a failure (see ErrorReporter.sol for details)"
      },
      "accrueInterest()": {
        "details": "This calculates interest accrued from the last checkpointed block  up to the current block and writes new checkpoint to storage."
      },
      "allowance(address,address)": {
        "params": {
          "owner": "The address of the account which owns the tokens to be spent",
          "spender": "The address of the account which may transfer tokens"
        },
        "return": "The number of tokens allowed to be spent (-1 means infinite)"
      },
      "approve(address,uint256)": {
        "details": "This will overwrite the approval amount for `spender` and is subject to issues noted [here](https://eips.ethereum.org/EIPS/eip-20#approve)",
        "params": {
          "amount": "The number of tokens that are approved (-1 means infinite)",
          "spender": "The address of the account which may transfer tokens"
        },
        "return": "Whether or not the approval succeeded"
      },
      "balanceOf(address)": {
        "params": {
          "owner": "The address of the account to query"
        },
        "return": "The number of tokens owned by `owner`"
      },
      "balanceOfUnderlying(address)": {
        "details": "This also accrues interest in a transaction",
        "params": {
          "owner": "The address of the account to query"
        },
        "return": "The amount of underlying owned by `owner`"
      },
      "borrow(uint256)": {
        "params": {
          "borrowAmount": "The amount of the underlying asset to borrow"
        },
        "return": "uint 0=success, otherwise a failure (see ErrorReporter.sol for details)"
      },
      "borrowBalanceCurrent(address)": {
        "params": {
          "account": "The address whose balance should be calculated after updating borrowIndex"
        },
        "return": "The calculated balance"
      },
      "borrowBalanceStored(address)": {
        "params": {
          "account": "The address whose balance should be calculated"
        },
        "return": "The calculated balance"
      },
      "borrowRatePerBlock()": {
        "return": "The borrow interest rate per block, scaled by 1e18"
      },
      "exchangeRateCurrent()": {
        "return": "Calculated exchange rate scaled by 1e18"
      },
      "exchangeRateStored()": {
        "details": "This function does not accrue interest before calculating the exchange rate",
        "return": "Calculated exchange rate scaled by 1e18"
      },
      "getAccountSnapshot(address)": {
        "details": "This is used by comptroller to more efficiently perform liquidity checks.",
        "params": {
          "account": "Address of the account to snapshot"
        },
        "return": "(possible error, token balance, borrow balance, exchange rate mantissa)"
      },
      "getCash()": {
        "return": "The quantity of underlying asset owned by this contract"
      },
      "initialize(address,address,address,uint256,string,string,uint8)": {
        "params": {
          "comptroller_": "The address of the Comptroller",
          "decimals_": "ERC-20 decimal precision of this token",
          "initialExchangeRateMantissa_": "The initial exchange rate, scaled by 1e18",
          "interestRateModel_": "The address of the interest rate model",
          "name_": "ERC-20 name of this token",
          "symbol_": "ERC-20 symbol of this token",
          "underlying_": "The address of the underlying asset"
        }
      },
      "initialize(address,address,uint256,string,string,uint8)": {
        "params": {
          "comptroller_": "The address of the Comptroller",
          "decimals_": "EIP-20 decimal precision of this token",
          "initialExchangeRateMantissa_": "The initial exchange rate, scaled by 1e18",
          "interestRateModel_": "The address of the interest rate model",
          "name_": "EIP-20 name of this token",
          "symbol_": "EIP-20 symbol of this token"
        }
      },
      "liquidateBorrow(address,uint256,address)": {
        "params": {
          "borrower": "The borrower of this cToken to be liquidated",
          "cTokenCollateral": "The market in which to seize collateral from the borrower",
          "repayAmount": "The amount of the underlying borrowed asset to repay"
        },
        "return": "uint 0=success, otherwise a failure (see ErrorReporter.sol for details)"
      },
      "mint(uint256)": {
        "details": "Accrues interest whether or not the operation succeeds, unless reverted",
        "params": {
          "mintAmount": "The amount of the underlying asset to supply"
        },
        "return": "uint 0=success, otherwise a failure (see ErrorReporter.sol for details)"
      },
      "redeem(uint256)": {
        "details": "Accrues interest whether or not the operation succeeds, unless reverted",
        "params": {
          "redeemTokens": "The number of cTokens to redeem into underlying"
        },
        "return": "uint 0=success, otherwise a failure (see ErrorReporter.sol for details)"
      },
      "redeemUnderlying(uint256)": {
        "details": "Accrues interest whether or not the operation succeeds, unless reverted",
        "params": {
          "redeemAmount": "The amount of underlying to redeem"
        },
        "return": "uint 0=success, otherwise a failure (see ErrorReporter.sol for details)"
      },
      "repayBorrow(uint256)": {
        "params": {
          "repayAmount": "The amount to repay"
        },
        "return": "uint 0=success, otherwise a failure (see ErrorReporter.sol for details)"
      },
      "repayBorrowBehalf(address,uint256)": {
        "params": {
          "borrower": "the account with the debt being payed off",
          "repayAmount": "The amount to repay"
        },
        "return": "uint 0=success, otherwise a failure (see ErrorReporter.sol for details)"
      },
      "seize(address,address,uint256)": {
        "details": "Will fail unless called by another cToken during the process of liquidation. Its absolutely critical to use msg.sender as the borrowed cToken and not a parameter.",
        "params": {
          "borrower": "The account having collateral seized",
          "liquidator": "The account receiving seized collateral",
          "seizeTokens": "The number of cTokens to seize"
        },
        "return": "uint 0=success, otherwise a failure (see ErrorReporter.sol for details)"
      },
      "supplyRatePerBlock()": {
        "return": "The supply interest rate per block, scaled by 1e18"
      },
      "sweepToken(address)": {
        "params": {
          "token": "The address of the ERC-20 token to sweep"
        }
      },
      "totalBorrowsCurrent()": {
        "return": "The total borrows with interest"
      },
      "transfer(address,uint256)": {
        "params": {
          "amount": "The number of tokens to transfer",
          "dst": "The address of the destination account"
        },
        "return": "Whether or not the transfer succeeded"
      },
      "transferFrom(address,address,uint256)": {
        "params": {
          "amount": "The number of tokens to transfer",
          "dst": "The address of the destination account",
          "src": "The address of the source account"
        },
        "return": "Whether or not the transfer succeeded"
      }
    },
    "title": "Compound's CErc20 Contract"
  },
  "userdoc": {
    "methods": {
      "_acceptAdmin()": {
        "notice": "Accepts transfer of admin rights. msg.sender must be pendingAdmin"
      },
      "_addReserves(uint256)": {
        "notice": "The sender adds to reserves."
      },
      "_delegateCompLikeTo(address)": {
        "notice": "Admin call to delegate the votes of the COMP-like underlying"
      },
      "_reduceReserves(uint256)": {
        "notice": "Accrues interest and reduces reserves by transferring to admin"
      },
      "_setComptroller(address)": {
        "notice": "Sets a new comptroller for the market"
      },
      "_setInterestRateModel(address)": {
        "notice": "accrues interest and updates the interest rate model using _setInterestRateModelFresh"
      },
      "_setPendingAdmin(address)": {
        "notice": "Begins transfer of admin rights. The newPendingAdmin must call `_acceptAdmin` to finalize the transfer."
      },
      "_setReserveFactor(uint256)": {
        "notice": "accrues interest and sets a new reserve factor for the protocol using _setReserveFactorFresh"
      },
      "accrueInterest()": {
        "notice": "Applies accrued interest to total borrows and reserves"
      },
      "allowance(address,address)": {
        "notice": "Get the current allowance from `owner` for `spender`"
      },
      "approve(address,uint256)": {
        "notice": "Approve `spender` to transfer up to `amount` from `src`"
      },
      "balanceOf(address)": {
        "notice": "Get the token balance of the `owner`"
      },
      "balanceOfUnderlying(address)": {
        "notice": "Get the underlying balance of the `owner`"
      },
      "borrow(uint256)": {
        "notice": "Sender borrows assets from the protocol to their own address"
      },
      "borrowBalanceCurrent(address)": {
        "notice": "Accrue interest to updated borrowIndex and then calculate account's borrow balance using the updated borrowIndex"
      },
      "borrowBalanceStored(address)": {
        "notice": "Return the borrow balance of account based on stored data"
      },
      "borrowRatePerBlock()": {
        "notice": "Returns the current per-block borrow interest rate for this cToken"
      },
      "exchangeRateCurrent()": {
        "notice": "Accrue interest then return the up-to-date exchange rate"
      },
      "exchangeRateStored()": {
        "notice": "Calculates the exchange rate from the underlying to the CToken"
      },
      "getAccountSnapshot(address)": {
        "notice": "Get a snapshot of the account's balances, and the cached exchange rate"
      },
      "getCash()": {
        "notice": "Get cash balance of this cToken in the underlying asset"
      },
      "initialize(address,address,address,uint256,string,string,uint8)": {
        "notice": "Initialize the new money market"
      },
      "initialize(address,address,uint256,string,string,uint8)": {
        "notice": "Initialize the money market"
      },
      "liquidateBorrow(address,uint256,address)": {
        "notice": "The sender liquidates the borrowers collateral. The collateral seized is transferred to the liquidator."
      },
      "mint(uint256)": {
        "notice": "Sender supplies assets into the market and receives cTokens in exchange"
      },
      "redeem(uint256)": {
        "notice": "Sender redeems cTokens in exchange for the underlying asset"
      },
      "redeemUnderlying(uint256)": {
        "notice": "Sender redeems cTokens in exchange for a specified amount of underlying asset"
      },
      "repayBorrow(uint256)": {
        "notice": "Sender repays their own borrow"
      },
      "repayBorrowBehalf(address,uint256)": {
        "notice": "Sender repays a borrow belonging to borrower"
      },
      "seize(address,address,uint256)": {
        "notice": "Transfers collateral tokens (this market) to the liquidator."
      },
      "supplyRatePerBlock()": {
        "notice": "Returns the current per-block supply interest rate for this cToken"
      },
      "sweepToken(address)": {
        "notice": "A public function to sweep accidental ERC-20 transfers to this contract. Tokens are sent to admin (timelock)"
      },
      "totalBorrowsCurrent()": {
        "notice": "Returns the current total borrows plus accrued interest"
      },
      "transfer(address,uint256)": {
        "notice": "Transfer `amount` tokens from `msg.sender` to `dst`"
      },
      "transferFrom(address,address,uint256)": {
        "notice": "Transfer `amount` tokens from `src` to `dst`"
      }
    },
    "notice": "CTokens which wrap an EIP-20 underlying"
  }
}