{
    "contractName": "CEther",
    "abi": [
        {
            "inputs": [
                {
                    "internalType": "contract ComptrollerInterface",
                    "name": "comptroller_",
                    "type": "address"
                },
                {
                    "internalType": "contract InterestRateModel",
                    "name": "interestRateModel_",
                    "type": "address"
                },
                {
                    "internalType": "uint256",
                    "name": "initialExchangeRateMantissa_",
                    "type": "uint256"
                },
                {
                    "internalType": "string",
                    "name": "name_",
                    "type": "string"
                },
                {
                    "internalType": "string",
                    "name": "symbol_",
                    "type": "string"
                },
                {
                    "internalType": "uint8",
                    "name": "decimals_",
                    "type": "uint8"
                },
                {
                    "internalType": "address payable",
                    "name": "admin_",
                    "type": "address"
                }
            ],
            "payable": false,
            "stateMutability": "nonpayable",
            "type": "constructor"
        },
        {
            "anonymous": false,
            "inputs": [
                {
                    "indexed": false,
                    "internalType": "uint256",
                    "name": "cashPrior",
                    "type": "uint256"
                },
                {
                    "indexed": false,
                    "internalType": "uint256",
                    "name": "interestAccumulated",
                    "type": "uint256"
                },
                {
                    "indexed": false,
                    "internalType": "uint256",
                    "name": "borrowIndex",
                    "type": "uint256"
                },
                {
                    "indexed": false,
                    "internalType": "uint256",
                    "name": "totalBorrows",
                    "type": "uint256"
                }
            ],
            "name": "AccrueInterest",
            "type": "event"
        },
        {
            "anonymous": false,
            "inputs": [
                {
                    "indexed": true,
                    "internalType": "address",
                    "name": "owner",
                    "type": "address"
                },
                {
                    "indexed": true,
                    "internalType": "address",
                    "name": "spender",
                    "type": "address"
                },
                {
                    "indexed": false,
                    "internalType": "uint256",
                    "name": "amount",
                    "type": "uint256"
                }
            ],
            "name": "Approval",
            "type": "event"
        },
        {
            "anonymous": false,
            "inputs": [
                {
                    "indexed": false,
                    "internalType": "address",
                    "name": "borrower",
                    "type": "address"
                },
                {
                    "indexed": false,
                    "internalType": "uint256",
                    "name": "borrowAmount",
                    "type": "uint256"
                },
                {
                    "indexed": false,
                    "internalType": "uint256",
                    "name": "accountBorrows",
                    "type": "uint256"
                },
                {
                    "indexed": false,
                    "internalType": "uint256",
                    "name": "totalBorrows",
                    "type": "uint256"
                }
            ],
            "name": "Borrow",
            "type": "event"
        },
        {
            "anonymous": false,
            "inputs": [
                {
                    "indexed": false,
                    "internalType": "uint256",
                    "name": "error",
                    "type": "uint256"
                },
                {
                    "indexed": false,
                    "internalType": "uint256",
                    "name": "info",
                    "type": "uint256"
                },
                {
                    "indexed": false,
                    "internalType": "uint256",
                    "name": "detail",
                    "type": "uint256"
                }
            ],
            "name": "Failure",
            "type": "event"
        },
        {
            "anonymous": false,
            "inputs": [
                {
                    "indexed": false,
                    "internalType": "address",
                    "name": "liquidator",
                    "type": "address"
                },
                {
                    "indexed": false,
                    "internalType": "address",
                    "name": "borrower",
                    "type": "address"
                },
                {
                    "indexed": false,
                    "internalType": "uint256",
                    "name": "repayAmount",
                    "type": "uint256"
                },
                {
                    "indexed": false,
                    "internalType": "address",
                    "name": "cTokenCollateral",
                    "type": "address"
                },
                {
                    "indexed": false,
                    "internalType": "uint256",
                    "name": "seizeTokens",
                    "type": "uint256"
                }
            ],
            "name": "LiquidateBorrow",
            "type": "event"
        },
        {
            "anonymous": false,
            "inputs": [
                {
                    "indexed": false,
                    "internalType": "address",
                    "name": "minter",
                    "type": "address"
                },
                {
                    "indexed": false,
                    "internalType": "uint256",
                    "name": "mintAmount",
                    "type": "uint256"
                },
                {
                    "indexed": false,
                    "internalType": "uint256",
                    "name": "mintTokens",
                    "type": "uint256"
                }
            ],
            "name": "Mint",
            "type": "event"
        },
        {
            "anonymous": false,
            "inputs": [
                {
                    "indexed": false,
                    "internalType": "address",
                    "name": "oldAdmin",
                    "type": "address"
                },
                {
                    "indexed": false,
                    "internalType": "address",
                    "name": "newAdmin",
                    "type": "address"
                }
            ],
            "name": "NewAdmin",
            "type": "event"
        },
        {
            "anonymous": false,
            "inputs": [
                {
                    "indexed": false,
                    "internalType": "contract ComptrollerInterface",
                    "name": "oldComptroller",
                    "type": "address"
                },
                {
                    "indexed": false,
                    "internalType": "contract ComptrollerInterface",
                    "name": "newComptroller",
                    "type": "address"
                }
            ],
            "name": "NewComptroller",
            "type": "event"
        },
        {
            "anonymous": false,
            "inputs": [
                {
                    "indexed": false,
                    "internalType": "contract InterestRateModel",
                    "name": "oldInterestRateModel",
                    "type": "address"
                },
                {
                    "indexed": false,
                    "internalType": "contract InterestRateModel",
                    "name": "newInterestRateModel",
                    "type": "address"
                }
            ],
            "name": "NewMarketInterestRateModel",
            "type": "event"
        },
        {
            "anonymous": false,
            "inputs": [
                {
                    "indexed": false,
                    "internalType": "address",
                    "name": "oldPendingAdmin",
                    "type": "address"
                },
                {
                    "indexed": false,
                    "internalType": "address",
                    "name": "newPendingAdmin",
                    "type": "address"
                }
            ],
            "name": "NewPendingAdmin",
            "type": "event"
        },
        {
            "anonymous": false,
            "inputs": [
                {
                    "indexed": false,
                    "internalType": "uint256",
                    "name": "oldReserveFactorMantissa",
                    "type": "uint256"
                },
                {
                    "indexed": false,
                    "internalType": "uint256",
                    "name": "newReserveFactorMantissa",
                    "type": "uint256"
                }
            ],
            "name": "NewReserveFactor",
            "type": "event"
        },
        {
            "anonymous": false,
            "inputs": [
                {
                    "indexed": false,
                    "internalType": "address",
                    "name": "redeemer",
                    "type": "address"
                },
                {
                    "indexed": false,
                    "internalType": "uint256",
                    "name": "redeemAmount",
                    "type": "uint256"
                },
                {
                    "indexed": false,
                    "internalType": "uint256",
                    "name": "redeemTokens",
                    "type": "uint256"
                }
            ],
            "name": "Redeem",
            "type": "event"
        },
        {
            "anonymous": false,
            "inputs": [
                {
                    "indexed": false,
                    "internalType": "address",
                    "name": "payer",
                    "type": "address"
                },
                {
                    "indexed": false,
                    "internalType": "address",
                    "name": "borrower",
                    "type": "address"
                },
                {
                    "indexed": false,
                    "internalType": "uint256",
                    "name": "repayAmount",
                    "type": "uint256"
                },
                {
                    "indexed": false,
                    "internalType": "uint256",
                    "name": "accountBorrows",
                    "type": "uint256"
                },
                {
                    "indexed": false,
                    "internalType": "uint256",
                    "name": "totalBorrows",
                    "type": "uint256"
                }
            ],
            "name": "RepayBorrow",
            "type": "event"
        },
        {
            "anonymous": false,
            "inputs": [
                {
                    "indexed": false,
                    "internalType": "address",
                    "name": "benefactor",
                    "type": "address"
                },
                {
                    "indexed": false,
                    "internalType": "uint256",
                    "name": "addAmount",
                    "type": "uint256"
                },
                {
                    "indexed": false,
                    "internalType": "uint256",
                    "name": "newTotalReserves",
                    "type": "uint256"
                }
            ],
            "name": "ReservesAdded",
            "type": "event"
        },
        {
            "anonymous": false,
            "inputs": [
                {
                    "indexed": false,
                    "internalType": "address",
                    "name": "admin",
                    "type": "address"
                },
                {
                    "indexed": false,
                    "internalType": "uint256",
                    "name": "reduceAmount",
                    "type": "uint256"
                },
                {
                    "indexed": false,
                    "internalType": "uint256",
                    "name": "newTotalReserves",
                    "type": "uint256"
                }
            ],
            "name": "ReservesReduced",
            "type": "event"
        },
        {
            "anonymous": false,
            "inputs": [
                {
                    "indexed": true,
                    "internalType": "address",
                    "name": "from",
                    "type": "address"
                },
                {
                    "indexed": true,
                    "internalType": "address",
                    "name": "to",
                    "type": "address"
                },
                {
                    "indexed": false,
                    "internalType": "uint256",
                    "name": "amount",
                    "type": "uint256"
                }
            ],
            "name": "Transfer",
            "type": "event"
        },
        {
            "payable": true,
            "stateMutability": "payable",
            "type": "fallback"
        },
        {
            "constant": false,
            "inputs": [],
            "name": "_acceptAdmin",
            "outputs": [
                {
                    "internalType": "uint256",
                    "name": "",
                    "type": "uint256"
                }
            ],
            "payable": false,
            "stateMutability": "nonpayable",
            "type": "function"
        },
        {
            "constant": false,
            "inputs": [
                {
                    "internalType": "uint256",
                    "name": "reduceAmount",
                    "type": "uint256"
                }
            ],
            "name": "_reduceReserves",
            "outputs": [
                {
                    "internalType": "uint256",
                    "name": "",
                    "type": "uint256"
                }
            ],
            "payable": false,
            "stateMutability": "nonpayable",
            "type": "function"
        },
        {
            "constant": false,
            "inputs": [
                {
                    "internalType": "contract ComptrollerInterface",
                    "name": "newComptroller",
                    "type": "address"
                }
            ],
            "name": "_setComptroller",
            "outputs": [
                {
                    "internalType": "uint256",
                    "name": "",
                    "type": "uint256"
                }
            ],
            "payable": false,
            "stateMutability": "nonpayable",
            "type": "function"
        },
        {
            "constant": false,
            "inputs": [
                {
                    "internalType": "contract InterestRateModel",
                    "name": "newInterestRateModel",
                    "type": "address"
                }
            ],
            "name": "_setInterestRateModel",
            "outputs": [
                {
                    "internalType": "uint256",
                    "name": "",
                    "type": "uint256"
                }
            ],
            "payable": false,
            "stateMutability": "nonpayable",
            "type": "function"
        },
        {
            "constant": false,
            "inputs": [
                {
                    "internalType": "address payable",
                    "name": "newPendingAdmin",
                    "type": "address"
                }
            ],
            "name": "_setPendingAdmin",
            "outputs": [
                {
                    "internalType": "uint256",
                    "name": "",
                    "type": "uint256"
                }
            ],
            "payable": false,
            "stateMutability": "nonpayable",
            "type": "function"
        },
        {
            "constant": false,
            "inputs": [
                {
                    "internalType": "uint256",
                    "name": "newReserveFactorMantissa",
                    "type": "uint256"
                }
            ],
            "name": "_setReserveFactor",
            "outputs": [
                {
                    "internalType": "uint256",
                    "name": "",
                    "type": "uint256"
                }
            ],
            "payable": false,
            "stateMutability": "nonpayable",
            "type": "function"
        },
        {
            "constant": true,
            "inputs": [],
            "name": "accrualBlockNumber",
            "outputs": [
                {
                    "internalType": "uint256",
                    "name": "",
                    "type": "uint256"
                }
            ],
            "payable": false,
            "stateMutability": "view",
            "type": "function"
        },
        {
            "constant": false,
            "inputs": [],
            "name": "accrueInterest",
            "outputs": [
                {
                    "internalType": "uint256",
                    "name": "",
                    "type": "uint256"
                }
            ],
            "payable": false,
            "stateMutability": "nonpayable",
            "type": "function"
        },
        {
            "constant": true,
            "inputs": [],
            "name": "admin",
            "outputs": [
                {
                    "internalType": "address payable",
                    "name": "",
                    "type": "address"
                }
            ],
            "payable": false,
            "stateMutability": "view",
            "type": "function"
        },
        {
            "constant": true,
            "inputs": [
                {
                    "internalType": "address",
                    "name": "owner",
                    "type": "address"
                },
                {
                    "internalType": "address",
                    "name": "spender",
                    "type": "address"
                }
            ],
            "name": "allowance",
            "outputs": [
                {
                    "internalType": "uint256",
                    "name": "",
                    "type": "uint256"
                }
            ],
            "payable": false,
            "stateMutability": "view",
            "type": "function"
        },
        {
            "constant": false,
            "inputs": [
                {
                    "internalType": "address",
                    "name": "spender",
                    "type": "address"
                },
                {
                    "internalType": "uint256",
                    "name": "amount",
                    "type": "uint256"
                }
            ],
            "name": "approve",
            "outputs": [
                {
                    "internalType": "bool",
                    "name": "",
                    "type": "bool"
                }
            ],
            "payable": false,
            "stateMutability": "nonpayable",
            "type": "function"
        },
        {
            "constant": true,
            "inputs": [
                {
                    "internalType": "address",
                    "name": "owner",
                    "type": "address"
                }
            ],
            "name": "balanceOf",
            "outputs": [
                {
                    "internalType": "uint256",
                    "name": "",
                    "type": "uint256"
                }
            ],
            "payable": false,
            "stateMutability": "view",
            "type": "function"
        },
        {
            "constant": false,
            "inputs": [
                {
                    "internalType": "address",
                    "name": "owner",
                    "type": "address"
                }
            ],
            "name": "balanceOfUnderlying",
            "outputs": [
                {
                    "internalType": "uint256",
                    "name": "",
                    "type": "uint256"
                }
            ],
            "payable": false,
            "stateMutability": "nonpayable",
            "type": "function"
        },
        {
            "constant": false,
            "inputs": [
                {
                    "internalType": "address",
                    "name": "account",
                    "type": "address"
                }
            ],
            "name": "borrowBalanceCurrent",
            "outputs": [
                {
                    "internalType": "uint256",
                    "name": "",
                    "type": "uint256"
                }
            ],
            "payable": false,
            "stateMutability": "nonpayable",
            "type": "function"
        },
        {
            "constant": true,
            "inputs": [
                {
                    "internalType": "address",
                    "name": "account",
                    "type": "address"
                }
            ],
            "name": "borrowBalanceStored",
            "outputs": [
                {
                    "internalType": "uint256",
                    "name": "",
                    "type": "uint256"
                }
            ],
            "payable": false,
            "stateMutability": "view",
            "type": "function"
        },
        {
            "constant": true,
            "inputs": [],
            "name": "borrowIndex",
            "outputs": [
                {
                    "internalType": "uint256",
                    "name": "",
                    "type": "uint256"
                }
            ],
            "payable": false,
            "stateMutability": "view",
            "type": "function"
        },
        {
            "constant": true,
            "inputs": [],
            "name": "borrowRatePerBlock",
            "outputs": [
                {
                    "internalType": "uint256",
                    "name": "",
                    "type": "uint256"
                }
            ],
            "payable": false,
            "stateMutability": "view",
            "type": "function"
        },
        {
            "constant": true,
            "inputs": [],
            "name": "comptroller",
            "outputs": [
                {
                    "internalType": "contract ComptrollerInterface",
                    "name": "",
                    "type": "address"
                }
            ],
            "payable": false,
            "stateMutability": "view",
            "type": "function"
        },
        {
            "constant": true,
            "inputs": [],
            "name": "decimals",
            "outputs": [
                {
                    "internalType": "uint8",
                    "name": "",
                    "type": "uint8"
                }
            ],
            "payable": false,
            "stateMutability": "view",
            "type": "function"
        },
        {
            "constant": false,
            "inputs": [],
            "name": "exchangeRateCurrent",
            "outputs": [
                {
                    "internalType": "uint256",
                    "name": "",
                    "type": "uint256"
                }
            ],
            "payable": false,
            "stateMutability": "nonpayable",
            "type": "function"
        },
        {
            "constant": true,
            "inputs": [],
            "name": "exchangeRateStored",
            "outputs": [
                {
                    "internalType": "uint256",
                    "name": "",
                    "type": "uint256"
                }
            ],
            "payable": false,
            "stateMutability": "view",
            "type": "function"
        },
        {
            "constant": true,
            "inputs": [
                {
                    "internalType": "address",
                    "name": "account",
                    "type": "address"
                }
            ],
            "name": "getAccountSnapshot",
            "outputs": [
                {
                    "internalType": "uint256",
                    "name": "",
                    "type": "uint256"
                },
                {
                    "internalType": "uint256",
                    "name": "",
                    "type": "uint256"
                },
                {
                    "internalType": "uint256",
                    "name": "",
                    "type": "uint256"
                },
                {
                    "internalType": "uint256",
                    "name": "",
                    "type": "uint256"
                }
            ],
            "payable": false,
            "stateMutability": "view",
            "type": "function"
        },
        {
            "constant": true,
            "inputs": [],
            "name": "getCash",
            "outputs": [
                {
                    "internalType": "uint256",
                    "name": "",
                    "type": "uint256"
                }
            ],
            "payable": false,
            "stateMutability": "view",
            "type": "function"
        },
        {
            "constant": false,
            "inputs": [
                {
                    "internalType": "contract ComptrollerInterface",
                    "name": "comptroller_",
                    "type": "address"
                },
                {
                    "internalType": "contract InterestRateModel",
                    "name": "interestRateModel_",
                    "type": "address"
                },
                {
                    "internalType": "uint256",
                    "name": "initialExchangeRateMantissa_",
                    "type": "uint256"
                },
                {
                    "internalType": "string",
                    "name": "name_",
                    "type": "string"
                },
                {
                    "internalType": "string",
                    "name": "symbol_",
                    "type": "string"
                },
                {
                    "internalType": "uint8",
                    "name": "decimals_",
                    "type": "uint8"
                }
            ],
            "name": "initialize",
            "outputs": [],
            "payable": false,
            "stateMutability": "nonpayable",
            "type": "function"
        },
        {
            "constant": true,
            "inputs": [],
            "name": "interestRateModel",
            "outputs": [
                {
                    "internalType": "contract InterestRateModel",
                    "name": "",
                    "type": "address"
                }
            ],
            "payable": false,
            "stateMutability": "view",
            "type": "function"
        },
        {
            "constant": true,
            "inputs": [],
            "name": "isCToken",
            "outputs": [
                {
                    "internalType": "bool",
                    "name": "",
                    "type": "bool"
                }
            ],
            "payable": false,
            "stateMutability": "view",
            "type": "function"
        },
        {
            "constant": true,
            "inputs": [],
            "name": "name",
            "outputs": [
                {
                    "internalType": "string",
                    "name": "",
                    "type": "string"
                }
            ],
            "payable": false,
            "stateMutability": "view",
            "type": "function"
        },
        {
            "constant": true,
            "inputs": [],
            "name": "pendingAdmin",
            "outputs": [
                {
                    "internalType": "address payable",
                    "name": "",
                    "type": "address"
                }
            ],
            "payable": false,
            "stateMutability": "view",
            "type": "function"
        },
        {
            "constant": true,
            "inputs": [],
            "name": "protocolSeizeShareMantissa",
            "outputs": [
                {
                    "internalType": "uint256",
                    "name": "",
                    "type": "uint256"
                }
            ],
            "payable": false,
            "stateMutability": "view",
            "type": "function"
        },
        {
            "constant": true,
            "inputs": [],
            "name": "reserveFactorMantissa",
            "outputs": [
                {
                    "internalType": "uint256",
                    "name": "",
                    "type": "uint256"
                }
            ],
            "payable": false,
            "stateMutability": "view",
            "type": "function"
        },
        {
            "constant": false,
            "inputs": [
                {
                    "internalType": "address",
                    "name": "liquidator",
                    "type": "address"
                },
                {
                    "internalType": "address",
                    "name": "borrower",
                    "type": "address"
                },
                {
                    "internalType": "uint256",
                    "name": "seizeTokens",
                    "type": "uint256"
                }
            ],
            "name": "seize",
            "outputs": [
                {
                    "internalType": "uint256",
                    "name": "",
                    "type": "uint256"
                }
            ],
            "payable": false,
            "stateMutability": "nonpayable",
            "type": "function"
        },
        {
            "constant": true,
            "inputs": [],
            "name": "supplyRatePerBlock",
            "outputs": [
                {
                    "internalType": "uint256",
                    "name": "",
                    "type": "uint256"
                }
            ],
            "payable": false,
            "stateMutability": "view",
            "type": "function"
        },
        {
            "constant": true,
            "inputs": [],
            "name": "symbol",
            "outputs": [
                {
                    "internalType": "string",
                    "name": "",
                    "type": "string"
                }
            ],
            "payable": false,
            "stateMutability": "view",
            "type": "function"
        },
        {
            "constant": true,
            "inputs": [],
            "name": "totalBorrows",
            "outputs": [
                {
                    "internalType": "uint256",
                    "name": "",
                    "type": "uint256"
                }
            ],
            "payable": false,
            "stateMutability": "view",
            "type": "function"
        },
        {
            "constant": false,
            "inputs": [],
            "name": "totalBorrowsCurrent",
            "outputs": [
                {
                    "internalType": "uint256",
                    "name": "",
                    "type": "uint256"
                }
            ],
            "payable": false,
            "stateMutability": "nonpayable",
            "type": "function"
        },
        {
            "constant": true,
            "inputs": [],
            "name": "totalReserves",
            "outputs": [
                {
                    "internalType": "uint256",
                    "name": "",
                    "type": "uint256"
                }
            ],
            "payable": false,
            "stateMutability": "view",
            "type": "function"
        },
        {
            "constant": true,
            "inputs": [],
            "name": "totalSupply",
            "outputs": [
                {
                    "internalType": "uint256",
                    "name": "",
                    "type": "uint256"
                }
            ],
            "payable": false,
            "stateMutability": "view",
            "type": "function"
        },
        {
            "constant": false,
            "inputs": [
                {
                    "internalType": "address",
                    "name": "dst",
                    "type": "address"
                },
                {
                    "internalType": "uint256",
                    "name": "amount",
                    "type": "uint256"
                }
            ],
            "name": "transfer",
            "outputs": [
                {
                    "internalType": "bool",
                    "name": "",
                    "type": "bool"
                }
            ],
            "payable": false,
            "stateMutability": "nonpayable",
            "type": "function"
        },
        {
            "constant": false,
            "inputs": [
                {
                    "internalType": "address",
                    "name": "src",
                    "type": "address"
                },
                {
                    "internalType": "address",
                    "name": "dst",
                    "type": "address"
                },
                {
                    "internalType": "uint256",
                    "name": "amount",
                    "type": "uint256"
                }
            ],
            "name": "transferFrom",
            "outputs": [
                {
                    "internalType": "bool",
                    "name": "",
                    "type": "bool"
                }
            ],
            "payable": false,
            "stateMutability": "nonpayable",
            "type": "function"
        },
        {
            "constant": false,
            "inputs": [],
            "name": "mint",
            "outputs": [],
            "payable": true,
            "stateMutability": "payable",
            "type": "function"
        },
        {
            "constant": false,
            "inputs": [
                {
                    "internalType": "uint256",
                    "name": "redeemTokens",
                    "type": "uint256"
                }
            ],
            "name": "redeem",
            "outputs": [
                {
                    "internalType": "uint256",
                    "name": "",
                    "type": "uint256"
                }
            ],
            "payable": false,
            "stateMutability": "nonpayable",
            "type": "function"
        },
        {
            "constant": false,
            "inputs": [
                {
                    "internalType": "uint256",
                    "name": "redeemAmount",
                    "type": "uint256"
                }
            ],
            "name": "redeemUnderlying",
            "outputs": [
                {
                    "internalType": "uint256",
                    "name": "",
                    "type": "uint256"
                }
            ],
            "payable": false,
            "stateMutability": "nonpayable",
            "type": "function"
        },
        {
            "constant": false,
            "inputs": [
                {
                    "internalType": "uint256",
                    "name": "borrowAmount",
                    "type": "uint256"
                }
            ],
            "name": "borrow",
            "outputs": [
                {
                    "internalType": "uint256",
                    "name": "",
                    "type": "uint256"
                }
            ],
            "payable": false,
            "stateMutability": "nonpayable",
            "type": "function"
        },
        {
            "constant": false,
            "inputs": [],
            "name": "repayBorrow",
            "outputs": [],
            "payable": true,
            "stateMutability": "payable",
            "type": "function"
        },
        {
            "constant": false,
            "inputs": [
                {
                    "internalType": "address",
                    "name": "borrower",
                    "type": "address"
                }
            ],
            "name": "repayBorrowBehalf",
            "outputs": [],
            "payable": true,
            "stateMutability": "payable",
            "type": "function"
        },
        {
            "constant": false,
            "inputs": [
                {
                    "internalType": "address",
                    "name": "borrower",
                    "type": "address"
                },
                {
                    "internalType": "contract CToken",
                    "name": "cTokenCollateral",
                    "type": "address"
                }
            ],
            "name": "liquidateBorrow",
            "outputs": [],
            "payable": true,
            "stateMutability": "payable",
            "type": "function"
        },
        {
            "constant": false,
            "inputs": [],
            "name": "_addReserves",
            "outputs": [
                {
                    "internalType": "uint256",
                    "name": "",
                    "type": "uint256"
                }
            ],
            "payable": true,
            "stateMutability": "payable",
            "type": "function"
        }
    ],
    "bytecode": "0x60806040523480156200001157600080fd5b506040516200919938038062009199833981810160405260e08110156200003757600080fd5b81019080805190602001909291908051906020019092919080519060200190929190805160405193929190846401000000008211156200007657600080fd5b838201915060208201858111156200008d57600080fd5b8251866001820283011164010000000082111715620000ab57600080fd5b8083526020830192505050908051906020019080838360005b83811015620000e1578082015181840152602081019050620000c4565b50505050905090810190601f1680156200010f5780820380516001836020036101000a031916815260200191505b50604052602001805160405193929190846401000000008211156200013357600080fd5b838201915060208201858111156200014a57600080fd5b82518660018202830111640100000000821117156200016857600080fd5b8083526020830192505050908051906020019080838360005b838110156200019e57808201518184015260208101905062000181565b50505050905090810190601f168015620001cc5780820380516001836020036101000a031916815260200191505b50604052602001805190602001909291908051906020019092919050505033600360016101000a81548173ffffffffffffffffffffffffffffffffffffffff021916908373ffffffffffffffffffffffffffffffffffffffff160217905550620002418787878787876200028f60201b60201c565b80600360016101000a81548173ffffffffffffffffffffffffffffffffffffffff021916908373ffffffffffffffffffffffffffffffffffffffff1602179055505050505050505062000c13565b600360019054906101000a900473ffffffffffffffffffffffffffffffffffffffff1673ffffffffffffffffffffffffffffffffffffffff163373ffffffffffffffffffffffffffffffffffffffff161462000337576040517f08c379a0000000000000000000000000000000000000000000000000000000008152600401808060200182810382526024815260200180620091006024913960400191505060405180910390fd5b60006009541480156200034c57506000600a54145b620003a3576040517f08c379a0000000000000000000000000000000000000000000000000000000008152600401808060200182810382526023815260200180620091246023913960400191505060405180910390fd5b8360078190555060006007541162000407576040517f08c379a0000000000000000000000000000000000000000000000000000000008152600401808060200182810382526030815260200180620091476030913960400191505060405180910390fd5b60006200041a87620005ae60201b60201c565b9050600060108111156200042a57fe5b81146200049f576040517f08c379a000000000000000000000000000000000000000000000000000000000815260040180806020018281038252601a8152602001807f73657474696e6720636f6d7074726f6c6c6572206661696c656400000000000081525060200191505060405180910390fd5b620004af6200082e60201b60201c565b600981905550670de0b6b3a7640000600a81905550620004d5866200083660201b60201c565b905060006010811115620004e557fe5b81146200053e576040517f08c379a0000000000000000000000000000000000000000000000000000000008152600401808060200182810382526022815260200180620091776022913960400191505060405180910390fd5b83600190805190602001906200055692919062000b64565b5082600290805190602001906200056f92919062000b64565b5081600360006101000a81548160ff021916908360ff16021790555060016000806101000a81548160ff02191690831515021790555050505050505050565b6000600360019054906101000a900473ffffffffffffffffffffffffffffffffffffffff1673ffffffffffffffffffffffffffffffffffffffff163373ffffffffffffffffffffffffffffffffffffffff161462000622576200061a6001603f62000aed60201b60201c565b905062000829565b6000600560009054906101000a900473ffffffffffffffffffffffffffffffffffffffff1690508273ffffffffffffffffffffffffffffffffffffffff16627e3dd26040518163ffffffff1660e01b815260040160206040518083038186803b1580156200068f57600080fd5b505afa158015620006a4573d6000803e3d6000fd5b505050506040513d6020811015620006bb57600080fd5b81019080805190602001909291905050506200073f576040517f08c379a000000000000000000000000000000000000000000000000000000000815260040180806020018281038252601c8152602001807f6d61726b6572206d6574686f642072657475726e65642066616c73650000000081525060200191505060405180910390fd5b82600560006101000a81548173ffffffffffffffffffffffffffffffffffffffff021916908373ffffffffffffffffffffffffffffffffffffffff1602179055507f7ac369dbd14fa5ea3f473ed67cc9d598964a77501540ba6751eb0b3decf5870d8184604051808373ffffffffffffffffffffffffffffffffffffffff1673ffffffffffffffffffffffffffffffffffffffff1681526020018273ffffffffffffffffffffffffffffffffffffffff1673ffffffffffffffffffffffffffffffffffffffff1681526020019250505060405180910390a1600060108111156200082557fe5b9150505b919050565b600043905090565b600080600360019054906101000a900473ffffffffffffffffffffffffffffffffffffffff1673ffffffffffffffffffffffffffffffffffffffff163373ffffffffffffffffffffffffffffffffffffffff1614620008ac57620008a36001604262000aed60201b60201c565b91505062000ae8565b620008bc6200082e60201b60201c565b60095414620008e257620008d9600a604162000aed60201b60201c565b91505062000ae8565b600660009054906101000a900473ffffffffffffffffffffffffffffffffffffffff1690508273ffffffffffffffffffffffffffffffffffffffff16632191f92a6040518163ffffffff1660e01b815260040160206040518083038186803b1580156200094e57600080fd5b505afa15801562000963573d6000803e3d6000fd5b505050506040513d60208110156200097a57600080fd5b8101908080519060200190929190505050620009fe576040517f08c379a000000000000000000000000000000000000000000000000000000000815260040180806020018281038252601c8152602001807f6d61726b6572206d6574686f642072657475726e65642066616c73650000000081525060200191505060405180910390fd5b82600660006101000a81548173ffffffffffffffffffffffffffffffffffffffff021916908373ffffffffffffffffffffffffffffffffffffffff1602179055507fedffc32e068c7c95dfd4bdfd5c4d939a084d6b11c4199eac8436ed234d72f9268184604051808373ffffffffffffffffffffffffffffffffffffffff1673ffffffffffffffffffffffffffffffffffffffff1681526020018273ffffffffffffffffffffffffffffffffffffffff1673ffffffffffffffffffffffffffffffffffffffff1681526020019250505060405180910390a16000601081111562000ae457fe5b9150505b919050565b60007f45b96fe442630264581b197e84bbada861235052c5a1aadfff9ea4e40a969aa083601081111562000b1d57fe5b83605081111562000b2a57fe5b600060405180848152602001838152602001828152602001935050505060405180910390a182601081111562000b5c57fe5b905092915050565b828054600181600116156101000203166002900490600052602060002090601f016020900481019282601f1062000ba757805160ff191683800117855562000bd8565b8280016001018555821562000bd8579182015b8281111562000bd757825182559160200191906001019062000bba565b5b50905062000be7919062000beb565b5090565b62000c1091905b8082111562000c0c57600081600090555060010162000bf2565b5090565b90565b6184dd8062000c236000396000f3fe6080604052600436106102885760003560e01c806395d89b411161015a578063c5ebeaec116100c1578063f3fdb15a1161007a578063f3fdb15a146110a9578063f851a44014611100578063f8f9da2814611157578063fca7820b14611182578063fcb64147146111d1578063fe9c44ae146111ef57610288565b8063c5ebeaec14610eb2578063db006a7514610f01578063dd62ed3e14610f50578063e597461914610fd5578063e9c714f214611019578063f2b3abbd1461104457610288565b8063aae40a2a11610113578063aae40a2a14610c8a578063ae9d70b014610cee578063b2a02ff114610d19578063b71d1a0c14610da8578063bd6d894d14610e0d578063c37f68e214610e3857610288565b806395d89b411461091657806395dd9193146109a657806399d8c1b414610a0b578063a6afed9514610bc1578063a9059cbb14610bec578063aa5af0fd14610c5f57610288565b80633b1d21a2116101fe5780636752e702116101b75780636752e702146107b65780636c540baf146107e157806370a082311461080c57806373acee9814610871578063852a12e31461089c5780638f840ddd146108eb57610288565b80633b1d21a21461064b5780634576b5db1461067657806347bd3718146106db5780634e4d9fea146107065780635fe3b56714610710578063601a0bf11461076757610288565b806318160ddd1161025057806318160ddd14610475578063182df0f5146104a057806323b872dd146104cb578063267822471461055e578063313ce567146105b55780633af9e669146105e657610288565b806306fdde03146102d8578063095ea7b3146103685780631249c58b146103db578063173b9904146103e557806317bfdfbc14610410575b60006102933461121e565b5090506102d5816040518060400160405280600b81526020017f6d696e74206661696c656400000000000000000000000000000000000000000081525061132f565b50005b3480156102e457600080fd5b506102ed611617565b6040518080602001828103825283818151815260200191508051906020019080838360005b8381101561032d578082015181840152602081019050610312565b50505050905090810190601f16801561035a5780820380516001836020036101000a031916815260200191505b509250505060405180910390f35b34801561037457600080fd5b506103c16004803603604081101561038b57600080fd5b81019080803573ffffffffffffffffffffffffffffffffffffffff169060200190929190803590602001909291905050506116b5565b604051808215151515815260200191505060405180910390f35b6103e36117ac565b005b3480156103f157600080fd5b506103fa6117fc565b6040518082815260200191505060405180910390f35b34801561041c57600080fd5b5061045f6004803603602081101561043357600080fd5b81019080803573ffffffffffffffffffffffffffffffffffffffff169060200190929190505050611802565b6040518082815260200191505060405180910390f35b34801561048157600080fd5b5061048a611951565b6040518082815260200191505060405180910390f35b3480156104ac57600080fd5b506104b5611957565b6040518082815260200191505060405180910390f35b3480156104d757600080fd5b50610544600480360360608110156104ee57600080fd5b81019080803573ffffffffffffffffffffffffffffffffffffffff169060200190929190803573ffffffffffffffffffffffffffffffffffffffff169060200190929190803590602001909291905050506119df565b604051808215151515815260200191505060405180910390f35b34801561056a57600080fd5b50610573611ab9565b604051808273ffffffffffffffffffffffffffffffffffffffff1673ffffffffffffffffffffffffffffffffffffffff16815260200191505060405180910390f35b3480156105c157600080fd5b506105ca611adf565b604051808260ff1660ff16815260200191505060405180910390f35b3480156105f257600080fd5b506106356004803603602081101561060957600080fd5b81019080803573ffffffffffffffffffffffffffffffffffffffff169060200190929190505050611af2565b6040518082815260200191505060405180910390f35b34801561065757600080fd5b50610660611bfb565b6040518082815260200191505060405180910390f35b34801561068257600080fd5b506106c56004803603602081101561069957600080fd5b81019080803573ffffffffffffffffffffffffffffffffffffffff169060200190929190505050611c0a565b6040518082815260200191505060405180910390f35b3480156106e757600080fd5b506106f0611e7b565b6040518082815260200191505060405180910390f35b61070e611e81565b005b34801561071c57600080fd5b50610725611ed1565b604051808273ffffffffffffffffffffffffffffffffffffffff1673ffffffffffffffffffffffffffffffffffffffff16815260200191505060405180910390f35b34801561077357600080fd5b506107a06004803603602081101561078a57600080fd5b8101908080359060200190929190505050611ef7565b6040518082815260200191505060405180910390f35b3480156107c257600080fd5b506107cb611ffd565b6040518082815260200191505060405180910390f35b3480156107ed57600080fd5b506107f6612008565b6040518082815260200191505060405180910390f35b34801561081857600080fd5b5061085b6004803603602081101561082f57600080fd5b81019080803573ffffffffffffffffffffffffffffffffffffffff16906020019092919050505061200e565b6040518082815260200191505060405180910390f35b34801561087d57600080fd5b50610886612057565b6040518082815260200191505060405180910390f35b3480156108a857600080fd5b506108d5600480360360208110156108bf57600080fd5b810190808035906020019092919050505061219e565b6040518082815260200191505060405180910390f35b3480156108f757600080fd5b506109006121b0565b6040518082815260200191505060405180910390f35b34801561092257600080fd5b5061092b6121b6565b6040518080602001828103825283818151815260200191508051906020019080838360005b8381101561096b578082015181840152602081019050610950565b50505050905090810190601f1680156109985780820380516001836020036101000a031916815260200191505b509250505060405180910390f35b3480156109b257600080fd5b506109f5600480360360208110156109c957600080fd5b81019080803573ffffffffffffffffffffffffffffffffffffffff169060200190929190505050612254565b6040518082815260200191505060405180910390f35b348015610a1757600080fd5b50610bbf600480360360c0811015610a2e57600080fd5b81019080803573ffffffffffffffffffffffffffffffffffffffff169060200190929190803573ffffffffffffffffffffffffffffffffffffffff1690602001909291908035906020019092919080359060200190640100000000811115610a9557600080fd5b820183602082011115610aa757600080fd5b80359060200191846001830284011164010000000083111715610ac957600080fd5b91908080601f016020809104026020016040519081016040528093929190818152602001838380828437600081840152601f19601f82011690508083019250505050505050919291929080359060200190640100000000811115610b2c57600080fd5b820183602082011115610b3e57600080fd5b80359060200191846001830284011164010000000083111715610b6057600080fd5b91908080601f016020809104026020016040519081016040528093929190818152602001838380828437600081840152601f19601f820116905080830192505050505050509192919290803560ff1690602001909291905050506122df565b005b348015610bcd57600080fd5b50610bd66125d6565b6040518082815260200191505060405180910390f35b348015610bf857600080fd5b50610c4560048036036040811015610c0f57600080fd5b81019080803573ffffffffffffffffffffffffffffffffffffffff16906020019092919080359060200190929190505050612a8f565b604051808215151515815260200191505060405180910390f35b348015610c6b57600080fd5b50610c74612b68565b6040518082815260200191505060405180910390f35b610cec60048036036040811015610ca057600080fd5b81019080803573ffffffffffffffffffffffffffffffffffffffff169060200190929190803573ffffffffffffffffffffffffffffffffffffffff169060200190929190505050612b6e565b005b348015610cfa57600080fd5b50610d03612bc2565b6040518082815260200191505060405180910390f35b348015610d2557600080fd5b50610d9260048036036060811015610d3c57600080fd5b81019080803573ffffffffffffffffffffffffffffffffffffffff169060200190929190803573ffffffffffffffffffffffffffffffffffffffff16906020019092919080359060200190929190505050612c9c565b6040518082815260200191505060405180910390f35b348015610db457600080fd5b50610df760048036036020811015610dcb57600080fd5b81019080803573ffffffffffffffffffffffffffffffffffffffff169060200190929190505050612d68565b6040518082815260200191505060405180910390f35b348015610e1957600080fd5b50610e22612ee7565b6040518082815260200191505060405180910390f35b348015610e4457600080fd5b50610e8760048036036020811015610e5b57600080fd5b81019080803573ffffffffffffffffffffffffffffffffffffffff169060200190929190505050613033565b6040518085815260200184815260200183815260200182815260200194505050505060405180910390f35b348015610ebe57600080fd5b50610eeb60048036036020811015610ed557600080fd5b810190808035906020019092919050505061315b565b6040518082815260200191505060405180910390f35b348015610f0d57600080fd5b50610f3a60048036036020811015610f2457600080fd5b810190808035906020019092919050505061316d565b6040518082815260200191505060405180910390f35b348015610f5c57600080fd5b50610fbf60048036036040811015610f7357600080fd5b81019080803573ffffffffffffffffffffffffffffffffffffffff169060200190929190803573ffffffffffffffffffffffffffffffffffffffff16906020019092919050505061317f565b6040518082815260200191505060405180910390f35b61101760048036036020811015610feb57600080fd5b81019080803573ffffffffffffffffffffffffffffffffffffffff169060200190929190505050613206565b005b34801561102557600080fd5b5061102e613258565b6040518082815260200191505060405180910390f35b34801561105057600080fd5b506110936004803603602081101561106757600080fd5b81019080803573ffffffffffffffffffffffffffffffffffffffff169060200190929190505050613575565b6040518082815260200191505060405180910390f35b3480156110b557600080fd5b506110be6135c5565b604051808273ffffffffffffffffffffffffffffffffffffffff1673ffffffffffffffffffffffffffffffffffffffff16815260200191505060405180910390f35b34801561110c57600080fd5b506111156135eb565b604051808273ffffffffffffffffffffffffffffffffffffffff1673ffffffffffffffffffffffffffffffffffffffff16815260200191505060405180910390f35b34801561116357600080fd5b5061116c613611565b6040518082815260200191505060405180910390f35b34801561118e57600080fd5b506111bb600480360360208110156111a557600080fd5b81019080803590602001909291905050506136e1565b6040518082815260200191505060405180910390f35b6111d96137e7565b6040518082815260200191505060405180910390f35b3480156111fb57600080fd5b506112046137f7565b604051808215151515815260200191505060405180910390f35b6000806000809054906101000a900460ff166112a2576040517f08c379a000000000000000000000000000000000000000000000000000000000815260040180806020018281038252600a8152602001807f72652d656e74657265640000000000000000000000000000000000000000000081525060200191505060405180910390fd5b60008060006101000a81548160ff02191690831515021790555060006112c66125d6565b9050600060108111156112d557fe5b8114611300576112f18160108111156112ea57fe5b601e6137fc565b60008090509250925050611310565b61130a3385613870565b92509250505b60016000806101000a81548160ff021916908315150217905550915091565b6000601081111561133c57fe5b82141561134857611613565b606060058251016040519080825280601f01601f1916602001820160405280156113815781602001600182028038833980820191505090505b50905060008090505b82518110156113f25782818151811061139f57fe5b602001015160f81c60f81b8282815181106113b657fe5b60200101907effffffffffffffffffffffffffffffffffffffffffffffffffffffffffffff1916908160001a905350808060010191505061138a565b602060f81b82600083018151811061140657fe5b60200101907effffffffffffffffffffffffffffffffffffffffffffffffffffffffffffff1916908160001a905350602860f81b82600183018151811061144957fe5b60200101907effffffffffffffffffffffffffffffffffffffffffffffffffffffffffffff1916908160001a905350600a848161148257fe5b0460300160f81b82600283018151811061149857fe5b60200101907effffffffffffffffffffffffffffffffffffffffffffffffffffffffffffff1916908160001a905350600a84816114d157fe5b0660300160f81b8260038301815181106114e757fe5b60200101907effffffffffffffffffffffffffffffffffffffffffffffffffffffffffffff1916908160001a905350602960f81b82600483018151811061152a57fe5b60200101907effffffffffffffffffffffffffffffffffffffffffffffffffffffffffffff1916908160001a9053506000601081111561156657fe5b8414829061160f576040517f08c379a00000000000000000000000000000000000000000000000000000000081526004018080602001828103825283818151815260200191508051906020019080838360005b838110156115d45780820151818401526020810190506115b9565b50505050905090810190601f1680156116015780820380516001836020036101000a031916815260200191505b509250505060405180910390fd5b5050505b5050565b60018054600181600116156101000203166002900480601f0160208091040260200160405190810160405280929190818152602001828054600181600116156101000203166002900480156116ad5780601f10611682576101008083540402835291602001916116ad565b820191906000526020600020905b81548152906001019060200180831161169057829003601f168201915b505050505081565b60008033905082600f60008373ffffffffffffffffffffffffffffffffffffffff1673ffffffffffffffffffffffffffffffffffffffff16815260200190815260200160002060008673ffffffffffffffffffffffffffffffffffffffff1673ffffffffffffffffffffffffffffffffffffffff168152602001908152602001600020819055508373ffffffffffffffffffffffffffffffffffffffff168173ffffffffffffffffffffffffffffffffffffffff167f8c5be1e5ebec7d5bd14f71427d1e84f3dd0314c0f7b2291e5b200ac8c7c3b925856040518082815260200191505060405180910390a3600191505092915050565b60006117b73461121e565b5090506117f9816040518060400160405280600b81526020017f6d696e74206661696c656400000000000000000000000000000000000000000081525061132f565b50565b60085481565b60008060009054906101000a900460ff16611885576040517f08c379a000000000000000000000000000000000000000000000000000000000815260040180806020018281038252600a8152602001807f72652d656e74657265640000000000000000000000000000000000000000000081525060200191505060405180910390fd5b60008060006101000a81548160ff021916908315150217905550600060108111156118ac57fe5b6118b46125d6565b14611927576040517f08c379a00000000000000000000000000000000000000000000000000000000081526004018080602001828103825260168152602001807f61636372756520696e746572657374206661696c65640000000000000000000081525060200191505060405180910390fd5b61193082612254565b905060016000806101000a81548160ff021916908315150217905550919050565b600d5481565b6000806000611964613e39565b915091506000600381111561197557fe5b82600381111561198157fe5b146119d7576040517f08c379a00000000000000000000000000000000000000000000000000000000081526004018080602001828103825260358152602001806183f46035913960400191505060405180910390fd5b809250505090565b60008060009054906101000a900460ff16611a62576040517f08c379a000000000000000000000000000000000000000000000000000000000815260040180806020018281038252600a8152602001807f72652d656e74657265640000000000000000000000000000000000000000000081525060200191505060405180910390fd5b60008060006101000a81548160ff02191690831515021790555060006010811115611a8957fe5b611a9533868686613f15565b14905060016000806101000a81548160ff0219169083151502179055509392505050565b600460009054906101000a900473ffffffffffffffffffffffffffffffffffffffff1681565b600360009054906101000a900460ff1681565b6000611afc618017565b6040518060200160405280611b0f612ee7565b8152509050600080611b6083600e60008873ffffffffffffffffffffffffffffffffffffffff1673ffffffffffffffffffffffffffffffffffffffff168152602001908152602001600020546144bf565b9150915060006003811115611b7157fe5b826003811115611b7d57fe5b14611bf0576040517f08c379a000000000000000000000000000000000000000000000000000000000815260040180806020018281038252601f8152602001807f62616c616e636520636f756c64206e6f742062652063616c63756c617465640081525060200191505060405180910390fd5b809350505050919050565b6000611c05614522565b905090565b6000600360019054906101000a900473ffffffffffffffffffffffffffffffffffffffff1673ffffffffffffffffffffffffffffffffffffffff163373ffffffffffffffffffffffffffffffffffffffff1614611c7457611c6d6001603f6137fc565b9050611e76565b6000600560009054906101000a900473ffffffffffffffffffffffffffffffffffffffff1690508273ffffffffffffffffffffffffffffffffffffffff16627e3dd26040518163ffffffff1660e01b815260040160206040518083038186803b158015611ce057600080fd5b505afa158015611cf4573d6000803e3d6000fd5b505050506040513d6020811015611d0a57600080fd5b8101908080519060200190929190505050611d8d576040517f08c379a000000000000000000000000000000000000000000000000000000000815260040180806020018281038252601c8152602001807f6d61726b6572206d6574686f642072657475726e65642066616c73650000000081525060200191505060405180910390fd5b82600560006101000a81548173ffffffffffffffffffffffffffffffffffffffff021916908373ffffffffffffffffffffffffffffffffffffffff1602179055507f7ac369dbd14fa5ea3f473ed67cc9d598964a77501540ba6751eb0b3decf5870d8184604051808373ffffffffffffffffffffffffffffffffffffffff1673ffffffffffffffffffffffffffffffffffffffff1681526020018273ffffffffffffffffffffffffffffffffffffffff1673ffffffffffffffffffffffffffffffffffffffff1681526020019250505060405180910390a160006010811115611e7257fe5b9150505b919050565b600b5481565b6000611e8c34614560565b509050611ece816040518060400160405280601281526020017f7265706179426f72726f77206661696c6564000000000000000000000000000081525061132f565b50565b600560009054906101000a900473ffffffffffffffffffffffffffffffffffffffff1681565b60008060009054906101000a900460ff16611f7a576040517f08c379a000000000000000000000000000000000000000000000000000000000815260040180806020018281038252600a8152602001807f72652d656e74657265640000000000000000000000000000000000000000000081525060200191505060405180910390fd5b60008060006101000a81548160ff0219169083151502179055506000611f9e6125d6565b905060006010811115611fad57fe5b8114611fd157611fc9816010811115611fc257fe5b60306137fc565b915050611fde565b611fda83614672565b9150505b60016000806101000a81548160ff021916908315150217905550919050565b666379da05b6000081565b60095481565b6000600e60008373ffffffffffffffffffffffffffffffffffffffff1673ffffffffffffffffffffffffffffffffffffffff168152602001908152602001600020549050919050565b60008060009054906101000a900460ff166120da576040517f08c379a000000000000000000000000000000000000000000000000000000000815260040180806020018281038252600a8152602001807f72652d656e74657265640000000000000000000000000000000000000000000081525060200191505060405180910390fd5b60008060006101000a81548160ff0219169083151502179055506000601081111561210157fe5b6121096125d6565b1461217c576040517f08c379a00000000000000000000000000000000000000000000000000000000081526004018080602001828103825260168152602001807f61636372756520696e746572657374206661696c65640000000000000000000081525060200191505060405180910390fd5b600b54905060016000806101000a81548160ff02191690831515021790555090565b60006121a982614883565b9050919050565b600c5481565b60028054600181600116156101000203166002900480601f01602080910402602001604051908101604052809291908181526020018280546001816001161561010002031660029004801561224c5780601f106122215761010080835404028352916020019161224c565b820191906000526020600020905b81548152906001019060200180831161222f57829003601f168201915b505050505081565b60008060006122628461498c565b915091506000600381111561227357fe5b82600381111561227f57fe5b146122d5576040517f08c379a000000000000000000000000000000000000000000000000000000000815260040180806020018281038252603781526020018061831f6037913960400191505060405180910390fd5b8092505050919050565b600360019054906101000a900473ffffffffffffffffffffffffffffffffffffffff1673ffffffffffffffffffffffffffffffffffffffff163373ffffffffffffffffffffffffffffffffffffffff1614612385576040517f08c379a000000000000000000000000000000000000000000000000000000000815260040180806020018281038252602481526020018061825b6024913960400191505060405180910390fd5b600060095414801561239957506000600a54145b6123ee576040517f08c379a000000000000000000000000000000000000000000000000000000000815260040180806020018281038252602381526020018061827f6023913960400191505060405180910390fd5b83600781905550600060075411612450576040517f08c379a00000000000000000000000000000000000000000000000000000000081526004018080602001828103825260308152602001806182a26030913960400191505060405180910390fd5b600061245b87611c0a565b90506000601081111561246a57fe5b81146124de576040517f08c379a000000000000000000000000000000000000000000000000000000000815260040180806020018281038252601a8152602001807f73657474696e6720636f6d7074726f6c6c6572206661696c656400000000000081525060200191505060405180910390fd5b6124e6614a97565b600981905550670de0b6b3a7640000600a8190555061250486614a9f565b90506000601081111561251357fe5b811461256a576040517f08c379a00000000000000000000000000000000000000000000000000000000081526004018080602001828103825260228152602001806182d26022913960400191505060405180910390fd5b836001908051906020019061258092919061802a565b50826002908051906020019061259792919061802a565b5081600360006101000a81548160ff021916908360ff16021790555060016000806101000a81548160ff02191690831515021790555050505050505050565b6000806125e1614a97565b9050600060095490508181141561260857600060108111156125ff57fe5b92505050612a8c565b6000612612614522565b90506000600b5490506000600c5490506000600a5490506000600660009054906101000a900473ffffffffffffffffffffffffffffffffffffffff1673ffffffffffffffffffffffffffffffffffffffff166315f240538686866040518463ffffffff1660e01b815260040180848152602001838152602001828152602001935050505060206040518083038186803b1580156126ae57600080fd5b505afa1580156126c2573d6000803e3d6000fd5b505050506040513d60208110156126d857600080fd5b8101908080519060200190929190505050905065048c27395000811115612767576040517f08c379a000000000000000000000000000000000000000000000000000000000815260040180806020018281038252601c8152602001807f626f72726f772072617465206973206162737572646c7920686967680000000081525060200191505060405180910390fd5b6000806127748989614d35565b915091506000600381111561278557fe5b82600381111561279157fe5b14612804576040517f08c379a000000000000000000000000000000000000000000000000000000000815260040180806020018281038252601f8152602001807f636f756c64206e6f742063616c63756c61746520626c6f636b2064656c74610081525060200191505060405180910390fd5b61280c618017565b60008060008061282a60405180602001604052808a81525087614d60565b80965081985050506000600381111561283f57fe5b87600381111561284b57fe5b1461287d576128686009600689600381111561286357fe5b614dde565b9e505050505050505050505050505050612a8c565b612887858c6144bf565b80955081985050506000600381111561289c57fe5b8760038111156128a857fe5b146128da576128c5600960018960038111156128c057fe5b614dde565b9e505050505050505050505050505050612a8c565b6128e4848c614e52565b8094508198505050600060038111156128f957fe5b87600381111561290557fe5b14612937576129226009600489600381111561291d57fe5b614dde565b9e505050505050505050505050505050612a8c565b6129526040518060200160405280600854815250858c614e84565b80935081985050506000600381111561296757fe5b87600381111561297357fe5b146129a5576129906009600589600381111561298b57fe5b614dde565b9e505050505050505050505050505050612a8c565b6129b0858a8b614e84565b8092508198505050600060038111156129c557fe5b8760038111156129d157fe5b14612a03576129ee600960038960038111156129e957fe5b614dde565b9e505050505050505050505050505050612a8c565b8d60098190555080600a8190555082600b8190555081600c819055507f4dec04e750ca11537cabcd8a9eab06494de08da3735bc8871cd41250e190bc048c8583866040518085815260200184815260200183815260200182815260200194505050505060405180910390a160006010811115612a7b57fe5b9e5050505050505050505050505050505b90565b60008060009054906101000a900460ff16612b12576040517f08c379a000000000000000000000000000000000000000000000000000000000815260040180806020018281038252600a8152602001807f72652d656e74657265640000000000000000000000000000000000000000000081525060200191505060405180910390fd5b60008060006101000a81548160ff02191690831515021790555060006010811115612b3957fe5b612b4533338686613f15565b14905060016000806101000a81548160ff02191690831515021790555092915050565b600a5481565b6000612b7b833484614eef565b509050612bbd816040518060400160405280601681526020017f6c6971756964617465426f72726f77206661696c65640000000000000000000081525061132f565b505050565b6000600660009054906101000a900473ffffffffffffffffffffffffffffffffffffffff1673ffffffffffffffffffffffffffffffffffffffff1663b8168816612c0a614522565b600b54600c546008546040518563ffffffff1660e01b81526004018085815260200184815260200183815260200182815260200194505050505060206040518083038186803b158015612c5c57600080fd5b505afa158015612c70573d6000803e3d6000fd5b505050506040513d6020811015612c8657600080fd5b8101908080519060200190929190505050905090565b60008060009054906101000a900460ff16612d1f576040517f08c379a000000000000000000000000000000000000000000000000000000000815260040180806020018281038252600a8152602001807f72652d656e74657265640000000000000000000000000000000000000000000081525060200191505060405180910390fd5b60008060006101000a81548160ff021916908315150217905550612d45338585856150c2565b905060016000806101000a81548160ff0219169083151502179055509392505050565b6000600360019054906101000a900473ffffffffffffffffffffffffffffffffffffffff1673ffffffffffffffffffffffffffffffffffffffff163373ffffffffffffffffffffffffffffffffffffffff1614612dd257612dcb600160456137fc565b9050612ee2565b6000600460009054906101000a900473ffffffffffffffffffffffffffffffffffffffff16905082600460006101000a81548173ffffffffffffffffffffffffffffffffffffffff021916908373ffffffffffffffffffffffffffffffffffffffff1602179055507fca4f2f25d0898edd99413412fb94012f9e54ec8142f9b093e7720646a95b16a98184604051808373ffffffffffffffffffffffffffffffffffffffff1673ffffffffffffffffffffffffffffffffffffffff1681526020018273ffffffffffffffffffffffffffffffffffffffff1673ffffffffffffffffffffffffffffffffffffffff1681526020019250505060405180910390a160006010811115612ede57fe5b9150505b919050565b60008060009054906101000a900460ff16612f6a576040517f08c379a000000000000000000000000000000000000000000000000000000000815260040180806020018281038252600a8152602001807f72652d656e74657265640000000000000000000000000000000000000000000081525060200191505060405180910390fd5b60008060006101000a81548160ff02191690831515021790555060006010811115612f9157fe5b612f996125d6565b1461300c576040517f08c379a00000000000000000000000000000000000000000000000000000000081526004018080602001828103825260168152602001807f61636372756520696e746572657374206661696c65640000000000000000000081525060200191505060405180910390fd5b613014611957565b905060016000806101000a81548160ff02191690831515021790555090565b6000806000806000600e60008773ffffffffffffffffffffffffffffffffffffffff1673ffffffffffffffffffffffffffffffffffffffff168152602001908152602001600020549050600080600061308b8961498c565b8094508192505050600060038111156130a057fe5b8160038111156130ac57fe5b146130dd57600960108111156130be57fe5b6000806000829250819150809050975097509750975050505050613154565b6130e5613e39565b8093508192505050600060038111156130fa57fe5b81600381111561310657fe5b14613137576009601081111561311857fe5b6000806000829250819150809050975097509750975050505050613154565b6000601081111561314457fe5b8484849750975097509750505050505b9193509193565b600061316682615791565b9050919050565b600061317882615898565b9050919050565b6000600f60008473ffffffffffffffffffffffffffffffffffffffff1673ffffffffffffffffffffffffffffffffffffffff16815260200190815260200160002060008373ffffffffffffffffffffffffffffffffffffffff1673ffffffffffffffffffffffffffffffffffffffff16815260200190815260200160002054905092915050565b600061321282346159a1565b509050613254816040518060400160405280601881526020017f7265706179426f72726f77426568616c66206661696c6564000000000000000081525061132f565b5050565b6000600460009054906101000a900473ffffffffffffffffffffffffffffffffffffffff1673ffffffffffffffffffffffffffffffffffffffff163373ffffffffffffffffffffffffffffffffffffffff161415806132e35750600073ffffffffffffffffffffffffffffffffffffffff163373ffffffffffffffffffffffffffffffffffffffff16145b156132fb576132f4600160006137fc565b9050613572565b6000600360019054906101000a900473ffffffffffffffffffffffffffffffffffffffff1690506000600460009054906101000a900473ffffffffffffffffffffffffffffffffffffffff169050600460009054906101000a900473ffffffffffffffffffffffffffffffffffffffff16600360016101000a81548173ffffffffffffffffffffffffffffffffffffffff021916908373ffffffffffffffffffffffffffffffffffffffff1602179055506000600460006101000a81548173ffffffffffffffffffffffffffffffffffffffff021916908373ffffffffffffffffffffffffffffffffffffffff1602179055507ff9ffabca9c8276e99321725bcb43fb076a6c66a54b7f21c4e8146d8519b417dc82600360019054906101000a900473ffffffffffffffffffffffffffffffffffffffff16604051808373ffffffffffffffffffffffffffffffffffffffff1673ffffffffffffffffffffffffffffffffffffffff1681526020018273ffffffffffffffffffffffffffffffffffffffff1673ffffffffffffffffffffffffffffffffffffffff1681526020019250505060405180910390a17fca4f2f25d0898edd99413412fb94012f9e54ec8142f9b093e7720646a95b16a981600460009054906101000a900473ffffffffffffffffffffffffffffffffffffffff16604051808373ffffffffffffffffffffffffffffffffffffffff1673ffffffffffffffffffffffffffffffffffffffff1681526020018273ffffffffffffffffffffffffffffffffffffffff1673ffffffffffffffffffffffffffffffffffffffff1681526020019250505060405180910390a16000601081111561356d57fe5b925050505b90565b6000806135806125d6565b90506000601081111561358f57fe5b81146135b3576135ab8160108111156135a457fe5b60406137fc565b9150506135c0565b6135bc83614a9f565b9150505b919050565b600660009054906101000a900473ffffffffffffffffffffffffffffffffffffffff1681565b600360019054906101000a900473ffffffffffffffffffffffffffffffffffffffff1681565b6000600660009054906101000a900473ffffffffffffffffffffffffffffffffffffffff1673ffffffffffffffffffffffffffffffffffffffff166315f24053613659614522565b600b54600c546040518463ffffffff1660e01b815260040180848152602001838152602001828152602001935050505060206040518083038186803b1580156136a157600080fd5b505afa1580156136b5573d6000803e3d6000fd5b505050506040513d60208110156136cb57600080fd5b8101908080519060200190929190505050905090565b60008060009054906101000a900460ff16613764576040517f08c379a000000000000000000000000000000000000000000000000000000000815260040180806020018281038252600a8152602001807f72652d656e74657265640000000000000000000000000000000000000000000081525060200191505060405180910390fd5b60008060006101000a81548160ff02191690831515021790555060006137886125d6565b90506000601081111561379757fe5b81146137bb576137b38160108111156137ac57fe5b60466137fc565b9150506137c8565b6137c483615ab5565b9150505b60016000806101000a81548160ff021916908315150217905550919050565b60006137f234615bc8565b905090565b600181565b60007f45b96fe442630264581b197e84bbada861235052c5a1aadfff9ea4e40a969aa083601081111561382b57fe5b83605081111561383757fe5b600060405180848152602001838152602001828152602001935050505060405180910390a182601081111561386857fe5b905092915050565b6000806000600560009054906101000a900473ffffffffffffffffffffffffffffffffffffffff1673ffffffffffffffffffffffffffffffffffffffff16634ef4c3e13087876040518463ffffffff1660e01b8152600401808473ffffffffffffffffffffffffffffffffffffffff1673ffffffffffffffffffffffffffffffffffffffff1681526020018373ffffffffffffffffffffffffffffffffffffffff1673ffffffffffffffffffffffffffffffffffffffff1681526020018281526020019350505050602060405180830381600087803b15801561395257600080fd5b505af1158015613966573d6000803e3d6000fd5b505050506040513d602081101561397c57600080fd5b81019080805190602001909291905050509050600081146139b3576139a46003601f83614dde565b60008090509250925050613e32565b6139bb614a97565b600954146139de576139cf600a60226137fc565b60008090509250925050613e32565b6139e66180aa565b6139ee613e39565b826020018360400182815250826003811115613a0657fe5b6003811115613a1157fe5b815250505060006003811115613a2357fe5b81602001516003811115613a3357fe5b14613a6457613a546009602183602001516003811115613a4f57fe5b614dde565b6000809050935093505050613e32565b613a6e8686615cd4565b8160c0018181525050613a978160c0015160405180602001604052808460400151815250615df5565b826020018360600182815250826003811115613aaf57fe5b6003811115613aba57fe5b815250505060006003811115613acc57fe5b81602001516003811115613adc57fe5b14613b4f576040517f08c379a00000000000000000000000000000000000000000000000000000000081526004018080602001828103825260208152602001807f4d494e545f45584348414e47455f43414c43554c4154494f4e5f4641494c454481525060200191505060405180910390fd5b613b5f600d548260600151614e52565b826020018360800182815250826003811115613b7757fe5b6003811115613b8257fe5b815250505060006003811115613b9457fe5b81602001516003811115613ba457fe5b14613bfa576040517f08c379a00000000000000000000000000000000000000000000000000000000081526004018080602001828103825260288152602001806184296028913960400191505060405180910390fd5b613c47600e60008873ffffffffffffffffffffffffffffffffffffffff1673ffffffffffffffffffffffffffffffffffffffff168152602001908152602001600020548260600151614e52565b826020018360a00182815250826003811115613c5f57fe5b6003811115613c6a57fe5b815250505060006003811115613c7c57fe5b81602001516003811115613c8c57fe5b14613ce2576040517f08c379a000000000000000000000000000000000000000000000000000000000815260040180806020018281038252602b8152602001806182f4602b913960400191505060405180910390fd5b8060800151600d819055508060a00151600e60008873ffffffffffffffffffffffffffffffffffffffff1673ffffffffffffffffffffffffffffffffffffffff168152602001908152602001600020819055507f4c209b5fc8ad50758f13e2e1088ba56a560dff690a1c6fef26394f4c03821c4f868260c001518360600151604051808473ffffffffffffffffffffffffffffffffffffffff1673ffffffffffffffffffffffffffffffffffffffff168152602001838152602001828152602001935050505060405180910390a18573ffffffffffffffffffffffffffffffffffffffff163073ffffffffffffffffffffffffffffffffffffffff167fddf252ad1be2c89b69c2b068fc378daa952ba7f163c4a11628f55a4df523b3ef83606001516040518082815260200191505060405180910390a360006010811115613e2657fe5b8160c001519350935050505b9250929050565b6000806000600d5490506000811415613e5b5760006007549250925050613f11565b6000613e65614522565b90506000613e71618017565b6000613e8284600b54600c54615e58565b809450819250505060006003811115613e9757fe5b816003811115613ea357fe5b14613ebc57806000809050965096505050505050613f11565b613ec68386615eb4565b809350819250505060006003811115613edb57fe5b816003811115613ee757fe5b14613f0057806000809050965096505050505050613f11565b600082600001519650965050505050505b9091565b600080600560009054906101000a900473ffffffffffffffffffffffffffffffffffffffff1673ffffffffffffffffffffffffffffffffffffffff1663bdcdc258308787876040518563ffffffff1660e01b8152600401808573ffffffffffffffffffffffffffffffffffffffff1673ffffffffffffffffffffffffffffffffffffffff1681526020018473ffffffffffffffffffffffffffffffffffffffff1673ffffffffffffffffffffffffffffffffffffffff1681526020018373ffffffffffffffffffffffffffffffffffffffff1673ffffffffffffffffffffffffffffffffffffffff168152602001828152602001945050505050602060405180830381600087803b15801561402957600080fd5b505af115801561403d573d6000803e3d6000fd5b505050506040513d602081101561405357600080fd5b81019080805190602001909291905050509050600081146140835761407b6003604a83614dde565b9150506144b7565b8373ffffffffffffffffffffffffffffffffffffffff168573ffffffffffffffffffffffffffffffffffffffff1614156140cb576140c36002604b6137fc565b9150506144b7565b60008090508573ffffffffffffffffffffffffffffffffffffffff168773ffffffffffffffffffffffffffffffffffffffff16141561412c577fffffffffffffffffffffffffffffffffffffffffffffffffffffffffffffffff90506141ac565b600f60008773ffffffffffffffffffffffffffffffffffffffff1673ffffffffffffffffffffffffffffffffffffffff16815260200190815260200160002060008873ffffffffffffffffffffffffffffffffffffffff1673ffffffffffffffffffffffffffffffffffffffff1681526020019081526020016000205490505b6000806000806141bc8589614d35565b8094508195505050600060038111156141d157fe5b8460038111156141dd57fe5b146141fb576141ee6009604b6137fc565b96505050505050506144b7565b614244600e60008c73ffffffffffffffffffffffffffffffffffffffff1673ffffffffffffffffffffffffffffffffffffffff1681526020019081526020016000205489614d35565b80935081955050506000600381111561425957fe5b84600381111561426557fe5b14614283576142766009604c6137fc565b96505050505050506144b7565b6142cc600e60008b73ffffffffffffffffffffffffffffffffffffffff1673ffffffffffffffffffffffffffffffffffffffff1681526020019081526020016000205489614e52565b8092508195505050600060038111156142e157fe5b8460038111156142ed57fe5b1461430b576142fe6009604d6137fc565b96505050505050506144b7565b81600e60008c73ffffffffffffffffffffffffffffffffffffffff1673ffffffffffffffffffffffffffffffffffffffff1681526020019081526020016000208190555080600e60008b73ffffffffffffffffffffffffffffffffffffffff1673ffffffffffffffffffffffffffffffffffffffff168152602001908152602001600020819055507fffffffffffffffffffffffffffffffffffffffffffffffffffffffffffffffff851461443c5782600f60008c73ffffffffffffffffffffffffffffffffffffffff1673ffffffffffffffffffffffffffffffffffffffff16815260200190815260200160002060008d73ffffffffffffffffffffffffffffffffffffffff1673ffffffffffffffffffffffffffffffffffffffff168152602001908152602001600020819055505b8873ffffffffffffffffffffffffffffffffffffffff168a73ffffffffffffffffffffffffffffffffffffffff167fddf252ad1be2c89b69c2b068fc378daa952ba7f163c4a11628f55a4df523b3ef8a6040518082815260200191505060405180910390a3600060108111156144ae57fe5b96505050505050505b949350505050565b60008060006144cc618017565b6144d68686614d60565b91509150600060038111156144e757fe5b8260038111156144f357fe5b146145095781600080905093509350505061451b565b600061451482615f88565b9350935050505b9250929050565b60008060006145314734614d35565b915091506000600381111561454257fe5b82600381111561454e57fe5b1461455857600080fd5b809250505090565b6000806000809054906101000a900460ff166145e4576040517f08c379a000000000000000000000000000000000000000000000000000000000815260040180806020018281038252600a8152602001807f72652d656e74657265640000000000000000000000000000000000000000000081525060200191505060405180910390fd5b60008060006101000a81548160ff02191690831515021790555060006146086125d6565b90506000601081111561461757fe5b81146146425761463381601081111561462c57fe5b60366137fc565b60008090509250925050614653565b61464d333386615fa7565b92509250505b60016000806101000a81548160ff021916908315150217905550915091565b600080600360019054906101000a900473ffffffffffffffffffffffffffffffffffffffff1673ffffffffffffffffffffffffffffffffffffffff163373ffffffffffffffffffffffffffffffffffffffff16146146de576146d6600160316137fc565b91505061487e565b6146e6614a97565b60095414614702576146fa600a60336137fc565b91505061487e565b8261470b614522565b10156147255761471d600e60326137fc565b91505061487e565b600c548311156147435761473b600260346137fc565b91505061487e565b82600c54039050600c548111156147a5576040517f08c379a00000000000000000000000000000000000000000000000000000000081526004018080602001828103825260248152602001806184856024913960400191505060405180910390fd5b80600c819055506147d8600360019054906101000a900473ffffffffffffffffffffffffffffffffffffffff168461654c565b7f3bad0c59cf2f06e7314077049f48a93578cd16f5ef92329f1dab1420a99c177e600360019054906101000a900473ffffffffffffffffffffffffffffffffffffffff168483604051808473ffffffffffffffffffffffffffffffffffffffff1673ffffffffffffffffffffffffffffffffffffffff168152602001838152602001828152602001935050505060405180910390a16000601081111561487a57fe5b9150505b919050565b60008060009054906101000a900460ff16614906576040517f08c379a000000000000000000000000000000000000000000000000000000000815260040180806020018281038252600a8152602001807f72652d656e74657265640000000000000000000000000000000000000000000081525060200191505060405180910390fd5b60008060006101000a81548160ff021916908315150217905550600061492a6125d6565b90506000601081111561493957fe5b811461495d5761495581601081111561494e57fe5b60276137fc565b91505061496d565b61496933600085616597565b9150505b60016000806101000a81548160ff021916908315150217905550919050565b600080600080600080601060008873ffffffffffffffffffffffffffffffffffffffff1673ffffffffffffffffffffffffffffffffffffffff16815260200190815260200160002090506000816000015414156149f6576000808090509550955050505050614a92565b614a068160000154600a54616cda565b809450819550505060006003811115614a1b57fe5b846003811115614a2757fe5b14614a3f578360008090509550955050505050614a92565b614a4d838260010154616d2d565b809350819550505060006003811115614a6257fe5b846003811115614a6e57fe5b14614a86578360008090509550955050505050614a92565b60008295509550505050505b915091565b600043905090565b600080600360019054906101000a900473ffffffffffffffffffffffffffffffffffffffff1673ffffffffffffffffffffffffffffffffffffffff163373ffffffffffffffffffffffffffffffffffffffff1614614b0b57614b03600160426137fc565b915050614d30565b614b13614a97565b60095414614b2f57614b27600a60416137fc565b915050614d30565b600660009054906101000a900473ffffffffffffffffffffffffffffffffffffffff1690508273ffffffffffffffffffffffffffffffffffffffff16632191f92a6040518163ffffffff1660e01b815260040160206040518083038186803b158015614b9a57600080fd5b505afa158015614bae573d6000803e3d6000fd5b505050506040513d6020811015614bc457600080fd5b8101908080519060200190929190505050614c47576040517f08c379a000000000000000000000000000000000000000000000000000000000815260040180806020018281038252601c8152602001807f6d61726b6572206d6574686f642072657475726e65642066616c73650000000081525060200191505060405180910390fd5b82600660006101000a81548173ffffffffffffffffffffffffffffffffffffffff021916908373ffffffffffffffffffffffffffffffffffffffff1602179055507fedffc32e068c7c95dfd4bdfd5c4d939a084d6b11c4199eac8436ed234d72f9268184604051808373ffffffffffffffffffffffffffffffffffffffff1673ffffffffffffffffffffffffffffffffffffffff1681526020018273ffffffffffffffffffffffffffffffffffffffff1673ffffffffffffffffffffffffffffffffffffffff1681526020019250505060405180910390a160006010811115614d2c57fe5b9150505b919050565b600080838311614d4d57600083850391509150614d59565b60036000809050915091505b9250929050565b6000614d6a618017565b600080614d7b866000015186616cda565b9150915060006003811115614d8c57fe5b826003811115614d9857fe5b14614dbc578160405180602001604052806000815250809050935093505050614dd7565b60006040518060200160405280838152508090509350935050505b9250929050565b60007f45b96fe442630264581b197e84bbada861235052c5a1aadfff9ea4e40a969aa0846010811115614e0d57fe5b846050811115614e1957fe5b8460405180848152602001838152602001828152602001935050505060405180910390a1836010811115614e4957fe5b90509392505050565b60008060008385019050848110614e70576000819250925050614e7d565b6002600080905092509250505b9250929050565b6000806000614e91618017565b614e9b8787614d60565b9150915060006003811115614eac57fe5b826003811115614eb857fe5b14614ece57816000809050935093505050614ee7565b614ee0614eda82615f88565b86614e52565b9350935050505b935093915050565b6000806000809054906101000a900460ff16614f73576040517f08c379a000000000000000000000000000000000000000000000000000000000815260040180806020018281038252600a8152602001807f72652d656e74657265640000000000000000000000000000000000000000000081525060200191505060405180910390fd5b60008060006101000a81548160ff0219169083151502179055506000614f976125d6565b905060006010811115614fa657fe5b8114614fd157614fc2816010811115614fbb57fe5b600f6137fc565b600080905092509250506150a0565b8373ffffffffffffffffffffffffffffffffffffffff1663a6afed956040518163ffffffff1660e01b8152600401602060405180830381600087803b15801561501957600080fd5b505af115801561502d573d6000803e3d6000fd5b505050506040513d602081101561504357600080fd5b810190808051906020019092919050505090506000601081111561506357fe5b811461508e5761507f81601081111561507857fe5b60106137fc565b600080905092509250506150a0565b61509a33878787616d61565b92509250505b60016000806101000a81548160ff021916908315150217905550935093915050565b600080600560009054906101000a900473ffffffffffffffffffffffffffffffffffffffff1673ffffffffffffffffffffffffffffffffffffffff1663d02f735130888888886040518663ffffffff1660e01b8152600401808673ffffffffffffffffffffffffffffffffffffffff1673ffffffffffffffffffffffffffffffffffffffff1681526020018573ffffffffffffffffffffffffffffffffffffffff1673ffffffffffffffffffffffffffffffffffffffff1681526020018473ffffffffffffffffffffffffffffffffffffffff1673ffffffffffffffffffffffffffffffffffffffff1681526020018373ffffffffffffffffffffffffffffffffffffffff1673ffffffffffffffffffffffffffffffffffffffff16815260200182815260200195505050505050602060405180830381600087803b15801561520a57600080fd5b505af115801561521e573d6000803e3d6000fd5b505050506040513d602081101561523457600080fd5b81019080805190602001909291905050509050600081146152645761525c6003601b83614dde565b915050615789565b8473ffffffffffffffffffffffffffffffffffffffff168473ffffffffffffffffffffffffffffffffffffffff1614156152ac576152a46006601c6137fc565b915050615789565b6152b46180fd565b6152fd600e60008773ffffffffffffffffffffffffffffffffffffffff1673ffffffffffffffffffffffffffffffffffffffff1681526020019081526020016000205485614d35565b82600001836020018281525082600381111561531557fe5b600381111561532057fe5b81525050506000600381111561533257fe5b8160000151600381111561534257fe5b1461536c576153636009601a8360000151600381111561535e57fe5b614dde565b92505050615789565b61538b846040518060200160405280666379da05b60000815250617659565b8160800181815250506153a2848260800151617682565b8160600181815250506153b3613e39565b826000018360c001828152508260038111156153cb57fe5b60038111156153d657fe5b8152505050600060038111156153e857fe5b816000015160038111156153f857fe5b1461546b576040517f08c379a00000000000000000000000000000000000000000000000000000000081526004018080602001828103825260188152602001807f65786368616e67652072617465206d617468206572726f72000000000000000081525060200191505060405180910390fd5b61548b60405180602001604052808360c0015181525082608001516176cc565b8160a00181815250506154a4600c548260a001516176f4565b8160e00181815250506154bd600d548260800151617682565b81610100018181525050615514600e60008873ffffffffffffffffffffffffffffffffffffffff1673ffffffffffffffffffffffffffffffffffffffff168152602001908152602001600020548260600151614e52565b82600001836040018281525082600381111561552c57fe5b600381111561553757fe5b81525050506000600381111561554957fe5b8160000151600381111561555957fe5b146155835761557a600960198360000151600381111561557557fe5b614dde565b92505050615789565b8060e00151600c81905550806101000151600d819055508060200151600e60008773ffffffffffffffffffffffffffffffffffffffff1673ffffffffffffffffffffffffffffffffffffffff168152602001908152602001600020819055508060400151600e60008873ffffffffffffffffffffffffffffffffffffffff1673ffffffffffffffffffffffffffffffffffffffff168152602001908152602001600020819055508573ffffffffffffffffffffffffffffffffffffffff168573ffffffffffffffffffffffffffffffffffffffff167fddf252ad1be2c89b69c2b068fc378daa952ba7f163c4a11628f55a4df523b3ef83606001516040518082815260200191505060405180910390a33073ffffffffffffffffffffffffffffffffffffffff168573ffffffffffffffffffffffffffffffffffffffff167fddf252ad1be2c89b69c2b068fc378daa952ba7f163c4a11628f55a4df523b3ef83608001516040518082815260200191505060405180910390a37fa91e67c5ea634cd43a12c5a482724b03de01e85ca68702a53d0c2f45cb7c1dc5308260a001518360e00151604051808473ffffffffffffffffffffffffffffffffffffffff1673ffffffffffffffffffffffffffffffffffffffff168152602001838152602001828152602001935050505060405180910390a16000601081111561578457fe5b925050505b949350505050565b60008060009054906101000a900460ff16615814576040517f08c379a000000000000000000000000000000000000000000000000000000000815260040180806020018281038252600a8152602001807f72652d656e74657265640000000000000000000000000000000000000000000081525060200191505060405180910390fd5b60008060006101000a81548160ff02191690831515021790555060006158386125d6565b90506000601081111561584757fe5b811461586b5761586381601081111561585c57fe5b60086137fc565b915050615879565b615875338461773e565b9150505b60016000806101000a81548160ff021916908315150217905550919050565b60008060009054906101000a900460ff1661591b576040517f08c379a000000000000000000000000000000000000000000000000000000000815260040180806020018281038252600a8152602001807f72652d656e74657265640000000000000000000000000000000000000000000081525060200191505060405180910390fd5b60008060006101000a81548160ff021916908315150217905550600061593f6125d6565b90506000601081111561594e57fe5b81146159725761596a81601081111561596357fe5b60276137fc565b915050615982565b61597e33846000616597565b9150505b60016000806101000a81548160ff021916908315150217905550919050565b6000806000809054906101000a900460ff16615a25576040517f08c379a000000000000000000000000000000000000000000000000000000000815260040180806020018281038252600a8152602001807f72652d656e74657265640000000000000000000000000000000000000000000081525060200191505060405180910390fd5b60008060006101000a81548160ff0219169083151502179055506000615a496125d6565b905060006010811115615a5857fe5b8114615a8357615a74816010811115615a6d57fe5b60356137fc565b60008090509250925050615a94565b615a8e338686615fa7565b92509250505b60016000806101000a81548160ff0219169083151502179055509250929050565b6000600360019054906101000a900473ffffffffffffffffffffffffffffffffffffffff1673ffffffffffffffffffffffffffffffffffffffff163373ffffffffffffffffffffffffffffffffffffffff1614615b1f57615b18600160476137fc565b9050615bc3565b615b27614a97565b60095414615b4257615b3b600a60486137fc565b9050615bc3565b670de0b6b3a7640000821115615b6557615b5e600260496137fc565b9050615bc3565b60006008549050826008819055507faaa68312e2ea9d50e16af5068410ab56e1a1fd06037b1a35664812c30f8214608184604051808381526020018281526020019250505060405180910390a160006010811115615bbf57fe5b9150505b919050565b60008060009054906101000a900460ff16615c4b576040517f08c379a000000000000000000000000000000000000000000000000000000000815260040180806020018281038252600a8152602001807f72652d656e74657265640000000000000000000000000000000000000000000081525060200191505060405180910390fd5b60008060006101000a81548160ff0219169083151502179055506000615c6f6125d6565b905060006010811115615c7e57fe5b8114615ca257615c9a816010811115615c9357fe5b604e6137fc565b915050615cb5565b615cab83617b7a565b5080915050809150505b60016000806101000a81548160ff021916908315150217905550919050565b60008273ffffffffffffffffffffffffffffffffffffffff163373ffffffffffffffffffffffffffffffffffffffff1614615d77576040517f08c379a000000000000000000000000000000000000000000000000000000000815260040180806020018281038252600f8152602001807f73656e646572206d69736d61746368000000000000000000000000000000000081525060200191505060405180910390fd5b813414615dec576040517f08c379a000000000000000000000000000000000000000000000000000000000815260040180806020018281038252600e8152602001807f76616c7565206d69736d6174636800000000000000000000000000000000000081525060200191505060405180910390fd5b81905092915050565b6000806000615e02618017565b615e0c8686617cc7565b9150915060006003811115615e1d57fe5b826003811115615e2957fe5b14615e3f57816000809050935093505050615e51565b6000615e4a82615f88565b9350935050505b9250929050565b600080600080615e688787614e52565b9150915060006003811115615e7957fe5b826003811115615e8557fe5b14615e9b57816000809050935093505050615eac565b615ea58186614d35565b9350935050505b935093915050565b6000615ebe618017565b600080615ed386670de0b6b3a7640000616cda565b9150915060006003811115615ee457fe5b826003811115615ef057fe5b14615f14578160405180602001604052806000815250809050935093505050615f81565b600080615f218388616d2d565b9150915060006003811115615f3257fe5b826003811115615f3e57fe5b14615f645781604051806020016040528060008152508090509550955050505050615f81565b600060405180602001604052808381525080905095509550505050505b9250929050565b6000670de0b6b3a7640000826000015181615f9f57fe5b049050919050565b6000806000600560009054906101000a900473ffffffffffffffffffffffffffffffffffffffff1673ffffffffffffffffffffffffffffffffffffffff166324008a62308888886040518563ffffffff1660e01b8152600401808573ffffffffffffffffffffffffffffffffffffffff1673ffffffffffffffffffffffffffffffffffffffff1681526020018473ffffffffffffffffffffffffffffffffffffffff1673ffffffffffffffffffffffffffffffffffffffff1681526020018373ffffffffffffffffffffffffffffffffffffffff1673ffffffffffffffffffffffffffffffffffffffff168152602001828152602001945050505050602060405180830381600087803b1580156160bd57600080fd5b505af11580156160d1573d6000803e3d6000fd5b505050506040513d60208110156160e757600080fd5b810190808051906020019092919050505090506000811461611e5761610f6003603883614dde565b60008090509250925050616544565b616126614a97565b600954146161495761613a600a60396137fc565b60008090509250925050616544565b616151618154565b601060008773ffffffffffffffffffffffffffffffffffffffff1673ffffffffffffffffffffffffffffffffffffffff168152602001908152602001600020600101548160600181815250506161a68661498c565b8260200183608001828152508260038111156161be57fe5b60038111156161c957fe5b8152505050600060038111156161db57fe5b816020015160038111156161eb57fe5b1461621c5761620c600960378360200151600381111561620757fe5b614dde565b6000809050935093505050616544565b7fffffffffffffffffffffffffffffffffffffffffffffffffffffffffffffffff851415616257578060800151816040018181525050616262565b848160400181815250505b616270878260400151615cd4565b8160e001818152505061628b81608001518260e00151614d35565b826020018360a001828152508260038111156162a357fe5b60038111156162ae57fe5b8152505050600060038111156162c057fe5b816020015160038111156162d057fe5b14616326576040517f08c379a000000000000000000000000000000000000000000000000000000000815260040180806020018281038252603a815260200180618356603a913960400191505060405180910390fd5b616336600b548260e00151614d35565b826020018360c0018281525082600381111561634e57fe5b600381111561635957fe5b81525050506000600381111561636b57fe5b8160200151600381111561637b57fe5b146163d1576040517f08c379a00000000000000000000000000000000000000000000000000000000081526004018080602001828103825260318152602001806183906031913960400191505060405180910390fd5b8060a00151601060008873ffffffffffffffffffffffffffffffffffffffff1673ffffffffffffffffffffffffffffffffffffffff16815260200190815260200160002060000181905550600a54601060008873ffffffffffffffffffffffffffffffffffffffff1673ffffffffffffffffffffffffffffffffffffffff168152602001908152602001600020600101819055508060c00151600b819055507f1a2a22cb034d26d1854bdc6666a5b91fe25efbbb5dcad3b0355478d6f5c362a187878360e001518460a001518560c00151604051808673ffffffffffffffffffffffffffffffffffffffff1673ffffffffffffffffffffffffffffffffffffffff1681526020018573ffffffffffffffffffffffffffffffffffffffff1673ffffffffffffffffffffffffffffffffffffffff1681526020018481526020018381526020018281526020019550505050505060405180910390a16000601081111561653857fe5b8160e001519350935050505b935093915050565b8173ffffffffffffffffffffffffffffffffffffffff166108fc829081150290604051600060405180830381858888f19350505050158015616592573d6000803e3d6000fd5b505050565b6000808314806165a75750600082145b6165fc576040517f08c379a00000000000000000000000000000000000000000000000000000000081526004018080602001828103825260348152602001806184516034913960400191505060405180910390fd5b6166046181af565b61660c613e39565b82602001836040018281525082600381111561662457fe5b600381111561662f57fe5b81525050506000600381111561664157fe5b8160200151600381111561665157fe5b1461667a576166726009602b8360200151600381111561666d57fe5b614dde565b915050616cd3565b600084111561671c57838160600181815250506166a960405180602001604052808360400151815250856144bf565b8260200183608001828152508260038111156166c157fe5b60038111156166cc57fe5b8152505050600060038111156166de57fe5b816020015160038111156166ee57fe5b146167175761670f600960298360200151600381111561670a57fe5b614dde565b915050616cd3565b6167b1565b6167388360405180602001604052808460400151815250615df5565b82602001836060018281525082600381111561675057fe5b600381111561675b57fe5b81525050506000600381111561676d57fe5b8160200151600381111561677d57fe5b146167a65761679e6009602a8360200151600381111561679957fe5b614dde565b915050616cd3565b828160800181815250505b6000600560009054906101000a900473ffffffffffffffffffffffffffffffffffffffff1673ffffffffffffffffffffffffffffffffffffffff1663eabe7d91308885606001516040518463ffffffff1660e01b8152600401808473ffffffffffffffffffffffffffffffffffffffff1673ffffffffffffffffffffffffffffffffffffffff1681526020018373ffffffffffffffffffffffffffffffffffffffff1673ffffffffffffffffffffffffffffffffffffffff1681526020018281526020019350505050602060405180830381600087803b15801561689457600080fd5b505af11580156168a8573d6000803e3d6000fd5b505050506040513d60208110156168be57600080fd5b81019080805190602001909291905050509050600081146168ef576168e66003602883614dde565b92505050616cd3565b6168f7614a97565b600954146169145761690b600a602c6137fc565b92505050616cd3565b616924600d548360600151614d35565b836020018460a0018281525082600381111561693c57fe5b600381111561694757fe5b81525050506000600381111561695957fe5b8260200151600381111561696957fe5b146169935761698a6009602e8460200151600381111561698557fe5b614dde565b92505050616cd3565b6169e0600e60008873ffffffffffffffffffffffffffffffffffffffff1673ffffffffffffffffffffffffffffffffffffffff168152602001908152602001600020548360600151614d35565b836020018460c001828152508260038111156169f857fe5b6003811115616a0357fe5b815250505060006003811115616a1557fe5b82602001516003811115616a2557fe5b14616a4f57616a466009602d84602001516003811115616a4157fe5b614dde565b92505050616cd3565b8160800151616a5c614522565b1015616a7757616a6e600e602f6137fc565b92505050616cd3565b616a8586836080015161654c565b8160a00151600d819055508160c00151600e60008873ffffffffffffffffffffffffffffffffffffffff1673ffffffffffffffffffffffffffffffffffffffff168152602001908152602001600020819055503073ffffffffffffffffffffffffffffffffffffffff168673ffffffffffffffffffffffffffffffffffffffff167fddf252ad1be2c89b69c2b068fc378daa952ba7f163c4a11628f55a4df523b3ef84606001516040518082815260200191505060405180910390a37fe5b754fb1abb7f01b499791d0b820ae3b6af3424ac1c59768edb53f4ec31a9298683608001518460600151604051808473ffffffffffffffffffffffffffffffffffffffff1673ffffffffffffffffffffffffffffffffffffffff168152602001838152602001828152602001935050505060405180910390a1600560009054906101000a900473ffffffffffffffffffffffffffffffffffffffff1673ffffffffffffffffffffffffffffffffffffffff166351dff9893088856080015186606001516040518563ffffffff1660e01b8152600401808573ffffffffffffffffffffffffffffffffffffffff1673ffffffffffffffffffffffffffffffffffffffff1681526020018473ffffffffffffffffffffffffffffffffffffffff1673ffffffffffffffffffffffffffffffffffffffff168152602001838152602001828152602001945050505050600060405180830381600087803b158015616ca957600080fd5b505af1158015616cbd573d6000803e3d6000fd5b5050505060006010811115616cce57fe5b925050505b9392505050565b6000806000841415616cf55760008080905091509150616d26565b6000838502905083858281616d0657fe5b0414616d1d57600260008090509250925050616d26565b60008192509250505b9250929050565b6000806000831415616d49576001600080905091509150616d5a565b6000838581616d5457fe5b04915091505b9250929050565b6000806000600560009054906101000a900473ffffffffffffffffffffffffffffffffffffffff1673ffffffffffffffffffffffffffffffffffffffff16635fc7e71e30868a8a8a6040518663ffffffff1660e01b8152600401808673ffffffffffffffffffffffffffffffffffffffff1673ffffffffffffffffffffffffffffffffffffffff1681526020018573ffffffffffffffffffffffffffffffffffffffff1673ffffffffffffffffffffffffffffffffffffffff1681526020018473ffffffffffffffffffffffffffffffffffffffff1673ffffffffffffffffffffffffffffffffffffffff1681526020018373ffffffffffffffffffffffffffffffffffffffff1673ffffffffffffffffffffffffffffffffffffffff16815260200182815260200195505050505050602060405180830381600087803b158015616eab57600080fd5b505af1158015616ebf573d6000803e3d6000fd5b505050506040513d6020811015616ed557600080fd5b8101908080519060200190929190505050905060008114616f0c57616efd6003601283614dde565b60008090509250925050617650565b616f14614a97565b60095414616f3757616f28600a60166137fc565b60008090509250925050617650565b616f3f614a97565b8473ffffffffffffffffffffffffffffffffffffffff16636c540baf6040518163ffffffff1660e01b815260040160206040518083038186803b158015616f8557600080fd5b505afa158015616f99573d6000803e3d6000fd5b505050506040513d6020811015616faf57600080fd5b810190808051906020019092919050505014616fe057616fd1600a60116137fc565b60008090509250925050617650565b8673ffffffffffffffffffffffffffffffffffffffff168673ffffffffffffffffffffffffffffffffffffffff16141561702f57617020600660176137fc565b60008090509250925050617650565b600085141561705357617044600760156137fc565b60008090509250925050617650565b7fffffffffffffffffffffffffffffffffffffffffffffffffffffffffffffffff85141561709657617087600760146137fc565b60008090509250925050617650565b6000806170a4898989615fa7565b91509150600060108111156170b557fe5b82146170e2576170d18260108111156170ca57fe5b60186137fc565b600080905094509450505050617650565b600080600560009054906101000a900473ffffffffffffffffffffffffffffffffffffffff1673ffffffffffffffffffffffffffffffffffffffff1663c488847b308a866040518463ffffffff1660e01b8152600401808473ffffffffffffffffffffffffffffffffffffffff1673ffffffffffffffffffffffffffffffffffffffff1681526020018373ffffffffffffffffffffffffffffffffffffffff1673ffffffffffffffffffffffffffffffffffffffff1681526020018281526020019350505050604080518083038186803b1580156171bf57600080fd5b505afa1580156171d3573d6000803e3d6000fd5b505050506040513d60408110156171e957600080fd5b810190808051906020019092919080519060200190929190505050915091506000601081111561721557fe5b821461726c576040517f08c379a00000000000000000000000000000000000000000000000000000000081526004018080602001828103825260338152602001806183c16033913960400191505060405180910390fd5b808873ffffffffffffffffffffffffffffffffffffffff166370a082318c6040518263ffffffff1660e01b8152600401808273ffffffffffffffffffffffffffffffffffffffff1673ffffffffffffffffffffffffffffffffffffffff16815260200191505060206040518083038186803b1580156172ea57600080fd5b505afa1580156172fe573d6000803e3d6000fd5b505050506040513d602081101561731457600080fd5b81019080805190602001909291905050501015617399576040517f08c379a00000000000000000000000000000000000000000000000000000000081526004018080602001828103825260188152602001807f4c49515549444154455f5345495a455f544f4f5f4d554348000000000000000081525060200191505060405180910390fd5b60003073ffffffffffffffffffffffffffffffffffffffff168973ffffffffffffffffffffffffffffffffffffffff1614156173e2576173db308d8d856150c2565b90506174db565b8873ffffffffffffffffffffffffffffffffffffffff1663b2a02ff18d8d856040518463ffffffff1660e01b8152600401808473ffffffffffffffffffffffffffffffffffffffff1673ffffffffffffffffffffffffffffffffffffffff1681526020018373ffffffffffffffffffffffffffffffffffffffff1673ffffffffffffffffffffffffffffffffffffffff1681526020018281526020019350505050602060405180830381600087803b15801561749d57600080fd5b505af11580156174b1573d6000803e3d6000fd5b505050506040513d60208110156174c757600080fd5b810190808051906020019092919050505090505b600060108111156174e857fe5b811461755c576040517f08c379a00000000000000000000000000000000000000000000000000000000081526004018080602001828103825260148152602001807f746f6b656e207365697a757265206661696c656400000000000000000000000081525060200191505060405180910390fd5b7f298637f684da70674f26509b10f07ec2fbc77a335ab1e7d6215a4b2484d8bb528c8c868c86604051808673ffffffffffffffffffffffffffffffffffffffff1673ffffffffffffffffffffffffffffffffffffffff1681526020018573ffffffffffffffffffffffffffffffffffffffff1673ffffffffffffffffffffffffffffffffffffffff1681526020018481526020018373ffffffffffffffffffffffffffffffffffffffff1673ffffffffffffffffffffffffffffffffffffffff1681526020018281526020019550505050505060405180910390a16000601081111561764457fe5b84975097505050505050505b94509492505050565b6000670de0b6b3a7640000617672848460000151617d43565b8161767957fe5b04905092915050565b60006176c483836040518060400160405280601581526020017f7375627472616374696f6e20756e646572666c6f770000000000000000000000815250617d8d565b905092915050565b60006176d6618017565b6176e08484617e47565b90506176eb81615f88565b91505092915050565b600061773683836040518060400160405280601181526020017f6164646974696f6e206f766572666c6f77000000000000000000000000000000815250617e73565b905092915050565b600080600560009054906101000a900473ffffffffffffffffffffffffffffffffffffffff1673ffffffffffffffffffffffffffffffffffffffff1663da3d454c3086866040518463ffffffff1660e01b8152600401808473ffffffffffffffffffffffffffffffffffffffff1673ffffffffffffffffffffffffffffffffffffffff1681526020018373ffffffffffffffffffffffffffffffffffffffff1673ffffffffffffffffffffffffffffffffffffffff1681526020018281526020019350505050602060405180830381600087803b15801561781e57600080fd5b505af1158015617832573d6000803e3d6000fd5b505050506040513d602081101561784857600080fd5b8101908080519060200190929190505050905060008114617878576178706003600e83614dde565b915050617b74565b617880614a97565b6009541461789b57617893600a806137fc565b915050617b74565b826178a4614522565b10156178be576178b6600e60096137fc565b915050617b74565b6178c6618202565b6178cf8561498c565b8260000183602001828152508260038111156178e757fe5b60038111156178f257fe5b81525050506000600381111561790457fe5b8160000151600381111561791457fe5b1461793e57617935600960078360000151600381111561793057fe5b614dde565b92505050617b74565b61794c816020015185614e52565b82600001836040018281525082600381111561796457fe5b600381111561796f57fe5b81525050506000600381111561798157fe5b8160000151600381111561799157fe5b146179bb576179b26009600c836000015160038111156179ad57fe5b614dde565b92505050617b74565b6179c7600b5485614e52565b8260000183606001828152508260038111156179df57fe5b60038111156179ea57fe5b8152505050600060038111156179fc57fe5b81600001516003811115617a0c57fe5b14617a3657617a2d6009600b83600001516003811115617a2857fe5b614dde565b92505050617b74565b617a40858561654c565b8060400151601060008773ffffffffffffffffffffffffffffffffffffffff1673ffffffffffffffffffffffffffffffffffffffff16815260200190815260200160002060000181905550600a54601060008773ffffffffffffffffffffffffffffffffffffffff1673ffffffffffffffffffffffffffffffffffffffff168152602001908152602001600020600101819055508060600151600b819055507f13ed6866d4e1ee6da46f845c46d7e54120883d75c5ea9a2dacc1c4ca8984ab80858583604001518460600151604051808573ffffffffffffffffffffffffffffffffffffffff1673ffffffffffffffffffffffffffffffffffffffff16815260200184815260200183815260200182815260200194505050505060405180910390a160006010811115617b6f57fe5b925050505b92915050565b600080600080617b88614a97565b60095414617ba857617b9c600a604f6137fc565b81935093505050617cc2565b617bb23386615cd4565b905080600c54019150600c54821015617c33576040517f08c379a00000000000000000000000000000000000000000000000000000000081526004018080602001828103825260208152602001807f61646420726573657276657320756e6578706563746564206f766572666c6f7781525060200191505060405180910390fd5b81600c819055507fa91e67c5ea634cd43a12c5a482724b03de01e85ca68702a53d0c2f45cb7c1dc5338284604051808473ffffffffffffffffffffffffffffffffffffffff1673ffffffffffffffffffffffffffffffffffffffff168152602001838152602001828152602001935050505060405180910390a160006010811115617cba57fe5b819350935050505b915091565b6000617cd1618017565b600080617ce6670de0b6b3a764000087616cda565b9150915060006003811115617cf757fe5b826003811115617d0357fe5b14617d27578160405180602001604052806000815250809050935093505050617d3c565b617d35818660000151615eb4565b9350935050505b9250929050565b6000617d8583836040518060400160405280601781526020017f6d756c7469706c69636174696f6e206f766572666c6f77000000000000000000815250617f32565b905092915050565b6000838311158290617e3a576040517f08c379a00000000000000000000000000000000000000000000000000000000081526004018080602001828103825283818151815260200191508051906020019080838360005b83811015617dff578082015181840152602081019050617de4565b50505050905090810190601f168015617e2c5780820380516001836020036101000a031916815260200191505b509250505060405180910390fd5b5082840390509392505050565b617e4f618017565b6040518060200160405280617e68856000015185617d43565b815250905092915050565b6000808385019050848110158390617f26576040517f08c379a00000000000000000000000000000000000000000000000000000000081526004018080602001828103825283818151815260200191508051906020019080838360005b83811015617eeb578082015181840152602081019050617ed0565b50505050905090810190601f168015617f185780820380516001836020036101000a031916815260200191505b509250505060405180910390fd5b50809150509392505050565b600080841480617f425750600083145b15617f505760009050618010565b6000838502905083858281617f6157fe5b0414839061800a576040517f08c379a00000000000000000000000000000000000000000000000000000000081526004018080602001828103825283818151815260200191508051906020019080838360005b83811015617fcf578082015181840152602081019050617fb4565b50505050905090810190601f168015617ffc5780820380516001836020036101000a031916815260200191505b509250505060405180910390fd5b50809150505b9392505050565b6040518060200160405280600081525090565b828054600181600116156101000203166002900490600052602060002090601f016020900481019282601f1061806b57805160ff1916838001178555618099565b82800160010185558215618099579182015b8281111561809857825182559160200191906001019061807d565b5b5090506180a69190618235565b5090565b6040518060e00160405280600060108111156180c257fe5b8152602001600060038111156180d457fe5b815260200160008152602001600081526020016000815260200160008152602001600081525090565b6040518061012001604052806000600381111561811657fe5b815260200160008152602001600081526020016000815260200160008152602001600081526020016000815260200160008152602001600081525090565b6040518061010001604052806000601081111561816d57fe5b81526020016000600381111561817f57fe5b81526020016000815260200160008152602001600081526020016000815260200160008152602001600081525090565b6040518060e00160405280600060108111156181c757fe5b8152602001600060038111156181d957fe5b815260200160008152602001600081526020016000815260200160008152602001600081525090565b60405180608001604052806000600381111561821a57fe5b81526020016000815260200160008152602001600081525090565b61825791905b8082111561825357600081600090555060010161823b565b5090565b9056fe6f6e6c792061646d696e206d617920696e697469616c697a6520746865206d61726b65746d61726b6574206d6179206f6e6c7920626520696e697469616c697a6564206f6e6365696e697469616c2065786368616e67652072617465206d7573742062652067726561746572207468616e207a65726f2e73657474696e6720696e7465726573742072617465206d6f64656c206661696c65644d494e545f4e45575f4143434f554e545f42414c414e43455f43414c43554c4154494f4e5f4641494c4544626f72726f7742616c616e636553746f7265643a20626f72726f7742616c616e636553746f726564496e7465726e616c206661696c656452455041595f424f52524f575f4e45575f4143434f554e545f424f52524f575f42414c414e43455f43414c43554c4154494f4e5f4641494c454452455041595f424f52524f575f4e45575f544f54414c5f42414c414e43455f43414c43554c4154494f4e5f4641494c45444c49515549444154455f434f4d5054524f4c4c45525f43414c43554c4154455f414d4f554e545f5345495a455f4641494c454465786368616e67655261746553746f7265643a2065786368616e67655261746553746f726564496e7465726e616c206661696c65644d494e545f4e45575f544f54414c5f535550504c595f43414c43554c4154494f4e5f4641494c45446f6e65206f662072656465656d546f6b656e73496e206f722072656465656d416d6f756e74496e206d757374206265207a65726f72656475636520726573657276657320756e657870656374656420756e646572666c6f77a265627a7a72315820bebd6063d99a5cd5baa4887dfceb4c8d277adda8c824f916b39ca5e03ff7645064736f6c634300051000326f6e6c792061646d696e206d617920696e697469616c697a6520746865206d61726b65746d61726b6574206d6179206f6e6c7920626520696e697469616c697a6564206f6e6365696e697469616c2065786368616e67652072617465206d7573742062652067726561746572207468616e207a65726f2e73657474696e6720696e7465726573742072617465206d6f64656c206661696c6564",
    "source": "pragma solidity ^0.5.16;\n\nimport \"./CToken.sol\";\n\n/**\n * @title Compound's CEther Contract\n * @notice CToken which wraps Ether\n * @author Compound\n */\ncontract CEther is CToken {\n    /**\n     * @notice Construct a new CEther money market\n     * @param comptroller_ The address of the Comptroller\n     * @param interestRateModel_ The address of the interest rate model\n     * @param initialExchangeRateMantissa_ The initial exchange rate, scaled by 1e18\n     * @param name_ ERC-20 name of this token\n     * @param symbol_ ERC-20 symbol of this token\n     * @param decimals_ ERC-20 decimal precision of this token\n     * @param admin_ Address of the administrator of this token\n     */\n    constructor(ComptrollerInterface comptroller_,\n                InterestRateModel interestRateModel_,\n                uint initialExchangeRateMantissa_,\n                string memory name_,\n                string memory symbol_,\n                uint8 decimals_,\n                address payable admin_) public {\n        // Creator of the contract is admin during initialization\n        admin = msg.sender;\n\n        initialize(comptroller_, interestRateModel_, initialExchangeRateMantissa_, name_, symbol_, decimals_);\n\n        // Set the proper admin now that initialization is done\n        admin = admin_;\n    }\n\n\n    /*** User Interface ***/\n\n    /**\n     * @notice Sender supplies assets into the market and receives cTokens in exchange\n     * @dev Reverts upon any failure\n     */\n    function mint() external payable {\n        (uint err,) = mintInternal(msg.value);\n        requireNoError(err, \"mint failed\");\n    }\n\n    /**\n     * @notice Sender redeems cTokens in exchange for the underlying asset\n     * @dev Accrues interest whether or not the operation succeeds, unless reverted\n     * @param redeemTokens The number of cTokens to redeem into underlying\n     * @return uint 0=success, otherwise a failure (see ErrorReporter.sol for details)\n     */\n    function redeem(uint redeemTokens) external returns (uint) {\n        return redeemInternal(redeemTokens);\n    }\n\n    /**\n     * @notice Sender redeems cTokens in exchange for a specified amount of underlying asset\n     * @dev Accrues interest whether or not the operation succeeds, unless reverted\n     * @param redeemAmount The amount of underlying to redeem\n     * @return uint 0=success, otherwise a failure (see ErrorReporter.sol for details)\n     */\n    function redeemUnderlying(uint redeemAmount) external returns (uint) {\n        return redeemUnderlyingInternal(redeemAmount);\n    }\n\n    /**\n      * @notice Sender borrows assets from the protocol to their own address\n      * @param borrowAmount The amount of the underlying asset to borrow\n      * @return uint 0=success, otherwise a failure (see ErrorReporter.sol for details)\n      */\n    function borrow(uint borrowAmount) external returns (uint) {\n        return borrowInternal(borrowAmount);\n    }\n\n    /**\n     * @notice Sender repays their own borrow\n     * @dev Reverts upon any failure\n     */\n    function repayBorrow() external payable {\n        (uint err,) = repayBorrowInternal(msg.value);\n        requireNoError(err, \"repayBorrow failed\");\n    }\n\n    /**\n     * @notice Sender repays a borrow belonging to borrower\n     * @dev Reverts upon any failure\n     * @param borrower the account with the debt being payed off\n     */\n    function repayBorrowBehalf(address borrower) external payable {\n        (uint err,) = repayBorrowBehalfInternal(borrower, msg.value);\n        requireNoError(err, \"repayBorrowBehalf failed\");\n    }\n\n    /**\n     * @notice The sender liquidates the borrowers collateral.\n     *  The collateral seized is transferred to the liquidator.\n     * @dev Reverts upon any failure\n     * @param borrower The borrower of this cToken to be liquidated\n     * @param cTokenCollateral The market in which to seize collateral from the borrower\n     */\n    function liquidateBorrow(address borrower, CToken cTokenCollateral) external payable {\n        (uint err,) = liquidateBorrowInternal(borrower, msg.value, cTokenCollateral);\n        requireNoError(err, \"liquidateBorrow failed\");\n    }\n\n    /**\n     * @notice The sender adds to reserves.\n     * @return uint 0=success, otherwise a failure (see ErrorReporter.sol for details)\n     */\n    function _addReserves() external payable returns (uint) {\n        return _addReservesInternal(msg.value);\n    }\n\n    /**\n     * @notice Send Ether to CEther to mint\n     */\n    function () external payable {\n        (uint err,) = mintInternal(msg.value);\n        requireNoError(err, \"mint failed\");\n    }\n\n    /*** Safe Token ***/\n\n    /**\n     * @notice Gets balance of this contract in terms of Ether, before this message\n     * @dev This excludes the value of the current message, if any\n     * @return The quantity of Ether owned by this contract\n     */\n    function getCashPrior() internal view returns (uint) {\n        (MathError err, uint startingBalance) = subUInt(address(this).balance, msg.value);\n        require(err == MathError.NO_ERROR);\n        return startingBalance;\n    }\n\n    /**\n     * @notice Perform the actual transfer in, which is a no-op\n     * @param from Address sending the Ether\n     * @param amount Amount of Ether being sent\n     * @return The actual amount of Ether transferred\n     */\n    function doTransferIn(address from, uint amount) internal returns (uint) {\n        // Sanity checks\n        require(msg.sender == from, \"sender mismatch\");\n        require(msg.value == amount, \"value mismatch\");\n        return amount;\n    }\n\n    function doTransferOut(address payable to, uint amount) internal {\n        /* Send the Ether, with minimal gas and revert on failure */\n        to.transfer(amount);\n    }\n\n    function requireNoError(uint errCode, string memory message) internal pure {\n        if (errCode == uint(Error.NO_ERROR)) {\n            return;\n        }\n\n        bytes memory fullMessage = new bytes(bytes(message).length + 5);\n        uint i;\n\n        for (i = 0; i < bytes(message).length; i++) {\n            fullMessage[i] = bytes(message)[i];\n        }\n\n        fullMessage[i+0] = byte(uint8(32));\n        fullMessage[i+1] = byte(uint8(40));\n        fullMessage[i+2] = byte(uint8(48 + ( errCode / 10 )));\n        fullMessage[i+3] = byte(uint8(48 + ( errCode % 10 )));\n        fullMessage[i+4] = byte(uint8(41));\n\n        require(errCode == uint(Error.NO_ERROR), string(fullMessage));\n    }\n}\n",
    "sourcePath": "C:\\Users\\dmelo\\VS-workspace\\blockchain-workspace\\compound-protocol\\contracts\\CEther.sol",
    "compiler": {
        "name": "solc",
        "version": "0.5.16+commit.9c3226ce.Emscripten.clang"
    },
    "schemaVersion": "3.0.23",
    "updatedAt": "2022-03-22T18:34:23.720Z",
    "devdoc": {
        "author": "Compound",
        "methods": {
            "_acceptAdmin()": {
                "details": "Admin function for pending admin to accept role and update admin",
                "return": "uint 0=success, otherwise a failure (see ErrorReporter.sol for details)"
            },
            "_addReserves()": {
                "return": "uint 0=success, otherwise a failure (see ErrorReporter.sol for details)"
            },
            "_reduceReserves(uint256)": {
                "params": {
                    "reduceAmount": "Amount of reduction to reserves"
                },
                "return": "uint 0=success, otherwise a failure (see ErrorReporter.sol for details)"
            },
            "_setComptroller(address)": {
                "details": "Admin function to set a new comptroller",
                "return": "uint 0=success, otherwise a failure (see ErrorReporter.sol for details)"
            },
            "_setInterestRateModel(address)": {
                "details": "Admin function to accrue interest and update the interest rate model",
                "params": {
                    "newInterestRateModel": "the new interest rate model to use"
                },
                "return": "uint 0=success, otherwise a failure (see ErrorReporter.sol for details)"
            },
            "_setPendingAdmin(address)": {
                "details": "Admin function to begin change of admin. The newPendingAdmin must call `_acceptAdmin` to finalize the transfer.",
                "params": {
                    "newPendingAdmin": "New pending admin."
                },
                "return": "uint 0=success, otherwise a failure (see ErrorReporter.sol for details)"
            },
            "_setReserveFactor(uint256)": {
                "details": "Admin function to accrue interest and set a new reserve factor",
                "return": "uint 0=success, otherwise a failure (see ErrorReporter.sol for details)"
            },
            "accrueInterest()": {
                "details": "This calculates interest accrued from the last checkpointed block  up to the current block and writes new checkpoint to storage."
            },
            "allowance(address,address)": {
                "params": {
                    "owner": "The address of the account which owns the tokens to be spent",
                    "spender": "The address of the account which may transfer tokens"
                },
                "return": "The number of tokens allowed to be spent (-1 means infinite)"
            },
            "approve(address,uint256)": {
                "details": "This will overwrite the approval amount for `spender` and is subject to issues noted [here](https://eips.ethereum.org/EIPS/eip-20#approve)",
                "params": {
                    "amount": "The number of tokens that are approved (-1 means infinite)",
                    "spender": "The address of the account which may transfer tokens"
                },
                "return": "Whether or not the approval succeeded"
            },
            "balanceOf(address)": {
                "params": {
                    "owner": "The address of the account to query"
                },
                "return": "The number of tokens owned by `owner`"
            },
            "balanceOfUnderlying(address)": {
                "details": "This also accrues interest in a transaction",
                "params": {
                    "owner": "The address of the account to query"
                },
                "return": "The amount of underlying owned by `owner`"
            },
            "borrow(uint256)": {
                "params": {
                    "borrowAmount": "The amount of the underlying asset to borrow"
                },
                "return": "uint 0=success, otherwise a failure (see ErrorReporter.sol for details)"
            },
            "borrowBalanceCurrent(address)": {
                "params": {
                    "account": "The address whose balance should be calculated after updating borrowIndex"
                },
                "return": "The calculated balance"
            },
            "borrowBalanceStored(address)": {
                "params": {
                    "account": "The address whose balance should be calculated"
                },
                "return": "The calculated balance"
            },
            "borrowRatePerBlock()": {
                "return": "The borrow interest rate per block, scaled by 1e18"
            },
            "constructor": {
                "params": {
                    "admin_": "Address of the administrator of this token",
                    "comptroller_": "The address of the Comptroller",
                    "decimals_": "ERC-20 decimal precision of this token",
                    "initialExchangeRateMantissa_": "The initial exchange rate, scaled by 1e18",
                    "interestRateModel_": "The address of the interest rate model",
                    "name_": "ERC-20 name of this token",
                    "symbol_": "ERC-20 symbol of this token"
                }
            },
            "exchangeRateCurrent()": {
                "return": "Calculated exchange rate scaled by 1e18"
            },
            "exchangeRateStored()": {
                "details": "This function does not accrue interest before calculating the exchange rate",
                "return": "Calculated exchange rate scaled by 1e18"
            },
            "getAccountSnapshot(address)": {
                "details": "This is used by comptroller to more efficiently perform liquidity checks.",
                "params": {
                    "account": "Address of the account to snapshot"
                },
                "return": "(possible error, token balance, borrow balance, exchange rate mantissa)"
            },
            "getCash()": {
                "return": "The quantity of underlying asset owned by this contract"
            },
            "initialize(address,address,uint256,string,string,uint8)": {
                "params": {
                    "comptroller_": "The address of the Comptroller",
                    "decimals_": "EIP-20 decimal precision of this token",
                    "initialExchangeRateMantissa_": "The initial exchange rate, scaled by 1e18",
                    "interestRateModel_": "The address of the interest rate model",
                    "name_": "EIP-20 name of this token",
                    "symbol_": "EIP-20 symbol of this token"
                }
            },
            "liquidateBorrow(address,address)": {
                "details": "Reverts upon any failure",
                "params": {
                    "borrower": "The borrower of this cToken to be liquidated",
                    "cTokenCollateral": "The market in which to seize collateral from the borrower"
                }
            },
            "mint()": {
                "details": "Reverts upon any failure"
            },
            "redeem(uint256)": {
                "details": "Accrues interest whether or not the operation succeeds, unless reverted",
                "params": {
                    "redeemTokens": "The number of cTokens to redeem into underlying"
                },
                "return": "uint 0=success, otherwise a failure (see ErrorReporter.sol for details)"
            },
            "redeemUnderlying(uint256)": {
                "details": "Accrues interest whether or not the operation succeeds, unless reverted",
                "params": {
                    "redeemAmount": "The amount of underlying to redeem"
                },
                "return": "uint 0=success, otherwise a failure (see ErrorReporter.sol for details)"
            },
            "repayBorrow()": {
                "details": "Reverts upon any failure"
            },
            "repayBorrowBehalf(address)": {
                "details": "Reverts upon any failure",
                "params": {
                    "borrower": "the account with the debt being payed off"
                }
            },
            "seize(address,address,uint256)": {
                "details": "Will fail unless called by another cToken during the process of liquidation. Its absolutely critical to use msg.sender as the borrowed cToken and not a parameter.",
                "params": {
                    "borrower": "The account having collateral seized",
                    "liquidator": "The account receiving seized collateral",
                    "seizeTokens": "The number of cTokens to seize"
                },
                "return": "uint 0=success, otherwise a failure (see ErrorReporter.sol for details)"
            },
            "supplyRatePerBlock()": {
                "return": "The supply interest rate per block, scaled by 1e18"
            },
            "totalBorrowsCurrent()": {
                "return": "The total borrows with interest"
            },
            "transfer(address,uint256)": {
                "params": {
                    "amount": "The number of tokens to transfer",
                    "dst": "The address of the destination account"
                },
                "return": "Whether or not the transfer succeeded"
            },
            "transferFrom(address,address,uint256)": {
                "params": {
                    "amount": "The number of tokens to transfer",
                    "dst": "The address of the destination account",
                    "src": "The address of the source account"
                },
                "return": "Whether or not the transfer succeeded"
            }
        },
        "title": "Compound's CEther Contract"
    },
    "userdoc": {
        "methods": {
            "_acceptAdmin()": {
                "notice": "Accepts transfer of admin rights. msg.sender must be pendingAdmin"
            },
            "_addReserves()": {
                "notice": "The sender adds to reserves."
            },
            "_reduceReserves(uint256)": {
                "notice": "Accrues interest and reduces reserves by transferring to admin"
            },
            "_setComptroller(address)": {
                "notice": "Sets a new comptroller for the market"
            },
            "_setInterestRateModel(address)": {
                "notice": "accrues interest and updates the interest rate model using _setInterestRateModelFresh"
            },
            "_setPendingAdmin(address)": {
                "notice": "Begins transfer of admin rights. The newPendingAdmin must call `_acceptAdmin` to finalize the transfer."
            },
            "_setReserveFactor(uint256)": {
                "notice": "accrues interest and sets a new reserve factor for the protocol using _setReserveFactorFresh"
            },
            "accrueInterest()": {
                "notice": "Applies accrued interest to total borrows and reserves"
            },
            "allowance(address,address)": {
                "notice": "Get the current allowance from `owner` for `spender`"
            },
            "approve(address,uint256)": {
                "notice": "Approve `spender` to transfer up to `amount` from `src`"
            },
            "balanceOf(address)": {
                "notice": "Get the token balance of the `owner`"
            },
            "balanceOfUnderlying(address)": {
                "notice": "Get the underlying balance of the `owner`"
            },
            "borrow(uint256)": {
                "notice": "Sender borrows assets from the protocol to their own address"
            },
            "borrowBalanceCurrent(address)": {
                "notice": "Accrue interest to updated borrowIndex and then calculate account's borrow balance using the updated borrowIndex"
            },
            "borrowBalanceStored(address)": {
                "notice": "Return the borrow balance of account based on stored data"
            },
            "borrowRatePerBlock()": {
                "notice": "Returns the current per-block borrow interest rate for this cToken"
            },
            "constructor": "Construct a new CEther money market",
            "exchangeRateCurrent()": {
                "notice": "Accrue interest then return the up-to-date exchange rate"
            },
            "exchangeRateStored()": {
                "notice": "Calculates the exchange rate from the underlying to the CToken"
            },
            "getAccountSnapshot(address)": {
                "notice": "Get a snapshot of the account's balances, and the cached exchange rate"
            },
            "getCash()": {
                "notice": "Get cash balance of this cToken in the underlying asset"
            },
            "initialize(address,address,uint256,string,string,uint8)": {
                "notice": "Initialize the money market"
            },
            "liquidateBorrow(address,address)": {
                "notice": "The sender liquidates the borrowers collateral. The collateral seized is transferred to the liquidator."
            },
            "mint()": {
                "notice": "Sender supplies assets into the market and receives cTokens in exchange"
            },
            "redeem(uint256)": {
                "notice": "Sender redeems cTokens in exchange for the underlying asset"
            },
            "redeemUnderlying(uint256)": {
                "notice": "Sender redeems cTokens in exchange for a specified amount of underlying asset"
            },
            "repayBorrow()": {
                "notice": "Sender repays their own borrow"
            },
            "repayBorrowBehalf(address)": {
                "notice": "Sender repays a borrow belonging to borrower"
            },
            "seize(address,address,uint256)": {
                "notice": "Transfers collateral tokens (this market) to the liquidator."
            },
            "supplyRatePerBlock()": {
                "notice": "Returns the current per-block supply interest rate for this cToken"
            },
            "totalBorrowsCurrent()": {
                "notice": "Returns the current total borrows plus accrued interest"
            },
            "transfer(address,uint256)": {
                "notice": "Transfer `amount` tokens from `msg.sender` to `dst`"
            },
            "transferFrom(address,address,uint256)": {
                "notice": "Transfer `amount` tokens from `src` to `dst`"
            }
        },
        "notice": "CToken which wraps Ether"
    }
}