{
  "contractName": "DODOV2RouteHelper",
  "abi": [
    {
      "inputs": [
        {
          "internalType": "address",
          "name": "dvmFactory",
          "type": "address"
        },
        {
          "internalType": "address",
          "name": "dppFactory",
          "type": "address"
        }
      ],
      "stateMutability": "nonpayable",
      "type": "constructor"
    },
    {
      "inputs": [],
      "name": "_DPP_FACTORY_",
      "outputs": [
        {
          "internalType": "address",
          "name": "",
          "type": "address"
        }
      ],
      "stateMutability": "view",
      "type": "function"
    },
    {
      "inputs": [],
      "name": "_DVM_FACTORY_",
      "outputs": [
        {
          "internalType": "address",
          "name": "",
          "type": "address"
        }
      ],
      "stateMutability": "view",
      "type": "function"
    },
    {
      "inputs": [
        {
          "internalType": "address",
          "name": "token0",
          "type": "address"
        },
        {
          "internalType": "address",
          "name": "token1",
          "type": "address"
        },
        {
          "internalType": "address",
          "name": "userAddr",
          "type": "address"
        }
      ],
      "name": "getPairDetail",
      "outputs": [
        {
          "components": [
            {
              "internalType": "uint256",
              "name": "i",
              "type": "uint256"
            },
            {
              "internalType": "uint256",
              "name": "K",
              "type": "uint256"
            },
            {
              "internalType": "uint256",
              "name": "B",
              "type": "uint256"
            },
            {
              "internalType": "uint256",
              "name": "Q",
              "type": "uint256"
            },
            {
              "internalType": "uint256",
              "name": "B0",
              "type": "uint256"
            },
            {
              "internalType": "uint256",
              "name": "Q0",
              "type": "uint256"
            },
            {
              "internalType": "uint256",
              "name": "R",
              "type": "uint256"
            },
            {
              "internalType": "uint256",
              "name": "lpFeeRate",
              "type": "uint256"
            },
            {
              "internalType": "uint256",
              "name": "mtFeeRate",
              "type": "uint256"
            },
            {
              "internalType": "address",
              "name": "baseToken",
              "type": "address"
            },
            {
              "internalType": "address",
              "name": "quoteToken",
              "type": "address"
            },
            {
              "internalType": "address",
              "name": "curPair",
              "type": "address"
            },
            {
              "internalType": "uint256",
              "name": "pairVersion",
              "type": "uint256"
            }
          ],
          "internalType": "struct DODOV2RouteHelper.PairDetail[]",
          "name": "res",
          "type": "tuple[]"
        }
      ],
      "stateMutability": "view",
      "type": "function"
    }
  ],
  "bytecode": "0x60c060405234801561001057600080fd5b50604051610a09380380610a0983398101604081905261002f9161004d565b6001600160601b0319606092831b8116608052911b1660a05261009e565b6000806040838503121561005f578182fd5b825161006a81610086565b602084015190925061007b81610086565b809150509250929050565b6001600160a01b038116811461009b57600080fd5b50565b60805160601c60a05160601c61093a6100cf60003980610160528061055d525080608e528060b7525061093a6000f3fe608060405234801561001057600080fd5b50600436106100415760003560e01c806369e4e417146100465780639d15e3ae14610064578063b730d15014610084575b600080fd5b61004e61008c565b60405161005b91906107dc565b60405180910390f35b6100776100723660046106ae565b6100b0565b60405161005b919061080a565b61004e61055b565b7f000000000000000000000000000000000000000000000000000000000000000081565b60608060607f00000000000000000000000000000000000000000000000000000000000000006001600160a01b031663794e553887876040518363ffffffff1660e01b81526004016101039291906107f0565b60006040518083038186803b15801561011b57600080fd5b505afa15801561012f573d6000803e3d6000fd5b505050506040513d6000823e601f3d908101601f1916820160405261015791908101906106f8565b915091506060807f00000000000000000000000000000000000000000000000000000000000000006001600160a01b031663794e553889896040518363ffffffff1660e01b81526004016101ac9291906107f0565b60006040518083038186803b1580156101c457600080fd5b505afa1580156101d8573d6000803e3d6000fd5b505050506040513d6000823e601f3d908101601f1916820160405261020091908101906106f8565b915091506000815183518551875101010190508067ffffffffffffffff8111801561022a57600080fd5b5060405190808252806020026020018201604052801561026457816020015b61025161057f565b8152602001906001900390816102495790505b50955060005b818160ff16101561054e5761027d61057f565b604051806101a0016040528060008152602001600081526020016000815260200160008152602001600081526020016000815260200160008152602001600081526020016000815260200160006001600160a01b0316815260200160006001600160a01b0316815260200160006001600160a01b0316815260200160028152509050600087518360ff16101561034757878360ff168151811061031c57fe5b60209081029190910101516001600160a01b03808e166101208501528c1661014084015290506103f9565b86518851018360ff161015610393578688518460ff16038151811061036857fe5b60209081029190910101516001600160a01b03808d166101208501528d1661014084015290506103f9565b85518751895101018360ff1610156103ba5785875189518560ff1603038151811061031c57fe5b84865188518a518660ff16030303815181106103d257fe5b60209081029190910101516001600160a01b03808d166101208501528d1661014084015290505b806001600160a01b031663fd1ed7e96040518163ffffffff1660e01b815260040160e06040518083038186803b15801561043257600080fd5b505afa158015610446573d6000803e3d6000fd5b505050506040513d601f19601f8201168201806040525081019061046a919061077c565b60c089015260a088015260808701526060860152604080860191909152602085019190915290835251634409660960e01b81526001600160a01b038216906344096609906104bc908d906004016107dc565b604080518083038186803b1580156104d357600080fd5b505afa1580156104e7573d6000803e3d6000fd5b505050506040513d601f19601f8201168201806040525081019061050b9190610759565b61010084015260e08301526001600160a01b038116610160830152885182908a9060ff861690811061053957fe5b6020908102919091010152505060010161026a565b5050505050509392505050565b7f000000000000000000000000000000000000000000000000000000000000000081565b604051806101a0016040528060008152602001600081526020016000815260200160008152602001600081526020016000815260200160008152602001600081526020016000815260200160006001600160a01b0316815260200160006001600160a01b0316815260200160006001600160a01b03168152602001600081525090565b805161060d816108ec565b92915050565b600082601f830112610623578081fd5b815167ffffffffffffffff8082111561063a578283fd5b602080830260405182828201018181108582111715610657578687fd5b60405284815294508185019250858201818701830188101561067857600080fd5b600091505b848210156106a35761068f8882610602565b84529282019260019190910190820161067d565b505050505092915050565b6000806000606084860312156106c2578283fd5b83356106cd816108ec565b925060208401356106dd816108ec565b915060408401356106ed816108ec565b809150509250925092565b6000806040838503121561070a578182fd5b825167ffffffffffffffff80821115610721578384fd5b61072d86838701610613565b93506020850151915080821115610742578283fd5b5061074f85828601610613565b9150509250929050565b6000806040838503121561076b578182fd5b505080516020909101519092909150565b600080600080600080600060e0888a031215610796578283fd5b5050855160208701516040880151606089015160808a015160a08b015160c0909b0151949c939b50919990985090965094509092509050565b6001600160a01b03169052565b6001600160a01b0391909116815260200190565b6001600160a01b0392831681529116602082015260400190565b602080825282518282018190526000919060409081850190868401855b828110156108df5781518051855286810151878601528581015186860152606080820151908601526080808201519086015260a0808201519086015260c0808201519086015260e08082015190860152610100808201519086015261012080820151610895828801826107cf565b5050610140808201516108aa828801826107cf565b5050610160808201516108bf828801826107cf565b505061018090810151908501526101a09093019290850190600101610827565b5091979650505050505050565b6001600160a01b038116811461090157600080fd5b5056fea264697066735822122041cbf6912678b03cc703f66e4b18b247426f2308e9bf988c899138241d84e33364736f6c63430006090033",
  "immutableReferences": {
    "16401": [
      {
        "length": 32,
        "start": 142
      },
      {
        "length": 32,
        "start": 183
      }
    ],
    "16403": [
      {
        "length": 32,
        "start": 352
      },
      {
        "length": 32,
        "start": 1373
      }
    ]
  },
  "source": "/*\n\n    Copyright 2020 DODO ZOO.\n    SPDX-License-Identifier: Apache-2.0\n\n*/\n\npragma solidity 0.6.9;\npragma experimental ABIEncoderV2;\n\nimport {IDODOV2} from \"../intf/IDODOV2.sol\";\n\ncontract DODOV2RouteHelper {\n    address public immutable _DVM_FACTORY_;\n    address public immutable _DPP_FACTORY_;\n\n    struct PairDetail {\n        uint256 i;\n        uint256 K;\n        uint256 B;\n        uint256 Q;\n        uint256 B0;\n        uint256 Q0;\n        uint256 R;\n        uint256 lpFeeRate;\n        uint256 mtFeeRate;\n        address baseToken;\n        address quoteToken;\n        address curPair;\n        uint256 pairVersion;\n    }\n\n    constructor(address dvmFactory,address dppFactory) public {\n        _DVM_FACTORY_ = dvmFactory;\n        _DPP_FACTORY_ = dppFactory;\n    }\n\n    function getPairDetail(address token0,address token1,address userAddr) external view returns (PairDetail[] memory res) {\n        (address[] memory baseToken0DVM, address[] memory baseToken1DVM) = IDODOV2(_DVM_FACTORY_).getDODOPoolBidirection(token0,token1);\n        (address[] memory baseToken0DPP, address[] memory baseToken1DPP) = IDODOV2(_DPP_FACTORY_).getDODOPoolBidirection(token0,token1);\n        uint256 len = baseToken0DVM.length + baseToken1DVM.length + baseToken0DPP.length + baseToken1DPP.length;\n        res = new PairDetail[](len);\n        for(uint8 i = 0; i < len; i++) {\n            PairDetail memory curRes = PairDetail(0,0,0,0,0,0,0,0,0,address(0),address(0),address(0),2);\n            address cur;\n            if(i < baseToken0DVM.length) {\n                cur = baseToken0DVM[i];\n                curRes.baseToken = token0;\n                curRes.quoteToken = token1;\n            } else if(i < baseToken0DVM.length + baseToken1DVM.length) {\n                cur = baseToken1DVM[i - baseToken0DVM.length];\n                curRes.baseToken = token1;\n                curRes.quoteToken = token0;\n            } else if(i < baseToken0DVM.length + baseToken1DVM.length + baseToken0DPP.length) {\n                cur = baseToken0DPP[i - baseToken0DVM.length - baseToken1DVM.length];\n                curRes.baseToken = token0;\n                curRes.quoteToken = token1;\n            } else {\n                cur = baseToken1DPP[i - baseToken0DVM.length - baseToken1DVM.length - baseToken0DPP.length];\n                curRes.baseToken = token1;\n                curRes.quoteToken = token0;\n            }\n\n            (            \n                curRes.i,\n                curRes.K,\n                curRes.B,\n                curRes.Q,\n                curRes.B0,\n                curRes.Q0,\n                curRes.R\n            ) = IDODOV2(cur).getPMMStateForCall();\n\n            (curRes.lpFeeRate, curRes.mtFeeRate) = IDODOV2(cur).getUserFeeRate(userAddr);\n            curRes.curPair = cur;\n            res[i] = curRes;\n        }\n    }\n}",
  "sourcePath": "/Users/niutaotao/projects/dodo/contractV2/contracts/SmartRoute/helper/DODOV2RouteHelper.sol",
  "compiler": {
    "name": "solc",
    "version": "0.6.9+commit.3e3065ac.Emscripten.clang"
  },
  "schemaVersion": "3.3.2",
  "updatedAt": "2021-01-20T03:10:14.979Z",
  "devdoc": {
    "methods": {}
  },
  "userdoc": {
    "methods": {}
  }
}