{
  "_format": "hh-sol-artifact-1",
  "contractName": "ContractRegistry",
  "sourceName": "contracts/ContractRegistry.sol",
  "abi": [
    {
      "inputs": [],
      "stateMutability": "nonpayable",
      "type": "constructor"
    },
    {
      "anonymous": false,
      "inputs": [
        {
          "indexed": false,
          "internalType": "address[]",
          "name": "addresses",
          "type": "address[]"
        }
      ],
      "name": "AddressesAdded",
      "type": "event"
    },
    {
      "anonymous": false,
      "inputs": [
        {
          "indexed": false,
          "internalType": "address[]",
          "name": "addresses",
          "type": "address[]"
        }
      ],
      "name": "AddressesRemoved",
      "type": "event"
    },
    {
      "anonymous": false,
      "inputs": [
        {
          "indexed": false,
          "internalType": "address[]",
          "name": "addresses",
          "type": "address[]"
        }
      ],
      "name": "PoolsAdded",
      "type": "event"
    },
    {
      "anonymous": false,
      "inputs": [
        {
          "indexed": false,
          "internalType": "address[]",
          "name": "addresses",
          "type": "address[]"
        }
      ],
      "name": "PoolsRemoved",
      "type": "event"
    },
    {
      "anonymous": false,
      "inputs": [
        {
          "indexed": false,
          "internalType": "address[]",
          "name": "addresses",
          "type": "address[]"
        }
      ],
      "name": "VaultsAdded",
      "type": "event"
    },
    {
      "anonymous": false,
      "inputs": [
        {
          "indexed": false,
          "internalType": "address[]",
          "name": "addresses",
          "type": "address[]"
        }
      ],
      "name": "VaultsRemoved",
      "type": "event"
    },
    {
      "inputs": [],
      "name": "POOLS_FOLDER",
      "outputs": [
        {
          "internalType": "uint256",
          "name": "",
          "type": "uint256"
        }
      ],
      "stateMutability": "view",
      "type": "function"
    },
    {
      "inputs": [],
      "name": "VAULTS_FOLDER",
      "outputs": [
        {
          "internalType": "uint256",
          "name": "",
          "type": "uint256"
        }
      ],
      "stateMutability": "view",
      "type": "function"
    },
    {
      "inputs": [
        {
          "internalType": "uint256",
          "name": "folder",
          "type": "uint256"
        },
        {
          "internalType": "address",
          "name": "_address",
          "type": "address"
        }
      ],
      "name": "add",
      "outputs": [],
      "stateMutability": "nonpayable",
      "type": "function"
    },
    {
      "inputs": [
        {
          "internalType": "uint256",
          "name": "folder",
          "type": "uint256"
        },
        {
          "internalType": "address[]",
          "name": "_addresses",
          "type": "address[]"
        }
      ],
      "name": "addArray",
      "outputs": [],
      "stateMutability": "nonpayable",
      "type": "function"
    },
    {
      "inputs": [
        {
          "internalType": "address",
          "name": "_address",
          "type": "address"
        }
      ],
      "name": "addPool",
      "outputs": [],
      "stateMutability": "nonpayable",
      "type": "function"
    },
    {
      "inputs": [
        {
          "internalType": "address[]",
          "name": "_addresses",
          "type": "address[]"
        }
      ],
      "name": "addPoolsArray",
      "outputs": [],
      "stateMutability": "nonpayable",
      "type": "function"
    },
    {
      "inputs": [
        {
          "internalType": "address",
          "name": "_address",
          "type": "address"
        }
      ],
      "name": "addVault",
      "outputs": [],
      "stateMutability": "nonpayable",
      "type": "function"
    },
    {
      "inputs": [
        {
          "internalType": "address[]",
          "name": "_addresses",
          "type": "address[]"
        }
      ],
      "name": "addVaultsArray",
      "outputs": [],
      "stateMutability": "nonpayable",
      "type": "function"
    },
    {
      "inputs": [
        {
          "internalType": "uint256",
          "name": "",
          "type": "uint256"
        },
        {
          "internalType": "uint256",
          "name": "",
          "type": "uint256"
        }
      ],
      "name": "addresses",
      "outputs": [
        {
          "internalType": "address",
          "name": "",
          "type": "address"
        }
      ],
      "stateMutability": "view",
      "type": "function"
    },
    {
      "inputs": [],
      "name": "governance",
      "outputs": [
        {
          "internalType": "address",
          "name": "",
          "type": "address"
        }
      ],
      "stateMutability": "view",
      "type": "function"
    },
    {
      "inputs": [],
      "name": "initialize",
      "outputs": [],
      "stateMutability": "nonpayable",
      "type": "function"
    },
    {
      "inputs": [
        {
          "internalType": "uint256",
          "name": "folder",
          "type": "uint256"
        }
      ],
      "name": "list",
      "outputs": [
        {
          "internalType": "address[]",
          "name": "",
          "type": "address[]"
        }
      ],
      "stateMutability": "view",
      "type": "function"
    },
    {
      "inputs": [],
      "name": "listPools",
      "outputs": [
        {
          "internalType": "address[]",
          "name": "",
          "type": "address[]"
        }
      ],
      "stateMutability": "view",
      "type": "function"
    },
    {
      "inputs": [],
      "name": "listVaults",
      "outputs": [
        {
          "internalType": "address[]",
          "name": "",
          "type": "address[]"
        }
      ],
      "stateMutability": "view",
      "type": "function"
    },
    {
      "inputs": [
        {
          "internalType": "uint256",
          "name": "folder",
          "type": "uint256"
        },
        {
          "internalType": "address",
          "name": "_address",
          "type": "address"
        }
      ],
      "name": "remove",
      "outputs": [],
      "stateMutability": "nonpayable",
      "type": "function"
    },
    {
      "inputs": [
        {
          "internalType": "uint256",
          "name": "folder",
          "type": "uint256"
        },
        {
          "internalType": "address[]",
          "name": "_addresses",
          "type": "address[]"
        }
      ],
      "name": "removeArray",
      "outputs": [],
      "stateMutability": "nonpayable",
      "type": "function"
    },
    {
      "inputs": [
        {
          "internalType": "address",
          "name": "_address",
          "type": "address"
        }
      ],
      "name": "removePool",
      "outputs": [],
      "stateMutability": "nonpayable",
      "type": "function"
    },
    {
      "inputs": [
        {
          "internalType": "address[]",
          "name": "_addresses",
          "type": "address[]"
        }
      ],
      "name": "removePoolsArray",
      "outputs": [],
      "stateMutability": "nonpayable",
      "type": "function"
    },
    {
      "inputs": [
        {
          "internalType": "address",
          "name": "_address",
          "type": "address"
        }
      ],
      "name": "removeVault",
      "outputs": [],
      "stateMutability": "nonpayable",
      "type": "function"
    },
    {
      "inputs": [
        {
          "internalType": "address[]",
          "name": "_addresses",
          "type": "address[]"
        }
      ],
      "name": "removeVaultsArray",
      "outputs": [],
      "stateMutability": "nonpayable",
      "type": "function"
    },
    {
      "inputs": [
        {
          "internalType": "address",
          "name": "_governance",
          "type": "address"
        }
      ],
      "name": "setGovernance",
      "outputs": [],
      "stateMutability": "nonpayable",
      "type": "function"
    }
  ],
  "bytecode": "0x60806040523480156200001157600080fd5b50336200001e816200002f565b5062000029620000fe565b6200029f565b6000546001600160a01b031615806200005257506000546001600160a01b031633145b62000095576040805162461bcd60e51b815260206004820152600e60248201526d4e6f7420676f7665726e616e636560901b604482015290519081900360640190fd5b6001600160a01b038116620000dc5760405162461bcd60e51b815260040180806020018281038252602181526020018062001e476021913960400191505060405180910390fd5b600080546001600160a01b0319166001600160a01b0392909216919091179055565b6000546001600160a01b031615806200012157506000546001600160a01b031633145b62000164576040805162461bcd60e51b815260206004820152600e60248201526d4e6f7420676f7665726e616e636560901b604482015290519081900360640190fd5b600054600160a81b900460ff1680620001825750620001826200027b565b80620001985750600054600160a01b900460ff16155b620001d55760405162461bcd60e51b815260040180806020018281038252602e81526020018062001e68602e913960400191505060405180910390fd5b600054600160a81b900460ff161580156200020d576000805460ff60a01b1960ff60a81b19909116600160a81b1716600160a01b1790555b62000223336200002f60201b6200114d1760201c565b600280546001810182556000919091527f405787fa12a823e0f2b7631cc41b3ba8828b3321ca811111fa75cd3aa3bb5ace0180546001600160a01b0319169055801562000278576000805460ff60a81b191690555b50565b600062000293306200029960201b620016e21760201c565b15905090565b3b151590565b611b9880620002af6000396000f3fe608060405234801561001057600080fd5b50600436106101075760003560e01c8063256b5a021461010c5780632b8bbbe8146101345780633b7d0946146101605780634892bdb6146101865780634f9f79b0146101a057806350cc258e146102415780635aa6e67514610299578063670815a9146102bd57806368795862146102e05780637345afbe146102e857806380c9419e146102f05780638129fc1c1461030d57806382638d551461031557806388b5c6ef146103b65780639dfa4e941461045e578063ab033ea91461048a578063c4c7ab84146104b0578063ceb68c2314610558578063d914cd4b1461057e578063e1f01232146105a4578063e46cf10f14610645575b600080fd5b6101326004803603602081101561012257600080fd5b50356001600160a01b03166106e6565b005b6101326004803603604081101561014a57600080fd5b50803590602001356001600160a01b031661081a565b6101326004803603602081101561017657600080fd5b50356001600160a01b0316610945565b61018e610a77565b60408051918252519081900360200190f35b610132600480360360208110156101b657600080fd5b810190602081018135600160201b8111156101d057600080fd5b8201836020820111156101e257600080fd5b803590602001918460208302840111600160201b8311171561020357600080fd5b919080806020026020016040519081016040528093929190818152602001838360200280828437600092019190915250929550610a7c945050505050565b610249610b68565b60408051602080825283518183015283519192839290830191858101910280838360005b8381101561028557818101518382015260200161026d565b505050509050019250505060405180910390f35b6102a1610be0565b604080516001600160a01b039092168252519081900360200190f35b6102a1600480360360408110156102d357600080fd5b5080359060200135610bef565b610249610c24565b61018e610c9a565b6102496004803603602081101561030657600080fd5b5035610c9f565b610132610d0b565b6101326004803603602081101561032b57600080fd5b810190602081018135600160201b81111561034557600080fd5b82018360208201111561035757600080fd5b803590602001918460208302840111600160201b8311171561037857600080fd5b919080806020026020016040519081016040528093929190818152602001838360200280828437600092019190915250929550610e71945050505050565b610132600480360360408110156103cc57600080fd5b81359190810190604081016020820135600160201b8111156103ed57600080fd5b8201836020820111156103ff57600080fd5b803590602001918460208302840111600160201b8311171561042057600080fd5b919080806020026020016040519081016040528093929190818152602001838360200280828437600092019190915250929550610f41945050505050565b6101326004803603604081101561047457600080fd5b50803590602001356001600160a01b0316611024565b610132600480360360208110156104a057600080fd5b50356001600160a01b031661114d565b610132600480360360408110156104c657600080fd5b81359190810190604081016020820135600160201b8111156104e757600080fd5b8201836020820111156104f957600080fd5b803590602001918460208302840111600160201b8311171561051a57600080fd5b919080806020026020016040519081016040528093929190818152602001838360200280828437600092019190915250929550611218945050505050565b6101326004803603602081101561056e57600080fd5b50356001600160a01b03166112de565b6101326004803603602081101561059457600080fd5b50356001600160a01b0316611410565b610132600480360360208110156105ba57600080fd5b810190602081018135600160201b8111156105d457600080fd5b8201836020820111156105e657600080fd5b803590602001918460208302840111600160201b8311171561060757600080fd5b919080806020026020016040519081016040528093929190818152602001838360200280828437600092019190915250929550611542945050505050565b6101326004803603602081101561065b57600080fd5b810190602081018135600160201b81111561067557600080fd5b82018360208201111561068757600080fd5b803590602001918460208302840111600160201b831117156106a857600080fd5b919080806020026020016040519081016040528093929190818152602001838360200280828437600092019190915250929550611612945050505050565b6000546001600160a01b0316158061070857506000546001600160a01b031633145b61074a576040805162461bcd60e51b815260206004820152600e60248201526d4e6f7420676f7665726e616e636560901b604482015290519081900360640190fd5b6002600052600160205261076c600080516020611b23833981519152826116e8565b80600260008154811061077b57fe5b9060005260206000200160006101000a8154816001600160a01b0302191690836001600160a01b03160217905550600080516020611ad583398151915260026040518080602001828103825283818154815260200191508054801561080957602002820191906000526020600020905b81546001600160a01b031681526001909101906020018083116107eb575b50509250505060405180910390a150565b6000546001600160a01b0316158061083c57506000546001600160a01b031633145b61087e576040805162461bcd60e51b815260206004820152600e60248201526d4e6f7420676f7665726e616e636560901b604482015290519081900360640190fd5b600082815260016020526040902061089690826116e8565b8060026000815481106108a557fe5b9060005260206000200160006101000a8154816001600160a01b0302191690836001600160a01b03160217905550600080516020611a5583398151915260026040518080602001828103825283818154815260200191508054801561093357602002820191906000526020600020905b81546001600160a01b03168152600190910190602001808311610915575b50509250505060405180910390a15050565b6000546001600160a01b0316158061096757506000546001600160a01b031633145b6109a9576040805162461bcd60e51b815260206004820152600e60248201526d4e6f7420676f7665726e616e636560901b604482015290519081900360640190fd5b600160008190526020526109cb600080516020611ab5833981519152826117da565b8060026000815481106109da57fe5b9060005260206000200160006101000a8154816001600160a01b0302191690836001600160a01b03160217905550600080516020611b43833981519152600260405180806020018281038252838181548152602001915080548015610809576020028201919060005260206000209081546001600160a01b031681526001909101906020018083116107eb5750509250505060405180910390a150565b600281565b6000546001600160a01b03161580610a9e57506000546001600160a01b031633145b610ae0576040805162461bcd60e51b815260206004820152600e60248201526d4e6f7420676f7665726e616e636560901b604482015290519081900360640190fd5b60026000526001602052610b02600080516020611b238339815191528261193e565b600080516020611ad5833981519152816040518080602001828103825283818151815260200191508051906020019060200280838360005b83811015610b52578181015183820152602001610b3a565b505050509050019250505060405180910390a150565b600260005260016020908152600080516020611b238339815191528054604080518285028101850190915281815260609390929190830182828015610bd657602002820191906000526020600020905b81546001600160a01b03168152600190910190602001808311610bb8575b5050505050905090565b6000546001600160a01b031681565b60016020528160005260406000208181548110610c0857fe5b6000918252602090912001546001600160a01b03169150829050565b600160008190526020908152600080516020611ab58339815191528054604080518285028101850190915281815260609390929190830182828015610bd6576020028201919060005260206000209081546001600160a01b03168152600190910190602001808311610bb8575050505050905090565b600181565b600081815260016020908152604091829020805483518184028101840190945280845260609392830182828015610cff57602002820191906000526020600020905b81546001600160a01b03168152600190910190602001808311610ce1575b50505050509050919050565b6000546001600160a01b03161580610d2d57506000546001600160a01b031633145b610d6f576040805162461bcd60e51b815260206004820152600e60248201526d4e6f7420676f7665726e616e636560901b604482015290519081900360640190fd5b600054600160a81b900460ff1680610d8a5750610d8a611970565b80610d9f5750600054600160a01b900460ff16155b610dda5760405162461bcd60e51b815260040180806020018281038252602e815260200180611af5602e913960400191505060405180910390fd5b600054600160a81b900460ff16158015610e11576000805460ff60a01b1960ff60a81b19909116600160a81b1716600160a01b1790555b610e1a3361114d565b600280546001810182556000919091527f405787fa12a823e0f2b7631cc41b3ba8828b3321ca811111fa75cd3aa3bb5ace0180546001600160a01b03191690558015610e6e576000805460ff60a81b191690555b50565b6000546001600160a01b03161580610e9357506000546001600160a01b031633145b610ed5576040805162461bcd60e51b815260206004820152600e60248201526d4e6f7420676f7665726e616e636560901b604482015290519081900360640190fd5b60016000819052602052610ef7600080516020611ab583398151915282611981565b6040805160208082528351818301528351600080516020611b4383398151915293859392839291830191818601910280838360008315610b52578181015183820152602001610b3a565b6000546001600160a01b03161580610f6357506000546001600160a01b031633145b610fa5576040805162461bcd60e51b815260206004820152600e60248201526d4e6f7420676f7665726e616e636560901b604482015290519081900360640190fd5b6000828152600160205260409020610fbd908261193e565b600080516020611a55833981519152816040518080602001828103825283818151815260200191508051906020019060200280838360005b8381101561100d578181015183820152602001610ff5565b505050509050019250505060405180910390a15050565b6000546001600160a01b0316158061104657506000546001600160a01b031633145b611088576040805162461bcd60e51b815260206004820152600e60248201526d4e6f7420676f7665726e616e636560901b604482015290519081900360640190fd5b60008281526001602052604090206110a090826117da565b8060026000815481106110af57fe5b9060005260206000200160006101000a8154816001600160a01b0302191690836001600160a01b03160217905550600080516020611a14833981519152600260405180806020018281038252838181548152602001915080548015610933576020028201919060005260206000209081546001600160a01b031681526001909101906020018083116109155750509250505060405180910390a15050565b6000546001600160a01b0316158061116f57506000546001600160a01b031633145b6111b1576040805162461bcd60e51b815260206004820152600e60248201526d4e6f7420676f7665726e616e636560901b604482015290519081900360640190fd5b6001600160a01b0381166111f65760405162461bcd60e51b8152600401808060200182810382526021815260200180611a346021913960400191505060405180910390fd5b600080546001600160a01b0319166001600160a01b0392909216919091179055565b6000546001600160a01b0316158061123a57506000546001600160a01b031633145b61127c576040805162461bcd60e51b815260206004820152600e60248201526d4e6f7420676f7665726e616e636560901b604482015290519081900360640190fd5b60008281526001602052604090206112949082611981565b6040805160208082528351818301528351600080516020611a148339815191529385939283929183019181860191028083836000831561100d578181015183820152602001610ff5565b6000546001600160a01b0316158061130057506000546001600160a01b031633145b611342576040805162461bcd60e51b815260206004820152600e60248201526d4e6f7420676f7665726e616e636560901b604482015290519081900360640190fd5b60026000526001602052611364600080516020611b23833981519152826117da565b80600260008154811061137357fe5b9060005260206000200160006101000a8154816001600160a01b0302191690836001600160a01b03160217905550600080516020611a95833981519152600260405180806020018281038252838181548152602001915080548015610809576020028201919060005260206000209081546001600160a01b031681526001909101906020018083116107eb5750509250505060405180910390a150565b6000546001600160a01b0316158061143257506000546001600160a01b031633145b611474576040805162461bcd60e51b815260206004820152600e60248201526d4e6f7420676f7665726e616e636560901b604482015290519081900360640190fd5b60016000819052602052611496600080516020611ab5833981519152826116e8565b8060026000815481106114a557fe5b9060005260206000200160006101000a8154816001600160a01b0302191690836001600160a01b03160217905550600080516020611a75833981519152600260405180806020018281038252838181548152602001915080548015610809576020028201919060005260206000209081546001600160a01b031681526001909101906020018083116107eb5750509250505060405180910390a150565b6000546001600160a01b0316158061156457506000546001600160a01b031633145b6115a6576040805162461bcd60e51b815260206004820152600e60248201526d4e6f7420676f7665726e616e636560901b604482015290519081900360640190fd5b600160008190526020526115c8600080516020611ab58339815191528261193e565b6040805160208082528351818301528351600080516020611a7583398151915293859392839291830191818601910280838360008315610b52578181015183820152602001610b3a565b6000546001600160a01b0316158061163457506000546001600160a01b031633145b611676576040805162461bcd60e51b815260206004820152600e60248201526d4e6f7420676f7665726e616e636560901b604482015290519081900360640190fd5b60026000526001602052611698600080516020611b2383398151915282611981565b6040805160208082528351818301528351600080516020611a9583398151915293859392839291830191818601910280838360008315610b52578181015183820152602001610b3a565b3b151590565b6116f282826119b3565b156040518060400160405280601081526020016f416c726561647920696e20617272617960801b815250906117a55760405162461bcd60e51b81526004018080602001828103825283818151815260200191508051906020019080838360005b8381101561176a578181015183820152602001611752565b50505050905090810190601f1680156117975780820380516001836020036101000a031916815260200191505b509250505060405180910390fd5b5081546001810183556000928352602090922090910180546001600160a01b0319166001600160a01b03909216919091179055565b6117e482826119b3565b6040518060400160405280600c81526020016b4e6f7420696e20617272617960a01b815250906118555760405162461bcd60e51b815260206004820181815283516024840152835190928392604490910191908501908083836000831561176a578181015183820152602001611752565b5081546000190160005b81811161193757826001600160a01b031684828154811061187c57fe5b6000918252602090912001546001600160a01b0316141561192f578382815481106118a357fe5b9060005260206000200160009054906101000a90046001600160a01b03168482815481106118cd57fe5b9060005260206000200160006101000a8154816001600160a01b0302191690836001600160a01b031602179055508380548061190557fe5b600082815260209020810160001990810180546001600160a01b03191690550190555061193a9050565b60010161185f565b50505b5050565b805160005b81811015611937576119688484838151811061195b57fe5b60200260200101516116e8565b600101611943565b600061197b306116e2565b15905090565b805160005b81811015611937576119ab8484838151811061199e57fe5b60200260200101516117da565b600101611986565b8154600090815b81811015611a0657836001600160a01b03168582815481106119d857fe5b6000918252602090912001546001600160a01b031614156119fe57600192505050611a0d565b6001016119ba565b5060009150505b9291505056fe1789ae91440b0164ae6f1050010d10dce0541d93de02edee651f288d415247e46e657720676f7665726e616e63652073686f756c646e277420626520656d707479a3aa5aa3df32e732d8928583aa51a9477a8b8749e51399fe58b100ac870a44f29af2f49f0fe48e38ec4cd4438b994734c1e8051ec41e556337eb2fd61bf58d26c5a1532522c0866c8482478455367e2e3941b0f567dd82f9bb150fbbd0455bd1cc69885fda6bcc1a4ace058b4a62bf5e179ea78fd58a1ccd71c22cc9b688792f10b708564a065b529277110300c9a68b4a25145421116bc1f00fa575ff4d15d8496e697469616c697a61626c653a20636f6e747261637420697320616c726561647920696e697469616c697a6564d9d16d34ffb15ba3a3d852f0d403e2ce1d691fb54de27ac87cd2f993f3ec330fd99af2b0a689fe2f5737745635b352dde433a9e6cfd600142867592ca7d83a55a2646970667358221220c853d3da8c38f0669278acf29b887d1938171bb7cd0e7afb4349acb481890c4364736f6c634300060c00336e657720676f7665726e616e63652073686f756c646e277420626520656d707479496e697469616c697a61626c653a20636f6e747261637420697320616c726561647920696e697469616c697a6564",
  "linkReferences": {},
  "deployedLinkReferences": {}
}