{
  "abi": [
    {
      "inputs": [
        {
          "internalType": "address",
          "name": "configurator_",
          "type": "address"
        },
        {
          "internalType": "address",
          "name": "asset_",
          "type": "address"
        },
        {
          "internalType": "string",
          "name": "name_",
          "type": "string"
        },
        {
          "internalType": "string",
          "name": "symbol_",
          "type": "string"
        }
      ],
      "stateMutability": "nonpayable",
      "type": "constructor"
    },
    {
      "inputs": [],
      "name": "InvalidShortString",
      "type": "error"
    },
    {
      "inputs": [
        {
          "internalType": "uint256",
          "name": "assets",
          "type": "uint256"
        },
        {
          "internalType": "uint256",
          "name": "maxDeposit",
          "type": "uint256"
        }
      ],
      "name": "Pool_DepositGreaterThanMax",
      "type": "error"
    },
    {
      "inputs": [],
      "name": "Pool_FailedApprove",
      "type": "error"
    },
    {
      "inputs": [
        {
          "internalType": "uint256",
          "name": "assets",
          "type": "uint256"
        },
        {
          "internalType": "uint256",
          "name": "permits",
          "type": "uint256"
        }
      ],
      "name": "Pool_InsufficientPermit",
      "type": "error"
    },
    {
      "inputs": [
        {
          "internalType": "uint256",
          "name": "shares",
          "type": "uint256"
        },
        {
          "internalType": "uint256",
          "name": "maxMint",
          "type": "uint256"
        }
      ],
      "name": "Pool_MintGreaterThanMax",
      "type": "error"
    },
    {
      "inputs": [],
      "name": "Pool_RecipientZeroAddress",
      "type": "error"
    },
    {
      "inputs": [
        {
          "internalType": "uint256",
          "name": "shares",
          "type": "uint256"
        },
        {
          "internalType": "uint256",
          "name": "maxRedeem",
          "type": "uint256"
        }
      ],
      "name": "Pool_RedeemMoreThanMax",
      "type": "error"
    },
    {
      "inputs": [],
      "name": "Pool_WithdrawalNotImplemented",
      "type": "error"
    },
    {
      "inputs": [],
      "name": "Pool_ZeroAsset",
      "type": "error"
    },
    {
      "inputs": [],
      "name": "Pool_ZeroConfigurator",
      "type": "error"
    },
    {
      "inputs": [
        {
          "internalType": "string",
          "name": "str",
          "type": "string"
        }
      ],
      "name": "StringTooLong",
      "type": "error"
    },
    {
      "anonymous": false,
      "inputs": [
        {
          "indexed": true,
          "internalType": "address",
          "name": "owner",
          "type": "address"
        },
        {
          "indexed": true,
          "internalType": "address",
          "name": "spender",
          "type": "address"
        },
        {
          "indexed": false,
          "internalType": "uint256",
          "name": "value",
          "type": "uint256"
        }
      ],
      "name": "Approval",
      "type": "event"
    },
    {
      "anonymous": false,
      "inputs": [
        {
          "indexed": true,
          "internalType": "address",
          "name": "sender",
          "type": "address"
        },
        {
          "indexed": true,
          "internalType": "address",
          "name": "owner",
          "type": "address"
        },
        {
          "indexed": false,
          "internalType": "uint256",
          "name": "assets",
          "type": "uint256"
        },
        {
          "indexed": false,
          "internalType": "uint256",
          "name": "shares",
          "type": "uint256"
        }
      ],
      "name": "Deposit",
      "type": "event"
    },
    {
      "anonymous": false,
      "inputs": [],
      "name": "EIP712DomainChanged",
      "type": "event"
    },
    {
      "anonymous": false,
      "inputs": [
        {
          "indexed": true,
          "internalType": "address",
          "name": "from",
          "type": "address"
        },
        {
          "indexed": true,
          "internalType": "address",
          "name": "to",
          "type": "address"
        },
        {
          "indexed": false,
          "internalType": "uint256",
          "name": "value",
          "type": "uint256"
        }
      ],
      "name": "Transfer",
      "type": "event"
    },
    {
      "anonymous": false,
      "inputs": [
        {
          "indexed": true,
          "internalType": "address",
          "name": "sender",
          "type": "address"
        },
        {
          "indexed": true,
          "internalType": "address",
          "name": "receiver",
          "type": "address"
        },
        {
          "indexed": true,
          "internalType": "address",
          "name": "owner",
          "type": "address"
        },
        {
          "indexed": false,
          "internalType": "uint256",
          "name": "assets",
          "type": "uint256"
        },
        {
          "indexed": false,
          "internalType": "uint256",
          "name": "shares",
          "type": "uint256"
        }
      ],
      "name": "Withdraw",
      "type": "event"
    },
    {
      "inputs": [],
      "name": "DOMAIN_SEPARATOR",
      "outputs": [
        {
          "internalType": "bytes32",
          "name": "",
          "type": "bytes32"
        }
      ],
      "stateMutability": "view",
      "type": "function"
    },
    {
      "inputs": [
        {
          "internalType": "address",
          "name": "owner",
          "type": "address"
        },
        {
          "internalType": "address",
          "name": "spender",
          "type": "address"
        }
      ],
      "name": "allowance",
      "outputs": [
        {
          "internalType": "uint256",
          "name": "",
          "type": "uint256"
        }
      ],
      "stateMutability": "view",
      "type": "function"
    },
    {
      "inputs": [
        {
          "internalType": "address",
          "name": "spender",
          "type": "address"
        },
        {
          "internalType": "uint256",
          "name": "amount",
          "type": "uint256"
        }
      ],
      "name": "approve",
      "outputs": [
        {
          "internalType": "bool",
          "name": "",
          "type": "bool"
        }
      ],
      "stateMutability": "nonpayable",
      "type": "function"
    },
    {
      "inputs": [],
      "name": "asset",
      "outputs": [
        {
          "internalType": "address",
          "name": "",
          "type": "address"
        }
      ],
      "stateMutability": "view",
      "type": "function"
    },
    {
      "inputs": [
        {
          "internalType": "address",
          "name": "account",
          "type": "address"
        }
      ],
      "name": "balanceOf",
      "outputs": [
        {
          "internalType": "uint256",
          "name": "",
          "type": "uint256"
        }
      ],
      "stateMutability": "view",
      "type": "function"
    },
    {
      "inputs": [
        {
          "internalType": "address",
          "name": "account_",
          "type": "address"
        }
      ],
      "name": "balanceOfAssets",
      "outputs": [
        {
          "internalType": "uint256",
          "name": "balanceOfAssets_",
          "type": "uint256"
        }
      ],
      "stateMutability": "view",
      "type": "function"
    },
    {
      "inputs": [],
      "name": "configurator",
      "outputs": [
        {
          "internalType": "address",
          "name": "",
          "type": "address"
        }
      ],
      "stateMutability": "view",
      "type": "function"
    },
    {
      "inputs": [
        {
          "internalType": "uint256",
          "name": "shares_",
          "type": "uint256"
        }
      ],
      "name": "convertToAssets",
      "outputs": [
        {
          "internalType": "uint256",
          "name": "assets_",
          "type": "uint256"
        }
      ],
      "stateMutability": "view",
      "type": "function"
    },
    {
      "inputs": [
        {
          "internalType": "uint256",
          "name": "shares_",
          "type": "uint256"
        }
      ],
      "name": "convertToExitAssets",
      "outputs": [
        {
          "internalType": "uint256",
          "name": "assets_",
          "type": "uint256"
        }
      ],
      "stateMutability": "view",
      "type": "function"
    },
    {
      "inputs": [
        {
          "internalType": "uint256",
          "name": "assets_",
          "type": "uint256"
        }
      ],
      "name": "convertToExitShares",
      "outputs": [
        {
          "internalType": "uint256",
          "name": "shares_",
          "type": "uint256"
        }
      ],
      "stateMutability": "view",
      "type": "function"
    },
    {
      "inputs": [
        {
          "internalType": "uint256",
          "name": "assets_",
          "type": "uint256"
        }
      ],
      "name": "convertToShares",
      "outputs": [
        {
          "internalType": "uint256",
          "name": "shares_",
          "type": "uint256"
        }
      ],
      "stateMutability": "view",
      "type": "function"
    },
    {
      "inputs": [],
      "name": "decimals",
      "outputs": [
        {
          "internalType": "uint8",
          "name": "",
          "type": "uint8"
        }
      ],
      "stateMutability": "view",
      "type": "function"
    },
    {
      "inputs": [
        {
          "internalType": "address",
          "name": "spender",
          "type": "address"
        },
        {
          "internalType": "uint256",
          "name": "subtractedValue",
          "type": "uint256"
        }
      ],
      "name": "decreaseAllowance",
      "outputs": [
        {
          "internalType": "bool",
          "name": "",
          "type": "bool"
        }
      ],
      "stateMutability": "nonpayable",
      "type": "function"
    },
    {
      "inputs": [
        {
          "internalType": "uint256",
          "name": "assets",
          "type": "uint256"
        },
        {
          "internalType": "address",
          "name": "receiver",
          "type": "address"
        }
      ],
      "name": "deposit",
      "outputs": [
        {
          "internalType": "uint256",
          "name": "shares",
          "type": "uint256"
        }
      ],
      "stateMutability": "nonpayable",
      "type": "function"
    },
    {
      "inputs": [
        {
          "internalType": "uint256",
          "name": "assets_",
          "type": "uint256"
        },
        {
          "internalType": "address",
          "name": "receiver_",
          "type": "address"
        },
        {
          "internalType": "uint256",
          "name": "deadline_",
          "type": "uint256"
        },
        {
          "internalType": "uint8",
          "name": "v_",
          "type": "uint8"
        },
        {
          "internalType": "bytes32",
          "name": "r_",
          "type": "bytes32"
        },
        {
          "internalType": "bytes32",
          "name": "s_",
          "type": "bytes32"
        }
      ],
      "name": "depositWithPermit",
      "outputs": [
        {
          "internalType": "uint256",
          "name": "shares_",
          "type": "uint256"
        }
      ],
      "stateMutability": "nonpayable",
      "type": "function"
    },
    {
      "inputs": [],
      "name": "eip712Domain",
      "outputs": [
        {
          "internalType": "bytes1",
          "name": "fields",
          "type": "bytes1"
        },
        {
          "internalType": "string",
          "name": "name",
          "type": "string"
        },
        {
          "internalType": "string",
          "name": "version",
          "type": "string"
        },
        {
          "internalType": "uint256",
          "name": "chainId",
          "type": "uint256"
        },
        {
          "internalType": "address",
          "name": "verifyingContract",
          "type": "address"
        },
        {
          "internalType": "bytes32",
          "name": "salt",
          "type": "bytes32"
        },
        {
          "internalType": "uint256[]",
          "name": "extensions",
          "type": "uint256[]"
        }
      ],
      "stateMutability": "view",
      "type": "function"
    },
    {
      "inputs": [
        {
          "internalType": "address",
          "name": "spender",
          "type": "address"
        },
        {
          "internalType": "uint256",
          "name": "addedValue",
          "type": "uint256"
        }
      ],
      "name": "increaseAllowance",
      "outputs": [
        {
          "internalType": "bool",
          "name": "",
          "type": "bool"
        }
      ],
      "stateMutability": "nonpayable",
      "type": "function"
    },
    {
      "inputs": [
        {
          "internalType": "address",
          "name": "receiver_",
          "type": "address"
        }
      ],
      "name": "maxDeposit",
      "outputs": [
        {
          "internalType": "uint256",
          "name": "maxAssets_",
          "type": "uint256"
        }
      ],
      "stateMutability": "view",
      "type": "function"
    },
    {
      "inputs": [
        {
          "internalType": "address",
          "name": "receiver_",
          "type": "address"
        }
      ],
      "name": "maxMint",
      "outputs": [
        {
          "internalType": "uint256",
          "name": "maxShares_",
          "type": "uint256"
        }
      ],
      "stateMutability": "view",
      "type": "function"
    },
    {
      "inputs": [
        {
          "internalType": "address",
          "name": "owner_",
          "type": "address"
        }
      ],
      "name": "maxRedeem",
      "outputs": [
        {
          "internalType": "uint256",
          "name": "maxShares_",
          "type": "uint256"
        }
      ],
      "stateMutability": "view",
      "type": "function"
    },
    {
      "inputs": [
        {
          "internalType": "address",
          "name": "owner_",
          "type": "address"
        }
      ],
      "name": "maxWithdraw",
      "outputs": [
        {
          "internalType": "uint256",
          "name": "maxAssets_",
          "type": "uint256"
        }
      ],
      "stateMutability": "pure",
      "type": "function"
    },
    {
      "inputs": [
        {
          "internalType": "uint256",
          "name": "shares",
          "type": "uint256"
        },
        {
          "internalType": "address",
          "name": "receiver",
          "type": "address"
        }
      ],
      "name": "mint",
      "outputs": [
        {
          "internalType": "uint256",
          "name": "assets",
          "type": "uint256"
        }
      ],
      "stateMutability": "nonpayable",
      "type": "function"
    },
    {
      "inputs": [
        {
          "internalType": "uint256",
          "name": "shares_",
          "type": "uint256"
        },
        {
          "internalType": "address",
          "name": "receiver_",
          "type": "address"
        },
        {
          "internalType": "uint256",
          "name": "maxAssets_",
          "type": "uint256"
        },
        {
          "internalType": "uint256",
          "name": "deadline_",
          "type": "uint256"
        },
        {
          "internalType": "uint8",
          "name": "v_",
          "type": "uint8"
        },
        {
          "internalType": "bytes32",
          "name": "r_",
          "type": "bytes32"
        },
        {
          "internalType": "bytes32",
          "name": "s_",
          "type": "bytes32"
        }
      ],
      "name": "mintWithPermit",
      "outputs": [
        {
          "internalType": "uint256",
          "name": "assets_",
          "type": "uint256"
        }
      ],
      "stateMutability": "nonpayable",
      "type": "function"
    },
    {
      "inputs": [],
      "name": "name",
      "outputs": [
        {
          "internalType": "string",
          "name": "",
          "type": "string"
        }
      ],
      "stateMutability": "view",
      "type": "function"
    },
    {
      "inputs": [
        {
          "internalType": "address",
          "name": "owner",
          "type": "address"
        }
      ],
      "name": "nonces",
      "outputs": [
        {
          "internalType": "uint256",
          "name": "",
          "type": "uint256"
        }
      ],
      "stateMutability": "view",
      "type": "function"
    },
    {
      "inputs": [
        {
          "internalType": "address",
          "name": "owner",
          "type": "address"
        },
        {
          "internalType": "address",
          "name": "spender",
          "type": "address"
        },
        {
          "internalType": "uint256",
          "name": "value",
          "type": "uint256"
        },
        {
          "internalType": "uint256",
          "name": "deadline",
          "type": "uint256"
        },
        {
          "internalType": "uint8",
          "name": "v",
          "type": "uint8"
        },
        {
          "internalType": "bytes32",
          "name": "r",
          "type": "bytes32"
        },
        {
          "internalType": "bytes32",
          "name": "s",
          "type": "bytes32"
        }
      ],
      "name": "permit",
      "outputs": [],
      "stateMutability": "nonpayable",
      "type": "function"
    },
    {
      "inputs": [
        {
          "internalType": "uint256",
          "name": "assets_",
          "type": "uint256"
        }
      ],
      "name": "previewDeposit",
      "outputs": [
        {
          "internalType": "uint256",
          "name": "shares_",
          "type": "uint256"
        }
      ],
      "stateMutability": "view",
      "type": "function"
    },
    {
      "inputs": [
        {
          "internalType": "uint256",
          "name": "shares_",
          "type": "uint256"
        }
      ],
      "name": "previewMint",
      "outputs": [
        {
          "internalType": "uint256",
          "name": "assets_",
          "type": "uint256"
        }
      ],
      "stateMutability": "view",
      "type": "function"
    },
    {
      "inputs": [
        {
          "internalType": "uint256",
          "name": "shares_",
          "type": "uint256"
        }
      ],
      "name": "previewRedeem",
      "outputs": [
        {
          "internalType": "uint256",
          "name": "assets_",
          "type": "uint256"
        }
      ],
      "stateMutability": "view",
      "type": "function"
    },
    {
      "inputs": [
        {
          "internalType": "uint256",
          "name": "assets_",
          "type": "uint256"
        }
      ],
      "name": "previewWithdraw",
      "outputs": [
        {
          "internalType": "uint256",
          "name": "shares_",
          "type": "uint256"
        }
      ],
      "stateMutability": "pure",
      "type": "function"
    },
    {
      "inputs": [
        {
          "internalType": "uint256",
          "name": "shares_",
          "type": "uint256"
        },
        {
          "internalType": "address",
          "name": "receiver_",
          "type": "address"
        },
        {
          "internalType": "address",
          "name": "owner_",
          "type": "address"
        }
      ],
      "name": "redeem",
      "outputs": [
        {
          "internalType": "uint256",
          "name": "assets_",
          "type": "uint256"
        }
      ],
      "stateMutability": "nonpayable",
      "type": "function"
    },
    {
      "inputs": [
        {
          "internalType": "uint256",
          "name": "shares_",
          "type": "uint256"
        },
        {
          "internalType": "address",
          "name": "owner_",
          "type": "address"
        }
      ],
      "name": "removeShares",
      "outputs": [
        {
          "internalType": "uint256",
          "name": "sharesReturned_",
          "type": "uint256"
        }
      ],
      "stateMutability": "nonpayable",
      "type": "function"
    },
    {
      "inputs": [
        {
          "internalType": "uint256",
          "name": "shares_",
          "type": "uint256"
        },
        {
          "internalType": "address",
          "name": "owner_",
          "type": "address"
        }
      ],
      "name": "requestRedeem",
      "outputs": [],
      "stateMutability": "nonpayable",
      "type": "function"
    },
    {
      "inputs": [],
      "name": "symbol",
      "outputs": [
        {
          "internalType": "string",
          "name": "",
          "type": "string"
        }
      ],
      "stateMutability": "view",
      "type": "function"
    },
    {
      "inputs": [],
      "name": "totalAssets",
      "outputs": [
        {
          "internalType": "uint256",
          "name": "",
          "type": "uint256"
        }
      ],
      "stateMutability": "view",
      "type": "function"
    },
    {
      "inputs": [],
      "name": "totalSupply",
      "outputs": [
        {
          "internalType": "uint256",
          "name": "",
          "type": "uint256"
        }
      ],
      "stateMutability": "view",
      "type": "function"
    },
    {
      "inputs": [
        {
          "internalType": "address",
          "name": "to",
          "type": "address"
        },
        {
          "internalType": "uint256",
          "name": "amount",
          "type": "uint256"
        }
      ],
      "name": "transfer",
      "outputs": [
        {
          "internalType": "bool",
          "name": "",
          "type": "bool"
        }
      ],
      "stateMutability": "nonpayable",
      "type": "function"
    },
    {
      "inputs": [
        {
          "internalType": "address",
          "name": "from",
          "type": "address"
        },
        {
          "internalType": "address",
          "name": "to",
          "type": "address"
        },
        {
          "internalType": "uint256",
          "name": "amount",
          "type": "uint256"
        }
      ],
      "name": "transferFrom",
      "outputs": [
        {
          "internalType": "bool",
          "name": "",
          "type": "bool"
        }
      ],
      "stateMutability": "nonpayable",
      "type": "function"
    },
    {
      "inputs": [],
      "name": "unrealizedLosses",
      "outputs": [
        {
          "internalType": "uint256",
          "name": "unrealizedLosses_",
          "type": "uint256"
        }
      ],
      "stateMutability": "view",
      "type": "function"
    },
    {
      "inputs": [
        {
          "internalType": "uint256",
          "name": "assets_",
          "type": "uint256"
        },
        {
          "internalType": "address",
          "name": "receiver_",
          "type": "address"
        },
        {
          "internalType": "address",
          "name": "owner_",
          "type": "address"
        }
      ],
      "name": "withdraw",
      "outputs": [
        {
          "internalType": "uint256",
          "name": "shares_",
          "type": "uint256"
        }
      ],
      "stateMutability": "pure",
      "type": "function"
    }
  ],
  "bytecode": {
    "object": "0x6101a06040523480156200001257600080fd5b506040516200318238038062003182833981016040819052620000359162000415565b6040805180820190915260018152603160f81b6020820152829081908184600362000061838262000534565b50600462000070828262000534565b506200008291508390506005620002a6565b6101205262000093816006620002a6565b61014052815160208084019190912060e052815190820120610100524660a0526200012160e05161010051604080517f8b73c3c69bb8fe3d512ecc4cf759cc79239f7b179b0ffacaa9a75d522b39400f60208201529081019290925260608201524660808201523060a082015260009060c00160405160208183030381529060405280519060200120905090565b60805250503060c052506001600160a01b03831662000153576040516334fd474d60e21b815260040160405180910390fd5b600980546001600160a01b0319166001600160a01b0386169081179091556200018f5760405163571a16e960e01b815260040160405180910390fd5b60405163095ea7b360e01b81526001600160a01b038581166004830152600019602483015284169063095ea7b3906044016020604051808303816000875af1158015620001e0573d6000803e3d6000fd5b505050506040513d601f19601f8201168201806040525081019062000206919062000600565b6200022457604051631d0afb6560e11b815260040160405180910390fd5b826001600160a01b031663313ce5676040518163ffffffff1660e01b8152600401602060405180830381865afa15801562000263573d6000803e3d6000fd5b505050506040513d601f19601f820116820180604052508101906200028991906200062b565b60ff166101805250506001600160a01b03166101605250620006aa565b6000602083511015620002c657620002be83620002df565b9050620002d9565b81620002d3848262000534565b5060ff90505b92915050565b600080829050601f8151111562000316578260405163305a27a960e01b81526004016200030d919062000650565b60405180910390fd5b8051620003238262000685565b179392505050565b80516001600160a01b03811681146200034357600080fd5b919050565b634e487b7160e01b600052604160045260246000fd5b60005b838110156200037b57818101518382015260200162000361565b50506000910152565b600082601f8301126200039657600080fd5b81516001600160401b0380821115620003b357620003b362000348565b604051601f8301601f19908116603f01168101908282118183101715620003de57620003de62000348565b81604052838152866020858801011115620003f857600080fd5b6200040b8460208301602089016200035e565b9695505050505050565b600080600080608085870312156200042c57600080fd5b62000437856200032b565b935062000447602086016200032b565b60408601519093506001600160401b03808211156200046557600080fd5b620004738883890162000384565b935060608701519150808211156200048a57600080fd5b50620004998782880162000384565b91505092959194509250565b600181811c90821680620004ba57607f821691505b602082108103620004db57634e487b7160e01b600052602260045260246000fd5b50919050565b601f8211156200052f57600081815260208120601f850160051c810160208610156200050a5750805b601f850160051c820191505b818110156200052b5782815560010162000516565b5050505b505050565b81516001600160401b0381111562000550576200055062000348565b6200056881620005618454620004a5565b84620004e1565b602080601f831160018114620005a05760008415620005875750858301515b600019600386901b1c1916600185901b1785556200052b565b600085815260208120601f198616915b82811015620005d157888601518255948401946001909101908401620005b0565b5085821015620005f05787850151600019600388901b60f8161c191681555b5050505050600190811b01905550565b6000602082840312156200061357600080fd5b815180151581146200062457600080fd5b9392505050565b6000602082840312156200063e57600080fd5b815160ff811681146200062457600080fd5b6020815260008251806020840152620006718160408501602087016200035e565b601f01601f19169190910160400192915050565b80516020808301519190811015620004db5760001960209190910360031b1b16919050565b60805160a05160c05160e0516101005161012051610140516101605161018051612a446200073e60003960006109510152600081816103d80152818161063f01528181610b3201528181610cc8015281816118c80152611a7501526000610e9801526000610e6d015260006118530152600061182b01526000611786015260006117b0015260006117da0152612a446000f3fe608060405234801561001057600080fd5b50600436106102c85760003560e01c80636e553f651161017b578063b3d7f6b9116100d8578063ce96cb771161008c578063d905777e11610071578063d905777e146105c2578063dd62ed3e146105d5578063ef8b30f71461058e57600080fd5b8063ce96cb77146105a1578063d505accf146105af57600080fd5b8063ba087652116100bd578063ba08765214610568578063c63d75b61461057b578063c6e6f5921461058e57600080fd5b8063b3d7f6b914610547578063b460af941461055a57600080fd5b806394bf804d1161012f578063a457c2d711610114578063a457c2d71461050e578063a58c3eff14610521578063a9059cbb1461053457600080fd5b806394bf804d146104f357806395d89b411461050657600080fd5b80637ecebe00116101605780637ecebe00146104b257806384b0196e146104c55780639159b206146104e057600080fd5b80636e553f651461047657806370a082311461048957600080fd5b8063313ce567116102295780634cdad506116101dd57806350921b23116101c257806350921b231461044857806360dd37d91461045b57806367e2ba231461046e57600080fd5b80634cdad5061461042257806350496cbd1461043557600080fd5b806338d52e0f1161020e57806338d52e0f146103d657806339509351146103fc578063402d267d1461040f57600080fd5b8063313ce567146103b45780633644e515146103ce57600080fd5b8063107703ab116102805780631b8f1830116102655780631b8f18301461036357806323b872dd146103765780632b507df81461038957600080fd5b8063107703ab1461034657806318160ddd1461035b57600080fd5b806307a2d13a116102b157806307a2d13a146102fd578063095ea7b3146103105780630a28a4771461033357600080fd5b806301e1d114146102cd57806306fdde03146102e8575b600080fd5b6102d561060e565b6040519081526020015b60405180910390f35b6102f06106b7565b6040516102df9190612516565b6102d561030b366004612529565b610749565b61032361031e36600461255e565b61075c565b60405190151581526020016102df565b6102d5610341366004612529565b610774565b610359610354366004612588565b6107a8565b005b6002546102d5565b6102d5610371366004612588565b610872565b6103236103843660046125b4565b610925565b60095461039c906001600160a01b031681565b6040516001600160a01b0390911681526020016102df565b6103bc610949565b60405160ff90911681526020016102df565b6102d5610975565b7f000000000000000000000000000000000000000000000000000000000000000061039c565b61032361040a36600461255e565b61097f565b6102d561041d3660046125f0565b6109be565b6102d5610430366004612529565b610a47565b6102d5610443366004612529565b610a98565b6102d561045636600461261c565b610aa5565b6102d5610469366004612674565b610bf1565b6102d5610d84565b6102d5610484366004612588565b610de7565b6102d56104973660046125f0565b6001600160a01b031660009081526020819052604090205490565b6102d56104c03660046125f0565b610e41565b6104cd610e5f565b6040516102df97969594939291906126d7565b6102d56104ee3660046125f0565b610f04565b6102d5610501366004612588565b610f26565b6102f0610f80565b61032361051c36600461255e565b610f8f565b6102d561052f366004612529565b611039565b61032361054236600461255e565b611046565b6102d5610555366004612529565b611054565b6102d5610341366004612789565b6102d5610576366004612789565b611061565b6102d56105893660046125f0565b61115f565b6102d561059c366004612529565b6111ab565b6102d56103413660046125f0565b6103596105bd3660046127c5565b6111b8565b6102d56105d03660046125f0565b61131c565b6102d56105e33660046127f7565b6001600160a01b03918216600090815260016020908152604080832093909416825291909152205490565b6040517f70a082310000000000000000000000000000000000000000000000000000000081523060048201526000907f00000000000000000000000000000000000000000000000000000000000000006001600160a01b0316906370a0823190602401602060405180830381865afa15801561068e573d6000803e3d6000fd5b505050506040513d601f19601f820116820180604052508101906106b29190612821565b905090565b6060600380546106c69061283a565b80601f01602080910402602001604051908101604052809291908181526020018280546106f29061283a565b801561073f5780601f106107145761010080835404028352916020019161073f565b820191906000526020600020905b81548152906001019060200180831161072257829003601f168201915b5050505050905090565b6000610756826000611368565b92915050565b60003361076a8185856113a2565b5060019392505050565b60006040517f4970fb5400000000000000000000000000000000000000000000000000000000815260040160405180910390fd5b6009546001600160a01b0390811690821633146107cb576107cb82335b856114fa565b82158015906107e257506001600160a01b03811615155b156107f2576107f282828561158c565b6009546001600160a01b0316637d41c86e8484336040516001600160e01b031960e086901b16815260048101939093526001600160a01b039182166024840152166044820152606401600060405180830381600087803b15801561085557600080fd5b505af1158015610869573d6000803e3d6000fd5b50505050505050565b6000336001600160a01b0383161461088e5761088e82336107c5565b6009546040517f1b8f1830000000000000000000000000000000000000000000000000000000008152600481018590526001600160a01b03848116602483015290911690631b8f1830906044016020604051808303816000875af11580156108fa573d6000803e3d6000fd5b505050506040513d601f19601f8201168201806040525081019061091e9190612821565b9392505050565b6000336109338582856114fa565b61093e85858561158c565b506001949350505050565b60006106b2817f0000000000000000000000000000000000000000000000000000000000000000612884565b60006106b2611779565b3360008181526001602090815260408083206001600160a01b038716845290915281205490919061076a90829086906109b990879061289d565b6113a2565b6009546040517f402d267d0000000000000000000000000000000000000000000000000000000081526001600160a01b038381166004830152600092169063402d267d906024015b602060405180830381865afa158015610a23573d6000803e3d6000fd5b505050506040513d601f19601f820116820180604052508101906107569190612821565b6009546040517fcbe52ae3000000000000000000000000000000000000000000000000000000008152336004820152602481018390526000916001600160a01b03169063cbe52ae390604401610a06565b60006107568260006118a4565b60006001600160a01b038616610ace57604051633e3c148760e01b815260040160405180910390fd5b610ad7866109be565b871115610b285786610ae8876109be565b6040517f7e2129c6000000000000000000000000000000000000000000000000000000008152600481019290925260248201526044015b60405180910390fd5b6001600160a01b037f00000000000000000000000000000000000000000000000000000000000000001663d505accf336040516001600160e01b031960e084901b1681526001600160a01b039091166004820152306024820152604481018a90526064810188905260ff8716608482015260a4810186905260c4810185905260e401600060405180830381600087803b158015610bc457600080fd5b505af1158015610bd8573d6000803e3d6000fd5b50505050610be68787610de7565b979650505050505050565b60006001600160a01b038716610c1a57604051633e3c148760e01b815260040160405180910390fd5b610c238761115f565b881115610c6f5787610c348861115f565b6040517f96afb63f00000000000000000000000000000000000000000000000000000000815260048101929092526024820152604401610b1f565b610c7888611054565b905085811115610cbe576040517fe0dd30c90000000000000000000000000000000000000000000000000000000081526004810182905260248101879052604401610b1f565b6001600160a01b037f00000000000000000000000000000000000000000000000000000000000000001663d505accf336040516001600160e01b031960e084901b1681526001600160a01b039091166004820152306024820152604481018990526064810188905260ff8716608482015260a4810186905260c4810185905260e401600060405180830381600087803b158015610d5a57600080fd5b505af1158015610d6e573d6000803e3d6000fd5b50505050610be6610d7c3390565b88838b6118c3565b600954604080517f67e2ba2300000000000000000000000000000000000000000000000000000000815290516000926001600160a01b0316916367e2ba239160048083019260209291908290030181865afa15801561068e573d6000803e3d6000fd5b60006001600160a01b038216610e1057604051633e3c148760e01b815260040160405180910390fd5b610e19826109be565b831115610e2a5782610ae8836109be565b610e33836111ab565b9050610756338385846118c3565b6001600160a01b038116600090815260076020526040812054610756565b600060608082808083610e937f00000000000000000000000000000000000000000000000000000000000000006005611955565b610ebe7f00000000000000000000000000000000000000000000000000000000000000006006611955565b604080516000808252602082019092527f0f000000000000000000000000000000000000000000000000000000000000009b939a50919850469750309650945092509050565b6001600160a01b03811660009081526020819052604081205461075690610749565b60006001600160a01b038216610f4f57604051633e3c148760e01b815260040160405180910390fd5b610f588261115f565b831115610f695782610c348361115f565b610f7283611054565b9050610756338383866118c3565b6060600480546106c69061283a565b3360008181526001602090815260408083206001600160a01b03871684529091528120549091908381101561102c5760405162461bcd60e51b815260206004820152602560248201527f45524332303a2064656372656173656420616c6c6f77616e63652062656c6f7760448201527f207a65726f0000000000000000000000000000000000000000000000000000006064820152608401610b1f565b61093e82868684036113a2565b6000610756826000611a00565b60003361076a81858561158c565b6000610756826001611368565b600061106c8261131c565b8411156110b8578361107d8361131c565b6040517f588e798400000000000000000000000000000000000000000000000000000000815260048101929092526024820152604401610b1f565b6009546000906001600160a01b03166360af6ad38685336040516001600160e01b031960e086901b16815260048101939093526001600160a01b03918216602484015216604482015260640160408051808303816000875af1158015611122573d6000803e3d6000fd5b505050506040513d601f19601f8201168201806040525081019061114691906128b0565b925090506111573385858585611a42565b509392505050565b6009546040517fc63d75b60000000000000000000000000000000000000000000000000000000081526001600160a01b038381166004830152600092169063c63d75b690602401610a06565b6000610756826000611b02565b834211156112085760405162461bcd60e51b815260206004820152601d60248201527f45524332305065726d69743a206578706972656420646561646c696e650000006044820152606401610b1f565b60007f6e71edae12b1b97f4d1f60370fef10105fa2faae0126114a169c64845d6126c98888886112378c611b27565b6040805160208101969096526001600160a01b0394851690860152929091166060840152608083015260a082015260c0810186905260e001604051602081830303815290604052805190602001209050600061129282611b4f565b905060006112a282878787611b97565b9050896001600160a01b0316816001600160a01b0316146113055760405162461bcd60e51b815260206004820152601e60248201527f45524332305065726d69743a20696e76616c6964207369676e617475726500006044820152606401610b1f565b6113108a8a8a6113a2565b50505050505050505050565b6009546040517fd905777e0000000000000000000000000000000000000000000000000000000081526001600160a01b038381166004830152600092169063d905777e90602401610a06565b600061091e61137561060e565b61138090600161289d565b61138c6000600a6129b8565b600254611399919061289d565b85919085611bc1565b6001600160a01b03831661141d5760405162461bcd60e51b8152602060048201526024808201527f45524332303a20617070726f76652066726f6d20746865207a65726f2061646460448201527f72657373000000000000000000000000000000000000000000000000000000006064820152608401610b1f565b6001600160a01b0382166114995760405162461bcd60e51b815260206004820152602260248201527f45524332303a20617070726f766520746f20746865207a65726f20616464726560448201527f73730000000000000000000000000000000000000000000000000000000000006064820152608401610b1f565b6001600160a01b0383811660008181526001602090815260408083209487168084529482529182902085905590518481527f8c5be1e5ebec7d5bd14f71427d1e84f3dd0314c0f7b2291e5b200ac8c7c3b925910160405180910390a3505050565b6001600160a01b03838116600090815260016020908152604080832093861683529290522054600019811461158657818110156115795760405162461bcd60e51b815260206004820152601d60248201527f45524332303a20696e73756666696369656e7420616c6c6f77616e63650000006044820152606401610b1f565b61158684848484036113a2565b50505050565b6001600160a01b0383166116085760405162461bcd60e51b815260206004820152602560248201527f45524332303a207472616e736665722066726f6d20746865207a65726f20616460448201527f64726573730000000000000000000000000000000000000000000000000000006064820152608401610b1f565b6001600160a01b0382166116845760405162461bcd60e51b815260206004820152602360248201527f45524332303a207472616e7366657220746f20746865207a65726f206164647260448201527f65737300000000000000000000000000000000000000000000000000000000006064820152608401610b1f565b6001600160a01b038316600090815260208190526040902054818110156117135760405162461bcd60e51b815260206004820152602660248201527f45524332303a207472616e7366657220616d6f756e742065786365656473206260448201527f616c616e636500000000000000000000000000000000000000000000000000006064820152608401610b1f565b6001600160a01b03848116600081815260208181526040808320878703905593871680835291849020805487019055925185815290927fddf252ad1be2c89b69c2b068fc378daa952ba7f163c4a11628f55a4df523b3ef910160405180910390a3611586565b6000306001600160a01b037f0000000000000000000000000000000000000000000000000000000000000000161480156117d257507f000000000000000000000000000000000000000000000000000000000000000046145b156117fc57507f000000000000000000000000000000000000000000000000000000000000000090565b6106b2604080517f8b73c3c69bb8fe3d512ecc4cf759cc79239f7b179b0ffacaa9a75d522b39400f60208201527f0000000000000000000000000000000000000000000000000000000000000000918101919091527f000000000000000000000000000000000000000000000000000000000000000060608201524660808201523060a082015260009060c00160405160208183030381529060405280519060200120905090565b600061091e6118b1610d84565b6118b961060e565b61137591906129c7565b6118ef7f0000000000000000000000000000000000000000000000000000000000000000853085611c23565b6118f98382611cbc565b826001600160a01b0316846001600160a01b03167fdcbc1c05240f31ff3ad067ef1ee35ce4997762752e3a095284754544f4c709d78484604051611947929190918252602082015260400190565b60405180910390a350505050565b606060ff831461196f5761196883611d7b565b9050610756565b81805461197b9061283a565b80601f01602080910402602001604051908101604052809291908181526020018280546119a79061283a565b80156119f45780601f106119c9576101008083540402835291602001916119f4565b820191906000526020600020905b8154815290600101906020018083116119d757829003601f168201915b50505050509050610756565b600061091e611a1082600a6129b8565b600254611a1d919061289d565b611a25610d84565b611a2d61060e565b611a3791906129c7565b61139990600161289d565b826001600160a01b0316856001600160a01b031614611a6657611a668386836114fa565b611a708382611dba565b611a9b7f00000000000000000000000000000000000000000000000000000000000000008584611f23565b826001600160a01b0316846001600160a01b0316866001600160a01b03167ffbde797d201c681b91056529119e0b02407c7bb96a4a2c75c01fc9667232c8db8585604051611af3929190918252602082015260400190565b60405180910390a45050505050565b600061091e611b1282600a6129b8565b600254611b1f919061289d565b611a3761060e565b6001600160a01b03811660009081526007602052604090208054600181018255905b50919050565b6000610756611b5c611779565b836040517f19010000000000000000000000000000000000000000000000000000000000008152600281019290925260228201526042902090565b6000806000611ba887878787611f6c565b91509150611bb581612030565b5090505b949350505050565b600080611bcf868686612198565b90506001836002811115611be557611be56129da565b148015611c02575060008480611bfd57611bfd6129f0565b868809115b15611c1557611c1260018261289d565b90505b95945050505050565b505050565b6040516001600160a01b03808516602483015283166044820152606481018290526115869085907f23b872dd00000000000000000000000000000000000000000000000000000000906084015b60408051601f198184030181529190526020810180517bffffffffffffffffffffffffffffffffffffffffffffffffffffffff166001600160e01b03199093169290921790915261228a565b6001600160a01b038216611d125760405162461bcd60e51b815260206004820152601f60248201527f45524332303a206d696e7420746f20746865207a65726f2061646472657373006044820152606401610b1f565b8060026000828254611d24919061289d565b90915550506001600160a01b038216600081815260208181526040808320805486019055518481527fddf252ad1be2c89b69c2b068fc378daa952ba7f163c4a11628f55a4df523b3ef910160405180910390a35050565b60606000611d8883612372565b604080516020808252818301909252919250600091906020820181803683375050509182525060208101929092525090565b6001600160a01b038216611e365760405162461bcd60e51b815260206004820152602160248201527f45524332303a206275726e2066726f6d20746865207a65726f2061646472657360448201527f73000000000000000000000000000000000000000000000000000000000000006064820152608401610b1f565b6001600160a01b03821660009081526020819052604090205481811015611ec55760405162461bcd60e51b815260206004820152602260248201527f45524332303a206275726e20616d6f756e7420657863656564732062616c616e60448201527f63650000000000000000000000000000000000000000000000000000000000006064820152608401610b1f565b6001600160a01b0383166000818152602081815260408083208686039055600280548790039055518581529192917fddf252ad1be2c89b69c2b068fc378daa952ba7f163c4a11628f55a4df523b3ef910160405180910390a3505050565b6040516001600160a01b038316602482015260448101829052611c1e9084907fa9059cbb0000000000000000000000000000000000000000000000000000000090606401611c70565b6000807f7fffffffffffffffffffffffffffffff5d576e7357a4501ddfe92f46681b20a0831115611fa35750600090506003612027565b6040805160008082526020820180845289905260ff881692820192909252606081018690526080810185905260019060a0016020604051602081039080840390855afa158015611ff7573d6000803e3d6000fd5b5050604051601f1901519150506001600160a01b03811661202057600060019250925050612027565b9150600090505b94509492505050565b6000816004811115612044576120446129da565b0361204c5750565b6001816004811115612060576120606129da565b036120ad5760405162461bcd60e51b815260206004820152601860248201527f45434453413a20696e76616c6964207369676e617475726500000000000000006044820152606401610b1f565b60028160048111156120c1576120c16129da565b0361210e5760405162461bcd60e51b815260206004820152601f60248201527f45434453413a20696e76616c6964207369676e6174757265206c656e677468006044820152606401610b1f565b6003816004811115612122576121226129da565b036121955760405162461bcd60e51b815260206004820152602260248201527f45434453413a20696e76616c6964207369676e6174757265202773272076616c60448201527f75650000000000000000000000000000000000000000000000000000000000006064820152608401610b1f565b50565b60008080600019858709858702925082811083820303915050806000036121d2578382816121c8576121c86129f0565b049250505061091e565b8084116122215760405162461bcd60e51b815260206004820152601560248201527f4d6174683a206d756c446976206f766572666c6f7700000000000000000000006044820152606401610b1f565b60008486880960026001871981018816978890046003810283188082028403028082028403028082028403028082028403028082028403029081029092039091026000889003889004909101858311909403939093029303949094049190911702949350505050565b60006122df826040518060400160405280602081526020017f5361666545524332303a206c6f772d6c6576656c2063616c6c206661696c6564815250856001600160a01b03166123b39092919063ffffffff16565b90508051600014806123005750808060200190518101906123009190612a06565b611c1e5760405162461bcd60e51b815260206004820152602a60248201527f5361666545524332303a204552433230206f7065726174696f6e20646964206e60448201527f6f742073756363656564000000000000000000000000000000000000000000006064820152608401610b1f565b600060ff8216601f811115610756576040517fb3512b0c00000000000000000000000000000000000000000000000000000000815260040160405180910390fd5b6060611bb9848460008585600080866001600160a01b031685876040516123da9190612a28565b60006040518083038185875af1925050503d8060008114612417576040519150601f19603f3d011682016040523d82523d6000602084013e61241c565b606091505b5091509150610be68783838760608315612497578251600003612490576001600160a01b0385163b6124905760405162461bcd60e51b815260206004820152601d60248201527f416464726573733a2063616c6c20746f206e6f6e2d636f6e74726163740000006044820152606401610b1f565b5081611bb9565b611bb983838151156124ac5781518083602001fd5b8060405162461bcd60e51b8152600401610b1f9190612516565b60005b838110156124e15781810151838201526020016124c9565b50506000910152565b600081518084526125028160208601602086016124c6565b601f01601f19169290920160200192915050565b60208152600061091e60208301846124ea565b60006020828403121561253b57600080fd5b5035919050565b80356001600160a01b038116811461255957600080fd5b919050565b6000806040838503121561257157600080fd5b61257a83612542565b946020939093013593505050565b6000806040838503121561259b57600080fd5b823591506125ab60208401612542565b90509250929050565b6000806000606084860312156125c957600080fd5b6125d284612542565b92506125e060208501612542565b9150604084013590509250925092565b60006020828403121561260257600080fd5b61091e82612542565b803560ff8116811461255957600080fd5b60008060008060008060c0878903121561263557600080fd5b8635955061264560208801612542565b94506040870135935061265a6060880161260b565b92506080870135915060a087013590509295509295509295565b600080600080600080600060e0888a03121561268f57600080fd5b8735965061269f60208901612542565b955060408801359450606088013593506126bb6080890161260b565b925060a0880135915060c0880135905092959891949750929550565b7fff00000000000000000000000000000000000000000000000000000000000000881681526000602060e08184015261271360e084018a6124ea565b8381036040850152612725818a6124ea565b606085018990526001600160a01b038816608086015260a0850187905284810360c0860152855180825283870192509083019060005b818110156127775783518352928401929184019160010161275b565b50909c9b505050505050505050505050565b60008060006060848603121561279e57600080fd5b833592506127ae60208501612542565b91506127bc60408501612542565b90509250925092565b600080600080600080600060e0888a0312156127e057600080fd5b6127e988612542565b965061269f60208901612542565b6000806040838503121561280a57600080fd5b61281383612542565b91506125ab60208401612542565b60006020828403121561283357600080fd5b5051919050565b600181811c9082168061284e57607f821691505b602082108103611b4957634e487b7160e01b600052602260045260246000fd5b634e487b7160e01b600052601160045260246000fd5b60ff81811683821601908111156107565761075661286e565b808201808211156107565761075661286e565b600080604083850312156128c357600080fd5b505080516020909101519092909150565b600181815b8085111561290f5781600019048211156128f5576128f561286e565b8085161561290257918102915b93841c93908002906128d9565b509250929050565b60008261292657506001610756565b8161293357506000610756565b816001811461294957600281146129535761296f565b6001915050610756565b60ff8411156129645761296461286e565b50506001821b610756565b5060208310610133831016604e8410600b8410161715612992575081810a610756565b61299c83836128d4565b80600019048211156129b0576129b061286e565b029392505050565b600061091e60ff841683612917565b818103818111156107565761075661286e565b634e487b7160e01b600052602160045260246000fd5b634e487b7160e01b600052601260045260246000fd5b600060208284031215612a1857600080fd5b8151801515811461091e57600080fd5b60008251612a3a8184602087016124c6565b919091019291505056",
    "linkReferences": {}
  },
  "methodIdentifiers": {
    "DOMAIN_SEPARATOR()": "3644e515",
    "allowance(address,address)": "dd62ed3e",
    "approve(address,uint256)": "095ea7b3",
    "asset()": "38d52e0f",
    "balanceOf(address)": "70a08231",
    "balanceOfAssets(address)": "9159b206",
    "configurator()": "2b507df8",
    "convertToAssets(uint256)": "07a2d13a",
    "convertToExitAssets(uint256)": "50496cbd",
    "convertToExitShares(uint256)": "a58c3eff",
    "convertToShares(uint256)": "c6e6f592",
    "decimals()": "313ce567",
    "decreaseAllowance(address,uint256)": "a457c2d7",
    "deposit(uint256,address)": "6e553f65",
    "depositWithPermit(uint256,address,uint256,uint8,bytes32,bytes32)": "50921b23",
    "eip712Domain()": "84b0196e",
    "increaseAllowance(address,uint256)": "39509351",
    "maxDeposit(address)": "402d267d",
    "maxMint(address)": "c63d75b6",
    "maxRedeem(address)": "d905777e",
    "maxWithdraw(address)": "ce96cb77",
    "mint(uint256,address)": "94bf804d",
    "mintWithPermit(uint256,address,uint256,uint256,uint8,bytes32,bytes32)": "60dd37d9",
    "name()": "06fdde03",
    "nonces(address)": "7ecebe00",
    "permit(address,address,uint256,uint256,uint8,bytes32,bytes32)": "d505accf",
    "previewDeposit(uint256)": "ef8b30f7",
    "previewMint(uint256)": "b3d7f6b9",
    "previewRedeem(uint256)": "4cdad506",
    "previewWithdraw(uint256)": "0a28a477",
    "redeem(uint256,address,address)": "ba087652",
    "removeShares(uint256,address)": "1b8f1830",
    "requestRedeem(uint256,address)": "107703ab",
    "symbol()": "95d89b41",
    "totalAssets()": "01e1d114",
    "totalSupply()": "18160ddd",
    "transfer(address,uint256)": "a9059cbb",
    "transferFrom(address,address,uint256)": "23b872dd",
    "unrealizedLosses()": "67e2ba23",
    "withdraw(uint256,address,address)": "b460af94"
  },
  "id": 3
}