{
  "contractName": "DODOV2Adapter",
  "abi": [
    {
      "inputs": [
        {
          "internalType": "address",
          "name": "to",
          "type": "address"
        },
        {
          "internalType": "address",
          "name": "pool",
          "type": "address"
        }
      ],
      "name": "sellBase",
      "outputs": [],
      "stateMutability": "nonpayable",
      "type": "function"
    },
    {
      "inputs": [
        {
          "internalType": "address",
          "name": "to",
          "type": "address"
        },
        {
          "internalType": "address",
          "name": "pool",
          "type": "address"
        }
      ],
      "name": "sellQuote",
      "outputs": [],
      "stateMutability": "nonpayable",
      "type": "function"
    }
  ],
  "bytecode": "0x608060405234801561001057600080fd5b506101af806100206000396000f3fe608060405234801561001057600080fd5b50600436106100365760003560e01c80637c9a7c971461003b578063815846951461006b575b600080fd5b6100696004803603604081101561005157600080fd5b506001600160a01b0381358116916020013516610099565b005b6100696004803603604081101561008157600080fd5b506001600160a01b0381358116916020013516610121565b806001600160a01b031663dd93f59a836040518263ffffffff1660e01b815260040180826001600160a01b03166001600160a01b03168152602001915050602060405180830381600087803b1580156100f157600080fd5b505af1158015610105573d6000803e3d6000fd5b505050506040513d602081101561011b57600080fd5b50505050565b806001600160a01b031663bd6015b4836040518263ffffffff1660e01b815260040180826001600160a01b03166001600160a01b03168152602001915050602060405180830381600087803b1580156100f157600080fdfea2646970667358221220a8b9559ba9140a5fe919247ce366e6e3fee7ee69680bad01fe6f9ee5779921b364736f6c63430006090033",
  "immutableReferences": {},
  "source": "/*\n\n    Copyright 2020 DODO ZOO.\n    SPDX-License-Identifier: Apache-2.0\n\n*/\n\npragma solidity 0.6.9;\n\nimport {IDODOV2} from \"../intf/IDODOV2.sol\";\nimport {IDODOAdapter} from \"../intf/IDODOAdapter.sol\";\n\ncontract DODOV2Adapter is IDODOAdapter {\n    function sellBase(address to, address pool) external override {\n        IDODOV2(pool).sellBase(to);\n    }\n\n    function sellQuote(address to, address pool) external override {\n        IDODOV2(pool).sellQuote(to);\n    }\n}",
  "sourcePath": "/Users/niutaotao/projects/dodo/contractV2/contracts/SmartRoute/adapter/DODOV2Adapter.sol",
  "compiler": {
    "name": "solc",
    "version": "0.6.9+commit.3e3065ac.Emscripten.clang"
  },
  "schemaVersion": "3.3.2",
  "updatedAt": "2021-01-20T03:10:14.934Z",
  "devdoc": {
    "methods": {}
  },
  "userdoc": {
    "methods": {}
  }
}