{
  "contractName": "FeeDistributor",
  "abi": [
    {
      "anonymous": false,
      "inputs": [
        {
          "indexed": false,
          "internalType": "address",
          "name": "sender",
          "type": "address"
        },
        {
          "indexed": false,
          "internalType": "uint256",
          "name": "baseAmount",
          "type": "uint256"
        },
        {
          "indexed": false,
          "internalType": "uint256",
          "name": "quoteAmount",
          "type": "uint256"
        }
      ],
      "name": "Claim",
      "type": "event"
    },
    {
      "anonymous": false,
      "inputs": [
        {
          "indexed": false,
          "internalType": "address",
          "name": "sender",
          "type": "address"
        },
        {
          "indexed": false,
          "internalType": "uint256",
          "name": "amount",
          "type": "uint256"
        }
      ],
      "name": "Stake",
      "type": "event"
    },
    {
      "anonymous": false,
      "inputs": [
        {
          "indexed": false,
          "internalType": "address",
          "name": "sender",
          "type": "address"
        },
        {
          "indexed": false,
          "internalType": "uint256",
          "name": "amount",
          "type": "uint256"
        }
      ],
      "name": "UnStake",
      "type": "event"
    },
    {
      "inputs": [],
      "name": "_BASE_RESERVE_",
      "outputs": [
        {
          "internalType": "uint256",
          "name": "",
          "type": "uint256"
        }
      ],
      "stateMutability": "view",
      "type": "function"
    },
    {
      "inputs": [],
      "name": "_BASE_REWARD_RATIO_",
      "outputs": [
        {
          "internalType": "uint256",
          "name": "",
          "type": "uint256"
        }
      ],
      "stateMutability": "view",
      "type": "function"
    },
    {
      "inputs": [],
      "name": "_BASE_TOKEN_",
      "outputs": [
        {
          "internalType": "address",
          "name": "",
          "type": "address"
        }
      ],
      "stateMutability": "view",
      "type": "function"
    },
    {
      "inputs": [],
      "name": "_QUOTE_RESERVE_",
      "outputs": [
        {
          "internalType": "uint256",
          "name": "",
          "type": "uint256"
        }
      ],
      "stateMutability": "view",
      "type": "function"
    },
    {
      "inputs": [],
      "name": "_QUOTE_REWARD_RATIO_",
      "outputs": [
        {
          "internalType": "uint256",
          "name": "",
          "type": "uint256"
        }
      ],
      "stateMutability": "view",
      "type": "function"
    },
    {
      "inputs": [],
      "name": "_QUOTE_TOKEN_",
      "outputs": [
        {
          "internalType": "address",
          "name": "",
          "type": "address"
        }
      ],
      "stateMutability": "view",
      "type": "function"
    },
    {
      "inputs": [],
      "name": "_STAKE_RESERVE_",
      "outputs": [
        {
          "internalType": "uint256",
          "name": "",
          "type": "uint256"
        }
      ],
      "stateMutability": "view",
      "type": "function"
    },
    {
      "inputs": [],
      "name": "_STAKE_TOKEN_",
      "outputs": [
        {
          "internalType": "address",
          "name": "",
          "type": "address"
        }
      ],
      "stateMutability": "view",
      "type": "function"
    },
    {
      "inputs": [],
      "name": "_STAKE_VAULT_",
      "outputs": [
        {
          "internalType": "address",
          "name": "",
          "type": "address"
        }
      ],
      "stateMutability": "view",
      "type": "function"
    },
    {
      "inputs": [
        {
          "internalType": "address",
          "name": "baseToken",
          "type": "address"
        },
        {
          "internalType": "address",
          "name": "quoteToken",
          "type": "address"
        },
        {
          "internalType": "address",
          "name": "stakeToken",
          "type": "address"
        }
      ],
      "name": "init",
      "outputs": [],
      "stateMutability": "nonpayable",
      "type": "function"
    },
    {
      "inputs": [
        {
          "internalType": "address",
          "name": "to",
          "type": "address"
        }
      ],
      "name": "stake",
      "outputs": [],
      "stateMutability": "nonpayable",
      "type": "function"
    },
    {
      "inputs": [
        {
          "internalType": "address",
          "name": "to",
          "type": "address"
        }
      ],
      "name": "claim",
      "outputs": [],
      "stateMutability": "nonpayable",
      "type": "function"
    },
    {
      "inputs": [
        {
          "internalType": "uint256",
          "name": "amount",
          "type": "uint256"
        },
        {
          "internalType": "address",
          "name": "to",
          "type": "address"
        },
        {
          "internalType": "bool",
          "name": "withClaim",
          "type": "bool"
        }
      ],
      "name": "unstake",
      "outputs": [],
      "stateMutability": "nonpayable",
      "type": "function"
    }
  ],
  "bytecode": "0x608060405234801561001057600080fd5b50611283806100206000396000f3fe608060405234801561001057600080fd5b50600436106100ce5760003560e01c80634a248d2a1161008c57806384d4a66b1161006657806384d4a66b146101e3578063bbf5ce78146101eb578063d4b97046146101f3578063f69e7eea146101fb576100ce565b80634a248d2a146101cb5780635101e5c5146101d35780637d721504146101db576100ce565b8062af1059146100d3578063184b9559146100f7578063185ed80d146101315780631e83409a14610165578063264762041461018b5780634221f1d0146101b1575b600080fd5b6100db610203565b604080516001600160a01b039092168252519081900360200190f35b61012f6004803603606081101561010d57600080fd5b506001600160a01b038135811691602081013582169160409091013516610212565b005b61012f6004803603606081101561014757600080fd5b508035906001600160a01b03602082013516906040013515156102f7565b61012f6004803603602081101561017b57600080fd5b50356001600160a01b031661043e565b61012f600480360360208110156101a157600080fd5b50356001600160a01b031661045c565b6101b961055d565b60408051918252519081900360200190f35b6100db610563565b6101b9610572565b6101b9610578565b6101b961057e565b6101b9610584565b6100db61058a565b6100db610599565b6005546001600160a01b031681565b600e5460ff1615610260576040805162461bcd60e51b81526020600482015260136024820152721053149150511657d253925512505312569151606a1b604482015290519081900360640190fd5b600e805460ff19166001908117909155600080546001600160a01b038087166001600160a01b03199283161790925582548583169082161790925560058054918416919092161790556040516102b590610cd6565b604051809103906000f0801580156102d1573d6000803e3d6000fd5b50600480546001600160a01b0319166001600160a01b0392909216919091179055505050565b336000908152600d602052604090205483111561035b576040805162461bcd60e51b815260206004820152601860248201527f5354414b452042414c414e4345204f4e5420454e4f5547480000000000000000604482015290519081900360640190fd5b6103636105a8565b61036c33610701565b801561037c5761037c33836107ea565b61038683336108a2565b60048054600554604080516316c48fdd60e11b81526001600160a01b039283169481019490945260248401879052858216604485015251911691632d891fba91606480830192600092919082900301818387803b1580156103e657600080fd5b505af11580156103fa573d6000803e3d6000fd5b5050604080513381526020810187905281517fb24546d975e2628748efc9aced80665e0fad66272033e5c0ea25fd3afac997959450908190039091019150a1505050565b6104466105a8565b61044f33610701565b61045933826107ea565b50565b6104646105a8565b61046d81610701565b60055460048054604080516370a0823160e01b81526001600160a01b03928316938101939093525160009391909116916370a08231916024808301926020929190829003018186803b1580156104c257600080fd5b505afa1580156104d6573d6000803e3d6000fd5b505050506040513d60208110156104ec57600080fd5b505160065490915060009061050890839063ffffffff61096116565b905061051481846109af565b604080516001600160a01b03851681526020810183905281517febedb8b3c678666e7f36970bc8f57abf6d8fa2e828c0da91ea5b75bf68ed101a929181900390910190a1505050565b60065481565b6000546001600160a01b031681565b60075481565b60025481565b600a5481565b60035481565b6001546001600160a01b031681565b6004546001600160a01b031681565b60025460008054604080516370a0823160e01b8152306004820152905192936106349390926001600160a01b0316916370a08231916024808301926020929190829003018186803b1580156105fc57600080fd5b505afa158015610610573d6000803e3d6000fd5b505050506040513d602081101561062657600080fd5b50519063ffffffff61096116565b600354600154604080516370a0823160e01b8152306004820152905193945060009361068a93926001600160a01b0316916370a08231916024808301926020929190829003018186803b1580156105fc57600080fd5b90506106aa61069b836006546109d8565b6007549063ffffffff610a0916565b6007819055506106ce6106bf826006546109d8565b600a549063ffffffff610a0916565b600a556002546106e4908363ffffffff610a0916565b6002556003546106fa908263ffffffff610a0916565b6003555050565b6001600160a01b038116600090815260086020908152604080832054600d835281842054600990935292205460075461075b939261074f92909161074a9163ffffffff61096116565b610a4f565b9063ffffffff610a0916565b6001600160a01b0382166000908152600860209081526040808320939093556007546009825283832055600b815282822054600d825283832054600c9092529290912054600a546107bc939261074f92909161074a9163ffffffff61096116565b6001600160a01b039091166000908152600b6020908152604080832093909355600a54600c90915291902055565b6001600160a01b03808316600090815260086020908152604080832054600b909252822054915490926108259116848463ffffffff610a7916565b600154610842906001600160a01b0316848363ffffffff610a7916565b6001600160a01b03841660008181526008602090815260408083209290925581519283528201849052818101839052517f34fcbac0073d7c3d388e51312faf357774904998eeb8fca628b9e6f65ee1cbf79181900360600190a150505050565b6001600160a01b0381166000908152600d60205260409020546108cb908363ffffffff61096116565b6001600160a01b038083166000908152600d6020908152604091829020939093556005546004805483516370a0823160e01b81529085169181019190915291519216926370a0823192602480840193829003018186803b15801561092e57600080fd5b505afa158015610942573d6000803e3d6000fd5b505050506040513d602081101561095857600080fd5b50516006555050565b6000828211156109a4576040805162461bcd60e51b815260206004820152600960248201526829aaa12fa2a92927a960b91b604482015290519081900360640190fd5b508082035b92915050565b6001600160a01b0381166000908152600d60205260409020546108cb908363ffffffff610a0916565b6000610a02826109f685670de0b6b3a764000063ffffffff610ad016565b9063ffffffff610b2b16565b9392505050565b600082820183811015610a02576040805162461bcd60e51b815260206004820152600960248201526820a2222fa2a92927a960b91b604482015290519081900360640190fd5b6000670de0b6b3a7640000610a6a848463ffffffff610ad016565b81610a7157fe5b049392505050565b604080516001600160a01b038416602482015260448082018490528251808303909101815260649091019091526020810180516001600160e01b031663a9059cbb60e01b179052610acb908490610b7b565b505050565b600082610adf575060006109a9565b82820282848281610aec57fe5b0414610a02576040805162461bcd60e51b815260206004820152600960248201526826aaa62fa2a92927a960b91b604482015290519081900360640190fd5b6000808211610b72576040805162461bcd60e51b815260206004820152600e60248201526d2224ab24a224a723afa2a92927a960911b604482015290519081900360640190fd5b818381610a7157fe5b60006060836001600160a01b0316836040518082805190602001908083835b60208310610bb95780518252601f199092019160209182019101610b9a565b6001836020036101000a0380198251168184511680821785525050505050509050019150506000604051808303816000865af19150503d8060008114610c1b576040519150601f19603f3d011682016040523d82523d6000602084013e610c20565b606091505b509150915081610c77576040805162461bcd60e51b815260206004820181905260248201527f5361666545524332303a206c6f772d6c6576656c2063616c6c206661696c6564604482015290519081900360640190fd5b805115610cd057808060200190516020811015610c9357600080fd5b5051610cd05760405162461bcd60e51b815260040180806020018281038252602a815260200180611224602a913960400191505060405180910390fd5b50505050565b61054080610ce48339019056fe608060405234801561001057600080fd5b50600080546001600160a01b03191633178082556040516001600160a01b039190911691907f8be0079c531659141344cd1fd0a4f28419497f9722a3daafe3b4186f6b6457e0908290a36104d7806100696000396000f3fe608060405234801561001057600080fd5b50600436106100575760003560e01c806316048bc41461005c5780632d891fba146100805780634e71e0c8146100b85780638456db15146100c0578063f2fde38b146100c8575b600080fd5b6100646100ee565b604080516001600160a01b039092168252519081900360200190f35b6100b66004803603606081101561009657600080fd5b506001600160a01b038135811691602081013591604090910135166100fd565b005b6100b6610167565b61006461021a565b6100b6600480360360208110156100de57600080fd5b50356001600160a01b0316610229565b6000546001600160a01b031681565b6000546001600160a01b03163314610148576040805162461bcd60e51b81526020600482015260096024820152682727aa2fa7aba722a960b91b604482015290519081900360640190fd5b6101626001600160a01b038416828463ffffffff6102cf16565b505050565b6001546001600160a01b031633146101b6576040805162461bcd60e51b815260206004820152600d60248201526c494e56414c49445f434c41494d60981b604482015290519081900360640190fd5b600154600080546040516001600160a01b0393841693909116917f8be0079c531659141344cd1fd0a4f28419497f9722a3daafe3b4186f6b6457e091a360018054600080546001600160a01b03199081166001600160a01b03841617909155169055565b6001546001600160a01b031681565b6000546001600160a01b03163314610274576040805162461bcd60e51b81526020600482015260096024820152682727aa2fa7aba722a960b91b604482015290519081900360640190fd5b600080546040516001600160a01b03808516939216917fdcf55418cee3220104fef63f979ff3c4097ad240c0c43dcb33ce837748983e6291a3600180546001600160a01b0319166001600160a01b0392909216919091179055565b604080516001600160a01b038416602482015260448082018490528251808303909101815260649091019091526020810180516001600160e01b031663a9059cbb60e01b17905261016290849060006060836001600160a01b0316836040518082805190602001908083835b6020831061035a5780518252601f19909201916020918201910161033b565b6001836020036101000a0380198251168184511680821785525050505050509050019150506000604051808303816000865af19150503d80600081146103bc576040519150601f19603f3d011682016040523d82523d6000602084013e6103c1565b606091505b509150915081610418576040805162461bcd60e51b815260206004820181905260248201527f5361666545524332303a206c6f772d6c6576656c2063616c6c206661696c6564604482015290519081900360640190fd5b8051156104715780806020019051602081101561043457600080fd5b50516104715760405162461bcd60e51b815260040180806020018281038252602a815260200180610478602a913960400191505060405180910390fd5b5050505056fe5361666545524332303a204552433230206f7065726174696f6e20646964206e6f742073756363656564a2646970667358221220ccba8e08abba8e4738c9c7e72dfbeae550b7f4f12d459a2cc37631c67fafca4764736f6c634300060900335361666545524332303a204552433230206f7065726174696f6e20646964206e6f742073756363656564a2646970667358221220ad37f795a0b3938262f4d4f53e07d9f25615a93a2255fb260a07d2de73f8e0c164736f6c63430006090033",
  "immutableReferences": {},
  "source": "/*\n\n    Copyright 2020 DODO ZOO.\n    SPDX-License-Identifier: Apache-2.0\n\n*/\n\npragma solidity 0.6.9;\n\nimport {SafeMath} from \"../lib/SafeMath.sol\";\nimport {DecimalMath} from \"../lib/DecimalMath.sol\";\nimport {IERC20} from \"../intf/IERC20.sol\";\nimport {SafeERC20} from \"../lib/SafeERC20.sol\";\nimport {Ownable} from \"../lib/Ownable.sol\";\n\ncontract FeeDistributor {\n    using SafeMath for uint256;\n    using SafeERC20 for IERC20;\n\n    // ============ Storage ============\n\n    address public _BASE_TOKEN_;\n    address public _QUOTE_TOKEN_;\n    uint256 public _BASE_RESERVE_;\n    uint256 public _QUOTE_RESERVE_;\n\n    address public _STAKE_VAULT_;\n    address public _STAKE_TOKEN_;\n    uint256 public _STAKE_RESERVE_;\n\n    uint256 public _BASE_REWARD_RATIO_;\n    mapping(address => uint256) internal _USER_BASE_REWARDS_;\n    mapping(address => uint256) internal _USER_BASE_PER_SHARE_;\n    \n    uint256 public _QUOTE_REWARD_RATIO_;\n    mapping(address => uint256) internal _USER_QUOTE_REWARDS_;\n    mapping(address => uint256) internal _USER_QUOTE_PER_SHARE_;\n\n    mapping(address => uint256) internal _SHARES_;\n    \n    bool internal _FEE_INITIALIZED_;\n\n    // ============ Event ============\n    event Stake(address sender, uint256 amount);\n    event UnStake(address sender, uint256 amount);\n    event Claim(address sender, uint256 baseAmount, uint256 quoteAmount);\n\n    function init(\n      address baseToken,\n      address quoteToken,\n      address stakeToken\n    ) external {\n        require(!_FEE_INITIALIZED_, \"ALREADY_INITIALIZED\");\n        _FEE_INITIALIZED_ = true;\n        \n        _BASE_TOKEN_ = baseToken;\n        _QUOTE_TOKEN_ = quoteToken;\n        _STAKE_TOKEN_ = stakeToken;\n        _STAKE_VAULT_ = address(new StakeVault());\n    }\n\n    function stake(address to) external {\n      _updateGlobalState();\n      _updateUserReward(to);\n      uint256 stakeVault = IERC20(_STAKE_TOKEN_).balanceOf(_STAKE_VAULT_);\n      uint256 stakeInput = stakeVault.sub(_STAKE_RESERVE_);\n      _addShares(stakeInput, to);\n      emit Stake(to, stakeInput);\n    }\n\n    function claim(address to) external {\n      _updateGlobalState();\n      _updateUserReward(msg.sender);\n      _claim(msg.sender, to);\n    }\n\n    function unstake(uint256 amount, address to, bool withClaim) external {\n      require(_SHARES_[msg.sender]>=amount, \"STAKE BALANCE ONT ENOUGH\");\n      _updateGlobalState();\n      _updateUserReward(msg.sender);\n\n      if (withClaim) {\n        _claim(msg.sender, to);\n      }\n\n      _removeShares(amount, msg.sender);\n      StakeVault(_STAKE_VAULT_).transferOut(_STAKE_TOKEN_, amount, to);\n      emit UnStake(msg.sender, amount);\n    }\n\n    // ============ Internal  ============\n\n    function _claim(address sender, address to) internal {\n      uint256 allBase = _USER_BASE_REWARDS_[sender];\n      uint256 allQuote = _USER_QUOTE_REWARDS_[sender];\n      IERC20(_BASE_TOKEN_).safeTransfer(to, allBase);\n      IERC20(_QUOTE_TOKEN_).safeTransfer(to, allQuote);\n      _USER_BASE_REWARDS_[sender] = 0;\n      _USER_BASE_REWARDS_[sender] = 0;\n      emit Claim(sender, allBase, allQuote);\n    }\n\n    function _updateGlobalState() internal {\n      uint256 baseInput = IERC20(_BASE_TOKEN_).balanceOf(address(this)).sub(_BASE_RESERVE_);\n      uint256 quoteInput = IERC20(_QUOTE_TOKEN_).balanceOf(address(this)).sub(_QUOTE_RESERVE_);\n      _BASE_REWARD_RATIO_ = _BASE_REWARD_RATIO_.add(DecimalMath.divFloor(baseInput, _STAKE_RESERVE_));\n      _QUOTE_REWARD_RATIO_ = _QUOTE_REWARD_RATIO_.add(DecimalMath.divFloor(quoteInput, _STAKE_RESERVE_));\n      _BASE_RESERVE_ = _BASE_RESERVE_.add(baseInput);\n      _QUOTE_RESERVE_ = _QUOTE_RESERVE_.add(quoteInput);\n    }\n\n    function _updateUserReward(address user) internal {\n        _USER_BASE_REWARDS_[user] = DecimalMath.mulFloor(\n          _SHARES_[user], \n          _BASE_REWARD_RATIO_.sub(_USER_BASE_PER_SHARE_[user])\n        ).add(_USER_BASE_REWARDS_[user]);\n\n        _USER_BASE_PER_SHARE_[user] = _BASE_REWARD_RATIO_;\n\n        _USER_QUOTE_REWARDS_[user] = DecimalMath.mulFloor(\n          _SHARES_[user], \n          _QUOTE_REWARD_RATIO_.sub(_USER_QUOTE_PER_SHARE_[user])\n        ).add(_USER_QUOTE_REWARDS_[user]);\n\n        _USER_QUOTE_PER_SHARE_[user] = _QUOTE_REWARD_RATIO_;\n    }\n\n    function _addShares(uint256 amount, address to) internal {\n      _SHARES_[to] = _SHARES_[to].add(amount);\n      _STAKE_RESERVE_ = IERC20(_STAKE_TOKEN_).balanceOf(_STAKE_VAULT_);\n    }\n\n    function _removeShares(uint256 amount, address from) internal {\n      _SHARES_[from] = _SHARES_[from].sub(amount);\n      _STAKE_RESERVE_ = IERC20(_STAKE_TOKEN_).balanceOf(_STAKE_VAULT_);\n    }\n}\n\ncontract StakeVault is Ownable {\n    using SafeERC20 for IERC20;\n    \n    function transferOut(\n        address token,\n        uint256 amount,\n        address to\n    ) external onlyOwner {\n        IERC20(token).safeTransfer(to, amount);\n    }\n}\n",
  "sourcePath": "/Users/niutaotao/projects/dodo/contractV2/contracts/DODOFee/FeeDistributer.sol",
  "compiler": {
    "name": "solc",
    "version": "0.6.9+commit.3e3065ac.Emscripten.clang"
  },
  "schemaVersion": "3.3.2",
  "updatedAt": "2021-04-07T16:20:50.941Z",
  "devdoc": {
    "methods": {}
  },
  "userdoc": {
    "methods": {}
  }
}