{
  "address": "0x3c705dB336C81c7FEFC5746e283aB2c0781A4B7b",
  "abi": [
    {
      "inputs": [
        {
          "internalType": "uint256",
          "name": "arrayLength1",
          "type": "uint256"
        },
        {
          "internalType": "uint256",
          "name": "arrayLength2",
          "type": "uint256"
        }
      ],
      "name": "ArrayLengthMismatch",
      "type": "error"
    },
    {
      "inputs": [],
      "name": "CannotDrawdownWhenDrawdownsPaused",
      "type": "error"
    },
    {
      "inputs": [],
      "name": "CannotReinitialize",
      "type": "error"
    },
    {
      "inputs": [],
      "name": "CannotSetAllowedUIDTypesAfterDeposit",
      "type": "error"
    },
    {
      "inputs": [
        {
          "internalType": "uint256",
          "name": "existingFundableAt",
          "type": "uint256"
        }
      ],
      "name": "CannotSetFundableAtAfterFundableAt",
      "type": "error"
    },
    {
      "inputs": [],
      "name": "CannotSubmitCallInLockupPeriod",
      "type": "error"
    },
    {
      "inputs": [],
      "name": "CannotWithdrawInDrawdownPeriod",
      "type": "error"
    },
    {
      "inputs": [
        {
          "internalType": "uint256",
          "name": "deposit",
          "type": "uint256"
        },
        {
          "internalType": "uint256",
          "name": "amountCurrentlyDeposited",
          "type": "uint256"
        },
        {
          "internalType": "uint256",
          "name": "limit",
          "type": "uint256"
        }
      ],
      "name": "DepositExceedsLimit",
      "type": "error"
    },
    {
      "inputs": [
        {
          "internalType": "uint256",
          "name": "drawdownAmount",
          "type": "uint256"
        },
        {
          "internalType": "uint256",
          "name": "existingPrincipalPaid",
          "type": "uint256"
        }
      ],
      "name": "DrawdownAmountExceedsDeposits",
      "type": "error"
    },
    {
      "inputs": [
        {
          "internalType": "uint256",
          "name": "poolTokenId",
          "type": "uint256"
        },
        {
          "internalType": "uint256",
          "name": "callSubmissionAmount",
          "type": "uint256"
        },
        {
          "internalType": "uint256",
          "name": "maxCallSubmissionAmount",
          "type": "uint256"
        }
      ],
      "name": "ExcessiveCallSubmissionAmount",
      "type": "error"
    },
    {
      "inputs": [
        {
          "internalType": "uint256",
          "name": "numPrincipalPeriods",
          "type": "uint256"
        },
        {
          "internalType": "uint256",
          "name": "minimumNumPrincipalPeriods",
          "type": "uint256"
        }
      ],
      "name": "HasInsufficientTranches",
      "type": "error"
    },
    {
      "inputs": [
        {
          "internalType": "uint256",
          "name": "inputTimestamp",
          "type": "uint256"
        },
        {
          "internalType": "uint256",
          "name": "checkpointedAt",
          "type": "uint256"
        }
      ],
      "name": "InputTimestampBeforeCheckpoint",
      "type": "error"
    },
    {
      "inputs": [
        {
          "internalType": "uint256",
          "name": "inputTimestamp",
          "type": "uint256"
        }
      ],
      "name": "InputTimestampInThePast",
      "type": "error"
    },
    {
      "inputs": [
        {
          "internalType": "uint256",
          "name": "tokenId",
          "type": "uint256"
        }
      ],
      "name": "InvalidCallSubmissionPoolToken",
      "type": "error"
    },
    {
      "inputs": [
        {
          "internalType": "enum LoanPhase",
          "name": "currentLoanPhase",
          "type": "uint8"
        },
        {
          "internalType": "enum LoanPhase",
          "name": "validLoanPhase",
          "type": "uint8"
        }
      ],
      "name": "InvalidLoanPhase",
      "type": "error"
    },
    {
      "inputs": [
        {
          "internalType": "uint256",
          "name": "numLockupPeriods",
          "type": "uint256"
        },
        {
          "internalType": "uint256",
          "name": "periodsPerPrincipalPeriod",
          "type": "uint256"
        }
      ],
      "name": "InvalidNumLockupPeriods",
      "type": "error"
    },
    {
      "inputs": [
        {
          "internalType": "address",
          "name": "depositor",
          "type": "address"
        }
      ],
      "name": "InvalidUIDForDepositor",
      "type": "error"
    },
    {
      "inputs": [
        {
          "internalType": "uint256",
          "name": "inputTranche",
          "type": "uint256"
        },
        {
          "internalType": "uint256",
          "name": "uncalledTranche",
          "type": "uint256"
        }
      ],
      "name": "MustDepositToUncalledTranche",
      "type": "error"
    },
    {
      "inputs": [
        {
          "internalType": "uint256",
          "name": "inputTranche",
          "type": "uint256"
        },
        {
          "internalType": "uint256",
          "name": "uncalledTranche",
          "type": "uint256"
        }
      ],
      "name": "MustSubmitCallToUncalledTranche",
      "type": "error"
    },
    {
      "inputs": [
        {
          "internalType": "uint256",
          "name": "attemptedPrincipalPayment",
          "type": "uint256"
        }
      ],
      "name": "NoBalanceToPay",
      "type": "error"
    },
    {
      "inputs": [
        {
          "internalType": "address",
          "name": "callSubmissionSender",
          "type": "address"
        },
        {
          "internalType": "uint256",
          "name": "tokenId",
          "type": "uint256"
        }
      ],
      "name": "NotAuthorizedToSubmitCall",
      "type": "error"
    },
    {
      "inputs": [
        {
          "internalType": "address",
          "name": "withdrawSender",
          "type": "address"
        },
        {
          "internalType": "uint256",
          "name": "tokenId",
          "type": "uint256"
        }
      ],
      "name": "NotAuthorizedToWithdraw",
      "type": "error"
    },
    {
      "inputs": [
        {
          "internalType": "uint256",
          "name": "lastCallRequestPeriod",
          "type": "uint256"
        }
      ],
      "name": "OutOfCallRequestPeriodBounds",
      "type": "error"
    },
    {
      "inputs": [
        {
          "internalType": "address",
          "name": "nonLockerAddress",
          "type": "address"
        }
      ],
      "name": "RequiresLockerRole",
      "type": "error"
    },
    {
      "inputs": [],
      "name": "TooLateToSubmitCallRequests",
      "type": "error"
    },
    {
      "inputs": [
        {
          "internalType": "uint256",
          "name": "withdrawAmount",
          "type": "uint256"
        },
        {
          "internalType": "uint256",
          "name": "withdrawableAmount",
          "type": "uint256"
        }
      ],
      "name": "WithdrawAmountExceedsWithdrawable",
      "type": "error"
    },
    {
      "inputs": [],
      "name": "ZeroCallSubmissionAmount",
      "type": "error"
    },
    {
      "inputs": [],
      "name": "ZeroDepositAmount",
      "type": "error"
    },
    {
      "inputs": [],
      "name": "ZeroDrawdownAmount",
      "type": "error"
    },
    {
      "inputs": [],
      "name": "ZeroPaymentAmount",
      "type": "error"
    },
    {
      "inputs": [],
      "name": "ZeroWithdrawAmount",
      "type": "error"
    },
    {
      "anonymous": false,
      "inputs": [
        {
          "indexed": true,
          "internalType": "uint256",
          "name": "originalTokenId",
          "type": "uint256"
        },
        {
          "indexed": true,
          "internalType": "uint256",
          "name": "callRequestedTokenId",
          "type": "uint256"
        },
        {
          "indexed": true,
          "internalType": "uint256",
          "name": "remainingTokenId",
          "type": "uint256"
        },
        {
          "indexed": false,
          "internalType": "uint256",
          "name": "callAmount",
          "type": "uint256"
        }
      ],
      "name": "CallRequestSubmitted",
      "type": "event"
    },
    {
      "anonymous": false,
      "inputs": [
        {
          "indexed": true,
          "internalType": "address",
          "name": "owner",
          "type": "address"
        },
        {
          "indexed": true,
          "internalType": "uint256",
          "name": "tranche",
          "type": "uint256"
        },
        {
          "indexed": true,
          "internalType": "uint256",
          "name": "tokenId",
          "type": "uint256"
        },
        {
          "indexed": false,
          "internalType": "uint256",
          "name": "amount",
          "type": "uint256"
        }
      ],
      "name": "DepositMade",
      "type": "event"
    },
    {
      "anonymous": false,
      "inputs": [
        {
          "indexed": true,
          "internalType": "address",
          "name": "loan",
          "type": "address"
        }
      ],
      "name": "DepositsLocked",
      "type": "event"
    },
    {
      "anonymous": false,
      "inputs": [
        {
          "indexed": true,
          "internalType": "address",
          "name": "borrower",
          "type": "address"
        },
        {
          "indexed": false,
          "internalType": "uint256",
          "name": "amount",
          "type": "uint256"
        }
      ],
      "name": "DrawdownMade",
      "type": "event"
    },
    {
      "anonymous": false,
      "inputs": [
        {
          "indexed": true,
          "internalType": "address",
          "name": "pool",
          "type": "address"
        }
      ],
      "name": "DrawdownsPaused",
      "type": "event"
    },
    {
      "anonymous": false,
      "inputs": [
        {
          "indexed": true,
          "internalType": "address",
          "name": "pool",
          "type": "address"
        }
      ],
      "name": "DrawdownsUnpaused",
      "type": "event"
    },
    {
      "anonymous": false,
      "inputs": [
        {
          "indexed": true,
          "internalType": "address",
          "name": "pool",
          "type": "address"
        }
      ],
      "name": "EmergencyShutdown",
      "type": "event"
    },
    {
      "anonymous": false,
      "inputs": [
        {
          "indexed": false,
          "internalType": "address",
          "name": "account",
          "type": "address"
        }
      ],
      "name": "Paused",
      "type": "event"
    },
    {
      "anonymous": false,
      "inputs": [
        {
          "indexed": true,
          "internalType": "address",
          "name": "payer",
          "type": "address"
        },
        {
          "indexed": true,
          "internalType": "address",
          "name": "pool",
          "type": "address"
        },
        {
          "indexed": false,
          "internalType": "uint256",
          "name": "interest",
          "type": "uint256"
        },
        {
          "indexed": false,
          "internalType": "uint256",
          "name": "principal",
          "type": "uint256"
        },
        {
          "indexed": false,
          "internalType": "uint256",
          "name": "remaining",
          "type": "uint256"
        },
        {
          "indexed": false,
          "internalType": "uint256",
          "name": "reserve",
          "type": "uint256"
        }
      ],
      "name": "PaymentApplied",
      "type": "event"
    },
    {
      "anonymous": false,
      "inputs": [
        {
          "indexed": true,
          "internalType": "address",
          "name": "from",
          "type": "address"
        },
        {
          "indexed": false,
          "internalType": "uint256",
          "name": "amount",
          "type": "uint256"
        }
      ],
      "name": "ReserveFundsCollected",
      "type": "event"
    },
    {
      "anonymous": false,
      "inputs": [
        {
          "indexed": true,
          "internalType": "bytes32",
          "name": "role",
          "type": "bytes32"
        },
        {
          "indexed": true,
          "internalType": "bytes32",
          "name": "previousAdminRole",
          "type": "bytes32"
        },
        {
          "indexed": true,
          "internalType": "bytes32",
          "name": "newAdminRole",
          "type": "bytes32"
        }
      ],
      "name": "RoleAdminChanged",
      "type": "event"
    },
    {
      "anonymous": false,
      "inputs": [
        {
          "indexed": true,
          "internalType": "bytes32",
          "name": "role",
          "type": "bytes32"
        },
        {
          "indexed": true,
          "internalType": "address",
          "name": "account",
          "type": "address"
        },
        {
          "indexed": true,
          "internalType": "address",
          "name": "sender",
          "type": "address"
        }
      ],
      "name": "RoleGranted",
      "type": "event"
    },
    {
      "anonymous": false,
      "inputs": [
        {
          "indexed": true,
          "internalType": "bytes32",
          "name": "role",
          "type": "bytes32"
        },
        {
          "indexed": true,
          "internalType": "address",
          "name": "account",
          "type": "address"
        },
        {
          "indexed": true,
          "internalType": "address",
          "name": "sender",
          "type": "address"
        }
      ],
      "name": "RoleRevoked",
      "type": "event"
    },
    {
      "anonymous": false,
      "inputs": [
        {
          "indexed": false,
          "internalType": "address",
          "name": "account",
          "type": "address"
        }
      ],
      "name": "Unpaused",
      "type": "event"
    },
    {
      "anonymous": false,
      "inputs": [
        {
          "indexed": true,
          "internalType": "address",
          "name": "owner",
          "type": "address"
        },
        {
          "indexed": true,
          "internalType": "uint256",
          "name": "tranche",
          "type": "uint256"
        },
        {
          "indexed": true,
          "internalType": "uint256",
          "name": "tokenId",
          "type": "uint256"
        },
        {
          "indexed": false,
          "internalType": "uint256",
          "name": "interestWithdrawn",
          "type": "uint256"
        },
        {
          "indexed": false,
          "internalType": "uint256",
          "name": "principalWithdrawn",
          "type": "uint256"
        }
      ],
      "name": "WithdrawalMade",
      "type": "event"
    },
    {
      "inputs": [],
      "name": "DEFAULT_ADMIN_ROLE",
      "outputs": [
        {
          "internalType": "bytes32",
          "name": "",
          "type": "bytes32"
        }
      ],
      "stateMutability": "view",
      "type": "function"
    },
    {
      "inputs": [],
      "name": "LOCKER_ROLE",
      "outputs": [
        {
          "internalType": "bytes32",
          "name": "",
          "type": "bytes32"
        }
      ],
      "stateMutability": "view",
      "type": "function"
    },
    {
      "inputs": [],
      "name": "OWNER_ROLE",
      "outputs": [
        {
          "internalType": "bytes32",
          "name": "",
          "type": "bytes32"
        }
      ],
      "stateMutability": "view",
      "type": "function"
    },
    {
      "inputs": [],
      "name": "PAUSER_ROLE",
      "outputs": [
        {
          "internalType": "bytes32",
          "name": "",
          "type": "bytes32"
        }
      ],
      "stateMutability": "view",
      "type": "function"
    },
    {
      "inputs": [],
      "name": "SPLIT_TOKEN_DUST_THRESHOLD",
      "outputs": [
        {
          "internalType": "uint256",
          "name": "",
          "type": "uint256"
        }
      ],
      "stateMutability": "view",
      "type": "function"
    },
    {
      "inputs": [
        {
          "internalType": "address",
          "name": "owner",
          "type": "address"
        }
      ],
      "name": "__BaseUpgradeablePausable__init",
      "outputs": [],
      "stateMutability": "nonpayable",
      "type": "function"
    },
    {
      "inputs": [],
      "name": "__PauserPausable__init",
      "outputs": [],
      "stateMutability": "nonpayable",
      "type": "function"
    },
    {
      "inputs": [],
      "name": "_reserveFundsFeePercent",
      "outputs": [
        {
          "internalType": "uint256",
          "name": "",
          "type": "uint256"
        }
      ],
      "stateMutability": "view",
      "type": "function"
    },
    {
      "inputs": [
        {
          "internalType": "uint256",
          "name": "",
          "type": "uint256"
        }
      ],
      "name": "allowedUIDTypes",
      "outputs": [
        {
          "internalType": "uint256",
          "name": "",
          "type": "uint256"
        }
      ],
      "stateMutability": "view",
      "type": "function"
    },
    {
      "inputs": [
        {
          "internalType": "uint256",
          "name": "tokenId",
          "type": "uint256"
        }
      ],
      "name": "availableToCall",
      "outputs": [
        {
          "internalType": "uint256",
          "name": "",
          "type": "uint256"
        }
      ],
      "stateMutability": "view",
      "type": "function"
    },
    {
      "inputs": [
        {
          "internalType": "uint256",
          "name": "tokenId",
          "type": "uint256"
        }
      ],
      "name": "availableToWithdraw",
      "outputs": [
        {
          "internalType": "uint256",
          "name": "",
          "type": "uint256"
        },
        {
          "internalType": "uint256",
          "name": "",
          "type": "uint256"
        }
      ],
      "stateMutability": "view",
      "type": "function"
    },
    {
      "inputs": [],
      "name": "balance",
      "outputs": [
        {
          "internalType": "uint256",
          "name": "",
          "type": "uint256"
        }
      ],
      "stateMutability": "view",
      "type": "function"
    },
    {
      "inputs": [],
      "name": "borrower",
      "outputs": [
        {
          "internalType": "address",
          "name": "",
          "type": "address"
        }
      ],
      "stateMutability": "view",
      "type": "function"
    },
    {
      "inputs": [],
      "name": "config",
      "outputs": [
        {
          "internalType": "contract IGoldfinchConfig",
          "name": "",
          "type": "address"
        }
      ],
      "stateMutability": "view",
      "type": "function"
    },
    {
      "inputs": [],
      "name": "createdAt",
      "outputs": [
        {
          "internalType": "uint256",
          "name": "",
          "type": "uint256"
        }
      ],
      "stateMutability": "view",
      "type": "function"
    },
    {
      "inputs": [],
      "name": "creditLine",
      "outputs": [
        {
          "internalType": "contract ICreditLine",
          "name": "",
          "type": "address"
        }
      ],
      "stateMutability": "view",
      "type": "function"
    },
    {
      "inputs": [],
      "name": "currentLimit",
      "outputs": [
        {
          "internalType": "uint256",
          "name": "",
          "type": "uint256"
        }
      ],
      "stateMutability": "view",
      "type": "function"
    },
    {
      "inputs": [
        {
          "internalType": "uint256",
          "name": "tranche",
          "type": "uint256"
        },
        {
          "internalType": "uint256",
          "name": "amount",
          "type": "uint256"
        }
      ],
      "name": "deposit",
      "outputs": [
        {
          "internalType": "uint256",
          "name": "",
          "type": "uint256"
        }
      ],
      "stateMutability": "nonpayable",
      "type": "function"
    },
    {
      "inputs": [
        {
          "internalType": "uint256",
          "name": "tranche",
          "type": "uint256"
        },
        {
          "internalType": "uint256",
          "name": "amount",
          "type": "uint256"
        },
        {
          "internalType": "uint256",
          "name": "deadline",
          "type": "uint256"
        },
        {
          "internalType": "uint8",
          "name": "v",
          "type": "uint8"
        },
        {
          "internalType": "bytes32",
          "name": "r",
          "type": "bytes32"
        },
        {
          "internalType": "bytes32",
          "name": "s",
          "type": "bytes32"
        }
      ],
      "name": "depositWithPermit",
      "outputs": [
        {
          "internalType": "uint256",
          "name": "tokenId",
          "type": "uint256"
        }
      ],
      "stateMutability": "nonpayable",
      "type": "function"
    },
    {
      "inputs": [
        {
          "internalType": "uint256",
          "name": "amount",
          "type": "uint256"
        }
      ],
      "name": "drawdown",
      "outputs": [],
      "stateMutability": "nonpayable",
      "type": "function"
    },
    {
      "inputs": [],
      "name": "drawdownsPaused",
      "outputs": [
        {
          "internalType": "bool",
          "name": "",
          "type": "bool"
        }
      ],
      "stateMutability": "view",
      "type": "function"
    },
    {
      "inputs": [
        {
          "internalType": "uint256",
          "name": "timestamp",
          "type": "uint256"
        }
      ],
      "name": "estimateOwedInterestAt",
      "outputs": [
        {
          "internalType": "uint256",
          "name": "",
          "type": "uint256"
        }
      ],
      "stateMutability": "view",
      "type": "function"
    },
    {
      "inputs": [
        {
          "internalType": "uint256",
          "name": "balance",
          "type": "uint256"
        },
        {
          "internalType": "uint256",
          "name": "timestamp",
          "type": "uint256"
        }
      ],
      "name": "estimateOwedInterestAt",
      "outputs": [
        {
          "internalType": "uint256",
          "name": "",
          "type": "uint256"
        }
      ],
      "stateMutability": "view",
      "type": "function"
    },
    {
      "inputs": [],
      "name": "getAllowedUIDTypes",
      "outputs": [
        {
          "internalType": "uint256[]",
          "name": "",
          "type": "uint256[]"
        }
      ],
      "stateMutability": "view",
      "type": "function"
    },
    {
      "inputs": [
        {
          "internalType": "uint256",
          "name": "timestamp",
          "type": "uint256"
        }
      ],
      "name": "getAmountsOwed",
      "outputs": [
        {
          "internalType": "uint256",
          "name": "returnedInterestOwed",
          "type": "uint256"
        },
        {
          "internalType": "uint256",
          "name": "returnedInterestAccrued",
          "type": "uint256"
        },
        {
          "internalType": "uint256",
          "name": "returnedPrincipalOwed",
          "type": "uint256"
        }
      ],
      "stateMutability": "view",
      "type": "function"
    },
    {
      "inputs": [
        {
          "internalType": "uint256",
          "name": "callRequestPeriodIndex",
          "type": "uint256"
        }
      ],
      "name": "getCallRequestPeriod",
      "outputs": [
        {
          "components": [
            {
              "internalType": "uint256",
              "name": "principalDeposited",
              "type": "uint256"
            },
            {
              "internalType": "uint256",
              "name": "principalPaid",
              "type": "uint256"
            },
            {
              "internalType": "uint256",
              "name": "principalReserved",
              "type": "uint256"
            },
            {
              "internalType": "uint256",
              "name": "interestPaid",
              "type": "uint256"
            }
          ],
          "internalType": "struct ICallableLoan.CallRequestPeriod",
          "name": "",
          "type": "tuple"
        }
      ],
      "stateMutability": "view",
      "type": "function"
    },
    {
      "inputs": [],
      "name": "getFundableAt",
      "outputs": [
        {
          "internalType": "uint256",
          "name": "",
          "type": "uint256"
        }
      ],
      "stateMutability": "view",
      "type": "function"
    },
    {
      "inputs": [],
      "name": "getLoanType",
      "outputs": [
        {
          "internalType": "enum LoanType",
          "name": "",
          "type": "uint8"
        }
      ],
      "stateMutability": "view",
      "type": "function"
    },
    {
      "inputs": [
        {
          "internalType": "bytes32",
          "name": "role",
          "type": "bytes32"
        }
      ],
      "name": "getRoleAdmin",
      "outputs": [
        {
          "internalType": "bytes32",
          "name": "",
          "type": "bytes32"
        }
      ],
      "stateMutability": "view",
      "type": "function"
    },
    {
      "inputs": [],
      "name": "getUncalledCapitalInfo",
      "outputs": [
        {
          "components": [
            {
              "internalType": "uint256",
              "name": "principalDeposited",
              "type": "uint256"
            },
            {
              "internalType": "uint256",
              "name": "principalPaid",
              "type": "uint256"
            },
            {
              "internalType": "uint256",
              "name": "principalReserved",
              "type": "uint256"
            },
            {
              "internalType": "uint256",
              "name": "interestPaid",
              "type": "uint256"
            }
          ],
          "internalType": "struct ICallableLoan.UncalledCapitalInfo",
          "name": "",
          "type": "tuple"
        }
      ],
      "stateMutability": "view",
      "type": "function"
    },
    {
      "inputs": [],
      "name": "getVersion",
      "outputs": [
        {
          "internalType": "uint8[3]",
          "name": "version",
          "type": "uint8[3]"
        }
      ],
      "stateMutability": "pure",
      "type": "function"
    },
    {
      "inputs": [
        {
          "internalType": "bytes32",
          "name": "role",
          "type": "bytes32"
        },
        {
          "internalType": "address",
          "name": "account",
          "type": "address"
        }
      ],
      "name": "grantRole",
      "outputs": [],
      "stateMutability": "nonpayable",
      "type": "function"
    },
    {
      "inputs": [
        {
          "internalType": "address",
          "name": "sender",
          "type": "address"
        }
      ],
      "name": "hasAllowedUID",
      "outputs": [
        {
          "internalType": "bool",
          "name": "",
          "type": "bool"
        }
      ],
      "stateMutability": "view",
      "type": "function"
    },
    {
      "inputs": [
        {
          "internalType": "bytes32",
          "name": "role",
          "type": "bytes32"
        },
        {
          "internalType": "address",
          "name": "account",
          "type": "address"
        }
      ],
      "name": "hasRole",
      "outputs": [
        {
          "internalType": "bool",
          "name": "",
          "type": "bool"
        }
      ],
      "stateMutability": "view",
      "type": "function"
    },
    {
      "inputs": [],
      "name": "inLockupPeriod",
      "outputs": [
        {
          "internalType": "bool",
          "name": "",
          "type": "bool"
        }
      ],
      "stateMutability": "view",
      "type": "function"
    },
    {
      "inputs": [
        {
          "internalType": "contract IGoldfinchConfig",
          "name": "_config",
          "type": "address"
        },
        {
          "internalType": "address",
          "name": "_borrower",
          "type": "address"
        },
        {
          "internalType": "uint256",
          "name": "_limit",
          "type": "uint256"
        },
        {
          "internalType": "uint256",
          "name": "_interestApr",
          "type": "uint256"
        },
        {
          "internalType": "uint256",
          "name": "_numLockupPeriods",
          "type": "uint256"
        },
        {
          "internalType": "contract ISchedule",
          "name": "_schedule",
          "type": "address"
        },
        {
          "internalType": "uint256",
          "name": "_lateFeeApr",
          "type": "uint256"
        },
        {
          "internalType": "uint256",
          "name": "_fundableAt",
          "type": "uint256"
        },
        {
          "internalType": "uint256[]",
          "name": "_allowedUIDTypes",
          "type": "uint256[]"
        }
      ],
      "name": "initialize",
      "outputs": [],
      "stateMutability": "nonpayable",
      "type": "function"
    },
    {
      "inputs": [],
      "name": "interestAccrued",
      "outputs": [
        {
          "internalType": "uint256",
          "name": "",
          "type": "uint256"
        }
      ],
      "stateMutability": "view",
      "type": "function"
    },
    {
      "inputs": [],
      "name": "interestAccruedAsOf",
      "outputs": [
        {
          "internalType": "uint256",
          "name": "",
          "type": "uint256"
        }
      ],
      "stateMutability": "view",
      "type": "function"
    },
    {
      "inputs": [
        {
          "internalType": "uint256",
          "name": "timestamp",
          "type": "uint256"
        }
      ],
      "name": "interestAccruedAt",
      "outputs": [
        {
          "internalType": "uint256",
          "name": "",
          "type": "uint256"
        }
      ],
      "stateMutability": "view",
      "type": "function"
    },
    {
      "inputs": [],
      "name": "interestApr",
      "outputs": [
        {
          "internalType": "uint256",
          "name": "",
          "type": "uint256"
        }
      ],
      "stateMutability": "view",
      "type": "function"
    },
    {
      "inputs": [],
      "name": "interestBearingBalance",
      "outputs": [
        {
          "internalType": "uint256",
          "name": "",
          "type": "uint256"
        }
      ],
      "stateMutability": "view",
      "type": "function"
    },
    {
      "inputs": [],
      "name": "interestOwed",
      "outputs": [
        {
          "internalType": "uint256",
          "name": "",
          "type": "uint256"
        }
      ],
      "stateMutability": "view",
      "type": "function"
    },
    {
      "inputs": [
        {
          "internalType": "uint256",
          "name": "timestamp",
          "type": "uint256"
        }
      ],
      "name": "interestOwedAt",
      "outputs": [
        {
          "internalType": "uint256",
          "name": "",
          "type": "uint256"
        }
      ],
      "stateMutability": "view",
      "type": "function"
    },
    {
      "inputs": [],
      "name": "isAdmin",
      "outputs": [
        {
          "internalType": "bool",
          "name": "",
          "type": "bool"
        }
      ],
      "stateMutability": "view",
      "type": "function"
    },
    {
      "inputs": [],
      "name": "isLate",
      "outputs": [
        {
          "internalType": "bool",
          "name": "",
          "type": "bool"
        }
      ],
      "stateMutability": "view",
      "type": "function"
    },
    {
      "inputs": [],
      "name": "lastFullPaymentTime",
      "outputs": [
        {
          "internalType": "uint256",
          "name": "",
          "type": "uint256"
        }
      ],
      "stateMutability": "view",
      "type": "function"
    },
    {
      "inputs": [],
      "name": "lateFeeApr",
      "outputs": [
        {
          "internalType": "uint256",
          "name": "",
          "type": "uint256"
        }
      ],
      "stateMutability": "view",
      "type": "function"
    },
    {
      "inputs": [],
      "name": "limit",
      "outputs": [
        {
          "internalType": "uint256",
          "name": "",
          "type": "uint256"
        }
      ],
      "stateMutability": "view",
      "type": "function"
    },
    {
      "inputs": [],
      "name": "loanPhase",
      "outputs": [
        {
          "internalType": "enum LoanPhase",
          "name": "",
          "type": "uint8"
        }
      ],
      "stateMutability": "view",
      "type": "function"
    },
    {
      "inputs": [],
      "name": "maxLimit",
      "outputs": [
        {
          "internalType": "uint256",
          "name": "",
          "type": "uint256"
        }
      ],
      "stateMutability": "view",
      "type": "function"
    },
    {
      "inputs": [],
      "name": "nextDueTime",
      "outputs": [
        {
          "internalType": "uint256",
          "name": "",
          "type": "uint256"
        }
      ],
      "stateMutability": "view",
      "type": "function"
    },
    {
      "inputs": [
        {
          "internalType": "uint256",
          "name": "timestamp",
          "type": "uint256"
        }
      ],
      "name": "nextDueTimeAt",
      "outputs": [
        {
          "internalType": "uint256",
          "name": "",
          "type": "uint256"
        }
      ],
      "stateMutability": "view",
      "type": "function"
    },
    {
      "inputs": [
        {
          "internalType": "uint256",
          "name": "timestamp",
          "type": "uint256"
        }
      ],
      "name": "nextInterestDueTimeAt",
      "outputs": [
        {
          "internalType": "uint256",
          "name": "",
          "type": "uint256"
        }
      ],
      "stateMutability": "view",
      "type": "function"
    },
    {
      "inputs": [],
      "name": "nextPrincipalDueTime",
      "outputs": [
        {
          "internalType": "uint256",
          "name": "",
          "type": "uint256"
        }
      ],
      "stateMutability": "view",
      "type": "function"
    },
    {
      "inputs": [],
      "name": "numLockupPeriods",
      "outputs": [
        {
          "internalType": "uint256",
          "name": "",
          "type": "uint256"
        }
      ],
      "stateMutability": "view",
      "type": "function"
    },
    {
      "inputs": [],
      "name": "pause",
      "outputs": [],
      "stateMutability": "nonpayable",
      "type": "function"
    },
    {
      "inputs": [],
      "name": "pauseDrawdowns",
      "outputs": [],
      "stateMutability": "nonpayable",
      "type": "function"
    },
    {
      "inputs": [],
      "name": "paused",
      "outputs": [
        {
          "internalType": "bool",
          "name": "",
          "type": "bool"
        }
      ],
      "stateMutability": "view",
      "type": "function"
    },
    {
      "inputs": [
        {
          "internalType": "uint256",
          "name": "amount",
          "type": "uint256"
        }
      ],
      "name": "pay",
      "outputs": [
        {
          "components": [
            {
              "internalType": "uint256",
              "name": "owedInterestPayment",
              "type": "uint256"
            },
            {
              "internalType": "uint256",
              "name": "accruedInterestPayment",
              "type": "uint256"
            },
            {
              "internalType": "uint256",
              "name": "principalPayment",
              "type": "uint256"
            },
            {
              "internalType": "uint256",
              "name": "additionalBalancePayment",
              "type": "uint256"
            },
            {
              "internalType": "uint256",
              "name": "paymentRemaining",
              "type": "uint256"
            }
          ],
          "internalType": "struct ILoan.PaymentAllocation",
          "name": "",
          "type": "tuple"
        }
      ],
      "stateMutability": "nonpayable",
      "type": "function"
    },
    {
      "inputs": [
        {
          "internalType": "uint256",
          "name": "principalPayment",
          "type": "uint256"
        },
        {
          "internalType": "uint256",
          "name": "interestPayment",
          "type": "uint256"
        }
      ],
      "name": "pay",
      "outputs": [
        {
          "components": [
            {
              "internalType": "uint256",
              "name": "owedInterestPayment",
              "type": "uint256"
            },
            {
              "internalType": "uint256",
              "name": "accruedInterestPayment",
              "type": "uint256"
            },
            {
              "internalType": "uint256",
              "name": "principalPayment",
              "type": "uint256"
            },
            {
              "internalType": "uint256",
              "name": "additionalBalancePayment",
              "type": "uint256"
            },
            {
              "internalType": "uint256",
              "name": "paymentRemaining",
              "type": "uint256"
            }
          ],
          "internalType": "struct ILoan.PaymentAllocation",
          "name": "",
          "type": "tuple"
        }
      ],
      "stateMutability": "nonpayable",
      "type": "function"
    },
    {
      "inputs": [],
      "name": "principalOwed",
      "outputs": [
        {
          "internalType": "uint256",
          "name": "",
          "type": "uint256"
        }
      ],
      "stateMutability": "view",
      "type": "function"
    },
    {
      "inputs": [
        {
          "internalType": "uint256",
          "name": "timestamp",
          "type": "uint256"
        }
      ],
      "name": "principalOwedAt",
      "outputs": [
        {
          "internalType": "uint256",
          "name": "",
          "type": "uint256"
        }
      ],
      "stateMutability": "view",
      "type": "function"
    },
    {
      "inputs": [
        {
          "internalType": "bytes32",
          "name": "role",
          "type": "bytes32"
        },
        {
          "internalType": "address",
          "name": "account",
          "type": "address"
        }
      ],
      "name": "renounceRole",
      "outputs": [],
      "stateMutability": "nonpayable",
      "type": "function"
    },
    {
      "inputs": [
        {
          "internalType": "bytes32",
          "name": "role",
          "type": "bytes32"
        },
        {
          "internalType": "address",
          "name": "account",
          "type": "address"
        }
      ],
      "name": "revokeRole",
      "outputs": [],
      "stateMutability": "nonpayable",
      "type": "function"
    },
    {
      "inputs": [],
      "name": "schedule",
      "outputs": [
        {
          "internalType": "contract ISchedule",
          "name": "",
          "type": "address"
        }
      ],
      "stateMutability": "view",
      "type": "function"
    },
    {
      "inputs": [
        {
          "internalType": "uint256[]",
          "name": "ids",
          "type": "uint256[]"
        }
      ],
      "name": "setAllowedUIDTypes",
      "outputs": [],
      "stateMutability": "nonpayable",
      "type": "function"
    },
    {
      "inputs": [
        {
          "internalType": "uint256",
          "name": "newFundableAt",
          "type": "uint256"
        }
      ],
      "name": "setFundableAt",
      "outputs": [],
      "stateMutability": "nonpayable",
      "type": "function"
    },
    {
      "inputs": [
        {
          "internalType": "uint256",
          "name": "newAmount",
          "type": "uint256"
        }
      ],
      "name": "setLimit",
      "outputs": [],
      "stateMutability": "nonpayable",
      "type": "function"
    },
    {
      "inputs": [
        {
          "internalType": "uint256",
          "name": "newAmount",
          "type": "uint256"
        }
      ],
      "name": "setMaxLimit",
      "outputs": [],
      "stateMutability": "nonpayable",
      "type": "function"
    },
    {
      "inputs": [
        {
          "internalType": "uint256",
          "name": "callAmount",
          "type": "uint256"
        },
        {
          "internalType": "uint256",
          "name": "poolTokenId",
          "type": "uint256"
        }
      ],
      "name": "submitCall",
      "outputs": [
        {
          "internalType": "uint256",
          "name": "callRequestedTokenId",
          "type": "uint256"
        },
        {
          "internalType": "uint256",
          "name": "remainingTokenId",
          "type": "uint256"
        }
      ],
      "stateMutability": "nonpayable",
      "type": "function"
    },
    {
      "inputs": [
        {
          "internalType": "bytes4",
          "name": "interfaceId",
          "type": "bytes4"
        }
      ],
      "name": "supportsInterface",
      "outputs": [
        {
          "internalType": "bool",
          "name": "",
          "type": "bool"
        }
      ],
      "stateMutability": "view",
      "type": "function"
    },
    {
      "inputs": [],
      "name": "termEndTime",
      "outputs": [
        {
          "internalType": "uint256",
          "name": "",
          "type": "uint256"
        }
      ],
      "stateMutability": "view",
      "type": "function"
    },
    {
      "inputs": [],
      "name": "termStartTime",
      "outputs": [
        {
          "internalType": "uint256",
          "name": "",
          "type": "uint256"
        }
      ],
      "stateMutability": "view",
      "type": "function"
    },
    {
      "inputs": [],
      "name": "totalInterestAccrued",
      "outputs": [
        {
          "internalType": "uint256",
          "name": "",
          "type": "uint256"
        }
      ],
      "stateMutability": "view",
      "type": "function"
    },
    {
      "inputs": [
        {
          "internalType": "uint256",
          "name": "timestamp",
          "type": "uint256"
        }
      ],
      "name": "totalInterestAccruedAt",
      "outputs": [
        {
          "internalType": "uint256",
          "name": "",
          "type": "uint256"
        }
      ],
      "stateMutability": "view",
      "type": "function"
    },
    {
      "inputs": [],
      "name": "totalInterestOwed",
      "outputs": [
        {
          "internalType": "uint256",
          "name": "",
          "type": "uint256"
        }
      ],
      "stateMutability": "view",
      "type": "function"
    },
    {
      "inputs": [
        {
          "internalType": "uint256",
          "name": "timestamp",
          "type": "uint256"
        }
      ],
      "name": "totalInterestOwedAt",
      "outputs": [
        {
          "internalType": "uint256",
          "name": "",
          "type": "uint256"
        }
      ],
      "stateMutability": "view",
      "type": "function"
    },
    {
      "inputs": [],
      "name": "totalInterestPaid",
      "outputs": [
        {
          "internalType": "uint256",
          "name": "",
          "type": "uint256"
        }
      ],
      "stateMutability": "view",
      "type": "function"
    },
    {
      "inputs": [],
      "name": "totalPrincipalOwed",
      "outputs": [
        {
          "internalType": "uint256",
          "name": "",
          "type": "uint256"
        }
      ],
      "stateMutability": "view",
      "type": "function"
    },
    {
      "inputs": [
        {
          "internalType": "uint256",
          "name": "timestamp",
          "type": "uint256"
        }
      ],
      "name": "totalPrincipalOwedAt",
      "outputs": [
        {
          "internalType": "uint256",
          "name": "",
          "type": "uint256"
        }
      ],
      "stateMutability": "view",
      "type": "function"
    },
    {
      "inputs": [],
      "name": "totalPrincipalPaid",
      "outputs": [
        {
          "internalType": "uint256",
          "name": "",
          "type": "uint256"
        }
      ],
      "stateMutability": "view",
      "type": "function"
    },
    {
      "inputs": [],
      "name": "uncalledCapitalTrancheIndex",
      "outputs": [
        {
          "internalType": "uint256",
          "name": "",
          "type": "uint256"
        }
      ],
      "stateMutability": "view",
      "type": "function"
    },
    {
      "inputs": [],
      "name": "unpause",
      "outputs": [],
      "stateMutability": "nonpayable",
      "type": "function"
    },
    {
      "inputs": [],
      "name": "unpauseDrawdowns",
      "outputs": [],
      "stateMutability": "nonpayable",
      "type": "function"
    },
    {
      "inputs": [
        {
          "internalType": "uint256",
          "name": "tokenId",
          "type": "uint256"
        },
        {
          "internalType": "uint256",
          "name": "amount",
          "type": "uint256"
        }
      ],
      "name": "withdraw",
      "outputs": [
        {
          "internalType": "uint256",
          "name": "",
          "type": "uint256"
        },
        {
          "internalType": "uint256",
          "name": "",
          "type": "uint256"
        }
      ],
      "stateMutability": "nonpayable",
      "type": "function"
    },
    {
      "inputs": [
        {
          "internalType": "uint256",
          "name": "tokenId",
          "type": "uint256"
        }
      ],
      "name": "withdrawMax",
      "outputs": [
        {
          "internalType": "uint256",
          "name": "interestWithdrawn",
          "type": "uint256"
        },
        {
          "internalType": "uint256",
          "name": "principalWithdrawn",
          "type": "uint256"
        }
      ],
      "stateMutability": "nonpayable",
      "type": "function"
    },
    {
      "inputs": [
        {
          "internalType": "uint256[]",
          "name": "tokenIds",
          "type": "uint256[]"
        },
        {
          "internalType": "uint256[]",
          "name": "amounts",
          "type": "uint256[]"
        }
      ],
      "name": "withdrawMultiple",
      "outputs": [],
      "stateMutability": "nonpayable",
      "type": "function"
    },
    {
      "inputs": [],
      "name": "withinPrincipalGracePeriod",
      "outputs": [
        {
          "internalType": "bool",
          "name": "",
          "type": "bool"
        }
      ],
      "stateMutability": "view",
      "type": "function"
    }
  ],
  "transactionHash": "0xc19bdbf1cc9ddb8608ee205b55f6dd0dee4c5d42c380662a02f5539b618573c1",
  "args": [],
  "numDeployments": 1,
  "solcInputHash": "d8d40d48a074cf37350b99ea809ce037",
  "bytecode": "0x608060405234801561001057600080fd5b506162f580620000216000396000f3fe608060405234801561001057600080fd5b50600436106104d75760003560e01c80638c0243e711610283578063c78bed861161015c578063e63ab1e9116100ce578063eb07f4e611610092578063eb07f4e6146109f8578063ef48eee614610a00578063f0b25bde14610a13578063f362136714610a1b578063f94f5a1214610a30578063faf21e4c14610a4357600080fd5b8063e63ab1e9146109c0578063e7aa8a92146109d5578063e9bd98ba146109e8578063eabd0ce114610806578063eb058b7c146109f057600080fd5b8063d60efcb811610120578063d60efcb814610957578063daaa3a621461096a578063e2a657f91461097d578063e2b02ce814610990578063e2bbb15814610998578063e58378bb146109ab57600080fd5b8063c78bed8614610915578063ce78290d1461092a578063cf09e0d014610932578063d28459771461093c578063d547741f1461094457600080fd5b8063ae6c857a116101f5578063b6db75a0116101b9578063b6db75a014610895578063b9317d861461089d578063bbafcb40146108b0578063bf6c87c7146108b8578063bf8bcee414610618578063c290d691146108c057600080fd5b8063ae6c857a14610857578063b0604a261461086a578063b39699921461087c578063b5c6d25414610884578063b69ef8a81461088d57600080fd5b8063a079a4dd11610247578063a079a4dd146107eb578063a217fddf146107fe578063a4d66daf14610806578063a8f9c4fe1461080e578063aa2a7c4c14610816578063aae932fe1461082957600080fd5b80638c0243e7146107ad5780638f168c93146107b557806391d14854146107bd5780639d110530146107d0578063a03c5cf0146107e357600080fd5b80633f4ba83a116103b5578063526d81f61161032757806365973a11116102eb57806365973a111461075a578063729cf22f1461076d57806379502c55146107755780637df1f1b91461078957806381c17a151461079d5780638456cb59146107a557600080fd5b8063526d81f6146107245780635c975abb1461072c578063612ed34d14610737578063645d62251461074a57806364fb2d951461075257600080fd5b806348eef1df1161037957806348eef1df146106bd5780634af75d35146106d05780634d02fe6f146106e35780634d90a539146106f657806350b22fcf14610709578063515bc3231461071157600080fd5b80633f4ba83a14610661578063441a3e7014610669578063457147a71461069157806347195e131461069957806347c6e036146106a857600080fd5b806320dcc3421161044e57806327d18cd11161041257806327d18cd11461061057806327ea6f2b1461061857806328b55c971461062b5780632ba443d2146106335780632f2ff15d1461063b57806336568abe1461064e57600080fd5b806320dcc342146105aa57806321506ebe146105b257806321856b36146105d2578063248a9ca3146105da57806324bb4b15146105fd57600080fd5b806311daef07116104a057806311daef071461056257806317f7694114610575578063191401191461058357806319350114146105925780631a861d261461059a5780631cd724ac146105a257600080fd5b8062ae88e0146104dc578063019c37e61461050257806301ffc9a714610515578063097616a3146105385780630d8e6e2c1461054d575b600080fd5b6104ef6104ea3660046159d5565b610a56565b6040519081526020015b60405180910390f35b6104ef6105103660046159d5565b610a6a565b6105286105233660046159ee565b610a78565b60405190151581526020016104f9565b61054b610546366004615a2d565b610aad565b005b610555610bff565b6040516104f99190615a4a565b6104ef6105703660046159d5565b610c1c565b610202546105289060ff1681565b60016040516104f99190615a94565b6104ef610c2a565b6104ef610c3c565b6104ef610c56565b6104ef610c63565b6105c56105c03660046159d5565b610c70565b6040516104f99190615aae565b6104ef610d22565b6104ef6105e83660046159d5565b60009081526065602052604090206001015490565b6104ef61060b3660046159d5565b610d2f565b6104ef610d3d565b61054b6106263660046159d5565b610d4a565b6104ef610d62565b6104ef610d6f565b61054b610649366004615ad9565b610d7c565b61054b61065c366004615ad9565b610da7565b61054b610e21565b61067c610677366004615b09565b610e5f565b604080519283526020830191909152016104f9565b610528610f51565b305b6040516104f99190615b2b565b6106b0610f5e565b6040516104f99190615b53565b61067c6106cb366004615b09565b610f6b565b6104ef6106de3660046159d5565b611640565b61067c6106f13660046159d5565b61164e565b6104ef6107043660046159d5565b6116e9565b6104ef6116f7565b6104ef61071f366004615b61565b611704565b61054b611806565b60975460ff16610528565b6104ef6107453660046159d5565b61187a565b6104ef61188d565b6104ef61189a565b6104ef6107683660046159d5565b6118a7565b6105c5611991565b6102045461069b906001600160a01b031681565b6102065461069b906001600160a01b031681565b610528611a0b565b61054b611a18565b6104ef611a54565b6104ef611a61565b6105286107cb366004615ad9565b611a6e565b61054b6107de366004615bfe565b611a99565b6104ef611c27565b61054b6107f93660046159d5565b611c4a565b6104ef600081565b6104ef611dad565b61054b611dba565b61067c6108243660046159d5565b611e19565b61083c6108373660046159d5565b611e7e565b604080519384526020840192909252908201526060016104f9565b61054b6108653660046159d5565b611ecf565b6101ed546001600160a01b031661069b565b6104ef611f1b565b6104ef61138881565b6104ef611f28565b610528611f35565b61054b6108ab366004615c69565b611f4f565b6104ef611fbc565b61054b611fc9565b6108d36108ce3660046159d5565b612025565b6040516104f99190600060a082019050825182526020830151602083015260408301516040830152606083015160608301526080830151608083015292915050565b61091d61208b565b6040516104f99190615caa565b6104ef6120e4565b6104ef6102055481565b6104ef6120f1565b61054b610952366004615ad9565b6120fe565b6104ef6109653660046159d5565b612124565b6104ef6109783660046159d5565b612132565b6104ef61098b3660046159d5565b612140565b6104ef612162565b6104ef6109a6366004615b09565b61216f565b6104ef60008051602061626083398151915281565b6104ef60008051602061628083398151915281565b61054b6109e3366004615cee565b6121d1565b6104ef612415565b610528612422565b6104ef61242f565b6108d3610a0e366004615b09565b612453565b6104ef6124a5565b6104ef6000805160206162a083398151915281565b610528610a3e366004615a2d565b6124b2565b6104ef610a51366004615b09565b61253b565b6000610a646101c383612570565b92915050565b6000610a646101c38361257c565b60006001600160e01b03198216637965db0b60e01b1480610a6457506301ffc9a760e01b6001600160e01b0319831614610a64565b600054610100900460ff1680610ac6575060005460ff16155b610aeb5760405162461bcd60e51b8152600401610ae290615d9d565b60405180910390fd5b600054610100900460ff16158015610b0d576000805461ffff19166101011790555b6001600160a01b038216610b635760405162461bcd60e51b815260206004820181905260248201527f4f776e65722063616e6e6f7420626520746865207a65726f20616464726573736044820152606401610ae2565b610b6b612588565b610b736125f2565b610b7b612667565b610b93600080516020616260833981519152836126d7565b610bab600080516020616280833981519152836126d7565b610bd16000805160206162808339815191526000805160206162608339815191526126e1565b610be9600080516020616260833981519152806126e1565b8015610bfb576000805461ff00191690555b5050565b610c076158ab565b60006040820181905260208201526001815290565b6000610a646101c38361272c565b6000610c376101c3612738565b905090565b600060405162461bcd60e51b8152600401610ae290615e01565b6000610c376101c3612743565b6000610c376101c361274e565b610c9b6040518060800160405280600081526020016000815260200160008152602001600081525090565b610ca3610d6f565b8210610cd9576001610cb3610d6f565b610cbd9190615e33565b6040516313e43c3760e31b8152600401610ae291815260200190565b6000610ce76101c384612759565b905060405180608001604052808260000151815260200182602001518152602001826040015181526020018260600151815250915050919050565b6000610c376101c361278e565b6000610a646101c383612799565b6000610c376101c36127a5565b60405162461bcd60e51b8152600401610ae290615e01565b6000610c376101c36127b2565b6000610c376101c36127bd565b600082815260656020526040902060010154610d9881336127c8565b610da2838361282c565b505050565b6001600160a01b0381163314610e175760405162461bcd60e51b815260206004820152602f60248201527f416363657373436f6e74726f6c3a2063616e206f6e6c792072656e6f756e636560448201526e103937b632b9903337b91039b2b63360891b6064820152608401610ae2565b610bfb82826128b2565b610e3960008051602061628083398151915233611a6e565b610e555760405162461bcd60e51b8152600401610ae290615e46565b610e5d612919565b565b600080600260c95403610e845760405162461bcd60e51b8152600401610ae290615e62565b600260c95560975460ff1615610eac5760405162461bcd60e51b8152600401610ae290615e99565b61020454600090610ec5906001600160a01b03166129a6565b6001600160a01b0316638c7a63ae866040518263ffffffff1660e01b8152600401610ef291815260200190565b60a060405180830381865afa158015610f0f573d6000803e3d6000fd5b505050506040513d601f19601f82011682018060405250810190610f339190615ed9565b9050610f408186866129b1565b600160c95590969095509350505050565b6000610c376101c36129da565b6000610c376101c36129e5565b600080600260c95403610f905760405162461bcd60e51b8152600401610ae290615e62565b600260c95560975460ff1615610fb85760405162461bcd60e51b8152600401610ae290615e99565b6000610fc56101c36129f0565b61020454909150600090610fe1906001600160a01b03166129a6565b60405163463d31d760e11b8152600481018790529091506000906001600160a01b03831690638c7a63ae9060240160a060405180830381865afa15801561102c573d6000803e3d6000fd5b505050506040513d601f19601f820116820180604052508101906110509190615ed9565b60405163430c208160e01b81529091506001600160a01b0383169063430c2081906110819033908a90600401615f5f565b602060405180830381865afa15801561109e573d6000803e3d6000fd5b505050506040513d601f19601f820116820180604052508101906110c29190615f78565b15806110d457506110d2336124b2565b155b156110f65733866040516333bb1eed60e21b8152600401610ae2929190615f5f565b6110ff836129ff565b816020015114611125576040516302bf919760e11b815260048101879052602401610ae2565b86600003611146576040516389abd5ad60e01b815260040160405180910390fd5b6020810151604082015161115b918591612a0d565b8711156111ab5785876111818360200151846040015187612a0d9092919063ffffffff16565b604051630160ccb360e71b8152600481019390935260248301919091526044820152606401610ae2565b6000806111cc836020015184604001516111c361242f565b88929190612a2e565b9150915060008360800151838560600151846111e89190615e33565b6111f29190615f9a565b6111fc9190615e33565b9050801561121357611210848a8389612a6f565b50505b5060008080611222888d612d5e565b93505092509250606461123361242f565b61123e906064615e33565b6112489083615fad565b6112529190615fda565b6040516331a9108f60e11b8152600481018d90529091506000906001600160a01b03891690636352211e90602401602060405180830381865afa15801561129d573d6000803e3d6000fd5b505050506040513d601f19601f820116820180604052508101906112c19190615fee565b9050876001600160a01b0316635be57b6a60405180604001604052808781526020016112ec8d612e25565b815250836040518363ffffffff1660e01b815260040161130d92919061600b565b6020604051808303816000875af115801561132c573d6000803e3d6000fd5b505050506040513d601f19601f820116820180604052508101906113509190616030565b60405163b819220560e01b8152600481018290526024810185905260448101849052909b506001600160a01b0389169063b819220590606401600060405180830381600087803b1580156113a357600080fd5b505af11580156113b7573d6000803e3d6000fd5b505050506113888488604001516113ce9190615e33565b111561151557876001600160a01b0316635be57b6a6040518060400160405280878b604001516113fe9190615e33565b815260200161140c8d6129ff565b815250836040518363ffffffff1660e01b815260040161142d92919061600b565b6020604051808303816000875af115801561144c573d6000803e3d6000fd5b505050506040513d601f19601f820116820180604052508101906114709190616030565b99508483111561148257611482616049565b8582111561149257611492616049565b6001600160a01b03881663b81922058b6114ac8689615e33565b6114b6868b615e33565b6040516001600160e01b031960e086901b168152600481019390935260248301919091526044820152606401600060405180830381600087803b1580156114fc57600080fd5b505af1158015611510573d6000803e3d6000fd5b505050505b50866001600160a01b031663b81922058c8689604001516115369190615e33565b6040516001600160e01b031960e085901b1681526004810192909252602482015260006044820152606401600060405180830381600087803b15801561157b57600080fd5b505af115801561158f573d6000803e3d6000fd5b5050604051630852cd8d60e31b8152600481018e90526001600160a01b038a1692506342966c689150602401600060405180830381600087803b1580156115d557600080fd5b505af11580156115e9573d6000803e3d6000fd5b50505050888a8c7f5df84d720403cf4728bc2d21f8e1c46f0427db198f152e92a243a66172a2fbae8f60405161162191815260200190565b60405180910390a45050505050505050600160c9819055509250929050565b6000610a646101c383612e52565b6102045460009081906116e09061166d906001600160a01b03166129a6565b6001600160a01b0316638c7a63ae856040518263ffffffff1660e01b815260040161169a91815260200190565b60a060405180830381865afa1580156116b7573d6000803e3d6000fd5b505050506040513d601f19601f820116820180604052508101906116db9190615ed9565b612e5e565b91509150915091565b6000610a646101c383612efc565b6000610c376101c3612f08565b6000600260c954036117285760405162461bcd60e51b8152600401610ae290615e62565b600260c95560975460ff16156117505760405162461bcd60e51b8152600401610ae290615e99565b61020454611766906001600160a01b0316612f13565b60405163d505accf60e01b8152336004820152306024820152604481018890526064810187905260ff8616608482015260a4810185905260c481018490526001600160a01b03919091169063d505accf9060e401600060405180830381600087803b1580156117d457600080fd5b505af11580156117e8573d6000803e3d6000fd5b505050506117f68787612f86565b600160c955979650505050505050565b600054610100900460ff168061181f575060005460ff16155b61183b5760405162461bcd60e51b8152600401610ae290615d9d565b600054610100900460ff1615801561185d576000805461ffff19166101011790555b6118656125f2565b8015611877576000805461ff00191690555b50565b6000610a64611887611c27565b8361253b565b6000610c376101c3613145565b6000610c376101c3613150565b6102045460009081906118c2906001600160a01b03166129a6565b6001600160a01b0316638c7a63ae846040518263ffffffff1660e01b81526004016118ef91815260200190565b60a060405180830381865afa15801561190c573d6000803e3d6000fd5b505050506040513d601f19601f820116820180604052508101906119309190615ed9565b905061193a610d6f565b816020015114611973578060200151611951610d6f565b604051639d07b47960e01b815260048101929092526024820152604401610ae2565b6020810151604082015161198a916101c39161315b565b9392505050565b6119bc6040518060800160405280600081526020016000815260200160008152602001600081525090565b60006119d26119c9610d6f565b6101c390612759565b90506040518060800160405280826000015181526020018260200151815260200182604001518152602001826060015181525091505090565b6000610c376101c3613168565b611a3060008051602061628083398151915233611a6e565b611a4c5760405162461bcd60e51b8152600401610ae290615e46565b610e5d613173565b6000610c376101c36131cb565b6000610c376101c36131d6565b60009182526065602090815260408084206001600160a01b0393909316845291905290205460ff1690565b600260c95403611abb5760405162461bcd60e51b8152600401610ae290615e62565b600260c95560975460ff1615611ae35760405162461bcd60e51b8152600401610ae290615e99565b6000611af06101c36129f0565b9050838214611b1c57604051631f4bb7c160e31b81526004810185905260248101839052604401610ae2565b60005b82811015611c1a5761020454600090611b40906001600160a01b03166129a6565b6001600160a01b0316638c7a63ae888885818110611b6057611b60615deb565b905060200201356040518263ffffffff1660e01b8152600401611b8591815260200190565b60a060405180830381865afa158015611ba2573d6000803e3d6000fd5b505050506040513d601f19601f82011682018060405250810190611bc69190615ed9565b9050611c0481888885818110611bde57611bde615deb565b90506020020135878786818110611bf757611bf7615deb565b9050602002013586612a6f565b5050508080611c129061605f565b915050611b1f565b5050600160c95550505050565b6000611c356101c3426131e1565b611c406101c36131ed565b610c379190615e33565b600260c95403611c6c5760405162461bcd60e51b8152600401610ae290615e62565b600260c955611c896000805160206162a083398151915233611a6e565b611ca85733604051632d4db6b160e21b8152600401610ae29190615b2b565b60975460ff1615611ccb5760405162461bcd60e51b8152600401610ae290615e99565b6102025460ff1615611cf3576040516001620112a160e61b0319815260040160405180910390fd5b80600003611d145760405163625cef9f60e01b815260040160405180910390fd5b6000611d216101c36129f0565b9050611d2d81836131f8565b6102065461020454611d61916001600160a01b03908116918591611d5191166132e9565b6001600160a01b031691906132f4565b610206546040518381526001600160a01b03909116907f7411b87a3c039bdfd8f3510b21e8bd0736265f53513735e1f4aa7b4f306b728d9060200160405180910390a25050600160c955565b6000610c376101c361334a565b611dc2611f35565b611dde5760405162461bcd60e51b8152600401610ae290616078565b610202805460ff1916600117905560405130907f90d9b09c68a7e1312ce22801552b47265d77db9496383d51374b4058545447d790600090a2565b600080600260c95403611e3e5760405162461bcd60e51b8152600401610ae290615e62565b600260c95560975460ff1615611e665760405162461bcd60e51b8152600401610ae290615e99565b611e6f83613357565b600160c9559094909350915050565b600080600042841015611ea7576040516363c09f6d60e01b815260048101859052602401610ae2565b611eb084612124565b611eb9856116e9565b611ec286610c1c565b9250925092509193909250565b611ee76000805160206162a083398151915233611a6e565b611f065733604051632d4db6b160e21b8152600401610ae29190615b2b565b61187781611f156101c36129f0565b90613444565b6000610c376101c361348e565b6000610c376101c361349b565b6000610c3760008051602061626083398151915233611a6e565b611f676000805160206162a083398151915233611a6e565b611f865733604051632d4db6b160e21b8152600401610ae29190615b2b565b611f916101c36131ed565b15611faf5760405163854eac3360e01b815260040160405180910390fd5b610da261020383836158c9565b6000610c376101c36134a6565b611fd1611f35565b611fed5760405162461bcd60e51b8152600401610ae290616078565b610202805460ff1916905560405130907f7184039938737267597232635b117c924371ac877d4329f2dfa5ca674c5cc4a590600090a2565b61202d615910565b600260c9540361204f5760405162461bcd60e51b8152600401610ae290615e62565b600260c95560975460ff16156120775760405162461bcd60e51b8152600401610ae290615e99565b612080826134b3565b600160c95592915050565b60606102038054806020026020016040519081016040528092919081815260200182805480156120da57602002820191906000526020600020905b8154815260200190600101908083116120c6575b5050505050905090565b6000610c376101c3613687565b6000610c376101c3613692565b60008281526065602052604090206001015461211a81336127c8565b610da283836128b2565b6000610a646101c38361369d565b6000610a646101c3836136a9565b610203818154811061215157600080fd5b600091825260209091200154905081565b6000610c376101c36136b5565b6000600260c954036121935760405162461bcd60e51b8152600401610ae290615e62565b600260c95560975460ff16156121bb5760405162461bcd60e51b8152600401610ae290615e99565b6121c58383612f86565b600160c9559392505050565b600054610100900460ff16806121ea575060005460ff16155b6122065760405162461bcd60e51b8152600401610ae290615d9d565b600054610100900460ff16158015612228576000805461ffff19166101011790555b856001600160a01b031663f755f0006040518163ffffffff1660e01b8152600401602060405180830381865afa158015612266573d6000803e3d6000fd5b505050506040513d601f19601f8201168201806040525081019061228a9190616030565b87106123155786866001600160a01b031663f755f0006040518163ffffffff1660e01b8152600401602060405180830381865afa1580156122cf573d6000803e3d6000fd5b505050506040513d601f19601f820116820180604052508101906122f39190616030565b604051636702d6b760e11b815260048101929092526024820152604401610ae2565b61020480546001600160a01b03808e166001600160a01b0319928316179092556102068054928d1692909116919091179055426102055561235961020384846158c9565b5061020454600090612373906001600160a01b03166136c0565b905061237e81610aad565b6123966000805160206162a08339815191528c6126d7565b6123ae6000805160206162a0833981519152826126d7565b6123d46000805160206162a08339815191526000805160206162608339815191526126e1565b506123f68b8589898c8a8f6101c36136d890979695949392919063ffffffff16565b8015612408576000805461ff00191690555b5050505050505050505050565b6000610c376101c36136f2565b6000610c376101c36136ff565b61020454600090612448906001600160a01b031661370a565b610c37906064615fda565b61245b615910565b600260c9540361247d5760405162461bcd60e51b8152600401610ae290615e62565b600260c95560975460ff1615610d4a5760405162461bcd60e51b8152600401610ae290615e99565b6000610c376101c361377d565b610204546000906124cb906001600160a01b031661378a565b6001600160a01b0316631852f200836102036040518363ffffffff1660e01b81526004016124fa9291906160c3565b602060405180830381865afa158015612517573d6000803e3d6000fd5b505050506040513d601f19601f82011682018060405250810190610a649190615f78565b600061255b61254a4284615e33565b846125566101c361348e565b613795565b6125666101c361278e565b61198a9190615f9a565b600061198a83836137d7565b600061198a83836137e6565b600054610100900460ff16806125a1575060005460ff16155b6125bd5760405162461bcd60e51b8152600401610ae290615d9d565b600054610100900460ff16158015611865576000805461ffff19166101011790558015611877576000805461ff001916905550565b600054610100900460ff168061260b575060005460ff16155b6126275760405162461bcd60e51b8152600401610ae290615d9d565b600054610100900460ff16158015612649576000805461ffff19166101011790555b6097805460ff191690558015611877576000805461ff001916905550565b600054610100900460ff1680612680575060005460ff16155b61269c5760405162461bcd60e51b8152600401610ae290615d9d565b600054610100900460ff161580156126be576000805461ffff19166101011790555b600160c9558015611877576000805461ff001916905550565b610bfb828261282c565b600082815260656020526040808220600101805490849055905190918391839186917fbd79b86ffe0ab8e8776151514217cd7cacd52c909f66475c3af44e129f0b00ff9190a4505050565b600061198a83836137ff565b6000610a6482613825565b6000610a6482613831565b6000610a648261383d565b6127846040518060800160405280600081526020016000815260200160008152602001600081525090565b61198a8383613849565b6000610a64826138fe565b600061198a838361390a565b6000610a64826001015490565b6000610a6482613919565b6000610a64826129ff565b6127d28282611a6e565b610bfb576127ea816001600160a01b03166014613925565b6127f5836020613925565b604051602001612806929190616142565b60408051601f198184030181529082905262461bcd60e51b8252610ae2916004016161b1565b6128368282611a6e565b610bfb5760008281526065602090815260408083206001600160a01b03851684529091529020805460ff1916600117905561286e3390565b6001600160a01b0316816001600160a01b0316837f2f8788117e7eff1d82e926ec794901d17c78024a50270940304540a733656f0d60405160405180910390a45050565b6128bc8282611a6e565b15610bfb5760008281526065602090815260408083206001600160a01b0385168085529252808320805460ff1916905551339285917ff6391f5c32d9c69d2a47ea670b442974b53935d1edc7fd64eb21e047a839171b9190a45050565b60975460ff166129625760405162461bcd60e51b815260206004820152601460248201527314185d5cd8589b194e881b9bdd081c185d5cd95960621b6044820152606401610ae2565b6097805460ff191690557f5db9ee0a495bf2e6ff9c91a7834c1ba4fdd244a5e8aa4e537bd38aeae4b073aa335b60405161299c9190615b2b565b60405180910390a1565b6000610a6482613ac0565b60008060006129c16101c36129f0565b90506129cf86868684612a6f565b505050935093915050565b6000610a6482613ad8565b6000610a6482613ae7565b60006129fb82613b51565b5090565b6000610a6482600a01613bf7565b6000612a2682612a20600a870186613c0d565b90613c3a565b949350505050565b60008042866006015414612a4457612a44616049565b6000612a53600a880187613c0d565b9050612a60818686613c62565b92509250505b94509492505050565b60008083600003612a935760405163d6d9e66560e01b815260040160405180910390fd5b61020454600090612aac906001600160a01b03166129a6565b60405163430c208160e01b81529091506001600160a01b0382169063430c208190612add9033908a90600401615f5f565b602060405180830381865afa158015612afa573d6000803e3d6000fd5b505050506040513d601f19601f82011682018060405250810190612b1e9190615f78565b1580612b305750612b2e336124b2565b155b15612b525733866040516302bb2cbd60e41b8152600401610ae2929190615f5f565b600080612b5f8987613c86565b9092509050612b6e8183615f9a565b871115612ba25786612b808284615f9a565b6040516383a0dc4160e01b815260048101929092526024820152604401610ae2565b6000612bae8389613d1c565b90506000612bbc828a615e33565b90506000612bca8285613d1c565b90506000612bd78a613ae7565b90506003816003811115612bed57612bed615a7e565b03612c605760405163b819220560e01b8152600481018d905260248101839052604481018590526001600160a01b0388169063b8192205906064015b600060405180830381600087803b158015612c4357600080fd5b505af1158015612c57573d6000803e3d6000fd5b50505050612ce5565b6001816003811115612c7457612c74615a7e565b03612ccc578315612c8757612c87616049565b60208d0151612c98908b9084613d32565b6040516366cbb03760e01b8152600481018d9052602481018390526001600160a01b038816906366cbb03790604401612c29565b604051630682584b60e41b815260040160405180910390fd5b50612d0a33612cf48386615f9a565b61020454611d51906001600160a01b03166132e9565b6020808d0151604080518681529283018490528d9233917f92f2787b755dae547f1701582fe74c7abf277ec14db316dd01abc69cacf7a259910160405180910390a4919b919a509098505050505050505050565b60008080806003612d6e87613ae7565b6003811115612d7f57612d7f615a7e565b14612daa57612d8d86613ae7565b6003604051631682f2a160e21b8152600401610ae29291906161e4565b6000612db587612e25565b9050612dc0876129ff565b8110612ddf576040516398248d2160e01b815260040160405180910390fd5b612de887613d89565b15612e0657604051633416210760e21b815260040160405180910390fd5b612e14600a88018783613dce565b929a91995097509095509350505050565b600080612e328342613e1e565b9050612e3d83613d89565b612e47578061198a565b61198a816001615f9a565b600061198a8383613e2d565b6000808260400151600003612e7857506000928392509050565b600080612e9b85602001518660400151612e9061242f565b6101c3929190613f70565b9092509050612eab816001615f9a565b85606001511115612ebe57612ebe616049565b8185608001511115612ed257612ed2616049565b6080850151612ee19083615e33565b6060860151612ef1908390613f8c565b935093505050915091565b600061198a8383613fa6565b6000610a6482613ff2565b60006001600160a01b03821663b93f9b0a60055b6040518263ffffffff1660e01b8152600401612f4591815260200190565b602060405180830381865afa158015612f62573d6000803e3d6000fd5b505050506040513d601f19601f82011682018060405250810190610a649190615fee565b600080612f946101c36129f0565b905082600003612fb75760405163078e1d8560e01b815260040160405180910390fd5b612fc0816129ff565b8414612ff55783612fd0826129ff565b6040516001629f3b6360e01b0319815260048101929092526024820152604401610ae2565b612ffe336124b2565b61301d5733604051631e4767b960e31b8152600401610ae29190615b2b565b6130278184613ffe565b61020454600090613040906001600160a01b03166129a6565b6001600160a01b0316635be57b6a604051806040016040528087815260200188815250336040518363ffffffff1660e01b815260040161308192919061600b565b6020604051808303816000875af11580156130a0573d6000803e3d6000fd5b505050506040513d601f19601f820116820180604052508101906130c49190616030565b610204549091506130f8903390309087906130e7906001600160a01b03166132e9565b6001600160a01b03169291906140bd565b8085336001600160a01b03167fcb3ef4109dcd006671348924f00aac8398190a5ff283d6e470d74581513e10368760405161313591815260200190565b60405180910390a4949350505050565b6000610a64826140f5565b6000610a6482614103565b6000612a26848484612a0d565b6000610a6482614111565b60975460ff16156131965760405162461bcd60e51b8152600401610ae290615e99565b6097805460ff191660011790557f62e78cea01bee320cd4e420270b5ea74000d11b0c9f74754ebdbfc544b05a25861298f3390565b6000610a648261411d565b6000610a648261412b565b600061198a8383614137565b6000610a64826141cd565b600061320383613ae7565b9050600181600381111561321957613219615a7e565b036132695761322b602a8401426141db565b42600784015561323a83613ae7565b60405190915030907f139a6829bb850b4fb0d6617ac9f9d32e48c2dbe13e158829fa64f326fafe8e1890600090a25b600281600381111561327d5761327d615a7e565b146132a057806002604051631682f2a160e21b8152600401610ae29291906161e4565b6132a983613919565b8211156132dc57816132ba84613919565b60405163d04a3a1160e01b815260048101929092526024820152604401610ae2565b610da2600a840183614222565b6000610a6482612f13565b610da28363a9059cbb60e01b8484604051602401613313929190615f5f565b60408051601f198184030181529190526020810180516001600160e01b03166001600160e01b031990931692909217909152614243565b6000610a64826002015490565b60008060006133676101c36129f0565b61020454909150600090613383906001600160a01b03166129a6565b6001600160a01b0316638c7a63ae866040518263ffffffff1660e01b81526004016133b091815260200190565b60a060405180830381865afa1580156133cd573d6000803e3d6000fd5b505050506040513d601f19601f820116820180604052508101906133f19190615ed9565b90506000806133ff83612e5e565b909250905060006134108284615f9a565b90508060000361342a575060009788975095505050505050565b61343684898388612a6f565b965096505050505050915091565b600061344f83613ae7565b600381111561346057613460615a7e565b146134865781600101546040516303e9bfa760e11b8152600401610ae291815260200190565b600190910155565b6000610a64826003015490565b6000610a6482614315565b6000610a64826006015490565b6134bb615910565b60006134c86101c36129f0565b9050826000036134eb5760405163932ca0a360e01b815260040160405180910390fd5b60006134f682614323565b905060006135038361434f565b9050600061353d86848461351688613825565b600389015461352f426135298c8261438b565b90613f8c565b6135388b614315565b61439a565b90506000816020015182600001516135559190615f9a565b905060008260600151836040015161356d9190615f9a565b9050600060648361357c61242f565b6135869190615fad565b6135909190615fda565b905061359d878385614489565b60808481015160408051868152602081018690529081019190915260608101839052309133917fd1055dc2c2a003a83dfacb1c38db776eab5ef89d77a8f05a3512e8cf57f953ce910160405180910390a361361333306135fd8587615f9a565b610204546130e7906001600160a01b03166132e9565b610204546136459061362d906001600160a01b03166144fc565b610204548390611d51906001600160a01b03166132e9565b60405181815230907ff3583f178a8d4f8888c3683f8e948faf9b6eb701c4f1fab265a6ecad1a1ddebb9060200160405180910390a25091979650505050505050565b6000610a6482614514565b6000610a64826145d3565b600061198a83836145df565b600061198a8383614628565b6000610a64826146ba565b60006001600160a01b03821663b93f9b0a6007612f27565b6136e888888888888888886146c6565b5050505050505050565b6000610a64826005015490565b6000610a6482613d89565b60006001600160a01b03821663fc56365860035b6040518263ffffffff1660e01b815260040161373c91815260200190565b602060405180830381865afa158015613759573d6000803e3d6000fd5b505050506040513d601f19601f82011682018060405250810190610a649190616030565b6000610a64826004015490565b6000610a64826147d9565b60006137a66201518061016d615fad565b6137b890670de0b6b3a7640000615fad565b846137c38486615fad565b6137cd9190615fad565b612a269190615fda565b600061198a602a8401836147f1565b600061198a6137f58484613e1e565b600a850190614899565b600061198a61381b6138118585613e1e565b600a8601906148d0565b61352985856137e6565b6000610a6482426137ff565b6000610a648242613e2d565b6000610a648242613fa6565b6138746040518060800160405280600081526020016000815260200160008152602001600081525090565b6000613883600a850184613c0d565b9050613890816003015490565b6060830152805482526138a28461490c565b80156138b857506138b584602a0161491a565b83105b156138e257600281015460018201546138d19190615f9a565b6020830152600060408301526138f7565b60018101546020830152600281015460408301525b5092915050565b6000610a6482426145df565b600061198a602a840183614926565b6000610a648242614137565b60606000613934836002615fad565b61393f906002615f9a565b6001600160401b0381111561395657613956615ec3565b6040519080825280601f01601f191660200182016040528015613980576020820181803683370190505b509050600360fc1b8160008151811061399b5761399b615deb565b60200101906001600160f81b031916908160001a905350600f60fb1b816001815181106139ca576139ca615deb565b60200101906001600160f81b031916908160001a90535060006139ee846002615fad565b6139f9906001615f9a565b90505b6001811115613a71576f181899199a1a9b1b9c1cb0b131b232b360811b85600f1660108110613a2d57613a2d615deb565b1a60f81b828281518110613a4357613a43615deb565b60200101906001600160f81b031916908160001a90535060049490941c93613a6a816161ff565b90506139fc565b50831561198a5760405162461bcd60e51b815260206004820181905260248201527f537472696e67733a20686578206c656e67746820696e73756666696369656e746044820152606401610ae2565b60006001600160a01b03821663b93f9b0a600c612f27565b6000610a64602a8301426149bc565b6000613af582602a01614a4e565b613b135781600101544210613b0b576001610a64565b600092915050565b8154613b27906001600160a01b0316614a64565b613b30836140f5565b613b3a9190615f9a565b421015613b4957506002919050565b506003919050565b6000613b5c82613ae7565b90506001816003811115613b7257613b72615a7e565b03613b7b575050565b6000613b8983602a01614a7c565b90506000613ba7846006015485602a01614a8490919063ffffffff16565b905080821115613bbe57613bbe600a850183614aeb565b613bc784614514565b6007850155613bd58461412b565b6008850155613be384613831565b600985015550504260069092019190915550565b60006001613c03835490565b610a649190615e33565b6000826000018281548110613c2457613c24615deb565b9060005260206000209060200201905092915050565b6000613c44835490565b82613c4e85614b69565b613c589190615fad565b61198a9190615fda565b600080613c70858585614b7c565b613c7a8686614bb2565b91509150935093915050565b6000808360400151600003613ca057506000905080613d15565b600080613cb8866020015187604001516111c361242f565b9092509050613cc8816001615f9a565b86606001511115613cdb57613cdb616049565b8186608001511115613cef57613cef616049565b6080860151613cfe9083615e33565b6060870151613d0e908390613f8c565b9350935050505b9250929050565b6000818310613d2b578161198a565b5090919050565b6000613d3d84613ae7565b90506001816003811115613d5357613d53615a7e565b14613d7657806001604051631682f2a160e21b8152600401610ae29291906161e4565b613d83600a850183614bc8565b50505050565b600080613d9883602a01614a7c565b90506000613da884602a01614be5565b9050836005015481613dba9190615e33565b613dc48284616216565b1015949350505050565b600080600080613df186613deb613de48a613bf7565b8a90613c0d565b90614c2d565b92965090945092509050613e1584848484613e0c8c8b613c0d565b93929190614d40565b93509350935093565b600061198a602a840183614db1565b60008260060154821015613e6457600683015460405163d91ecab360e01b8152610ae2918491600401918252602082015260400190565b613e7083602a01614a4e565b613e7c57506000610a64565b50600982015481613e8c84614103565b84600601541015613ebd57613eba613eb4856006015486602a01614e1890919063ffffffff16565b84613d1c565b90505b60068401548454600091613f0e916201518090613ee2906001600160a01b0316614e7f565b613eec9190615fad565b6007880154613eff90602a8a0190614926565b613f099190615f9a565b614e97565b9050613f3585600601548383613f2689600a01614ea7565b89600301548a60040154614eea565b613f3f9084615f9a565b925083821015613f6857613f5b828583613f2689600a01614f5b565b613f659084615f9a565b92505b505092915050565b600080613f7f86868686614f98565b9150915094509492505050565b6000828211613f9d5781830361198a565b50600092915050565b600042821015613fcc576040516363c09f6d60e01b815260048101839052602401610ae2565b61198a613fe8613fde85600a01615078565b613f098686614628565b6135298585613e2d565b6000610a6482426137e6565b600061400983613ae7565b9050600181600381111561401f5761401f615a7e565b1461404257806001604051631682f2a160e21b8152600401610ae29291906161e4565b6002830154614064614060614056866129ff565b600a870190613c0d565b5490565b61406e9084615f9a565b11156140b0578161408184600a016150b7565b600285015460405163b28e2ed760e01b8152600481019390935260248301919091526044820152606401610ae2565b610da2600a8401836150ef565b6040516001600160a01b0380851660248301528316604482015260648101829052613d839085906323b872dd60e01b90608401613313565b6000610a6482602a01615105565b6000610a6482602a01615159565b6000610a6482426151ad565b6000610a6482600a01615078565b6000610a648242614628565b600061414583600a01615222565b90506141508361490c565b15610a645760006141618484613e1e565b905061417a846006015485613e1e90919063ffffffff16565b8111156141a457614197614190614056866129ff565b6002015490565b6141a19083615f9a565b91505b6141c36141b9826141b4876129ff565b613d1c565b600a860190615261565b612a269083615f9a565b6000610a6482600a016150b7565b8154600160a01b90046001600160401b0316156141fa576141fa616049565b81546001600160401b03909116600160a01b0267ffffffffffffffff60a01b19909116179055565b600061423761423084613bf7565b8490613c0d565b9050610da28183615298565b6000614298826040518060400160405280602081526020017f5361666545524332303a206c6f772d6c6576656c2063616c6c206661696c6564815250856001600160a01b03166152ea9092919063ffffffff16565b805190915015610da257808060200190518101906142b69190615f78565b610da25760405162461bcd60e51b815260206004820152602a60248201527f5361666545524332303a204552433230206f7065726174696f6e20646964206e6044820152691bdd081cdd58d8d9595960b21b6064820152608401610ae2565b6000610a6482600a01614f5b565b60004282600601541461433857614338616049565b610a646143448361411d565b600884015490613f8c565b60004282600601541461436457614364616049565b610a6461438061437684600a01615078565b8460080154614e97565b600984015490613f8c565b600061198a602a840183614e18565b6143a2615910565b8760006143af8983613d1c565b90506143bb8183615e33565b915060006143c98884613d1c565b90506143d58184615e33565b925060006143e38a85613d1c565b90506143ef8185615e33565b935060006143fd8388615e33565b9050600061440c89838c613795565b9050600061441a8288613d1c565b90506144268188615e33565b965060006144348885613d1c565b90506144408189615e33565b97506040518060a00160405280888152602001838761445f9190615f9a565b81526020018781526020018281526020018981525098505050505050505050979650505050505050565b600361449484613ae7565b60038111156144a5576144a5615a7e565b146144b357612d8d83613ae7565b6144d082826144c486602a0161491a565b600a87019291906152f9565b6144d983613825565b1580156144ec57506144ea83614323565b155b15610da257426007840155505050565b60006001600160a01b03821663b93f9b0a6006612f27565b6000600361452183613ae7565b600381111561453257614532615a7e565b1461453e575042919050565b506007810154600682015460009061455a90602a850190614a84565b9050600061456a84602a01614a7c565b9050815b818110156145cb576000614585602a8701836153d0565b905061459186826137ff565b1580156145a557506145a386826145df565b155b156145b2578094506145b8565b506145cb565b50806145c38161605f565b91505061456e565b505050919050565b6000610a64824261390a565b6000826006015482101561461657600683015460405163d91ecab360e01b8152610ae2918491600401918252602082015260400190565b61198a6146228461411d565b61352985855b6000826006015482101561465f57600683015460405163d91ecab360e01b8152610ae2918491600401918252602082015260400190565b61466883614103565b821115614680576146798383613e2d565b9050610a64565b600061468f602a850184615437565b9050836006015481116146a85750506008820154610a64565b6146b28482613e2d565b915050610a64565b6000610a64824261438b565b6006880154156146e9576040516379c6736560e11b815260040160405180910390fd5b87546001600160a01b0319166001600160a01b0388811691909117895560028901829055600589018690556040805180820182529186168083526000602093840152602a8b0180546001600160e01b03191682179055815163e08cf88360e01b815291516147a893919263e08cf8839260048083019391928290030181865afa15801561477a573d6000803e3d6000fd5b505050506040513d601f19601f8201168201806040525081019061479e9190616030565b600a8a019061549e565b5050600387019190915560048601555050426006840181905560078401555050600060098201819055600890910155565b60006001600160a01b03821663b93f9b0a6013612f27565b6000826147fd81614a4e565b6148195760405162461bcd60e51b8152600401610ae290615e46565b83546040516347487c0160e01b81526001600160a01b038216916347487c019161485891600160a01b90046001600160401b031690879060040161622a565b602060405180830381865afa158015614875573d6000803e3d6000fd5b505050506040513d601f19601f82011682018060405250810190612a269190616030565b6000805b828110156138f7576148b26140608583613c0d565b6148bc9083615f9a565b9150806148c88161605f565b91505061489d565b6000805b828110156138f7576148ee6148e98583613c0d565b61556f565b6148f89083615f9a565b9150806149048161605f565b9150506148d4565b6000610a6482602a01614a4e565b6000610a648242614db1565b600061493183614a4e565b61493c57600061198a565b82546040516308ba6bcb60e41b81526001600160a01b03821691638ba6bcb09161497b91600160a01b90046001600160401b031690869060040161622a565b602060405180830381865afa158015614998573d6000803e3d6000fd5b505050506040513d601f19601f8201168201806040525081019061198a9190616030565b60006149c783614a4e565b158061198a57508254604051634922ed6b60e11b81526001600160a01b03821691639245dad691614a0d91600160a01b90046001600160401b031690869060040161622a565b602060405180830381865afa158015614a2a573d6000803e3d6000fd5b505050506040513d601f19601f8201168201806040525081019061198a9190615f78565b54600160a01b90046001600160401b0316151590565b60006001600160a01b03821663fc563658600761371e565b6000610a6482425b600082614a9081614a4e565b614aac5760405162461bcd60e51b8152600401610ae290615e46565b8354604051636a3d374160e11b81526001600160a01b0382169163d47a6e829161485891600160a01b90046001600160401b031690879060040161622a565b6000614af683613bf7565b90506000614b048483613c0d565b9050614b0f81615585565b60005b8381108015614b2057508281105b15614b6257614b50856000018281548110614b3d57614b3d615deb565b9060005260206000209060200201615585565b80614b5a8161605f565b915050614b12565b5050505050565b60018101548154600091610a6491615e33565b6000614b86845490565b614b91906064615fad565b614b9c836064615e33565b84614ba8876003015490565b6137c39190615fad565b6000614bbc835490565b82613c4e856001015490565b610bfb81614bdf614bd885613bf7565b8590613c0d565b906155ac565b805460408051620f755f60ec1b815290516000926001600160a01b03169163f755f0009160048083019260209291908290030181865afa158015613759573d6000803e3d6000fd5b6000806000806000614c3e87614b69565b905080861115614c5057614c50616049565b614c5e876002015487613d1c565b925080868860000154614c719190615fad565b614c7b9190615fda565b9450614c878686615e33565b93508660000154858860030154614c9e9190615fad565b614ca89190615fda565b915083876001016000828254614cbe9190615e33565b9250508190555081876003016000828254614cd99190615e33565b9091555050865485908890600090614cf2908490615e33565b9250508190555082876002016000828254614d0d9190615e33565b909155505060028701546001880154614d269190615f9a565b87541015614d3657614d36616049565b5092959194509250565b83856000016000828254614d549190615f9a565b9250508190555082856001016000828254614d6f9190615f9a565b9250508190555081856002016000828254614d8a9190615f9a565b9250508190555080856003016000828254614da59190615f9a565b90915550505050505050565b600082614dbd81614a4e565b614dd95760405162461bcd60e51b8152600401610ae290615e46565b83546040516356bd011960e01b81526001600160a01b038216916356bd01199161485891600160a01b90046001600160401b031690879060040161622a565b600082614e2481614a4e565b614e405760405162461bcd60e51b8152600401610ae290615e46565b8354604051635c16b67360e11b81526001600160a01b0382169163b82d6ce69161485891600160a01b90046001600160401b031690879060040161622a565b60006001600160a01b03821663fc563658600561371e565b600081831015613d2b578161198a565b6000805b8254811015614ee457614ec6614ec18483613c0d565b614b69565b614ed09083615f9a565b915080614edc8161605f565b915050614eab565b50919050565b6000868611614efb57506000614f51565b6000614f078888615e33565b9050614f14818686613795565b915086861015614f4f576000614f34614f2d888b614e97565b8990613f8c565b9050614f41818786613795565b614f4b9084615f9a565b9250505b505b9695505050505050565b6000805b8254811015614ee457614f7a614f758483613c0d565b6155ed565b614f849083615f9a565b915080614f908161605f565b915050614f5f565b60008080614fa9600a880187613c0d565b90506003614fb688613ae7565b6003811115614fc757614fc7615a7e565b14614fe157614fd7818686613c62565b9250925050612a66565b6000614fec886129ff565b87148015615013575061500188602a0161491a565b6006890154615011908a90613e1e565b105b90506000615020896129ff565b88108015615038575061503589602a0161491a565b88105b9050600082806150455750815b90508061505c57615057848989613c62565b615067565b615067848989615606565b955095505050505094509492505050565b6000805b8254811015614ee4576150996150928483613c0d565b6003015490565b6150a39083615f9a565b9150806150af8161605f565b91505061507c565b6000805b8254811015614ee4576150d16140608483613c0d565b6150db9083615f9a565b9150806150e78161605f565b9150506150bb565b610bfb816150ff614bd885613bf7565b9061561e565b600061511082614a4e565b61511b576000610a64565b815460405163df3dc09160e01b8152600160a01b82046001600160401b031660048201526001600160a01b039091169063df3dc0919060240161373c565b600061516482614a4e565b61516f576000610a64565b81546040516334a88f4360e01b8152600160a01b82046001600160401b031660048201526001600160a01b03909116906334a88f439060240161373c565b600060036151ba84613ae7565b60038111156151cb576151cb615a7e565b1415806151f357506151dd8383614628565b6151e784846137e6565b6151f19190615f9a565b155b1561520057506000610a64565b600061521861520e85614514565b602a860190614926565b9092119392505050565b6000805b8254811015614ee45761524361523c8483613c0d565b6001015490565b61524d9083615f9a565b9150806152598161605f565b915050615226565b6000805b828110156138f75761527a6141908583613c0d565b6152849083615f9a565b9150806152908161605f565b915050615265565b81600101548111156152cd57600182015460405163d04a3a1160e01b8152610ae2918391600401918252602082015260400190565b808260010160008282546152e19190615e33565b90915550505050565b6060612a26848460008561565f565b600061530485614ea7565b90508060000361532a5760405163b6aca02f60e01b815260048101859052602401610ae2565b60005b85548110156153c15760006153428783613c0d565b905060008361535083614b69565b61535a9088615fad565b6153649190615fda565b9050600061537a615374846155ed565b89613d1c565b90506153868189615e33565b9750858410156153a05761539b838284615787565b6153ab565b6153ab8382846157ef565b50505080806153b99061605f565b91505061532d565b508315614b6257614b62616049565b6000826153dc81614a4e565b6153f85760405162461bcd60e51b8152600401610ae290615e46565b8354604051638dfdc69560e01b81526001600160a01b03821691638dfdc6959161485891600160a01b90046001600160401b031690879060040161622a565b60008261544381614a4e565b61545f5760405162461bcd60e51b8152600401610ae290615e46565b8354604051630103299960e31b81526001600160a01b038216916308194cc89161485891600160a01b90046001600160401b031690879060040161622a565b8154600090156154c1576040516379c6736560e11b815260040160405180910390fd5b60028210156154ed5760405163ddc8b40f60e01b81526004810183905260026024820152604401610ae2565b60005b828110156155675761550061593f565b84546001818101875560008781526020908190208451938202019283558301519082015560408201516002820155606082015160038201556080820151829190615550906004830190601c615973565b50505050808061555f9061605f565b9150506154f0565b509192915050565b600081600201548260010154610a649190615f9a565b806002015481600101600082825461559d9190615f9a565b90915550506000600290910155565b6003820154156155be576155be616049565b808260000160008282546155d29190615e33565b92505081905550808260010160008282546152e19190615e33565b60028101546001820154825460009291613c0391615e33565b600080615614858585614b7c565b613c7a868661584d565b60038201541561563057615630616049565b808260000160008282546156449190615f9a565b92505081905550808260010160008282546152e19190615f9a565b6060824710156156c05760405162461bcd60e51b815260206004820152602660248201527f416464726573733a20696e73756666696369656e742062616c616e636520666f6044820152651c8818d85b1b60d21b6064820152608401610ae2565b843b61570e5760405162461bcd60e51b815260206004820152601d60248201527f416464726573733a2063616c6c20746f206e6f6e2d636f6e74726163740000006044820152606401610ae2565b600080866001600160a01b0316858760405161572a9190616243565b60006040518083038185875af1925050503d8060008114615767576040519150601f19603f3d011682016040523d82523d6000602084013e61576c565b606091505b509150915061577c828286615872565b979650505050505050565b8254828460020154856001015461579e9190615f9a565b6157a89190615f9a565b11156157b6576157b6616049565b808360030160008282546157ca9190615f9a565b92505081905550818360010160008282546157e59190615f9a565b9091555050505050565b825482846002015485600101546158069190615f9a565b6158109190615f9a565b111561581e5761581e616049565b808360030160008282546158329190615f9a565b92505081905550818360020160008282546157e59190615f9a565b6000615857835490565b828460020154615868866001015490565b613c4e9190615f9a565b6060831561588157508161198a565b8251156158915782518084602001fd5b8160405162461bcd60e51b8152600401610ae291906161b1565b60405180606001604052806003906020820280368337509192915050565b828054828255906000526020600020908101928215615904579160200282015b828111156159045782358255916020019190600101906158e9565b506129fb9291506159a1565b6040518060a0016040528060008152602001600081526020016000815260200160008152602001600081525090565b6040518060a001604052806000815260200160008152602001600081526020016000815260200161596e6159b6565b905290565b82601c8101928215615904579160200282015b82811115615904578251825591602001919060010190615986565b5b808211156129fb57600081556001016159a2565b604051806103800160405280601c906020820280368337509192915050565b6000602082840312156159e757600080fd5b5035919050565b600060208284031215615a0057600080fd5b81356001600160e01b03198116811461198a57600080fd5b6001600160a01b038116811461187757600080fd5b600060208284031215615a3f57600080fd5b813561198a81615a18565b60608101818360005b6003811015615a7557815160ff16835260209283019290910190600101615a53565b50505092915050565b634e487b7160e01b600052602160045260246000fd5b6020810160028310615aa857615aa8615a7e565b91905290565b8151815260208083015190820152604080830151908201526060808301519082015260808101610a64565b60008060408385031215615aec57600080fd5b823591506020830135615afe81615a18565b809150509250929050565b60008060408385031215615b1c57600080fd5b50508035926020909101359150565b6001600160a01b0391909116815260200190565b60048110615b4f57615b4f615a7e565b9052565b60208101610a648284615b3f565b60008060008060008060c08789031215615b7a57600080fd5b863595506020870135945060408701359350606087013560ff81168114615ba057600080fd5b9598949750929560808101359460a0909101359350915050565b60008083601f840112615bcc57600080fd5b5081356001600160401b03811115615be357600080fd5b6020830191508360208260051b8501011115613d1557600080fd5b60008060008060408587031215615c1457600080fd5b84356001600160401b0380821115615c2b57600080fd5b615c3788838901615bba565b90965094506020870135915080821115615c5057600080fd5b50615c5d87828801615bba565b95989497509550505050565b60008060208385031215615c7c57600080fd5b82356001600160401b03811115615c9257600080fd5b615c9e85828601615bba565b90969095509350505050565b6020808252825182820181905260009190848201906040850190845b81811015615ce257835183529284019291840191600101615cc6565b50909695505050505050565b6000806000806000806000806000806101208b8d031215615d0e57600080fd5b8a35615d1981615a18565b995060208b0135615d2981615a18565b985060408b0135975060608b0135965060808b0135955060a08b0135615d4e81615a18565b945060c08b0135935060e08b013592506101008b01356001600160401b03811115615d7857600080fd5b615d848d828e01615bba565b915080935050809150509295989b9194979a5092959850565b6020808252602e908201527f496e697469616c697a61626c653a20636f6e747261637420697320616c72656160408201526d191e481a5b9a5d1a585b1a5e995960921b606082015260800190565b634e487b7160e01b600052603260045260246000fd5b602080825260029082015261555360f01b604082015260600190565b634e487b7160e01b600052601160045260246000fd5b81810381811115610a6457610a64615e1d565b6020808252600290820152614e4160f01b604082015260600190565b6020808252601f908201527f5265656e7472616e637947756172643a207265656e7472616e742063616c6c00604082015260600190565b60208082526010908201526f14185d5cd8589b194e881c185d5cd95960821b604082015260600190565b634e487b7160e01b600052604160045260246000fd5b600060a08284031215615eeb57600080fd5b60405160a081018181106001600160401b0382111715615f1b57634e487b7160e01b600052604160045260246000fd5b6040528251615f2981615a18565b80825250602083015160208201526040830151604082015260608301516060820152608083015160808201528091505092915050565b6001600160a01b03929092168252602082015260400190565b600060208284031215615f8a57600080fd5b8151801515811461198a57600080fd5b80820180821115610a6457610a64615e1d565b8082028115828204841417610a6457610a64615e1d565b634e487b7160e01b600052601260045260246000fd5b600082615fe957615fe9615fc4565b500490565b60006020828403121561600057600080fd5b815161198a81615a18565b82518152602092830151928101929092526001600160a01b0316604082015260600190565b60006020828403121561604257600080fd5b5051919050565b634e487b7160e01b600052600160045260246000fd5b60006001820161607157616071615e1d565b5060010190565b6020808252602b908201527f4d75737420686176652061646d696e20726f6c6520746f20706572666f726d2060408201526a3a3434b99030b1ba34b7b760a91b606082015260800190565b6001600160a01b0383168152604060208083018290528354918301829052600084815281812090929091906060850190845b81811015616111578454835260019485019492840192016160f5565b5090979650505050505050565b60005b83811015616139578181015183820152602001616121565b50506000910152565b76020b1b1b2b9b9a1b7b73a3937b61d1030b1b1b7bab73a1604d1b81526000835161617481601785016020880161611e565b7001034b99036b4b9b9b4b733903937b6329607d1b60179184019182015283516161a581602884016020880161611e565b01602801949350505050565b60208152600082518060208401526161d081604085016020870161611e565b601f01601f19169190910160400192915050565b604081016161f28285615b3f565b61198a6020830184615b3f565b60008161620e5761620e615e1d565b506000190190565b60008261622557616225615fc4565b500690565b6001600160401b03929092168252602082015260400190565b6000825161625581846020870161611e565b919091019291505056feb19546dff01e856fb3f010c267a7b1c60363cf8a4664e21cc89c26224620214e65d7a28e3265b37a6474929f336521b332c1681b933f6cb9f3376673440d862aaf9a8bb3cbd6b84fbccefa71ff73e26e798553c6914585a84886212a46a90279a2646970667358221220c874b66214453f6742d43f2f34858f89a509b55c274e9974f8a67e296486564964736f6c63430008110033",
  "devdoc": {
    "author": "Warbler Labs",
    "kind": "dev",
    "methods": {
      "availableToWithdraw(uint256)": {
        "params": {
          "tokenId": "position to query max amount withdrawable for"
        },
        "returns": {
          "_0": "total interest withdrawable on the position",
          "_1": "total principal redeemable on the position"
        }
      },
      "deposit(uint256,uint256)": {
        "params": {
          "amount": "amount of capital to supply",
          "tranche": "Should always be uncalled capital tranche index."
        },
        "returns": {
          "_0": "tokenId NFT representing your position in this pool"
        }
      },
      "depositWithPermit(uint256,uint256,uint256,uint8,bytes32,bytes32)": {
        "params": {
          "amount": "amount of capital to supply",
          "deadline": "deadline of permit operation",
          "r": "r portion of signature",
          "s": "s portion of signature",
          "tranche": "Should always be uncalled capital tranche index.",
          "v": "v portion of signature"
        },
        "returns": {
          "tokenId": "NFT representing your position in this pool"
        }
      },
      "drawdown(uint256)": {
        "params": {
          "amount": "USDC to drawdown. This amount is transferred to the caller"
        }
      },
      "getAmountsOwed(uint256)": {
        "params": {
          "timestamp": "time to calculate up to"
        },
        "returns": {
          "returnedInterestAccrued": "amount of accrued interest (not yet owed) that can be paid at `timestamp`",
          "returnedInterestOwed": "amount of obligated interest owed at `timestamp`",
          "returnedPrincipalOwed": "amount of principal owed at `timestamp`"
        }
      },
      "getRoleAdmin(bytes32)": {
        "details": "Returns the admin role that controls `role`. See {grantRole} and {revokeRole}. To change a role's admin, use {_setRoleAdmin}."
      },
      "grantRole(bytes32,address)": {
        "details": "Grants `role` to `account`. If `account` had not been already granted `role`, emits a {RoleGranted} event. Requirements: - the caller must have ``role``'s admin role."
      },
      "hasRole(bytes32,address)": {
        "details": "Returns `true` if `account` has been granted `role`."
      },
      "initialize(address,address,uint256,uint256,uint256,address,uint256,uint256,uint256[])": {
        "params": {
          "_borrower": "address of borrower, a non-transferrable role for performing privileged actions like   drawdown",
          "_config": "address of GoldfinchConfig",
          "_fundableAt": "earliest time at which the first slice can be funded",
          "_interestApr": "interest rate for the loan",
          "_lateFeeApr": "late fee interest rate for the loan, which kicks in `LatenessGracePeriodInDays` days after a   payment becomes late",
          "_numLockupPeriods": "the number of periods at the tail end of a principal period during which call requests   are not allowed"
        }
      },
      "pause()": {
        "details": "Pauses all functions guarded by Pause See {Pausable-_pause}. Requirements: - the caller must have the PAUSER_ROLE."
      },
      "paused()": {
        "details": "Returns true if the contract is paused, and false otherwise."
      },
      "pay(uint256)": {
        "details": "{this} must be approved by msg.sender to transfer {amount} of USDC",
        "params": {
          "amount": "USDC amount to pay"
        },
        "returns": {
          "_0": "PaymentAllocation info on how the payment was allocated"
        }
      },
      "renounceRole(bytes32,address)": {
        "details": "Revokes `role` from the calling account. Roles are often managed via {grantRole} and {revokeRole}: this function's purpose is to provide a mechanism for accounts to lose their privileges if they are compromised (such as when a trusted device is misplaced). If the calling account had been granted `role`, emits a {RoleRevoked} event. Requirements: - the caller must be `account`."
      },
      "revokeRole(bytes32,address)": {
        "details": "Revokes `role` from `account`. If `account` had been granted `role`, emits a {RoleRevoked} event. Requirements: - the caller must have ``role``'s admin role."
      },
      "submitCall(uint256,uint256)": {
        "params": {
          "callAmount": "Amount of capital to call back",
          "poolTokenId": "Pool token id to be called back."
        },
        "returns": {
          "callRequestedTokenId": " Token id of the call requested token.",
          "remainingTokenId": "Token id of the remaining token."
        }
      },
      "supportsInterface(bytes4)": {
        "details": "See {IERC165-supportsInterface}."
      },
      "unpause()": {
        "details": "Unpauses the contract See {Pausable-_unpause}. Requirements: - the caller must have the Pauser role"
      },
      "withdraw(uint256,uint256)": {
        "params": {
          "amount": "amount to withdraw (must be <= interest+principal available to withdraw)",
          "tokenId": "the NFT representing the position"
        },
        "returns": {
          "_0": "interest withdrawn",
          "_1": "principal withdrawn"
        }
      },
      "withdrawMultiple(uint256[],uint256[])": {
        "params": {
          "amounts": "amounts to withdraw from positions such that amounts[i] is withdrawn from position tokenIds[i]",
          "tokenIds": "NFT positions to withdraw. Caller must be an owner or approved on all tokens in the array"
        }
      }
    },
    "title": "CallableLoan",
    "version": 1
  },
  "userdoc": {
    "events": {
      "PaymentApplied(address,address,uint256,uint256,uint256,uint256)": {
        "notice": "Event emitted on payment"
      },
      "WithdrawalMade(address,uint256,uint256,uint256,uint256)": {
        "notice": "While owner is the label of the first argument, it is actually the sender of the transaction."
      }
    },
    "kind": "user",
    "methods": {
      "availableToWithdraw(uint256)": {
        "notice": "Query the max amount available to withdraw for tokenId's position"
      },
      "createdAt()": {
        "notice": "Time when the pool was initialized. Zero if uninitialized"
      },
      "creditLine()": {
        "notice": "Pool's credit line, responsible for managing the loan's accounting variables"
      },
      "deposit(uint256,uint256)": {
        "notice": "Supply capital to the loan."
      },
      "depositWithPermit(uint256,uint256,uint256,uint8,bytes32,bytes32)": {
        "notice": "Supply capital to the loan."
      },
      "drawdown(uint256)": {
        "notice": "Drawdown the loan. The credit line's balance should increase by the amount drawn down.   Junior capital must be locked before this function can be called. If senior capital isn't locked   then this function will lock it for you (convenience to avoid calling lockPool() separately).   This function should revert if the amount requested exceeds the the current slice's currentLimit   This function should revert if the caller is not the borrower."
      },
      "estimateOwedInterestAt(uint256)": {
        "notice": "Returns a naive estimate of the interest owed at the timestamp.         Omits any late fees, and assumes no future payments."
      },
      "estimateOwedInterestAt(uint256,uint256)": {
        "notice": "Returns a naive estimate of the interest owed at the timestamp.         Omits any late fees, and assumes no future payments."
      },
      "getAmountsOwed(uint256)": {
        "notice": "Compute interest and principal owed on the current balance at a future timestamp"
      },
      "getLoanType()": {
        "notice": "getLoanType was added to support the new callable loan type.         It is not supported in older versions of ILoan (e.g. legacy TranchedPools)"
      },
      "getVersion()": {
        "notice": "Returns the version triplet `[major, minor, patch]`"
      },
      "initialize(address,address,uint256,uint256,uint256,address,uint256,uint256,uint256[])": {
        "notice": "Initialize the pool. Can only be called once, and should be called in the same transaction as   contract creation to avoid initialization front-running"
      },
      "interestAccrued()": {
        "notice": "If a checkpoint has not occurred, late fees may be overestimated beyond the next due time."
      },
      "interestAccruedAsOf()": {
        "notice": "We keep this to conform to the ICreditLine interface, but it's redundant information   now that we have `checkpointedAsOf`"
      },
      "interestAccruedAt(uint256)": {
        "notice": "If a checkpoint has not occurred, late fees may be overestimated beyond the next due time."
      },
      "interestBearingBalance()": {
        "notice": "TODO: Low priority tests - currently only used for tests and frontend"
      },
      "interestOwedAt(uint256)": {
        "notice": "If a checkpoint has not occurred, late fees may be overestimated beyond the next due time."
      },
      "loanPhase()": {
        "notice": "Returns the current phase of the loan.         See documentation on LoanPhase enum."
      },
      "maxLimit()": {
        "notice": "Unsupported in callable loans."
      },
      "pauseDrawdowns()": {
        "notice": "Pauses all drawdowns (but not deposits/withdraws)"
      },
      "pay(uint256)": {
        "notice": "Pay down interest + principal. Excess payments are refunded to the caller"
      },
      "pay(uint256,uint256)": {
        "notice": "Unsupported in callable loans."
      },
      "principalOwedAt(uint256)": {
        "notice": "Principal owed up to `timestamp`"
      },
      "setAllowedUIDTypes(uint256[])": {
        "notice": "Set accepted UID types for the loan. Requires that users have not already begun to deposit."
      },
      "setFundableAt(uint256)": {
        "notice": "Update `fundableAt` to a new timestamp. Only the borrower can call this."
      },
      "setLimit(uint256)": {
        "notice": "Unsupported ICreditLine method kept for ICreditLine conformance"
      },
      "setMaxLimit(uint256)": {
        "notice": "Unsupported in callable loans."
      },
      "submitCall(uint256,uint256)": {
        "notice": "Submit a call request for the given amount of capital.         The borrower is obligated to pay the call request back at the end of the         corresponding call request period."
      },
      "termStartTime()": {
        "notice": "Time of first drawdown"
      },
      "totalInterestAccrued()": {
        "notice": "If a checkpoint has not occurred, late fees may be overestimated beyond the next due time."
      },
      "totalInterestAccruedAt(uint256)": {
        "notice": "If a checkpoint has not occurred, late fees may be overestimated beyond the next due time."
      },
      "totalInterestOwed()": {
        "notice": "If a checkpoint has not occurred, late fees may be overestimated beyond the next due time."
      },
      "totalInterestOwedAt(uint256)": {
        "notice": "If a checkpoint has not occurred, late fees may be overestimated beyond the next due time."
      },
      "totalInterestPaid()": {
        "notice": "Cumulative interest paid back up to now"
      },
      "totalPrincipalOwed()": {
        "notice": "Cumulative principal owed at current timestamp"
      },
      "totalPrincipalOwedAt(uint256)": {
        "notice": "Cumulative principal owed at timestamp"
      },
      "totalPrincipalPaid()": {
        "notice": "Returns the total amount of principal thats been paid"
      },
      "unpauseDrawdowns()": {
        "notice": "Unpause drawdowns"
      },
      "withdraw(uint256,uint256)": {
        "notice": "Withdraw an already deposited amount if the funds are available. Caller must be the owner or   approved by the owner on tokenId. Amount withdrawn is sent to the caller."
      },
      "withdrawMax(uint256)": {
        "notice": "Similar to withdraw but withdraw the max interest and principal available for `tokenId`"
      },
      "withdrawMultiple(uint256[],uint256[])": {
        "notice": "Withdraw from multiple tokens"
      }
    },
    "notice": "A loan that allows the lenders to call back capital from the borrower.",
    "version": 1
  },
  "storageLayout": {
    "storage": [
      {
        "astId": 663,
        "contract": "contracts/protocol/core/callable/CallableLoan.sol:CallableLoan",
        "label": "_initialized",
        "offset": 0,
        "slot": "0",
        "type": "t_bool"
      },
      {
        "astId": 666,
        "contract": "contracts/protocol/core/callable/CallableLoan.sol:CallableLoan",
        "label": "_initializing",
        "offset": 1,
        "slot": "0",
        "type": "t_bool"
      },
      {
        "astId": 3057,
        "contract": "contracts/protocol/core/callable/CallableLoan.sol:CallableLoan",
        "label": "__gap",
        "offset": 0,
        "slot": "1",
        "type": "t_array(t_uint256)50_storage"
      },
      {
        "astId": 3673,
        "contract": "contracts/protocol/core/callable/CallableLoan.sol:CallableLoan",
        "label": "__gap",
        "offset": 0,
        "slot": "51",
        "type": "t_array(t_uint256)50_storage"
      },
      {
        "astId": 258,
        "contract": "contracts/protocol/core/callable/CallableLoan.sol:CallableLoan",
        "label": "_roles",
        "offset": 0,
        "slot": "101",
        "type": "t_mapping(t_bytes32,t_struct(RoleData)253_storage)"
      },
      {
        "astId": 543,
        "contract": "contracts/protocol/core/callable/CallableLoan.sol:CallableLoan",
        "label": "__gap",
        "offset": 0,
        "slot": "102",
        "type": "t_array(t_uint256)49_storage"
      },
      {
        "astId": 724,
        "contract": "contracts/protocol/core/callable/CallableLoan.sol:CallableLoan",
        "label": "_paused",
        "offset": 0,
        "slot": "151",
        "type": "t_bool"
      },
      {
        "astId": 815,
        "contract": "contracts/protocol/core/callable/CallableLoan.sol:CallableLoan",
        "label": "__gap",
        "offset": 0,
        "slot": "152",
        "type": "t_array(t_uint256)49_storage"
      },
      {
        "astId": 830,
        "contract": "contracts/protocol/core/callable/CallableLoan.sol:CallableLoan",
        "label": "_status",
        "offset": 0,
        "slot": "201",
        "type": "t_uint256"
      },
      {
        "astId": 873,
        "contract": "contracts/protocol/core/callable/CallableLoan.sol:CallableLoan",
        "label": "__gap",
        "offset": 0,
        "slot": "202",
        "type": "t_array(t_uint256)49_storage"
      },
      {
        "astId": 11777,
        "contract": "contracts/protocol/core/callable/CallableLoan.sol:CallableLoan",
        "label": "__gap1",
        "offset": 0,
        "slot": "251",
        "type": "t_array(t_uint256)50_storage"
      },
      {
        "astId": 11781,
        "contract": "contracts/protocol/core/callable/CallableLoan.sol:CallableLoan",
        "label": "__gap2",
        "offset": 0,
        "slot": "301",
        "type": "t_array(t_uint256)50_storage"
      },
      {
        "astId": 11785,
        "contract": "contracts/protocol/core/callable/CallableLoan.sol:CallableLoan",
        "label": "__gap3",
        "offset": 0,
        "slot": "351",
        "type": "t_array(t_uint256)50_storage"
      },
      {
        "astId": 11789,
        "contract": "contracts/protocol/core/callable/CallableLoan.sol:CallableLoan",
        "label": "__gap4",
        "offset": 0,
        "slot": "401",
        "type": "t_array(t_uint256)50_storage"
      },
      {
        "astId": 12335,
        "contract": "contracts/protocol/core/callable/CallableLoan.sol:CallableLoan",
        "label": "_staleCreditLine",
        "offset": 0,
        "slot": "451",
        "type": "t_struct(StaleCallableCreditLine)17305_storage"
      },
      {
        "astId": 12337,
        "contract": "contracts/protocol/core/callable/CallableLoan.sol:CallableLoan",
        "label": "drawdownsPaused",
        "offset": 0,
        "slot": "514",
        "type": "t_bool"
      },
      {
        "astId": 12340,
        "contract": "contracts/protocol/core/callable/CallableLoan.sol:CallableLoan",
        "label": "allowedUIDTypes",
        "offset": 0,
        "slot": "515",
        "type": "t_array(t_uint256)dyn_storage"
      },
      {
        "astId": 12343,
        "contract": "contracts/protocol/core/callable/CallableLoan.sol:CallableLoan",
        "label": "config",
        "offset": 0,
        "slot": "516",
        "type": "t_contract(IGoldfinchConfig)8841"
      },
      {
        "astId": 12346,
        "contract": "contracts/protocol/core/callable/CallableLoan.sol:CallableLoan",
        "label": "createdAt",
        "offset": 0,
        "slot": "517",
        "type": "t_uint256"
      },
      {
        "astId": 12349,
        "contract": "contracts/protocol/core/callable/CallableLoan.sol:CallableLoan",
        "label": "borrower",
        "offset": 0,
        "slot": "518",
        "type": "t_address"
      }
    ],
    "types": {
      "t_address": {
        "encoding": "inplace",
        "label": "address",
        "numberOfBytes": "20"
      },
      "t_array(t_struct(Tranche)18030_storage)dyn_storage": {
        "base": "t_struct(Tranche)18030_storage",
        "encoding": "dynamic_array",
        "label": "struct Tranche[]",
        "numberOfBytes": "32"
      },
      "t_array(t_uint256)20_storage": {
        "base": "t_uint256",
        "encoding": "inplace",
        "label": "uint256[20]",
        "numberOfBytes": "640"
      },
      "t_array(t_uint256)28_storage": {
        "base": "t_uint256",
        "encoding": "inplace",
        "label": "uint256[28]",
        "numberOfBytes": "896"
      },
      "t_array(t_uint256)31_storage": {
        "base": "t_uint256",
        "encoding": "inplace",
        "label": "uint256[31]",
        "numberOfBytes": "992"
      },
      "t_array(t_uint256)49_storage": {
        "base": "t_uint256",
        "encoding": "inplace",
        "label": "uint256[49]",
        "numberOfBytes": "1568"
      },
      "t_array(t_uint256)50_storage": {
        "base": "t_uint256",
        "encoding": "inplace",
        "label": "uint256[50]",
        "numberOfBytes": "1600"
      },
      "t_array(t_uint256)dyn_storage": {
        "base": "t_uint256",
        "encoding": "dynamic_array",
        "label": "uint256[]",
        "numberOfBytes": "32"
      },
      "t_bool": {
        "encoding": "inplace",
        "label": "bool",
        "numberOfBytes": "1"
      },
      "t_bytes32": {
        "encoding": "inplace",
        "label": "bytes32",
        "numberOfBytes": "32"
      },
      "t_contract(IGoldfinchConfig)8841": {
        "encoding": "inplace",
        "label": "contract IGoldfinchConfig",
        "numberOfBytes": "20"
      },
      "t_contract(ISchedule)10541": {
        "encoding": "inplace",
        "label": "contract ISchedule",
        "numberOfBytes": "20"
      },
      "t_mapping(t_address,t_bool)": {
        "encoding": "mapping",
        "key": "t_address",
        "label": "mapping(address => bool)",
        "numberOfBytes": "32",
        "value": "t_bool"
      },
      "t_mapping(t_bytes32,t_struct(RoleData)253_storage)": {
        "encoding": "mapping",
        "key": "t_bytes32",
        "label": "mapping(bytes32 => struct AccessControlUpgradeable.RoleData)",
        "numberOfBytes": "32",
        "value": "t_struct(RoleData)253_storage"
      },
      "t_struct(CallableCreditLine)15278_storage": {
        "encoding": "inplace",
        "label": "struct CallableCreditLine",
        "members": [
          {
            "astId": 15249,
            "contract": "contracts/protocol/core/callable/CallableLoan.sol:CallableLoan",
            "label": "_config",
            "offset": 0,
            "slot": "0",
            "type": "t_contract(IGoldfinchConfig)8841"
          },
          {
            "astId": 15251,
            "contract": "contracts/protocol/core/callable/CallableLoan.sol:CallableLoan",
            "label": "_fundableAt",
            "offset": 0,
            "slot": "1",
            "type": "t_uint256"
          },
          {
            "astId": 15253,
            "contract": "contracts/protocol/core/callable/CallableLoan.sol:CallableLoan",
            "label": "_limit",
            "offset": 0,
            "slot": "2",
            "type": "t_uint256"
          },
          {
            "astId": 15255,
            "contract": "contracts/protocol/core/callable/CallableLoan.sol:CallableLoan",
            "label": "_interestApr",
            "offset": 0,
            "slot": "3",
            "type": "t_uint256"
          },
          {
            "astId": 15257,
            "contract": "contracts/protocol/core/callable/CallableLoan.sol:CallableLoan",
            "label": "_lateAdditionalApr",
            "offset": 0,
            "slot": "4",
            "type": "t_uint256"
          },
          {
            "astId": 15259,
            "contract": "contracts/protocol/core/callable/CallableLoan.sol:CallableLoan",
            "label": "_numLockupPeriods",
            "offset": 0,
            "slot": "5",
            "type": "t_uint256"
          },
          {
            "astId": 15261,
            "contract": "contracts/protocol/core/callable/CallableLoan.sol:CallableLoan",
            "label": "_checkpointedAsOf",
            "offset": 0,
            "slot": "6",
            "type": "t_uint256"
          },
          {
            "astId": 15263,
            "contract": "contracts/protocol/core/callable/CallableLoan.sol:CallableLoan",
            "label": "_lastFullPaymentTime",
            "offset": 0,
            "slot": "7",
            "type": "t_uint256"
          },
          {
            "astId": 15265,
            "contract": "contracts/protocol/core/callable/CallableLoan.sol:CallableLoan",
            "label": "_totalInterestOwedAtLastCheckpoint",
            "offset": 0,
            "slot": "8",
            "type": "t_uint256"
          },
          {
            "astId": 15267,
            "contract": "contracts/protocol/core/callable/CallableLoan.sol:CallableLoan",
            "label": "_totalInterestAccruedAtLastCheckpoint",
            "offset": 0,
            "slot": "9",
            "type": "t_uint256"
          },
          {
            "astId": 15270,
            "contract": "contracts/protocol/core/callable/CallableLoan.sol:CallableLoan",
            "label": "_waterfall",
            "offset": 0,
            "slot": "10",
            "type": "t_struct(Waterfall)18633_storage"
          },
          {
            "astId": 15273,
            "contract": "contracts/protocol/core/callable/CallableLoan.sol:CallableLoan",
            "label": "_paymentSchedule",
            "offset": 0,
            "slot": "42",
            "type": "t_struct(PaymentSchedule)23329_storage"
          },
          {
            "astId": 15277,
            "contract": "contracts/protocol/core/callable/CallableLoan.sol:CallableLoan",
            "label": "__padding",
            "offset": 0,
            "slot": "43",
            "type": "t_array(t_uint256)20_storage"
          }
        ],
        "numberOfBytes": "2016"
      },
      "t_struct(PaymentSchedule)23329_storage": {
        "encoding": "inplace",
        "label": "struct PaymentSchedule",
        "members": [
          {
            "astId": 23326,
            "contract": "contracts/protocol/core/callable/CallableLoan.sol:CallableLoan",
            "label": "schedule",
            "offset": 0,
            "slot": "0",
            "type": "t_contract(ISchedule)10541"
          },
          {
            "astId": 23328,
            "contract": "contracts/protocol/core/callable/CallableLoan.sol:CallableLoan",
            "label": "startTime",
            "offset": 20,
            "slot": "0",
            "type": "t_uint64"
          }
        ],
        "numberOfBytes": "32"
      },
      "t_struct(RoleData)253_storage": {
        "encoding": "inplace",
        "label": "struct AccessControlUpgradeable.RoleData",
        "members": [
          {
            "astId": 250,
            "contract": "contracts/protocol/core/callable/CallableLoan.sol:CallableLoan",
            "label": "members",
            "offset": 0,
            "slot": "0",
            "type": "t_mapping(t_address,t_bool)"
          },
          {
            "astId": 252,
            "contract": "contracts/protocol/core/callable/CallableLoan.sol:CallableLoan",
            "label": "adminRole",
            "offset": 0,
            "slot": "1",
            "type": "t_bytes32"
          }
        ],
        "numberOfBytes": "64"
      },
      "t_struct(StaleCallableCreditLine)17305_storage": {
        "encoding": "inplace",
        "label": "struct StaleCallableCreditLine",
        "members": [
          {
            "astId": 17304,
            "contract": "contracts/protocol/core/callable/CallableLoan.sol:CallableLoan",
            "label": "_cl",
            "offset": 0,
            "slot": "0",
            "type": "t_struct(CallableCreditLine)15278_storage"
          }
        ],
        "numberOfBytes": "2016"
      },
      "t_struct(Tranche)18030_storage": {
        "encoding": "inplace",
        "label": "struct Tranche",
        "members": [
          {
            "astId": 18019,
            "contract": "contracts/protocol/core/callable/CallableLoan.sol:CallableLoan",
            "label": "_principalDeposited",
            "offset": 0,
            "slot": "0",
            "type": "t_uint256"
          },
          {
            "astId": 18021,
            "contract": "contracts/protocol/core/callable/CallableLoan.sol:CallableLoan",
            "label": "_principalPaid",
            "offset": 0,
            "slot": "1",
            "type": "t_uint256"
          },
          {
            "astId": 18023,
            "contract": "contracts/protocol/core/callable/CallableLoan.sol:CallableLoan",
            "label": "_principalReserved",
            "offset": 0,
            "slot": "2",
            "type": "t_uint256"
          },
          {
            "astId": 18025,
            "contract": "contracts/protocol/core/callable/CallableLoan.sol:CallableLoan",
            "label": "_interestPaid",
            "offset": 0,
            "slot": "3",
            "type": "t_uint256"
          },
          {
            "astId": 18029,
            "contract": "contracts/protocol/core/callable/CallableLoan.sol:CallableLoan",
            "label": "__padding",
            "offset": 0,
            "slot": "4",
            "type": "t_array(t_uint256)28_storage"
          }
        ],
        "numberOfBytes": "1024"
      },
      "t_struct(Waterfall)18633_storage": {
        "encoding": "inplace",
        "label": "struct Waterfall",
        "members": [
          {
            "astId": 18628,
            "contract": "contracts/protocol/core/callable/CallableLoan.sol:CallableLoan",
            "label": "_tranches",
            "offset": 0,
            "slot": "0",
            "type": "t_array(t_struct(Tranche)18030_storage)dyn_storage"
          },
          {
            "astId": 18632,
            "contract": "contracts/protocol/core/callable/CallableLoan.sol:CallableLoan",
            "label": "__padding",
            "offset": 0,
            "slot": "1",
            "type": "t_array(t_uint256)31_storage"
          }
        ],
        "numberOfBytes": "1024"
      },
      "t_uint256": {
        "encoding": "inplace",
        "label": "uint256",
        "numberOfBytes": "32"
      },
      "t_uint64": {
        "encoding": "inplace",
        "label": "uint64",
        "numberOfBytes": "8"
      }
    }
  }
}