{
  "address": "0x71cfF40A44051C6e6311413A728EE7633dDC901a",
  "abi": [
    {
      "anonymous": false,
      "inputs": [
        {
          "indexed": true,
          "internalType": "address",
          "name": "who",
          "type": "address"
        },
        {
          "indexed": false,
          "internalType": "address",
          "name": "configAddress",
          "type": "address"
        }
      ],
      "name": "GoldfinchConfigUpdated",
      "type": "event"
    },
    {
      "anonymous": false,
      "inputs": [
        {
          "indexed": false,
          "internalType": "address",
          "name": "account",
          "type": "address"
        }
      ],
      "name": "Paused",
      "type": "event"
    },
    {
      "anonymous": false,
      "inputs": [
        {
          "indexed": true,
          "internalType": "bytes32",
          "name": "role",
          "type": "bytes32"
        },
        {
          "indexed": true,
          "internalType": "address",
          "name": "account",
          "type": "address"
        },
        {
          "indexed": true,
          "internalType": "address",
          "name": "sender",
          "type": "address"
        }
      ],
      "name": "RoleGranted",
      "type": "event"
    },
    {
      "anonymous": false,
      "inputs": [
        {
          "indexed": true,
          "internalType": "bytes32",
          "name": "role",
          "type": "bytes32"
        },
        {
          "indexed": true,
          "internalType": "address",
          "name": "account",
          "type": "address"
        },
        {
          "indexed": true,
          "internalType": "address",
          "name": "sender",
          "type": "address"
        }
      ],
      "name": "RoleRevoked",
      "type": "event"
    },
    {
      "anonymous": false,
      "inputs": [
        {
          "indexed": false,
          "internalType": "address",
          "name": "account",
          "type": "address"
        }
      ],
      "name": "Unpaused",
      "type": "event"
    },
    {
      "inputs": [],
      "name": "DEFAULT_ADMIN_ROLE",
      "outputs": [
        {
          "internalType": "bytes32",
          "name": "",
          "type": "bytes32"
        }
      ],
      "stateMutability": "view",
      "type": "function"
    },
    {
      "inputs": [],
      "name": "OWNER_ROLE",
      "outputs": [
        {
          "internalType": "bytes32",
          "name": "",
          "type": "bytes32"
        }
      ],
      "stateMutability": "view",
      "type": "function"
    },
    {
      "inputs": [],
      "name": "PAUSER_ROLE",
      "outputs": [
        {
          "internalType": "bytes32",
          "name": "",
          "type": "bytes32"
        }
      ],
      "stateMutability": "view",
      "type": "function"
    },
    {
      "inputs": [
        {
          "internalType": "address",
          "name": "owner",
          "type": "address"
        }
      ],
      "name": "__BaseUpgradeablePausable__init",
      "outputs": [],
      "stateMutability": "nonpayable",
      "type": "function"
    },
    {
      "inputs": [],
      "name": "__PauserPausable__init",
      "outputs": [],
      "stateMutability": "nonpayable",
      "type": "function"
    },
    {
      "inputs": [],
      "name": "config",
      "outputs": [
        {
          "internalType": "contract GoldfinchConfig",
          "name": "",
          "type": "address"
        }
      ],
      "stateMutability": "view",
      "type": "function"
    },
    {
      "inputs": [
        {
          "internalType": "contract ISeniorPool",
          "name": "seniorPool",
          "type": "address"
        },
        {
          "internalType": "contract ITranchedPool",
          "name": "pool",
          "type": "address"
        }
      ],
      "name": "estimateInvestment",
      "outputs": [
        {
          "internalType": "uint256",
          "name": "",
          "type": "uint256"
        }
      ],
      "stateMutability": "view",
      "type": "function"
    },
    {
      "inputs": [
        {
          "internalType": "contract ITranchedPool",
          "name": "pool",
          "type": "address"
        }
      ],
      "name": "getLeverageRatio",
      "outputs": [
        {
          "internalType": "uint256",
          "name": "",
          "type": "uint256"
        }
      ],
      "stateMutability": "view",
      "type": "function"
    },
    {
      "inputs": [
        {
          "internalType": "bytes32",
          "name": "role",
          "type": "bytes32"
        }
      ],
      "name": "getRoleAdmin",
      "outputs": [
        {
          "internalType": "bytes32",
          "name": "",
          "type": "bytes32"
        }
      ],
      "stateMutability": "view",
      "type": "function"
    },
    {
      "inputs": [
        {
          "internalType": "bytes32",
          "name": "role",
          "type": "bytes32"
        },
        {
          "internalType": "uint256",
          "name": "index",
          "type": "uint256"
        }
      ],
      "name": "getRoleMember",
      "outputs": [
        {
          "internalType": "address",
          "name": "",
          "type": "address"
        }
      ],
      "stateMutability": "view",
      "type": "function"
    },
    {
      "inputs": [
        {
          "internalType": "bytes32",
          "name": "role",
          "type": "bytes32"
        }
      ],
      "name": "getRoleMemberCount",
      "outputs": [
        {
          "internalType": "uint256",
          "name": "",
          "type": "uint256"
        }
      ],
      "stateMutability": "view",
      "type": "function"
    },
    {
      "inputs": [
        {
          "internalType": "bytes32",
          "name": "role",
          "type": "bytes32"
        },
        {
          "internalType": "address",
          "name": "account",
          "type": "address"
        }
      ],
      "name": "grantRole",
      "outputs": [],
      "stateMutability": "nonpayable",
      "type": "function"
    },
    {
      "inputs": [
        {
          "internalType": "bytes32",
          "name": "role",
          "type": "bytes32"
        },
        {
          "internalType": "address",
          "name": "account",
          "type": "address"
        }
      ],
      "name": "hasRole",
      "outputs": [
        {
          "internalType": "bool",
          "name": "",
          "type": "bool"
        }
      ],
      "stateMutability": "view",
      "type": "function"
    },
    {
      "inputs": [
        {
          "internalType": "address",
          "name": "owner",
          "type": "address"
        },
        {
          "internalType": "contract GoldfinchConfig",
          "name": "_config",
          "type": "address"
        }
      ],
      "name": "initialize",
      "outputs": [],
      "stateMutability": "nonpayable",
      "type": "function"
    },
    {
      "inputs": [
        {
          "internalType": "contract ISeniorPool",
          "name": "seniorPool",
          "type": "address"
        },
        {
          "internalType": "contract ITranchedPool",
          "name": "pool",
          "type": "address"
        }
      ],
      "name": "invest",
      "outputs": [
        {
          "internalType": "uint256",
          "name": "",
          "type": "uint256"
        }
      ],
      "stateMutability": "view",
      "type": "function"
    },
    {
      "inputs": [],
      "name": "isAdmin",
      "outputs": [
        {
          "internalType": "bool",
          "name": "",
          "type": "bool"
        }
      ],
      "stateMutability": "view",
      "type": "function"
    },
    {
      "inputs": [],
      "name": "pause",
      "outputs": [],
      "stateMutability": "nonpayable",
      "type": "function"
    },
    {
      "inputs": [],
      "name": "paused",
      "outputs": [
        {
          "internalType": "bool",
          "name": "",
          "type": "bool"
        }
      ],
      "stateMutability": "view",
      "type": "function"
    },
    {
      "inputs": [
        {
          "internalType": "bytes32",
          "name": "role",
          "type": "bytes32"
        },
        {
          "internalType": "address",
          "name": "account",
          "type": "address"
        }
      ],
      "name": "renounceRole",
      "outputs": [],
      "stateMutability": "nonpayable",
      "type": "function"
    },
    {
      "inputs": [
        {
          "internalType": "bytes32",
          "name": "role",
          "type": "bytes32"
        },
        {
          "internalType": "address",
          "name": "account",
          "type": "address"
        }
      ],
      "name": "revokeRole",
      "outputs": [],
      "stateMutability": "nonpayable",
      "type": "function"
    },
    {
      "inputs": [],
      "name": "unpause",
      "outputs": [],
      "stateMutability": "nonpayable",
      "type": "function"
    },
    {
      "inputs": [],
      "name": "updateGoldfinchConfig",
      "outputs": [],
      "stateMutability": "nonpayable",
      "type": "function"
    }
  ],
  "transactionHash": "0x40af206ef37f59e79be7ab3f8b0a7b18bf4bccb3a92bac38dfa599df30d1d020",
  "args": [],
  "solcInputHash": "47172467ab6b6b7e17a87f5c74a51675",
  "bytecode": "0x608060405234801561001057600080fd5b506118da806100206000396000f3fe608060405234801561001057600080fd5b50600436106101425760003560e01c80638456cb59116100b8578063b8dbc2131161007c578063b8dbc21314610251578063ca15c87314610264578063d547741f14610277578063e58378bb1461028a578063e63ab1e914610292578063ff8a4efe1461029a57610142565b80638456cb59146102135780639010d07c1461021b57806391d148541461022e578063a217fddf14610241578063b6db75a01461024957610142565b80633f4ba83a1161010a5780633f4ba83a146101be578063485cc955146101c65780634f92a728146101d9578063526d81f6146101e15780635c975abb146101e957806379502c55146101fe57610142565b8063097616a3146101475780631f999a2d1461015c578063248a9ca3146101855780632f2ff15d1461019857806336568abe146101ab575b600080fd5b61015a61015536600461130e565b6102ad565b005b61016f61016a3660046113db565b6103e6565b60405161017c919061148f565b60405180910390f35b61016f61019336600461137e565b6104b0565b61015a6101a6366004611396565b6104c5565b61015a6101b9366004611396565b610509565b61015a61054b565b61015a6101d4366004611346565b61058b565b61015a610671565b61015a610707565b6101f1610792565b60405161017c9190611484565b61020661079b565b60405161017c9190611470565b61015a6107ab565b6102066102293660046113ba565b6107e9565b6101f161023c366004611396565b610808565b61016f610820565b6101f1610825565b61016f61025f36600461130e565b610846565b61016f61027236600461137e565b61085f565b61015a610285366004611396565b610876565b61016f6108b0565b61016f6108c2565b61016f6102a83660046113db565b6108d4565b600054610100900460ff16806102c657506102c66109ba565b806102d4575060005460ff16155b6102f95760405162461bcd60e51b81526004016102f090611767565b60405180910390fd5b600054610100900460ff16158015610324576000805460ff1961ff0019909116610100171660011790555b6001600160a01b03821661034a5760405162461bcd60e51b81526004016102f0906116f1565b6103526109c0565b61035a610a41565b610362610acd565b61037a600080516020611865833981519152836104ff565b610392600080516020611885833981519152836104ff565b6103b8600080516020611885833981519152600080516020611865833981519152610b5c565b6103d060008051602061186583398151915280610b5c565b80156103e2576000805461ff00191690555b5050565b600080826001600160a01b0316637976323d6040518163ffffffff1660e01b815260040160206040518083038186803b15801561042257600080fd5b505afa158015610436573d6000803e3d6000fd5b505050506040513d601f19601f8201168201806040525081019061045a9190611458565b90508061046b5760009150506104aa565b6000610478826001610b71565b90506104826112df565b61048a6112df565b6104948684610bb3565b915091506104a3868383610cf6565b9450505050505b92915050565b60009081526065602052604090206002015490565b6000828152606560205260409020600201546104e39061023c610d54565b6104ff5760405162461bcd60e51b81526004016102f09061152d565b6103e28282610d58565b610511610d54565b6001600160a01b0316816001600160a01b0316146105415760405162461bcd60e51b81526004016102f090611800565b6103e28282610dc1565b61056560008051602061188583398151915261023c610d54565b6105815760405162461bcd60e51b81526004016102f0906115f4565b610589610e2a565b565b600054610100900460ff16806105a457506105a46109ba565b806105b2575060005460ff16155b6105ce5760405162461bcd60e51b81526004016102f090611767565b600054610100900460ff161580156105f9576000805460ff1961ff0019909116610100171660011790555b6001600160a01b0383161580159061061957506001600160a01b03821615155b6106355760405162461bcd60e51b81526004016102f0906115aa565b61063e836102ad565b6101c380546001600160a01b0319166001600160a01b038416179055801561066c576000805461ff00191690555b505050565b610679610825565b6106955760405162461bcd60e51b81526004016102f0906117b5565b6101c3546106ab906001600160a01b0316610e96565b6101c380546001600160a01b0319166001600160a01b03928316179081905560405133927f7c76c17de59691df2ef36af3938c91f69cd18ad27f67a54a38e38686f0b40c49926106fd92911690611470565b60405180910390a2565b600054610100900460ff168061072057506107206109ba565b8061072e575060005460ff16155b61074a5760405162461bcd60e51b81526004016102f090611767565b600054610100900460ff16158015610775576000805460ff1961ff0019909116610100171660011790555b61077d610a41565b801561078f576000805461ff00191690555b50565b60975460ff1690565b6101c3546001600160a01b031681565b6107c560008051602061188583398151915261023c610d54565b6107e15760405162461bcd60e51b81526004016102f0906115f4565b610589610f16565b60008281526065602052604081206108019083610f6f565b9392505050565b60008281526065602052604081206108019083610f7b565b600081565b600061084160008051602061186583398151915261023c610d54565b905090565b6101c3546000906104aa906001600160a01b0316610f90565b60008181526065602052604081206104aa90611010565b6000828152606560205260409020600201546108949061023c610d54565b6105415760405162461bcd60e51b81526004016102f090611677565b60008051602061186583398151915281565b60008051602061188583398151915281565b600080826001600160a01b0316637976323d6040518163ffffffff1660e01b815260040160206040518083038186803b15801561091057600080fd5b505afa158015610924573d6000803e3d6000fd5b505050506040513d601f19601f820116820180604052508101906109489190611458565b9050806109595760009150506104aa565b6000610966826001610b71565b90506109706112df565b6109786112df565b6109828684610bb3565b9150915081608001516000148061099d575060008160800151115b156109af5760009450505050506104aa565b6104a3868383610cf6565b303b1590565b600054610100900460ff16806109d957506109d96109ba565b806109e7575060005460ff16155b610a035760405162461bcd60e51b81526004016102f090611767565b600054610100900460ff1615801561077d576000805460ff1961ff001990911661010017166001179055801561078f576000805461ff001916905550565b600054610100900460ff1680610a5a5750610a5a6109ba565b80610a68575060005460ff16155b610a845760405162461bcd60e51b81526004016102f090611767565b600054610100900460ff16158015610aaf576000805460ff1961ff0019909116610100171660011790555b6097805460ff19169055801561078f576000805461ff001916905550565b600054610100900460ff1680610ae65750610ae66109ba565b80610af4575060005460ff16155b610b105760405162461bcd60e51b81526004016102f090611767565b600054610100900460ff16158015610b3b576000805460ff1961ff0019909116610100171660011790555b60c9805460ff19166001179055801561078f576000805461ff001916905550565b60009182526065602052604090912060020155565b600061080183836040518060400160405280601e81526020017f536166654d6174683a207375627472616374696f6e206f766572666c6f77000081525061101b565b610bbb6112df565b610bc36112df565b6000610bce84611047565b90506000610bdb8561105e565b9050610be56112df565b60405163d972e8ad60e01b81526001600160a01b0388169063d972e8ad90610c1190869060040161148f565b60a06040518083038186803b158015610c2957600080fd5b505afa158015610c3d573d6000803e3d6000fd5b505050506040513d601f19601f82011682018060405250810190610c6191906113ed565b9050610c6b6112df565b60405163d972e8ad60e01b81526001600160a01b0389169063d972e8ad90610c9790869060040161148f565b60a06040518083038186803b158015610caf57600080fd5b505afa158015610cc3573d6000803e3d6000fd5b505050506040513d601f19601f82011682018060405250810190610ce791906113ed565b91989197509095505050505050565b602080830151908201516000919082610d2a670de0b6b3a7640000610d24610d1d8a610846565b869061106c565b906110a6565b9050808210610d3f5760009350505050610801565b610d498183610b71565b979650505050505050565b3390565b6000828152606560205260409020610d7090826110e8565b156103e257610d7d610d54565b6001600160a01b0316816001600160a01b0316837f2f8788117e7eff1d82e926ec794901d17c78024a50270940304540a733656f0d60405160405180910390a45050565b6000828152606560205260409020610dd990826110fd565b156103e257610de6610d54565b6001600160a01b0316816001600160a01b0316837ff6391f5c32d9c69d2a47ea670b442974b53935d1edc7fd64eb21e047a839171b60405160405180910390a45050565b60975460ff16610e4c5760405162461bcd60e51b81526004016102f09061157c565b6097805460ff191690557f5db9ee0a495bf2e6ff9c91a7834c1ba4fdd244a5e8aa4e537bd38aeae4b073aa610e7f610d54565b604051610e8c9190611470565b60405180910390a1565b604051635c9fcd8560e11b81526000906001600160a01b0383169063b93f9b0a90610ec690600b9060040161148f565b60206040518083038186803b158015610ede57600080fd5b505afa158015610ef2573d6000803e3d6000fd5b505050506040513d601f19601f820116820180604052508101906104aa919061132a565b60975460ff1615610f395760405162461bcd60e51b81526004016102f0906116c7565b6097805460ff191660011790557f62e78cea01bee320cd4e420270b5ea74000d11b0c9f74754ebdbfc544b05a258610e7f610d54565b60006108018383611112565b6000610801836001600160a01b038416611157565b604051631f8ac6cb60e31b81526000906001600160a01b0383169063fc56365890610fc09060099060040161148f565b60206040518083038186803b158015610fd857600080fd5b505afa158015610fec573d6000803e3d6000fd5b505050506040513d601f19601f820116820180604052508101906104aa9190611458565b60006104aa8261116f565b6000818484111561103f5760405162461bcd60e51b81526004016102f09190611498565b505050900390565b60006104aa6002611058848261106c565b90611173565b60006104aa60016110588460025b60008261107b575060006104aa565b8282028284828161108857fe5b04146108015760405162461bcd60e51b81526004016102f090611726565b600061080183836040518060400160405280601a81526020017f536166654d6174683a206469766973696f6e206279207a65726f000000000000815250611198565b6000610801836001600160a01b0384166111cf565b6000610801836001600160a01b038416611219565b815460009082106111355760405162461bcd60e51b81526004016102f0906114eb565b82600001828154811061114457fe5b9060005260206000200154905092915050565b60009081526001919091016020526040902054151590565b5490565b6000828201838110156108015760405162461bcd60e51b81526004016102f090611640565b600081836111b95760405162461bcd60e51b81526004016102f09190611498565b5060008385816111c557fe5b0495945050505050565b60006111db8383611157565b611211575081546001818101845560008481526020808220909301849055845484825282860190935260409020919091556104aa565b5060006104aa565b600081815260018301602052604081205480156112d5578354600019808301919081019060009087908390811061124c57fe5b906000526020600020015490508087600001848154811061126957fe5b60009182526020808320909101929092558281526001898101909252604090209084019055865487908061129957fe5b600190038181906000526020600020016000905590558660010160008781526020019081526020016000206000905560019450505050506104aa565b60009150506104aa565b6040518060a0016040528060008152602001600081526020016000815260200160008152602001600081525090565b60006020828403121561131f578081fd5b81356108018161184f565b60006020828403121561133b578081fd5b81516108018161184f565b60008060408385031215611358578081fd5b82356113638161184f565b915060208301356113738161184f565b809150509250929050565b60006020828403121561138f578081fd5b5035919050565b600080604083850312156113a8578182fd5b8235915060208301356113738161184f565b600080604083850312156113cc578182fd5b50508035926020909101359150565b60008060408385031215611358578182fd5b600060a082840312156113fe578081fd5b60405160a0810181811067ffffffffffffffff8211171561141d578283fd5b806040525082518152602083015160208201526040830151604082015260608301516060820152608083015160808201528091505092915050565b600060208284031215611469578081fd5b5051919050565b6001600160a01b0391909116815260200190565b901515815260200190565b90815260200190565b6000602080835283518082850152825b818110156114c4578581018301518582016040015282016114a8565b818111156114d55783604083870101525b50601f01601f1916929092016040019392505050565b60208082526022908201527f456e756d657261626c655365743a20696e646578206f7574206f6620626f756e604082015261647360f01b606082015260800190565b6020808252602f908201527f416363657373436f6e74726f6c3a2073656e646572206d75737420626520616e60408201526e0818591b5a5b881d1bc819dc985b9d608a1b606082015260800190565b60208082526014908201527314185d5cd8589b194e881b9bdd081c185d5cd95960621b604082015260600190565b6020808252602a908201527f4f776e657220616e6420636f6e666967206164647265737365732063616e6e6f6040820152697420626520656d70747960b01b606082015260800190565b6020808252602c908201527f4d75737420686176652070617573657220726f6c6520746f20706572666f726d60408201526b103a3434b99030b1ba34b7b760a11b606082015260800190565b6020808252601b908201527f536166654d6174683a206164646974696f6e206f766572666c6f770000000000604082015260600190565b60208082526030908201527f416363657373436f6e74726f6c3a2073656e646572206d75737420626520616e60408201526f2061646d696e20746f207265766f6b6560801b606082015260800190565b60208082526010908201526f14185d5cd8589b194e881c185d5cd95960821b604082015260600190565b6020808252818101527f4f776e65722063616e6e6f7420626520746865207a65726f2061646472657373604082015260600190565b60208082526021908201527f536166654d6174683a206d756c7469706c69636174696f6e206f766572666c6f6040820152607760f81b606082015260800190565b6020808252602e908201527f436f6e747261637420696e7374616e63652068617320616c726561647920626560408201526d195b881a5b9a5d1a585b1a5e995960921b606082015260800190565b6020808252602b908201527f4d75737420686176652061646d696e20726f6c6520746f20706572666f726d2060408201526a3a3434b99030b1ba34b7b760a91b606082015260800190565b6020808252602f908201527f416363657373436f6e74726f6c3a2063616e206f6e6c792072656e6f756e636560408201526e103937b632b9903337b91039b2b63360891b606082015260800190565b6001600160a01b038116811461078f57600080fdfeb19546dff01e856fb3f010c267a7b1c60363cf8a4664e21cc89c26224620214e65d7a28e3265b37a6474929f336521b332c1681b933f6cb9f3376673440d862aa2646970667358221220a955db22ef3dbe10fbfb9ea4aeca0362ef6ea081b5900bf7bcde3354de366e0164736f6c634300060c0033",
  "devdoc": {
    "kind": "dev",
    "methods": {
      "estimateInvestment(address,address)": {
        "params": {
          "pool": "The tranched pool to invest into (as the senior)",
          "seniorPool": "The senior pool to invest from"
        },
        "returns": {
          "_0": "The amount of money to invest into the tranched pool's senior tranche, from the senior pool"
        }
      },
      "getRoleAdmin(bytes32)": {
        "details": "Returns the admin role that controls `role`. See {grantRole} and {revokeRole}. To change a role's admin, use {_setRoleAdmin}."
      },
      "getRoleMember(bytes32,uint256)": {
        "details": "Returns one of the accounts that have `role`. `index` must be a value between 0 and {getRoleMemberCount}, non-inclusive. Role bearers are not sorted in any particular way, and their ordering may change at any point. WARNING: When using {getRoleMember} and {getRoleMemberCount}, make sure you perform all queries on the same block. See the following https://forum.openzeppelin.com/t/iterating-over-elements-on-enumerableset-in-openzeppelin-contracts/2296[forum post] for more information."
      },
      "getRoleMemberCount(bytes32)": {
        "details": "Returns the number of accounts that have `role`. Can be used together with {getRoleMember} to enumerate all bearers of a role."
      },
      "grantRole(bytes32,address)": {
        "details": "Grants `role` to `account`. If `account` had not been already granted `role`, emits a {RoleGranted} event. Requirements: - the caller must have ``role``'s admin role."
      },
      "hasRole(bytes32,address)": {
        "details": "Returns `true` if `account` has been granted `role`."
      },
      "invest(address,address)": {
        "params": {
          "pool": "The tranched pool to invest into (as the senior)",
          "seniorPool": "The senior pool to invest from"
        },
        "returns": {
          "_0": "The amount of money to invest into the tranched pool's senior tranche, from the senior pool"
        }
      },
      "pause()": {
        "details": "Pauses all functions guarded by Pause See {Pausable-_pause}. Requirements: - the caller must have the PAUSER_ROLE."
      },
      "paused()": {
        "details": "Returns true if the contract is paused, and false otherwise."
      },
      "renounceRole(bytes32,address)": {
        "details": "Revokes `role` from the calling account. Roles are often managed via {grantRole} and {revokeRole}: this function's purpose is to provide a mechanism for accounts to lose their privileges if they are compromised (such as when a trusted device is misplaced). If the calling account had been granted `role`, emits a {RoleRevoked} event. Requirements: - the caller must be `account`."
      },
      "revokeRole(bytes32,address)": {
        "details": "Revokes `role` from `account`. If `account` had been granted `role`, emits a {RoleRevoked} event. Requirements: - the caller must have ``role``'s admin role."
      },
      "unpause()": {
        "details": "Unpauses the contract See {Pausable-_unpause}. Requirements: - the caller must have the Pauser role"
      }
    },
    "version": 1
  },
  "userdoc": {
    "kind": "user",
    "methods": {
      "estimateInvestment(address,address)": {
        "notice": "A companion of `invest()`: determines how much would be returned by `invest()`, as the value to invest into the senior tranche, if the junior tranche were locked and the senior tranche were not locked."
      },
      "invest(address,address)": {
        "notice": "Determines how much money to invest in the senior tranche based on what is committed to the junior tranche, what is committed to the senior tranche, and a leverage ratio to the junior tranche. Because it takes into account what is already committed to the senior tranche, the value returned by this function can be used \"idempotently\" to achieve the investment target amount without exceeding that target."
      }
    },
    "version": 1
  },
  "storageLayout": {
    "storage": [
      {
        "astId": 151,
        "contract": "contracts/protocol/core/FixedLeverageRatioStrategy.sol:FixedLeverageRatioStrategy",
        "label": "initialized",
        "offset": 0,
        "slot": "0",
        "type": "t_bool"
      },
      {
        "astId": 154,
        "contract": "contracts/protocol/core/FixedLeverageRatioStrategy.sol:FixedLeverageRatioStrategy",
        "label": "initializing",
        "offset": 1,
        "slot": "0",
        "type": "t_bool"
      },
      {
        "astId": 219,
        "contract": "contracts/protocol/core/FixedLeverageRatioStrategy.sol:FixedLeverageRatioStrategy",
        "label": "______gap",
        "offset": 0,
        "slot": "1",
        "type": "t_array(t_uint256)50_storage"
      },
      {
        "astId": 144,
        "contract": "contracts/protocol/core/FixedLeverageRatioStrategy.sol:FixedLeverageRatioStrategy",
        "label": "__gap",
        "offset": 0,
        "slot": "51",
        "type": "t_array(t_uint256)50_storage"
      },
      {
        "astId": 264,
        "contract": "contracts/protocol/core/FixedLeverageRatioStrategy.sol:FixedLeverageRatioStrategy",
        "label": "_roles",
        "offset": 0,
        "slot": "101",
        "type": "t_mapping(t_bytes32,t_struct(RoleData)260_storage)"
      },
      {
        "astId": 509,
        "contract": "contracts/protocol/core/FixedLeverageRatioStrategy.sol:FixedLeverageRatioStrategy",
        "label": "__gap",
        "offset": 0,
        "slot": "102",
        "type": "t_array(t_uint256)49_storage"
      },
      {
        "astId": 4429,
        "contract": "contracts/protocol/core/FixedLeverageRatioStrategy.sol:FixedLeverageRatioStrategy",
        "label": "_paused",
        "offset": 0,
        "slot": "151",
        "type": "t_bool"
      },
      {
        "astId": 4518,
        "contract": "contracts/protocol/core/FixedLeverageRatioStrategy.sol:FixedLeverageRatioStrategy",
        "label": "__gap",
        "offset": 0,
        "slot": "152",
        "type": "t_array(t_uint256)49_storage"
      },
      {
        "astId": 4527,
        "contract": "contracts/protocol/core/FixedLeverageRatioStrategy.sol:FixedLeverageRatioStrategy",
        "label": "_notEntered",
        "offset": 0,
        "slot": "201",
        "type": "t_bool"
      },
      {
        "astId": 4568,
        "contract": "contracts/protocol/core/FixedLeverageRatioStrategy.sol:FixedLeverageRatioStrategy",
        "label": "__gap",
        "offset": 0,
        "slot": "202",
        "type": "t_array(t_uint256)49_storage"
      },
      {
        "astId": 12067,
        "contract": "contracts/protocol/core/FixedLeverageRatioStrategy.sol:FixedLeverageRatioStrategy",
        "label": "__gap1",
        "offset": 0,
        "slot": "251",
        "type": "t_array(t_uint256)50_storage"
      },
      {
        "astId": 12071,
        "contract": "contracts/protocol/core/FixedLeverageRatioStrategy.sol:FixedLeverageRatioStrategy",
        "label": "__gap2",
        "offset": 0,
        "slot": "301",
        "type": "t_array(t_uint256)50_storage"
      },
      {
        "astId": 12075,
        "contract": "contracts/protocol/core/FixedLeverageRatioStrategy.sol:FixedLeverageRatioStrategy",
        "label": "__gap3",
        "offset": 0,
        "slot": "351",
        "type": "t_array(t_uint256)50_storage"
      },
      {
        "astId": 12079,
        "contract": "contracts/protocol/core/FixedLeverageRatioStrategy.sol:FixedLeverageRatioStrategy",
        "label": "__gap4",
        "offset": 0,
        "slot": "401",
        "type": "t_array(t_uint256)50_storage"
      },
      {
        "astId": 16141,
        "contract": "contracts/protocol/core/FixedLeverageRatioStrategy.sol:FixedLeverageRatioStrategy",
        "label": "config",
        "offset": 0,
        "slot": "451",
        "type": "t_contract(GoldfinchConfig)17564"
      }
    ],
    "types": {
      "t_array(t_bytes32)dyn_storage": {
        "base": "t_bytes32",
        "encoding": "dynamic_array",
        "label": "bytes32[]",
        "numberOfBytes": "32"
      },
      "t_array(t_uint256)49_storage": {
        "base": "t_uint256",
        "encoding": "inplace",
        "label": "uint256[49]",
        "numberOfBytes": "1568"
      },
      "t_array(t_uint256)50_storage": {
        "base": "t_uint256",
        "encoding": "inplace",
        "label": "uint256[50]",
        "numberOfBytes": "1600"
      },
      "t_bool": {
        "encoding": "inplace",
        "label": "bool",
        "numberOfBytes": "1"
      },
      "t_bytes32": {
        "encoding": "inplace",
        "label": "bytes32",
        "numberOfBytes": "32"
      },
      "t_contract(GoldfinchConfig)17564": {
        "encoding": "inplace",
        "label": "contract GoldfinchConfig",
        "numberOfBytes": "20"
      },
      "t_mapping(t_bytes32,t_struct(RoleData)260_storage)": {
        "encoding": "mapping",
        "key": "t_bytes32",
        "label": "mapping(bytes32 => struct AccessControlUpgradeSafe.RoleData)",
        "numberOfBytes": "32",
        "value": "t_struct(RoleData)260_storage"
      },
      "t_mapping(t_bytes32,t_uint256)": {
        "encoding": "mapping",
        "key": "t_bytes32",
        "label": "mapping(bytes32 => uint256)",
        "numberOfBytes": "32",
        "value": "t_uint256"
      },
      "t_struct(AddressSet)4204_storage": {
        "encoding": "inplace",
        "label": "struct EnumerableSet.AddressSet",
        "members": [
          {
            "astId": 4203,
            "contract": "contracts/protocol/core/FixedLeverageRatioStrategy.sol:FixedLeverageRatioStrategy",
            "label": "_inner",
            "offset": 0,
            "slot": "0",
            "type": "t_struct(Set)4024_storage"
          }
        ],
        "numberOfBytes": "64"
      },
      "t_struct(RoleData)260_storage": {
        "encoding": "inplace",
        "label": "struct AccessControlUpgradeSafe.RoleData",
        "members": [
          {
            "astId": 257,
            "contract": "contracts/protocol/core/FixedLeverageRatioStrategy.sol:FixedLeverageRatioStrategy",
            "label": "members",
            "offset": 0,
            "slot": "0",
            "type": "t_struct(AddressSet)4204_storage"
          },
          {
            "astId": 259,
            "contract": "contracts/protocol/core/FixedLeverageRatioStrategy.sol:FixedLeverageRatioStrategy",
            "label": "adminRole",
            "offset": 0,
            "slot": "2",
            "type": "t_bytes32"
          }
        ],
        "numberOfBytes": "96"
      },
      "t_struct(Set)4024_storage": {
        "encoding": "inplace",
        "label": "struct EnumerableSet.Set",
        "members": [
          {
            "astId": 4019,
            "contract": "contracts/protocol/core/FixedLeverageRatioStrategy.sol:FixedLeverageRatioStrategy",
            "label": "_values",
            "offset": 0,
            "slot": "0",
            "type": "t_array(t_bytes32)dyn_storage"
          },
          {
            "astId": 4023,
            "contract": "contracts/protocol/core/FixedLeverageRatioStrategy.sol:FixedLeverageRatioStrategy",
            "label": "_indexes",
            "offset": 0,
            "slot": "1",
            "type": "t_mapping(t_bytes32,t_uint256)"
          }
        ],
        "numberOfBytes": "64"
      },
      "t_uint256": {
        "encoding": "inplace",
        "label": "uint256",
        "numberOfBytes": "32"
      }
    }
  }
}