{
  "address": "0xD499f5F7d3C918D0e553BA03954c4E02af16B6e4",
  "abi": [
    {
      "inputs": [
        {
          "internalType": "contract Context",
          "name": "_context",
          "type": "address"
        }
      ],
      "stateMutability": "nonpayable",
      "type": "constructor"
    },
    {
      "inputs": [
        {
          "internalType": "int256",
          "name": "x",
          "type": "int256"
        }
      ],
      "name": "ExpTooLarge",
      "type": "error"
    },
    {
      "inputs": [
        {
          "internalType": "uint256",
          "name": "n",
          "type": "uint256"
        },
        {
          "internalType": "uint256",
          "name": "d",
          "type": "uint256"
        }
      ],
      "name": "InvalidFraction",
      "type": "error"
    },
    {
      "inputs": [],
      "name": "InvalidPositionType",
      "type": "error"
    },
    {
      "inputs": [],
      "name": "InvalidVaultPosition",
      "type": "error"
    },
    {
      "inputs": [
        {
          "internalType": "int256",
          "name": "x",
          "type": "int256"
        }
      ],
      "name": "LnNonRealResult",
      "type": "error"
    },
    {
      "inputs": [
        {
          "internalType": "int256",
          "name": "x",
          "type": "int256"
        }
      ],
      "name": "LnTooLarge",
      "type": "error"
    },
    {
      "inputs": [
        {
          "internalType": "address",
          "name": "resource",
          "type": "address"
        },
        {
          "internalType": "address",
          "name": "accessor",
          "type": "address"
        }
      ],
      "name": "RequiresOperator",
      "type": "error"
    },
    {
      "inputs": [],
      "name": "ZeroAddress",
      "type": "error"
    },
    {
      "anonymous": false,
      "inputs": [
        {
          "indexed": true,
          "internalType": "address",
          "name": "owner",
          "type": "address"
        },
        {
          "indexed": false,
          "internalType": "uint256",
          "name": "rewards",
          "type": "uint256"
        }
      ],
      "name": "RewardsClaimed",
      "type": "event"
    },
    {
      "inputs": [
        {
          "internalType": "uint256",
          "name": "gfi",
          "type": "uint256"
        },
        {
          "internalType": "uint256",
          "name": "capital",
          "type": "uint256"
        }
      ],
      "name": "calculateMembershipScore",
      "outputs": [
        {
          "internalType": "uint256",
          "name": "",
          "type": "uint256"
        }
      ],
      "stateMutability": "view",
      "type": "function"
    },
    {
      "inputs": [
        {
          "internalType": "address",
          "name": "owner",
          "type": "address"
        }
      ],
      "name": "claimableRewards",
      "outputs": [
        {
          "internalType": "uint256",
          "name": "",
          "type": "uint256"
        }
      ],
      "stateMutability": "view",
      "type": "function"
    },
    {
      "inputs": [
        {
          "internalType": "address",
          "name": "owner",
          "type": "address"
        }
      ],
      "name": "collectRewards",
      "outputs": [
        {
          "internalType": "uint256",
          "name": "rewards",
          "type": "uint256"
        }
      ],
      "stateMutability": "nonpayable",
      "type": "function"
    },
    {
      "inputs": [
        {
          "internalType": "address",
          "name": "owner",
          "type": "address"
        }
      ],
      "name": "consumeHoldingsAdjustment",
      "outputs": [
        {
          "internalType": "uint256",
          "name": "",
          "type": "uint256"
        }
      ],
      "stateMutability": "nonpayable",
      "type": "function"
    },
    {
      "inputs": [
        {
          "internalType": "address",
          "name": "owner",
          "type": "address"
        }
      ],
      "name": "currentScore",
      "outputs": [
        {
          "internalType": "uint256",
          "name": "eligibleScore",
          "type": "uint256"
        },
        {
          "internalType": "uint256",
          "name": "totalScore",
          "type": "uint256"
        }
      ],
      "stateMutability": "view",
      "type": "function"
    },
    {
      "inputs": [
        {
          "internalType": "address",
          "name": "memberAddress",
          "type": "address"
        },
        {
          "internalType": "int256",
          "name": "gfi",
          "type": "int256"
        },
        {
          "internalType": "int256",
          "name": "capital",
          "type": "int256"
        }
      ],
      "name": "estimateMemberScore",
      "outputs": [
        {
          "internalType": "uint256",
          "name": "score",
          "type": "uint256"
        }
      ],
      "stateMutability": "view",
      "type": "function"
    },
    {
      "inputs": [],
      "name": "finalizeEpochs",
      "outputs": [],
      "stateMutability": "nonpayable",
      "type": "function"
    },
    {
      "inputs": [],
      "name": "totalMemberScores",
      "outputs": [
        {
          "internalType": "uint256",
          "name": "eligibleTotal",
          "type": "uint256"
        },
        {
          "internalType": "uint256",
          "name": "nextEpochTotal",
          "type": "uint256"
        }
      ],
      "stateMutability": "view",
      "type": "function"
    }
  ],
  "transactionHash": "0xacd061ee974cac1cc36018c2efab75202691d02d4c6782e646570dab75cf16c0",
  "args": [
    "0xBa3e08b4753E68952031102518379ED2fDADcA30"
  ],
  "solcInputHash": "8e58c773ac3ee1ed7211ad1a42ee44a5",
  "bytecode": "0x60a06040523480156200001157600080fd5b5060405162002b2038038062002b20833981016040819052620000349162000046565b6001600160a01b031660805262000078565b6000602082840312156200005957600080fd5b81516001600160a01b03811681146200007157600080fd5b9392505050565b6080516129f26200012e60003960008181610133015281816101dd0152818161027f015281816103c40152818161045301528181610535015281816105dc015281816106900152818161076c01528181610810015281816108b10152818161098d01528181610a4f01528181610af101528181610bd801528181611016015281816110af01528181611136015281816111d601528181611280015281816116440152818161175801526117fc01526129f26000f3fe608060405234801561001057600080fd5b50600436106100785760003560e01c806317bc7d471461007d5780635763dbd0146100a357806377bb1411146100b65780638a440b00146100d3578063c37f81a3146100e6578063cc323aee146100f9578063dc01f60d1461010c578063fe07bb071461011f575b600080fd5b61009061008b3660046125e9565b610129565b6040519081526020015b60405180910390f35b6100906100b136600461261e565b610399565b6100be61052d565b6040805192835260208301919091520161009a565b6100be6100e136600461261e565b610686565b6100906100f436600461261e565b61073f565b61009061010736600461263b565b610983565b61009061011a36600461261e565b610a47565b610127610bba565b005b60008060006101607f00000000000000000000000000000000000000000000000000000000000000006001600160a01b0316610c5a565b6001600160a01b031663db1d0fd56040518163ffffffff1660e01b81526004016040805180830381865afa15801561019c573d6000803e3d6000fd5b505050506040513d601f19601f820116820180604052508101906101c09190612679565b6001600160801b031691506001600160801b03169150600061020a7f00000000000000000000000000000000000000000000000000000000000000006001600160a01b0316610d4a565b6001600160a01b031663427d7432886040518263ffffffff1660e01b815260040161023591906126ac565b6040805180830381865afa158015610251573d6000803e3d6000fd5b505050506040513d601f19601f8201168201806040525081019061027591906126c0565b91505060006102ac7f00000000000000000000000000000000000000000000000000000000000000006001600160a01b0316610df9565b6001600160a01b031663427d7432896040518263ffffffff1660e01b81526004016102d791906126ac565b6040805180830381865afa1580156102f3573d6000803e3d6000fd5b505050506040513d601f19601f8201168201806040525081019061031791906126c0565b9150829050600088121561033f5761032e886126fa565b6103389082612716565b905061034c565b6103498882612729565b90505b8160008812156103705761035f886126fa565b6103699082612716565b905061037d565b61037a8882612729565b90505b61038982828888610ea8565b96505050505050505b9392505050565b600060008051602061299d8339815191526103b48133610f93565b6103bd83610ffb565b91506103f17f00000000000000000000000000000000000000000000000000000000000000006001600160a01b0316610c5a565b6001600160a01b0316635aa0c7f8846040518263ffffffff1660e01b815260040161041c91906126ac565b600060405180830381600087803b15801561043657600080fd5b505af115801561044a573d6000803e3d6000fd5b505050506104807f00000000000000000000000000000000000000000000000000000000000000006001600160a01b0316611322565b604051631f8b44f560e11b81526001600160a01b038581166004830152602482018590529190911690633f1689ea90604401600060405180830381600087803b1580156104cc57600080fd5b505af11580156104e0573d6000803e3d6000fd5b50505050826001600160a01b03167ffc30cddea38e2bf4d6ea7d3f9ed3b6ad7f176419f4963bd81318067a4aee73fe8360405161051f91815260200190565b60405180910390a250919050565b6000806105627f00000000000000000000000000000000000000000000000000000000000000006001600160a01b03166113d1565b6001600160a01b0316639017a13c610578611480565b6040518263ffffffff1660e01b815260040161059691815260200190565b602060405180830381865afa1580156105b3573d6000803e3d6000fd5b505050506040513d601f19601f820116820180604052508101906105d7919061273c565b6106097f00000000000000000000000000000000000000000000000000000000000000006001600160a01b03166113d1565b6001600160a01b0316639017a13c61061f611490565b6040518263ffffffff1660e01b815260040161063d91815260200190565b602060405180830381865afa15801561065a573d6000803e3d6000fd5b505050506040513d601f19601f8201168201806040525081019061067e919061273c565b915091509091565b60008060006106bd7f00000000000000000000000000000000000000000000000000000000000000006001600160a01b03166113d1565b6001600160a01b031663a5f2f667856040518263ffffffff1660e01b81526004016106e891906126ac565b60a060405180830381865afa158015610705573d6000803e3d6000fd5b505050506040513d601f19601f820116820180604052508101906107299190612755565b9050806020015181604001519250925050915091565b600060008051602061299d83398151915261075a8133610f93565b61076383610ffb565b506000806107997f00000000000000000000000000000000000000000000000000000000000000006001600160a01b0316610d4a565b6001600160a01b031663427d7432866040518263ffffffff1660e01b81526004016107c491906126ac565b6040805180830381865afa1580156107e0573d6000803e3d6000fd5b505050506040513d601f19601f8201168201806040525081019061080491906126c0565b9150915060008061083d7f00000000000000000000000000000000000000000000000000000000000000006001600160a01b0316610df9565b6001600160a01b031663427d7432886040518263ffffffff1660e01b815260040161086891906126ac565b6040805180830381865afa158015610884573d6000803e3d6000fd5b505050506040513d601f19601f820116820180604052508101906108a891906126c0565b915091506108de7f00000000000000000000000000000000000000000000000000000000000000006001600160a01b03166113d1565b6001600160a01b031663a350ed48886108f78786610983565b6109018786610983565b6040516001600160e01b031960e086901b1681526001600160a01b039093166004840152602483019190915260448201526064016020604051808303816000875af1158015610954573d6000803e3d6000fd5b505050506040513d601f19601f82011682018060405250810190610978919061273c565b979650505050505050565b60008060006109ba7f00000000000000000000000000000000000000000000000000000000000000006001600160a01b0316610c5a565b6001600160a01b031663db1d0fd56040518163ffffffff1660e01b81526004016040805180830381865afa1580156109f6573d6000803e3d6000fd5b505050506040513d601f19601f82011682018060405250810190610a1a9190612679565b6001600160801b031691506001600160801b03169150610a3c85858484610ea8565b925050505b92915050565b600080610a7c7f00000000000000000000000000000000000000000000000000000000000000006001600160a01b0316610c5a565b6001600160a01b031663cafd9ae2846040518263ffffffff1660e01b8152600401610aa791906126ac565b602060405180830381865afa158015610ac4573d6000803e3d6000fd5b505050506040513d601f19601f82011682018060405250810190610ae8919061273c565b90506000610b1e7f00000000000000000000000000000000000000000000000000000000000000006001600160a01b03166113d1565b6001600160a01b031663a5f2f667856040518263ffffffff1660e01b8152600401610b4991906126ac565b60a060405180830381865afa158015610b66573d6000803e3d6000fd5b505050506040513d601f19601f82011682018060405250810190610b8a9190612755565b90506000610ba58260800151836020015184604001516114a5565b9050610bb18184612729565b95945050505050565b60008051602061299d833981519152610bd38133610f93565b610c057f00000000000000000000000000000000000000000000000000000000000000006001600160a01b0316611322565b6001600160a01b031663fe07bb076040518163ffffffff1660e01b8152600401600060405180830381600087803b158015610c3f57600080fd5b505af1158015610c53573d6000803e3d6000fd5b5050505050565b6000816001600160a01b031663f887ea406040518163ffffffff1660e01b8152600401602060405180830381865afa158015610c9a573d6000803e3d6000fd5b505050506040513d601f19601f82011682018060405250810190610cbe91906127dc565b6001600160a01b0316630c0450127f6c71f98d98cb172438a9cc2aa23d11b8445159397ddac7dc3ef2e26fe2f1e9516040518263ffffffff1660e01b8152600401610d0991906127f9565b602060405180830381865afa158015610d26573d6000803e3d6000fd5b505050506040513d601f19601f82011682018060405250810190610a4191906127dc565b6000816001600160a01b031663f887ea406040518163ffffffff1660e01b8152600401602060405180830381865afa158015610d8a573d6000803e3d6000fd5b505050506040513d601f19601f82011682018060405250810190610dae91906127dc565b6001600160a01b0316630c0450127fd868f4dc8c9898a16c7fb1d46b72f8d965b9f6eb2d5e4c8ce3521ff7098494646040518263ffffffff1660e01b8152600401610d0991906127f9565b6000816001600160a01b031663f887ea406040518163ffffffff1660e01b8152600401602060405180830381865afa158015610e39573d6000803e3d6000fd5b505050506040513d601f19601f82011682018060405250810190610e5d91906127dc565b6001600160a01b0316630c0450127f41955c1f8b03d71c758505b280ad2212728a84f70132cc1c4cc456cfcf0266276040518263ffffffff1660e01b8152600401610d0991906127f9565b6000610ebf620f4240670de0b6b3a7640000612824565b610ec99085612838565b935081831115610edb57610edb612857565b841580610ee6575083155b15610ef357506000610f8b565b838503610f01575083610f8b565b838510600081610f1a57610f158688611528565b610f24565b610f248787611528565b90506000610f5f610f3486611590565b610f3d88611590565b610f46856115fe565b610f50919061286d565b610f5a91906128f2565b611609565b90508215610f7b57610f718782611614565b9350505050610f8b565b610f858782611625565b93505050505b949350505050565b6001600160a01b038116610fba5760405163d92e233d60e01b815260040160405180910390fd5b610fc48282611636565b610ff75760405163889a56bb60e01b81523060048201526001600160a01b03821660248201526044015b60405180910390fd5b5050565b60006001611007611480565b6110119190612716565b6110437f00000000000000000000000000000000000000000000000000000000000000006001600160a01b0316611322565b6001600160a01b031663c5a3f9076040518163ffffffff1660e01b8152600401602060405180830381865afa158015611080573d6000803e3d6000fd5b505050506040513d601f19601f820116820180604052508101906110a4919061273c565b101561112f576110dc7f00000000000000000000000000000000000000000000000000000000000000006001600160a01b0316611322565b6001600160a01b031663fe07bb076040518163ffffffff1660e01b8152600401600060405180830381600087803b15801561111657600080fd5b505af115801561112a573d6000803e3d6000fd5b505050505b60006111637f00000000000000000000000000000000000000000000000000000000000000006001600160a01b03166113d1565b6001600160a01b031663a5f2f667846040518263ffffffff1660e01b815260040161118e91906126ac565b60a060405180830381865afa1580156111ab573d6000803e3d6000fd5b505050506040513d601f19601f820116820180604052508101906111cf9190612755565b90506112037f00000000000000000000000000000000000000000000000000000000000000006001600160a01b03166113d1565b6001600160a01b031663a972985e846040518263ffffffff1660e01b815260040161122e91906126ac565b600060405180830381600087803b15801561124857600080fd5b505af115801561125c573d6000803e3d6000fd5b5050505060006112798260800151836020015184604001516114a5565b90506112ad7f00000000000000000000000000000000000000000000000000000000000000006001600160a01b0316610c5a565b6040516355b37afd60e11b81526001600160a01b03868116600483015260248201849052919091169063ab66f5fa906044016020604051808303816000875af11580156112fe573d6000803e3d6000fd5b505050506040513d601f19601f82011682018060405250810190610f8b919061273c565b6000816001600160a01b031663f887ea406040518163ffffffff1660e01b8152600401602060405180830381865afa158015611362573d6000803e3d6000fd5b505050506040513d601f19601f8201168201806040525081019061138691906127dc565b6001600160a01b0316630c0450127f9e14acf7483e54abb417f7f2c0de91a164b71cc6fa1de3303ba7beca61e7d8dc6040518263ffffffff1660e01b8152600401610d0991906127f9565b6000816001600160a01b031663f887ea406040518163ffffffff1660e01b8152600401602060405180830381865afa158015611411573d6000803e3d6000fd5b505050506040513d601f19601f8201168201806040525081019061143591906127dc565b6001600160a01b0316630c0450127f804974c798d018865ee58457d7d984aea13cff9efd730a9228d6201d14c2db466040518263ffffffff1660e01b8152600401610d0991906127f9565b600061148b42611741565b905090565b600061149a611480565b61148b906001612729565b600082156114d3576114b5611480565b8410156114d3576114c68484611750565b6114d09082612729565b90505b81156103925760006114e6856001612729565b90505b6114f1611480565b811015611520576115028184611750565b61150c9083612729565b91508061151881612920565b9150506114e9565b509392505050565b600061153383611590565b61153c83611590565b1215611565576040516360c1ae3960e01b81526004810184905260248101839052604401610fee565b61156e82611590565b6001607f1b61157c85611590565b611586919061286d565b61039291906128f2565b60006001600160ff1b038211156115fa5760405162461bcd60e51b815260206004820152602860248201527f53616665436173743a2076616c756520646f65736e27742066697420696e2061604482015267371034b73a191a9b60c11b6064820152608401610fee565b5090565b6000610a41826118e2565b6000610a4182611ec0565b60006001607f1b8261157c85611590565b6000816001607f1b61157c85611590565b6000816001600160a01b03167f00000000000000000000000000000000000000000000000000000000000000006001600160a01b031663f887ea406040518163ffffffff1660e01b8152600401602060405180830381865afa1580156116a0573d6000803e3d6000fd5b505050506040513d601f19601f820116820180604052508101906116c491906127dc565b6001600160a01b0316630c045012856040518263ffffffff1660e01b81526004016116ef91906127f9565b602060405180830381865afa15801561170c573d6000803e3d6000fd5b505050506040513d601f19601f8201168201806040525081019061173091906127dc565b6001600160a01b0316149392505050565b6000610a4162093a8083612824565b6000806117857f00000000000000000000000000000000000000000000000000000000000000006001600160a01b03166113d1565b6001600160a01b0316639017a13c856040518263ffffffff1660e01b81526004016117b291815260200190565b602060405180830381865afa1580156117cf573d6000803e3d6000fd5b505050506040513d601f19601f820116820180604052508101906117f3919061273c565b905060006118297f00000000000000000000000000000000000000000000000000000000000000006001600160a01b0316611322565b6001600160a01b031663be8b6163866040518263ffffffff1660e01b815260040161185691815260200190565b602060405180830381865afa158015611873573d6000803e3d6000fd5b505050506040513d601f19601f82011682018060405250810190611897919061273c565b9050818411156118ba5760405163107503e960e21b815260040160405180910390fd5b816000036118cd57600092505050610a41565b816118d88286612838565b610a3c9190612824565b60006001607f1b82131561190c57604051633ce23a3d60e11b815260048101839052602401610fee565b60008213611930576040516330ecaa3d60e21b815260048101839052602401610fee565b6001607f1b820361194357506000919050565b640733048c5a821361195d57610a416101ff607c1b6126fa565b60008060006a01c8464f7616476000000085136119ab57611982600160841b85612939565b93506a01c8464f7616476000000061199e6001607f1b8761286d565b6119a891906128f2565b94505b660f1aaddd7742e960341b85136119f2576119ca600160831b85612939565b9350660f1aaddd7742e960341b6119e56001607f1b8761286d565b6119ef91906128f2565b94505b6615fc21041027af603f1b8513611a3957611a11600160821b85612939565b93506615fc21041027af603f1b611a2c6001607f1b8761286d565b611a3691906128f2565b94505b660960aadc109e7b60461b8513611a8057611a58600160811b85612939565b9350660960aadc109e7b60461b611a736001607f1b8761286d565b611a7d91906128f2565b94505b660454aaa8efe073604a1b8513611ac757611a9f600160801b85612939565b9350660454aaa8efe073604a1b611aba6001607f1b8761286d565b611ac491906128f2565b94505b6602f16ac6c59de7604c1b8513611b0e57611ae66001607f1b85612939565b93506602f16ac6c59de7604c1b611b016001607f1b8761286d565b611b0b91906128f2565b94505b6609b4597e37cb05604b1b8513611b5557611b2d6001607e1b85612939565b93506609b4597e37cb05604b1b611b486001607f1b8761286d565b611b5291906128f2565b94505b6618ebef9eac820b604a1b8513611b9c57611b746001607d1b85612939565b93506618ebef9eac820b604a1b611b8f6001607f1b8761286d565b611b9991906128f2565b94505b6f70f5a893b608861e1f58934f97aea57d8513611bef57611bc16001607c1b85612939565b93506f70f5a893b608861e1f58934f97aea57d611be26001607f1b8761286d565b611bec91906128f2565b94505b611bfd6001607f1b86612939565b92508291506001607f1b611c11838061286d565b611c1b91906128f2565b9050600160801b611c2c8482612939565b611c36908461286d565b611c4091906128f2565b611c4a9085612960565b93506001607f1b611c5b828461286d565b611c6591906128f2565b9150600160811b611c86846faaaaaaaaaaaaaaaaaaaaaaaaaaaaaaaa612939565b611c90908461286d565b611c9a91906128f2565b611ca49085612960565b93506001607f1b611cb5828461286d565b611cbf91906128f2565b9150600360801b611ce0846f99999999999999999999999999999999612939565b611cea908461286d565b611cf491906128f2565b611cfe9085612960565b93506001607f1b611d0f828461286d565b611d1991906128f2565b9150600160821b611d3a846f92492492492492492492492492492492612939565b611d44908461286d565b611d4e91906128f2565b611d589085612960565b93506001607f1b611d69828461286d565b611d7391906128f2565b9150600560801b611d94846f8e38e38e38e38e38e38e38e38e38e38e612939565b611d9e908461286d565b611da891906128f2565b611db29085612960565b93506001607f1b611dc3828461286d565b611dcd91906128f2565b9150600360811b611dee846f8ba2e8ba2e8ba2e8ba2e8ba2e8ba2e8b612939565b611df8908461286d565b611e0291906128f2565b611e0c9085612960565b93506001607f1b611e1d828461286d565b611e2791906128f2565b9150600760801b611e48846f89d89d89d89d89d89d89d89d89d89d89612939565b611e52908461286d565b611e5c91906128f2565b611e669085612960565b93506001607f1b611e77828461286d565b611e8191906128f2565b9150600160831b611ea2846f88888888888888888888888888888888612939565b611eac908461286d565b611eb691906128f2565b610bb19085612960565b6000611ed06101ff607c1b6126fa565b821215611edf57506000919050565b81600003611ef257506001607f1b919050565b6000821315611f1757604051631086170d60e01b815260048101839052602401610fee565b600080611f286001607c1b85612988565b91508190506001607f1b611f3c828061286d565b611f4691906128f2565b9050611f5a816710e1b3be415a000061286d565b611f649084612960565b92506001607f1b611f75838361286d565b611f7f91906128f2565b9050611f93816705a0913f6b1e000061286d565b611f9d9084612960565b92506001607f1b611fae838361286d565b611fb891906128f2565b9050611fcc81670168244fdac7800061286d565b611fd69084612960565b92506001607f1b611fe7838361286d565b611ff191906128f2565b905061200481664807432bc1800061286d565b61200e9084612960565b92506001607f1b61201f838361286d565b61202991906128f2565b905061203c81660c0135dca0400061286d565b6120469084612960565b92506001607f1b612057838361286d565b61206191906128f2565b9050612074816601b707b1cdc00061286d565b61207e9084612960565b92506001607f1b61208f838361286d565b61209991906128f2565b90506120ab816536e0f639b80061286d565b6120b59084612960565b92506001607f1b6120c6838361286d565b6120d091906128f2565b90506120e281650618fee9f80061286d565b6120ec9084612960565b92506001607f1b6120fd838361286d565b61210791906128f2565b905061211881649c197dcc0061286d565b6121229084612960565b92506001607f1b612133838361286d565b61213d91906128f2565b905061214e81640e30dce40061286d565b6121589084612960565b92506001607f1b612169838361286d565b61217391906128f2565b90506121848164012ebd130061286d565b61218e9084612960565b92506001607f1b61219f838361286d565b6121a991906128f2565b90506121b9816317499f0061286d565b6121c39084612960565b92506001607f1b6121d4838361286d565b6121de91906128f2565b90506121ee816301a9d48061286d565b6121f89084612960565b92506001607f1b612209838361286d565b61221391906128f2565b905061222281621c638061286d565b61222c9084612960565b92506001607f1b61223d838361286d565b61224791906128f2565b9050612256816201c63861286d565b6122609084612960565b92506001607f1b612271838361286d565b61227b91906128f2565b905061228981611ab861286d565b6122939084612960565b92506001607f1b6122a4838361286d565b6122ae91906128f2565b90506122bc8161017c61286d565b6122c69084612960565b92506001607f1b6122d7838361286d565b6122e191906128f2565b90506122ee81601461286d565b6122f89084612960565b92506001607f1b612309838361286d565b61231391906128f2565b905061232081600161286d565b61232a9084612960565b92506001607f1b826123446721c3677c82b40000866128f2565b61234e9190612960565b6123589190612960565b9250612363846126fa565b9350600160841b8416156123a9577243cbaf42a000812488fc5c220ad7b97bf6e99e61239c6cf1aaddd7742e56d32fb9f997448561286d565b6123a691906128f2565b92505b600160831b8416156123ee577105d27a9f51c31b7c2f8038212a05747799916123e16e0afe10820813d65dfe6a33c07f738f8561286d565b6123eb91906128f2565b92505b600160821b84161561243357701b4c902e273a58678d6d3bfdb93db96d026124266f02582ab704279e8efd15e0265855c47a8561286d565b61243091906128f2565b92505b600160811b841615612478577003b1cc971a9bb5b9867477440d6d15775061246b6f1152aaa3bf81cb9fdb76eae12d0295718561286d565b61247591906128f2565b92505b600160801b8416156124bd5770015bf0a8b1457695355fb8ac404e7a79e36124b06f2f16ac6c59de6f8d5d6f63c1482a7c868561286d565b6124ba91906128f2565b92505b6001607f1b841615612501576fd3094c70f034de4b96ff7d5b6f99fcd86124f46f4da2cbf1be5827f9eb3ad1aa9866ebb38561286d565b6124fe91906128f2565b92505b6001607e1b841615612545576fa45af1e1f40c333b3de1db4dd55f29a76125386f63afbe7ab2082ba1a0ae5e4eb1b479dc8561286d565b61254291906128f2565b92505b6001607d1b841615612589576f910b022db7ae67ce76b441c27035c6a161257c6f70f5a893b608861e1f58934f97aea57d8561286d565b61258691906128f2565b92505b6001607c1b8416156125ca576f88415abbe9a76bead8d00cf112e4d4a86125c06f783eafef1c0a8f3978c7f81824d62ebf8561286d565b610f8b91906128f2565b5050919050565b6001600160a01b03811681146125e657600080fd5b50565b6000806000606084860312156125fe57600080fd5b8335612609816125d1565b95602085013595506040909401359392505050565b60006020828403121561263057600080fd5b8135610392816125d1565b6000806040838503121561264e57600080fd5b50508035926020909101359150565b80516001600160801b038116811461267457600080fd5b919050565b6000806040838503121561268c57600080fd5b6126958361265d565b91506126a36020840161265d565b90509250929050565b6001600160a01b0391909116815260200190565b600080604083850312156126d357600080fd5b505080516020909101519092909150565b634e487b7160e01b600052601160045260246000fd5b6000600160ff1b820161270f5761270f6126e4565b5060000390565b81810381811115610a4157610a416126e4565b80820180821115610a4157610a416126e4565b60006020828403121561274e57600080fd5b5051919050565b600060a0828403121561276757600080fd5b60405160a0810181811067ffffffffffffffff8211171561279857634e487b7160e01b600052604160045260246000fd5b60405282516127a6816125d1565b80825250602083015160208201526040830151604082015260608301516060820152608083015160808201528091505092915050565b6000602082840312156127ee57600080fd5b8151610392816125d1565b6001600160e01b031991909116815260200190565b634e487b7160e01b600052601260045260246000fd5b6000826128335761283361280e565b500490565b6000816000190483118215151615612852576128526126e4565b500290565b634e487b7160e01b600052600160045260246000fd5b60006001600160ff1b0381841382841380821686840486111615612893576128936126e4565b600160ff1b60008712828116878305891216156128b2576128b26126e4565b600087129250878205871284841616156128ce576128ce6126e4565b878505871281841616156128e4576128e46126e4565b505050929093029392505050565b6000826129015761290161280e565b600160ff1b82146000198414161561291b5761291b6126e4565b500590565b600060018201612932576129326126e4565b5060010190565b8181036000831280158383131683831282161715612959576129596126e4565b5092915050565b8082018281126000831280158216821582161715612980576129806126e4565b505092915050565b6000826129975761299761280e565b50079056fe9e45de9588e74df19c5f35dd4ddf9c698e7a3e36b4004fd44cb75621507d7092a2646970667358221220e6cfcbe4bdd7b7de801febae9704ba61ac9ab48b9b11bd05ad11c84b7f341fdd64736f6c63430008100033",
  "devdoc": {
    "events": {
      "RewardsClaimed(address,uint256)": {
        "params": {
          "owner": "the owner claiming rewards",
          "rewards": "amount of fidu claimed"
        }
      }
    },
    "kind": "dev",
    "methods": {
      "calculateMembershipScore(uint256,uint256)": {
        "params": {
          "capital": "Amount of capital in USDC",
          "gfi": "Amount of gfi"
        },
        "returns": {
          "_0": "membership score"
        }
      },
      "claimableRewards(address)": {
        "params": {
          "owner": "address to calculate claimable rewards for"
        },
        "returns": {
          "_0": "the amount of rewards that could be claimed by the owner"
        }
      },
      "collectRewards(address)": {
        "params": {
          "owner": "address to claim rewards for"
        },
        "returns": {
          "rewards": "amount of yield enhancements collected"
        }
      },
      "consumeHoldingsAdjustment(address)": {
        "params": {
          "owner": "address who's holdings changed"
        },
        "returns": {
          "_0": "id of membership position"
        }
      },
      "currentScore(address)": {
        "params": {
          "owner": "address to check the score of"
        },
        "returns": {
          "eligibleScore": "score that is currently eligible for rewards",
          "totalScore": "score that will be elgible for rewards next epoch"
        }
      },
      "estimateMemberScore(address,int256,int256)": {
        "params": {
          "capital": "the change in gfi holdings, denominated in USDC",
          "gfi": "the change in gfi holdings, denominated in GFI",
          "memberAddress": "the member's address"
        },
        "returns": {
          "score": "resulting score for the member given the GFI and capital changes"
        }
      },
      "totalMemberScores()": {
        "returns": {
          "eligibleTotal": "sum of all member scores that are currently eligible",
          "nextEpochTotal": "sum of all member scores that will be eligible next epoch"
        }
      }
    },
    "version": 1
  },
  "userdoc": {
    "errors": {
      "ExpTooLarge(int256)": [
        {
          "notice": "Thrown when exp is given too large of an argument"
        }
      ],
      "LnNonRealResult(int256)": [
        {
          "notice": "Thrown when the natural log would have returned a number outside of "
        }
      ],
      "LnTooLarge(int256)": [
        {
          "notice": "Thrown when the natural log function is given too large of an argument"
        }
      ]
    },
    "events": {
      "RewardsClaimed(address,uint256)": {
        "notice": "Emitted when `owner` claims fidu `rewards`"
      }
    },
    "kind": "user",
    "methods": {
      "calculateMembershipScore(uint256,uint256)": {
        "notice": "Calculate the membership score"
      },
      "claimableRewards(address)": {
        "notice": "Check how many rewards are claimable for the owner. The return  value here is how much would be retrieved by calling `collectRewards`."
      },
      "collectRewards(address)": {
        "notice": "Collect all membership yield enhancements for the owner."
      },
      "consumeHoldingsAdjustment(address)": {
        "notice": "Adjust an `owner`s membership score and position due to the change  in their GFI and Capital holdings"
      },
      "currentScore(address)": {
        "notice": "Get the current score of `owner`"
      },
      "estimateMemberScore(address,int256,int256)": {
        "notice": "Estimate the score for an existing member, given some changes in GFI and capital"
      },
      "finalizeEpochs()": {
        "notice": "Finalize all unfinalized epochs. Causes the reserve splitter to distribute  if there are unfinalized epochs so all possible rewards are distributed."
      },
      "totalMemberScores()": {
        "notice": "Get the sum of all member scores that are currently eligible and that will be eligible next epoch"
      }
    },
    "version": 1
  },
  "storageLayout": {
    "storage": [
      {
        "astId": 663,
        "contract": "contracts/protocol/core/membership/MembershipDirector.sol:MembershipDirector",
        "label": "_initialized",
        "offset": 0,
        "slot": "0",
        "type": "t_bool"
      },
      {
        "astId": 666,
        "contract": "contracts/protocol/core/membership/MembershipDirector.sol:MembershipDirector",
        "label": "_initializing",
        "offset": 1,
        "slot": "0",
        "type": "t_bool"
      }
    ],
    "types": {
      "t_bool": {
        "encoding": "inplace",
        "label": "bool",
        "numberOfBytes": "1"
      }
    }
  }
}