{
  "address": "0x0f306E3f6b2d5ae820d33C284659B29847972d9A",
  "abi": [
    {
      "inputs": [
        {
          "internalType": "address",
          "name": "communityRewards_",
          "type": "address"
        },
        {
          "internalType": "bytes32",
          "name": "merkleRoot_",
          "type": "bytes32"
        }
      ],
      "stateMutability": "nonpayable",
      "type": "constructor"
    },
    {
      "anonymous": false,
      "inputs": [
        {
          "indexed": true,
          "internalType": "uint256",
          "name": "tokenId",
          "type": "uint256"
        },
        {
          "indexed": true,
          "internalType": "uint256",
          "name": "index",
          "type": "uint256"
        },
        {
          "indexed": true,
          "internalType": "address",
          "name": "account",
          "type": "address"
        },
        {
          "indexed": false,
          "internalType": "uint256",
          "name": "amount",
          "type": "uint256"
        },
        {
          "indexed": false,
          "internalType": "uint256",
          "name": "vestingLength",
          "type": "uint256"
        },
        {
          "indexed": false,
          "internalType": "uint256",
          "name": "cliffLength",
          "type": "uint256"
        },
        {
          "indexed": false,
          "internalType": "uint256",
          "name": "vestingInterval",
          "type": "uint256"
        }
      ],
      "name": "GrantAccepted",
      "type": "event"
    },
    {
      "inputs": [
        {
          "internalType": "uint256",
          "name": "index",
          "type": "uint256"
        },
        {
          "internalType": "uint256",
          "name": "amount",
          "type": "uint256"
        },
        {
          "internalType": "uint256",
          "name": "vestingLength",
          "type": "uint256"
        },
        {
          "internalType": "uint256",
          "name": "cliffLength",
          "type": "uint256"
        },
        {
          "internalType": "uint256",
          "name": "vestingInterval",
          "type": "uint256"
        },
        {
          "internalType": "bytes32[]",
          "name": "merkleProof",
          "type": "bytes32[]"
        }
      ],
      "name": "acceptGrant",
      "outputs": [],
      "stateMutability": "nonpayable",
      "type": "function"
    },
    {
      "inputs": [],
      "name": "communityRewards",
      "outputs": [
        {
          "internalType": "address",
          "name": "",
          "type": "address"
        }
      ],
      "stateMutability": "view",
      "type": "function"
    },
    {
      "inputs": [
        {
          "internalType": "uint256",
          "name": "index",
          "type": "uint256"
        }
      ],
      "name": "isGrantAccepted",
      "outputs": [
        {
          "internalType": "bool",
          "name": "",
          "type": "bool"
        }
      ],
      "stateMutability": "view",
      "type": "function"
    },
    {
      "inputs": [],
      "name": "merkleRoot",
      "outputs": [
        {
          "internalType": "bytes32",
          "name": "",
          "type": "bytes32"
        }
      ],
      "stateMutability": "view",
      "type": "function"
    }
  ],
  "transactionHash": "0xe86b2b9d67d8d506d244e92f2ae69c09b901173dcd7339dd1b2a1c396921c68e",
  "args": [
    "0x0Cd73c18C085dEB287257ED2307eC713e9Af3460",
    "0x926446af7200bedeab4755e62ef8d73ac9409bde8e84d5e64a4677690cc9d9c5"
  ],
  "solcInputHash": "ccc98fd8226eea26f3f19fdeeee195a9",
  "bytecode": "0x60c060405234801561001057600080fd5b5060405161064c38038061064c8339818101604052604081101561003357600080fd5b5080516020909101516001600160a01b038216610097576040805162461bcd60e51b815260206004820152601b60248201527f43616e6e6f742075736520746865206e756c6c20616464726573730000000000604482015290519081900360640190fd5b806100e9576040805162461bcd60e51b815260206004820152601c60248201527f496e76616c6964206d65726b6c6520726f6f742070726f766964656400000000604482015290519081900360640190fd5b606082901b6001600160601b03191660805260a08190526001600160a01b0390911690610519610133600039806101775280610290525080610153528061034452506105196000f3fe608060405234801561001057600080fd5b506004361061004c5760003560e01c8063193ce1e4146100515780632eb4a7ab1461007557806338dcb4f01461008f578063f67000d1146100c0575b600080fd5b610059610151565b604080516001600160a01b039092168252519081900360200190f35b61007d610175565b60408051918252519081900360200190f35b6100ac600480360360208110156100a557600080fd5b5035610199565b604080519115158252519081900360200190f35b61014f600480360360c08110156100d657600080fd5b8135916020810135916040820135916060810135916080820135919081019060c0810160a082013564010000000081111561011057600080fd5b82018360208201111561012257600080fd5b8035906020019184602083028401116401000000008311171561014457600080fd5b5090925090506101bf565b005b7f000000000000000000000000000000000000000000000000000000000000000081565b7f000000000000000000000000000000000000000000000000000000000000000081565b6101008104600090815260208190526040902054600160ff9092169190911b9081161490565b6101c887610199565b15610213576040805162461bcd60e51b815260206004820152601660248201527511dc985b9d08185b1c9958591e481858d8d95c1d195960521b604482015290519081900360640190fd5b6040805160208082018a90523360601b8284015260548201899052607482018890526094820187905260b48083018790528351808403909101815260d4830180855281519183019190912060f49286028085018401909552858252936102bb939192879287928392909101908490808284376000920191909152507f000000000000000000000000000000000000000000000000000000000000000092508591506104139050565b6102fc576040805162461bcd60e51b815260206004820152600d60248201526c24b73b30b634b210383937b7b360991b604482015290519081900360640190fd5b610305886104bc565b60408051630633936560e21b81523360048201526024810189905260448101889052606481018790526084810186905290516000916001600160a01b037f000000000000000000000000000000000000000000000000000000000000000016916318ce4d949160a48082019260209290919082900301818787803b15801561038c57600080fd5b505af11580156103a0573d6000803e3d6000fd5b505050506040513d60208110156103b657600080fd5b5051604080518a8152602081018a905280820189905260608101889052905191925033918b9184917f862fb6a8214c1a74401b07287b99c56ae4b4c6070977d74ab79744bb5bac24fa9181900360800190a4505050505050505050565b600081815b85518110156104b157600086828151811061042f57fe5b6020026020010151905080831161047657828160405160200180838152602001828152602001925050506040516020818303038152906040528051906020012092506104a8565b808360405160200180838152602001828152602001925050506040516020818303038152906040528051906020012092505b50600101610418565b509092149392505050565b610100810460009081526020819052604090208054600160ff9093169290921b909117905556fea2646970667358221220bc2179087000f9decb0361cc44302daef3ccb9d27cd4920ec2cf8ec0a5ff142164736f6c634300060c0033",
  "devdoc": {
    "kind": "dev",
    "methods": {},
    "version": 1
  },
  "userdoc": {
    "events": {
      "GrantAccepted(uint256,uint256,address,uint256,uint256,uint256,uint256)": {
        "notice": "This event is triggered whenever a call to #acceptGrant succeeds."
      }
    },
    "kind": "user",
    "methods": {
      "acceptGrant(uint256,uint256,uint256,uint256,uint256,bytes32[])": {
        "notice": "Causes the sender to accept the grant consisting of the given details. Reverts if the inputs (which includes who the sender is) are invalid."
      },
      "communityRewards()": {
        "notice": "Returns the address of the CommunityRewards contract whose grants are distributed by this contract."
      },
      "isGrantAccepted(uint256)": {
        "notice": "Returns true if the index has been marked accepted."
      },
      "merkleRoot()": {
        "notice": "Returns the merkle root of the merkle tree containing grant details available to accept."
      }
    },
    "version": 1
  },
  "storageLayout": {
    "storage": [
      {
        "astId": 29686,
        "contract": "contracts/rewards/MerkleDistributor.sol:MerkleDistributor",
        "label": "acceptedBitMap",
        "offset": 0,
        "slot": "0",
        "type": "t_mapping(t_uint256,t_uint256)"
      }
    ],
    "types": {
      "t_mapping(t_uint256,t_uint256)": {
        "encoding": "mapping",
        "key": "t_uint256",
        "label": "mapping(uint256 => uint256)",
        "numberOfBytes": "32",
        "value": "t_uint256"
      },
      "t_uint256": {
        "encoding": "inplace",
        "label": "uint256",
        "numberOfBytes": "32"
      }
    }
  }
}