{
  "address": "0x38Dd72b21cBB6023b9818060c541D2Ce7D4D107b",
  "abi": [
    {
      "anonymous": false,
      "inputs": [
        {
          "indexed": true,
          "internalType": "address",
          "name": "oldCreditLine",
          "type": "address"
        },
        {
          "indexed": true,
          "internalType": "address",
          "name": "newCreditLine",
          "type": "address"
        }
      ],
      "name": "CreditLineMigrated",
      "type": "event"
    },
    {
      "anonymous": false,
      "inputs": [
        {
          "indexed": true,
          "internalType": "address",
          "name": "owner",
          "type": "address"
        },
        {
          "indexed": true,
          "internalType": "uint256",
          "name": "tranche",
          "type": "uint256"
        },
        {
          "indexed": true,
          "internalType": "uint256",
          "name": "tokenId",
          "type": "uint256"
        },
        {
          "indexed": false,
          "internalType": "uint256",
          "name": "amount",
          "type": "uint256"
        }
      ],
      "name": "DepositMade",
      "type": "event"
    },
    {
      "anonymous": false,
      "inputs": [
        {
          "indexed": true,
          "internalType": "address",
          "name": "borrower",
          "type": "address"
        },
        {
          "indexed": false,
          "internalType": "uint256",
          "name": "amount",
          "type": "uint256"
        }
      ],
      "name": "DrawdownMade",
      "type": "event"
    },
    {
      "anonymous": false,
      "inputs": [
        {
          "indexed": true,
          "internalType": "address",
          "name": "pool",
          "type": "address"
        }
      ],
      "name": "DrawdownsPaused",
      "type": "event"
    },
    {
      "anonymous": false,
      "inputs": [
        {
          "indexed": true,
          "internalType": "address",
          "name": "pool",
          "type": "address"
        }
      ],
      "name": "DrawdownsUnpaused",
      "type": "event"
    },
    {
      "anonymous": false,
      "inputs": [
        {
          "indexed": true,
          "internalType": "address",
          "name": "pool",
          "type": "address"
        }
      ],
      "name": "EmergencyShutdown",
      "type": "event"
    },
    {
      "anonymous": false,
      "inputs": [
        {
          "indexed": false,
          "internalType": "address",
          "name": "account",
          "type": "address"
        }
      ],
      "name": "Paused",
      "type": "event"
    },
    {
      "anonymous": false,
      "inputs": [
        {
          "indexed": true,
          "internalType": "address",
          "name": "payer",
          "type": "address"
        },
        {
          "indexed": true,
          "internalType": "address",
          "name": "pool",
          "type": "address"
        },
        {
          "indexed": false,
          "internalType": "uint256",
          "name": "interestAmount",
          "type": "uint256"
        },
        {
          "indexed": false,
          "internalType": "uint256",
          "name": "principalAmount",
          "type": "uint256"
        },
        {
          "indexed": false,
          "internalType": "uint256",
          "name": "remainingAmount",
          "type": "uint256"
        },
        {
          "indexed": false,
          "internalType": "uint256",
          "name": "reserveAmount",
          "type": "uint256"
        }
      ],
      "name": "PaymentApplied",
      "type": "event"
    },
    {
      "anonymous": false,
      "inputs": [
        {
          "indexed": true,
          "internalType": "address",
          "name": "from",
          "type": "address"
        },
        {
          "indexed": false,
          "internalType": "uint256",
          "name": "amount",
          "type": "uint256"
        }
      ],
      "name": "ReserveFundsCollected",
      "type": "event"
    },
    {
      "anonymous": false,
      "inputs": [
        {
          "indexed": true,
          "internalType": "bytes32",
          "name": "role",
          "type": "bytes32"
        },
        {
          "indexed": true,
          "internalType": "address",
          "name": "account",
          "type": "address"
        },
        {
          "indexed": true,
          "internalType": "address",
          "name": "sender",
          "type": "address"
        }
      ],
      "name": "RoleGranted",
      "type": "event"
    },
    {
      "anonymous": false,
      "inputs": [
        {
          "indexed": true,
          "internalType": "bytes32",
          "name": "role",
          "type": "bytes32"
        },
        {
          "indexed": true,
          "internalType": "address",
          "name": "account",
          "type": "address"
        },
        {
          "indexed": true,
          "internalType": "address",
          "name": "sender",
          "type": "address"
        }
      ],
      "name": "RoleRevoked",
      "type": "event"
    },
    {
      "anonymous": false,
      "inputs": [
        {
          "indexed": true,
          "internalType": "address",
          "name": "pool",
          "type": "address"
        },
        {
          "indexed": true,
          "internalType": "uint256",
          "name": "tranche",
          "type": "uint256"
        },
        {
          "indexed": false,
          "internalType": "uint256",
          "name": "principalSharePrice",
          "type": "uint256"
        },
        {
          "indexed": false,
          "internalType": "int256",
          "name": "principalDelta",
          "type": "int256"
        },
        {
          "indexed": false,
          "internalType": "uint256",
          "name": "interestSharePrice",
          "type": "uint256"
        },
        {
          "indexed": false,
          "internalType": "int256",
          "name": "interestDelta",
          "type": "int256"
        }
      ],
      "name": "SharePriceUpdated",
      "type": "event"
    },
    {
      "anonymous": false,
      "inputs": [
        {
          "indexed": true,
          "internalType": "address",
          "name": "pool",
          "type": "address"
        },
        {
          "indexed": false,
          "internalType": "uint256",
          "name": "sliceId",
          "type": "uint256"
        }
      ],
      "name": "SliceCreated",
      "type": "event"
    },
    {
      "anonymous": false,
      "inputs": [
        {
          "indexed": true,
          "internalType": "address",
          "name": "pool",
          "type": "address"
        },
        {
          "indexed": false,
          "internalType": "uint256",
          "name": "trancheId",
          "type": "uint256"
        },
        {
          "indexed": false,
          "internalType": "uint256",
          "name": "lockedUntil",
          "type": "uint256"
        }
      ],
      "name": "TrancheLocked",
      "type": "event"
    },
    {
      "anonymous": false,
      "inputs": [
        {
          "indexed": true,
          "internalType": "address",
          "name": "pool",
          "type": "address"
        }
      ],
      "name": "TranchedPoolAssessed",
      "type": "event"
    },
    {
      "anonymous": false,
      "inputs": [
        {
          "indexed": false,
          "internalType": "address",
          "name": "account",
          "type": "address"
        }
      ],
      "name": "Unpaused",
      "type": "event"
    },
    {
      "anonymous": false,
      "inputs": [
        {
          "indexed": true,
          "internalType": "address",
          "name": "owner",
          "type": "address"
        },
        {
          "indexed": true,
          "internalType": "uint256",
          "name": "tranche",
          "type": "uint256"
        },
        {
          "indexed": true,
          "internalType": "uint256",
          "name": "tokenId",
          "type": "uint256"
        },
        {
          "indexed": false,
          "internalType": "uint256",
          "name": "interestWithdrawn",
          "type": "uint256"
        },
        {
          "indexed": false,
          "internalType": "uint256",
          "name": "principalWithdrawn",
          "type": "uint256"
        }
      ],
      "name": "WithdrawalMade",
      "type": "event"
    },
    {
      "inputs": [],
      "name": "DEFAULT_ADMIN_ROLE",
      "outputs": [
        {
          "internalType": "bytes32",
          "name": "",
          "type": "bytes32"
        }
      ],
      "stateMutability": "view",
      "type": "function"
    },
    {
      "inputs": [],
      "name": "FP_SCALING_FACTOR",
      "outputs": [
        {
          "internalType": "uint256",
          "name": "",
          "type": "uint256"
        }
      ],
      "stateMutability": "view",
      "type": "function"
    },
    {
      "inputs": [],
      "name": "LOCKER_ROLE",
      "outputs": [
        {
          "internalType": "bytes32",
          "name": "",
          "type": "bytes32"
        }
      ],
      "stateMutability": "view",
      "type": "function"
    },
    {
      "inputs": [],
      "name": "NUM_TRANCHES_PER_SLICE",
      "outputs": [
        {
          "internalType": "uint256",
          "name": "",
          "type": "uint256"
        }
      ],
      "stateMutability": "view",
      "type": "function"
    },
    {
      "inputs": [],
      "name": "ONE_HUNDRED",
      "outputs": [
        {
          "internalType": "uint256",
          "name": "",
          "type": "uint256"
        }
      ],
      "stateMutability": "view",
      "type": "function"
    },
    {
      "inputs": [],
      "name": "OWNER_ROLE",
      "outputs": [
        {
          "internalType": "bytes32",
          "name": "",
          "type": "bytes32"
        }
      ],
      "stateMutability": "view",
      "type": "function"
    },
    {
      "inputs": [],
      "name": "PAUSER_ROLE",
      "outputs": [
        {
          "internalType": "bytes32",
          "name": "",
          "type": "bytes32"
        }
      ],
      "stateMutability": "view",
      "type": "function"
    },
    {
      "inputs": [],
      "name": "SECONDS_PER_DAY",
      "outputs": [
        {
          "internalType": "uint256",
          "name": "",
          "type": "uint256"
        }
      ],
      "stateMutability": "view",
      "type": "function"
    },
    {
      "inputs": [],
      "name": "SENIOR_ROLE",
      "outputs": [
        {
          "internalType": "bytes32",
          "name": "",
          "type": "bytes32"
        }
      ],
      "stateMutability": "view",
      "type": "function"
    },
    {
      "inputs": [
        {
          "internalType": "address",
          "name": "owner",
          "type": "address"
        }
      ],
      "name": "__BaseUpgradeablePausable__init",
      "outputs": [],
      "stateMutability": "nonpayable",
      "type": "function"
    },
    {
      "inputs": [],
      "name": "__PauserPausable__init",
      "outputs": [],
      "stateMutability": "nonpayable",
      "type": "function"
    },
    {
      "inputs": [
        {
          "internalType": "uint256",
          "name": "",
          "type": "uint256"
        }
      ],
      "name": "allowedUIDTypes",
      "outputs": [
        {
          "internalType": "uint256",
          "name": "",
          "type": "uint256"
        }
      ],
      "stateMutability": "view",
      "type": "function"
    },
    {
      "inputs": [],
      "name": "assess",
      "outputs": [],
      "stateMutability": "nonpayable",
      "type": "function"
    },
    {
      "inputs": [
        {
          "internalType": "uint256",
          "name": "tokenId",
          "type": "uint256"
        }
      ],
      "name": "availableToWithdraw",
      "outputs": [
        {
          "internalType": "uint256",
          "name": "interestRedeemable",
          "type": "uint256"
        },
        {
          "internalType": "uint256",
          "name": "principalRedeemable",
          "type": "uint256"
        }
      ],
      "stateMutability": "view",
      "type": "function"
    },
    {
      "inputs": [],
      "name": "config",
      "outputs": [
        {
          "internalType": "contract GoldfinchConfig",
          "name": "",
          "type": "address"
        }
      ],
      "stateMutability": "view",
      "type": "function"
    },
    {
      "inputs": [],
      "name": "createdAt",
      "outputs": [
        {
          "internalType": "uint256",
          "name": "",
          "type": "uint256"
        }
      ],
      "stateMutability": "view",
      "type": "function"
    },
    {
      "inputs": [],
      "name": "creditLine",
      "outputs": [
        {
          "internalType": "contract IV2CreditLine",
          "name": "",
          "type": "address"
        }
      ],
      "stateMutability": "view",
      "type": "function"
    },
    {
      "inputs": [
        {
          "internalType": "uint256",
          "name": "tranche",
          "type": "uint256"
        },
        {
          "internalType": "uint256",
          "name": "amount",
          "type": "uint256"
        }
      ],
      "name": "deposit",
      "outputs": [
        {
          "internalType": "uint256",
          "name": "tokenId",
          "type": "uint256"
        }
      ],
      "stateMutability": "nonpayable",
      "type": "function"
    },
    {
      "inputs": [
        {
          "internalType": "uint256",
          "name": "tranche",
          "type": "uint256"
        },
        {
          "internalType": "uint256",
          "name": "amount",
          "type": "uint256"
        },
        {
          "internalType": "uint256",
          "name": "deadline",
          "type": "uint256"
        },
        {
          "internalType": "uint8",
          "name": "v",
          "type": "uint8"
        },
        {
          "internalType": "bytes32",
          "name": "r",
          "type": "bytes32"
        },
        {
          "internalType": "bytes32",
          "name": "s",
          "type": "bytes32"
        }
      ],
      "name": "depositWithPermit",
      "outputs": [
        {
          "internalType": "uint256",
          "name": "tokenId",
          "type": "uint256"
        }
      ],
      "stateMutability": "nonpayable",
      "type": "function"
    },
    {
      "inputs": [
        {
          "internalType": "uint256",
          "name": "amount",
          "type": "uint256"
        }
      ],
      "name": "drawdown",
      "outputs": [],
      "stateMutability": "nonpayable",
      "type": "function"
    },
    {
      "inputs": [],
      "name": "drawdownsPaused",
      "outputs": [
        {
          "internalType": "bool",
          "name": "",
          "type": "bool"
        }
      ],
      "stateMutability": "view",
      "type": "function"
    },
    {
      "inputs": [],
      "name": "emergencyShutdown",
      "outputs": [],
      "stateMutability": "nonpayable",
      "type": "function"
    },
    {
      "inputs": [],
      "name": "fundableAt",
      "outputs": [
        {
          "internalType": "uint256",
          "name": "",
          "type": "uint256"
        }
      ],
      "stateMutability": "view",
      "type": "function"
    },
    {
      "inputs": [],
      "name": "getAllowedUIDTypes",
      "outputs": [
        {
          "internalType": "uint256[]",
          "name": "",
          "type": "uint256[]"
        }
      ],
      "stateMutability": "view",
      "type": "function"
    },
    {
      "inputs": [
        {
          "internalType": "bytes32",
          "name": "role",
          "type": "bytes32"
        }
      ],
      "name": "getRoleAdmin",
      "outputs": [
        {
          "internalType": "bytes32",
          "name": "",
          "type": "bytes32"
        }
      ],
      "stateMutability": "view",
      "type": "function"
    },
    {
      "inputs": [
        {
          "internalType": "bytes32",
          "name": "role",
          "type": "bytes32"
        },
        {
          "internalType": "uint256",
          "name": "index",
          "type": "uint256"
        }
      ],
      "name": "getRoleMember",
      "outputs": [
        {
          "internalType": "address",
          "name": "",
          "type": "address"
        }
      ],
      "stateMutability": "view",
      "type": "function"
    },
    {
      "inputs": [
        {
          "internalType": "bytes32",
          "name": "role",
          "type": "bytes32"
        }
      ],
      "name": "getRoleMemberCount",
      "outputs": [
        {
          "internalType": "uint256",
          "name": "",
          "type": "uint256"
        }
      ],
      "stateMutability": "view",
      "type": "function"
    },
    {
      "inputs": [
        {
          "internalType": "uint256",
          "name": "tranche",
          "type": "uint256"
        }
      ],
      "name": "getTranche",
      "outputs": [
        {
          "components": [
            {
              "internalType": "uint256",
              "name": "id",
              "type": "uint256"
            },
            {
              "internalType": "uint256",
              "name": "principalDeposited",
              "type": "uint256"
            },
            {
              "internalType": "uint256",
              "name": "principalSharePrice",
              "type": "uint256"
            },
            {
              "internalType": "uint256",
              "name": "interestSharePrice",
              "type": "uint256"
            },
            {
              "internalType": "uint256",
              "name": "lockedUntil",
              "type": "uint256"
            }
          ],
          "internalType": "struct ITranchedPool.TrancheInfo",
          "name": "",
          "type": "tuple"
        }
      ],
      "stateMutability": "view",
      "type": "function"
    },
    {
      "inputs": [
        {
          "internalType": "bytes32",
          "name": "role",
          "type": "bytes32"
        },
        {
          "internalType": "address",
          "name": "account",
          "type": "address"
        }
      ],
      "name": "grantRole",
      "outputs": [],
      "stateMutability": "nonpayable",
      "type": "function"
    },
    {
      "inputs": [
        {
          "internalType": "address",
          "name": "sender",
          "type": "address"
        }
      ],
      "name": "hasAllowedUID",
      "outputs": [
        {
          "internalType": "bool",
          "name": "",
          "type": "bool"
        }
      ],
      "stateMutability": "view",
      "type": "function"
    },
    {
      "inputs": [
        {
          "internalType": "bytes32",
          "name": "role",
          "type": "bytes32"
        },
        {
          "internalType": "address",
          "name": "account",
          "type": "address"
        }
      ],
      "name": "hasRole",
      "outputs": [
        {
          "internalType": "bool",
          "name": "",
          "type": "bool"
        }
      ],
      "stateMutability": "view",
      "type": "function"
    },
    {
      "inputs": [
        {
          "internalType": "address",
          "name": "_config",
          "type": "address"
        },
        {
          "internalType": "address",
          "name": "_borrower",
          "type": "address"
        },
        {
          "internalType": "uint256",
          "name": "_juniorFeePercent",
          "type": "uint256"
        },
        {
          "internalType": "uint256",
          "name": "_limit",
          "type": "uint256"
        },
        {
          "internalType": "uint256",
          "name": "_interestApr",
          "type": "uint256"
        },
        {
          "internalType": "uint256",
          "name": "_paymentPeriodInDays",
          "type": "uint256"
        },
        {
          "internalType": "uint256",
          "name": "_termInDays",
          "type": "uint256"
        },
        {
          "internalType": "uint256",
          "name": "_lateFeeApr",
          "type": "uint256"
        },
        {
          "internalType": "uint256",
          "name": "_principalGracePeriodInDays",
          "type": "uint256"
        },
        {
          "internalType": "uint256",
          "name": "_fundableAt",
          "type": "uint256"
        },
        {
          "internalType": "uint256[]",
          "name": "_allowedUIDTypes",
          "type": "uint256[]"
        }
      ],
      "name": "initialize",
      "outputs": [],
      "stateMutability": "nonpayable",
      "type": "function"
    },
    {
      "inputs": [
        {
          "internalType": "uint256",
          "name": "_fundableAt",
          "type": "uint256"
        }
      ],
      "name": "initializeNextSlice",
      "outputs": [],
      "stateMutability": "nonpayable",
      "type": "function"
    },
    {
      "inputs": [],
      "name": "isAdmin",
      "outputs": [
        {
          "internalType": "bool",
          "name": "",
          "type": "bool"
        }
      ],
      "stateMutability": "view",
      "type": "function"
    },
    {
      "inputs": [],
      "name": "juniorFeePercent",
      "outputs": [
        {
          "internalType": "uint256",
          "name": "",
          "type": "uint256"
        }
      ],
      "stateMutability": "view",
      "type": "function"
    },
    {
      "inputs": [],
      "name": "lockJuniorCapital",
      "outputs": [],
      "stateMutability": "nonpayable",
      "type": "function"
    },
    {
      "inputs": [],
      "name": "lockPool",
      "outputs": [],
      "stateMutability": "nonpayable",
      "type": "function"
    },
    {
      "inputs": [
        {
          "internalType": "address",
          "name": "newCl",
          "type": "address"
        }
      ],
      "name": "migrateAndSetNewCreditLine",
      "outputs": [],
      "stateMutability": "nonpayable",
      "type": "function"
    },
    {
      "inputs": [
        {
          "internalType": "address",
          "name": "_borrower",
          "type": "address"
        },
        {
          "internalType": "uint256",
          "name": "_maxLimit",
          "type": "uint256"
        },
        {
          "internalType": "uint256",
          "name": "_interestApr",
          "type": "uint256"
        },
        {
          "internalType": "uint256",
          "name": "_paymentPeriodInDays",
          "type": "uint256"
        },
        {
          "internalType": "uint256",
          "name": "_termInDays",
          "type": "uint256"
        },
        {
          "internalType": "uint256",
          "name": "_lateFeeApr",
          "type": "uint256"
        },
        {
          "internalType": "uint256",
          "name": "_principalGracePeriodInDays",
          "type": "uint256"
        }
      ],
      "name": "migrateCreditLine",
      "outputs": [],
      "stateMutability": "nonpayable",
      "type": "function"
    },
    {
      "inputs": [],
      "name": "numSlices",
      "outputs": [
        {
          "internalType": "uint256",
          "name": "",
          "type": "uint256"
        }
      ],
      "stateMutability": "view",
      "type": "function"
    },
    {
      "inputs": [],
      "name": "pause",
      "outputs": [],
      "stateMutability": "nonpayable",
      "type": "function"
    },
    {
      "inputs": [],
      "name": "pauseDrawdowns",
      "outputs": [],
      "stateMutability": "nonpayable",
      "type": "function"
    },
    {
      "inputs": [],
      "name": "paused",
      "outputs": [
        {
          "internalType": "bool",
          "name": "",
          "type": "bool"
        }
      ],
      "stateMutability": "view",
      "type": "function"
    },
    {
      "inputs": [
        {
          "internalType": "uint256",
          "name": "amount",
          "type": "uint256"
        }
      ],
      "name": "pay",
      "outputs": [],
      "stateMutability": "nonpayable",
      "type": "function"
    },
    {
      "inputs": [
        {
          "internalType": "uint256",
          "name": "",
          "type": "uint256"
        }
      ],
      "name": "poolSlices",
      "outputs": [
        {
          "components": [
            {
              "internalType": "uint256",
              "name": "id",
              "type": "uint256"
            },
            {
              "internalType": "uint256",
              "name": "principalDeposited",
              "type": "uint256"
            },
            {
              "internalType": "uint256",
              "name": "principalSharePrice",
              "type": "uint256"
            },
            {
              "internalType": "uint256",
              "name": "interestSharePrice",
              "type": "uint256"
            },
            {
              "internalType": "uint256",
              "name": "lockedUntil",
              "type": "uint256"
            }
          ],
          "internalType": "struct ITranchedPool.TrancheInfo",
          "name": "seniorTranche",
          "type": "tuple"
        },
        {
          "components": [
            {
              "internalType": "uint256",
              "name": "id",
              "type": "uint256"
            },
            {
              "internalType": "uint256",
              "name": "principalDeposited",
              "type": "uint256"
            },
            {
              "internalType": "uint256",
              "name": "principalSharePrice",
              "type": "uint256"
            },
            {
              "internalType": "uint256",
              "name": "interestSharePrice",
              "type": "uint256"
            },
            {
              "internalType": "uint256",
              "name": "lockedUntil",
              "type": "uint256"
            }
          ],
          "internalType": "struct ITranchedPool.TrancheInfo",
          "name": "juniorTranche",
          "type": "tuple"
        },
        {
          "internalType": "uint256",
          "name": "totalInterestAccrued",
          "type": "uint256"
        },
        {
          "internalType": "uint256",
          "name": "principalDeployed",
          "type": "uint256"
        }
      ],
      "stateMutability": "view",
      "type": "function"
    },
    {
      "inputs": [
        {
          "internalType": "bytes32",
          "name": "role",
          "type": "bytes32"
        },
        {
          "internalType": "address",
          "name": "account",
          "type": "address"
        }
      ],
      "name": "renounceRole",
      "outputs": [],
      "stateMutability": "nonpayable",
      "type": "function"
    },
    {
      "inputs": [
        {
          "internalType": "bytes32",
          "name": "role",
          "type": "bytes32"
        },
        {
          "internalType": "address",
          "name": "account",
          "type": "address"
        }
      ],
      "name": "revokeRole",
      "outputs": [],
      "stateMutability": "nonpayable",
      "type": "function"
    },
    {
      "inputs": [
        {
          "internalType": "uint256[]",
          "name": "ids",
          "type": "uint256[]"
        }
      ],
      "name": "setAllowedUIDTypes",
      "outputs": [],
      "stateMutability": "nonpayable",
      "type": "function"
    },
    {
      "inputs": [
        {
          "internalType": "uint256",
          "name": "newFundableAt",
          "type": "uint256"
        }
      ],
      "name": "setFundableAt",
      "outputs": [],
      "stateMutability": "nonpayable",
      "type": "function"
    },
    {
      "inputs": [
        {
          "internalType": "uint256",
          "name": "newAmount",
          "type": "uint256"
        }
      ],
      "name": "setLimit",
      "outputs": [],
      "stateMutability": "nonpayable",
      "type": "function"
    },
    {
      "inputs": [
        {
          "internalType": "uint256",
          "name": "newAmount",
          "type": "uint256"
        }
      ],
      "name": "setMaxLimit",
      "outputs": [],
      "stateMutability": "nonpayable",
      "type": "function"
    },
    {
      "inputs": [
        {
          "internalType": "uint256",
          "name": "sharePrice",
          "type": "uint256"
        },
        {
          "internalType": "uint256",
          "name": "totalShares",
          "type": "uint256"
        }
      ],
      "name": "sharePriceToUsdc",
      "outputs": [
        {
          "internalType": "uint256",
          "name": "",
          "type": "uint256"
        }
      ],
      "stateMutability": "pure",
      "type": "function"
    },
    {
      "inputs": [],
      "name": "totalDeployed",
      "outputs": [
        {
          "internalType": "uint256",
          "name": "",
          "type": "uint256"
        }
      ],
      "stateMutability": "view",
      "type": "function"
    },
    {
      "inputs": [],
      "name": "totalJuniorDeposits",
      "outputs": [
        {
          "internalType": "uint256",
          "name": "",
          "type": "uint256"
        }
      ],
      "stateMutability": "view",
      "type": "function"
    },
    {
      "inputs": [],
      "name": "unpause",
      "outputs": [],
      "stateMutability": "nonpayable",
      "type": "function"
    },
    {
      "inputs": [],
      "name": "unpauseDrawdowns",
      "outputs": [],
      "stateMutability": "nonpayable",
      "type": "function"
    },
    {
      "inputs": [
        {
          "internalType": "uint256",
          "name": "amount",
          "type": "uint256"
        },
        {
          "internalType": "uint256",
          "name": "totalShares",
          "type": "uint256"
        }
      ],
      "name": "usdcToSharePrice",
      "outputs": [
        {
          "internalType": "uint256",
          "name": "",
          "type": "uint256"
        }
      ],
      "stateMutability": "pure",
      "type": "function"
    },
    {
      "inputs": [
        {
          "internalType": "uint256",
          "name": "tokenId",
          "type": "uint256"
        },
        {
          "internalType": "uint256",
          "name": "amount",
          "type": "uint256"
        }
      ],
      "name": "withdraw",
      "outputs": [
        {
          "internalType": "uint256",
          "name": "interestWithdrawn",
          "type": "uint256"
        },
        {
          "internalType": "uint256",
          "name": "principalWithdrawn",
          "type": "uint256"
        }
      ],
      "stateMutability": "nonpayable",
      "type": "function"
    },
    {
      "inputs": [
        {
          "internalType": "uint256",
          "name": "tokenId",
          "type": "uint256"
        }
      ],
      "name": "withdrawMax",
      "outputs": [
        {
          "internalType": "uint256",
          "name": "interestWithdrawn",
          "type": "uint256"
        },
        {
          "internalType": "uint256",
          "name": "principalWithdrawn",
          "type": "uint256"
        }
      ],
      "stateMutability": "nonpayable",
      "type": "function"
    },
    {
      "inputs": [
        {
          "internalType": "uint256[]",
          "name": "tokenIds",
          "type": "uint256[]"
        },
        {
          "internalType": "uint256[]",
          "name": "amounts",
          "type": "uint256[]"
        }
      ],
      "name": "withdrawMultiple",
      "outputs": [],
      "stateMutability": "nonpayable",
      "type": "function"
    }
  ],
  "transactionHash": "0x32d22679b4984595f9dac28f1ef5b44f27acd95e5f3d7f431fb841d820a78a9a",
  "args": [],
  "solcInputHash": "47172467ab6b6b7e17a87f5c74a51675",
  "bytecode": "0x608060405234801561001057600080fd5b50615fb880620000216000396000f3fe608060405234801561001057600080fd5b50600436106103245760003560e01c80639010d07c116101a9578063c290d691116100ef578063d972e8ad1161009d578063d972e8ad14610644578063dd0ec24114610664578063e2a657f91461066c578063e2bbb1581461067f578063e58378bb14610692578063e63ab1e91461069a578063f3621367146106a2578063f94f5a12146106aa57610324565b8063c290d691146105d3578063c77d5698146105e6578063c78bed86146105ee578063ca15c87314610603578063cde8884514610616578063cf09e0d014610629578063d547741f1461063157610324565b8063a8f9c4fe11610157578063a8f9c4fe14610567578063aa2a7c4c1461056f578063ae6c857a14610582578063b6db75a014610595578063b9317d861461059d578063bf6c87c7146105b0578063bf8bcee4146105b8578063bfaa8cca146105cb57610324565b80639010d07c146104f857806391d148541461050b5780639d1105301461051e578063a079a4dd14610531578063a217fddf14610544578063a6a25e881461054c578063a8deac0e1461055457610324565b806344c08f231161026e5780635eb185a21161021c5780635eb185a21461049257806368dcfdc01461049a57806374f0314f146104a257806378bcd604146104aa57806379502c55146104bd5780637976323d146104c557806380b65431146104cd5780638456cb59146104f057610324565b806344c08f231461042c57806347195e13146104345780634d02fe6f14610449578063515bc3231461045c578063526d81f61461046f57806356ce1560146104775780635c975abb1461048a57610324565b806327ea6f2b116102d657806327ea6f2b146103b25780632ae754be146103c55780632f2ff15d146103cd5780633403c2fc146103e057806336568abe146103e85780633f4ba83a146103fb5780634026478e14610403578063441a3e701461040b57610324565b80630174b449146103295780630881806c14610352578063097616a31461035c5780630cfb14b01461036f57806317f76941146103775780631fe032be1461038c578063248a9ca31461039f575b600080fd5b61033c610337366004614ff2565b6106bd565b60405161034991906153ca565b60405180910390f35b61035a610752565b005b61035a61036a366004614d96565b6107cc565b61033c6108fc565b61037f610903565b60405161034991906153bf565b61035a61039a366004614e8e565b61090d565b61033c6103ad366004614fab565b610ccf565b61035a6103c0366004614fab565b610ce4565b61033c610d6f565b61035a6103db366004614fc3565b610d81565b61035a610dc5565b61035a6103f6366004614fc3565b610f9c565b61035a610fde565b61035a61101c565b61041e610419366004614ff2565b61107b565b604051610349929190615e82565b61033c6111a3565b61043c6111a8565b60405161034991906151ba565b61041e610457366004614fab565b6111b8565b61033c61046a366004615105565b61129e565b61035a611335565b61035a610485366004614d96565b6113bf565b61037f61160d565b61033c611616565b61033c61161d565b61033c611629565b61035a6104b8366004614fab565b611630565b61043c611846565b61033c611856565b6104e06104db366004614fab565b61185d565b6040516103499493929190615de6565b61035a611913565b61043c610506366004614ff2565b611951565b61037f610519366004614fc3565b611969565b61035a61052c366004614f22565b611981565b61035a61053f366004614fab565b6119e3565b61033c611f61565b61035a611f66565b61035a610562366004614dce565b611f91565b61035a612330565b61041e61057d366004614fab565b61238f565b61035a610590366004614fab565b6124d8565b61037f612512565b61035a6105ab366004614ee2565b612533565b61035a6125eb565b61035a6105c6366004614fab565b612647565b61033c61269c565b61035a6105e1366004614fab565b6126a1565b61033c6126f5565b6105f66126fc565b604051610349919061537b565b61033c610611366004614fab565b612755565b61033c610624366004614ff2565b61276c565b61033c6127a8565b61035a61063f366004614fc3565b6127af565b610657610652366004614fab565b6127e9565b6040516103499190615dd8565b61033c612839565b61033c61067a366004614fab565b612886565b61033c61068d366004614ff2565b6128a5565b61033c612b18565b61033c612b2a565b61033c612b3c565b61037f6106b8366004614d96565b612b4e565b604051630174b44960e01b8152600090739BCE1F08012DD6e72756Cd015E50068f90963D2290630174b449906106f99086908690600401615e82565b60206040518083038186803b15801561071157600080fd5b505af4158015610725573d6000803e3d6000fd5b505050506040513d601f19601f8201168201806040525081019061074991906150c0565b90505b92915050565b61076a600080516020615f6383398151915233611969565b61078f5760405162461bcd60e51b815260040161078690615a12565b60405180910390fd5b60975460ff16156107b25760405162461bcd60e51b8152600401610786906158fa565b6101cb546107ca906107c5906001612be6565b612c28565b565b600054610100900460ff16806107e557506107e5612d30565b806107f3575060005460ff16155b61080f5760405162461bcd60e51b815260040161078690615a82565b600054610100900460ff1615801561083a576000805460ff1961ff0019909116610100171660011790555b6001600160a01b0382166108605760405162461bcd60e51b815260040161078690615980565b610868612d36565b610870612db7565b610878612e43565b610890600080516020615ee383398151915283610dbb565b6108a8600080516020615f2383398151915283610dbb565b6108ce600080516020615f23833981519152600080516020615ee3833981519152612ed2565b6108e6600080516020615ee383398151915280612ed2565b80156108f8576000805461ff00191690555b5050565b6101c95481565b6101c75460ff1681565b610915612512565b6109315760405162461bcd60e51b815260040161078690615ce2565b6001600160a01b0387166109575760405162461bcd60e51b8152600401610786906157ee565b836109745760405162461bcd60e51b815260040161078690615924565b826109915760405162461bcd60e51b815260040161078690615bbe565b6101c3546001600160a01b03166109ad88888888888888612ee7565b6101c3546040516001623df69160e21b031981526001600160a01b0390911690739BCE1F08012DD6e72756Cd015E50068f90963D229063ff0825bc906109f99085908590600401615228565b60006040518083038186803b158015610a1157600080fd5b505af4158015610a25573d6000803e3d6000fd5b50506040516302a7e68560e21b8152739BCE1F08012DD6e72756Cd015E50068f90963D229250630a9f9a149150610a609085906004016151ba565b60006040518083038186803b158015610a7857600080fd5b505af4158015610a8c573d6000803e3d6000fd5b505050506000826001600160a01b0316637df1f1b96040518163ffffffff1660e01b815260040160206040518083038186803b158015610acb57600080fd5b505afa158015610adf573d6000803e3d6000fd5b505050506040513d601f19601f82011682018060405250810190610b039190614db2565b90506000826001600160a01b0316637df1f1b96040518163ffffffff1660e01b815260040160206040518083038186803b158015610b4057600080fd5b505afa158015610b54573d6000803e3d6000fd5b505050506040513d601f19601f82011682018060405250810190610b789190614db2565b9050806001600160a01b0316826001600160a01b031614610bc357610bab600080516020615f63833981519152836127af565b610bc3600080516020615f6383398151915282610d81565b6101c554600090610bdc906001600160a01b031661300c565b6001600160a01b03166370a08231866040518263ffffffff1660e01b8152600401610c0791906151ba565b60206040518083038186803b158015610c1f57600080fd5b505afa158015610c33573d6000803e3d6000fd5b505050506040513d601f19601f82011682018060405250810190610c5791906150c0565b90508015610c81576101c554610c8190610c79906001600160a01b031661300c565b868684613017565b836001600160a01b0316856001600160a01b03167f987cdba0cba67c68d2c8aba6a4ba6545565eccfb3e2e5ff39579ffd94acaf9bb60405160405180910390a3505050505050505050505050565b60009081526065602052604090206002015490565b610cec612512565b610d085760405162461bcd60e51b815260040161078690615ce2565b6101c3546040516327ea6f2b60e01b81526001600160a01b03909116906327ea6f2b90610d399084906004016153ca565b600060405180830381600087803b158015610d5357600080fd5b505af1158015610d67573d6000803e3d6000fd5b505050505b50565b600080516020615f4383398151915281565b600082815260656020526040902060020154610d9f90610519613053565b610dbb5760405162461bcd60e51b815260040161078690615468565b6108f88282613057565b610dcd612512565b610de95760405162461bcd60e51b815260040161078690615ce2565b610df161160d565b610dfd57610dfd611913565b6101c554600090610e16906001600160a01b031661300c565b6101c554909150600090610e32906001600160a01b03166130c0565b90506000826001600160a01b03166370a08231306040518263ffffffff1660e01b8152600401610e6291906151ba565b60206040518083038186803b158015610e7a57600080fd5b505afa158015610e8e573d6000803e3d6000fd5b505050506040513d601f19601f82011682018060405250810190610eb291906150c0565b90508015610ec557610ec5838383613140565b6101c3546040516370a0823160e01b81526000916001600160a01b03808716926370a0823192610ef99216906004016151ba565b60206040518083038186803b158015610f1157600080fd5b505afa158015610f25573d6000803e3d6000fd5b505050506040513d601f19601f82011682018060405250810190610f4991906150c0565b90508015610f6b576101c354610f6b9085906001600160a01b03168584613017565b60405130907f1fc1e771236d2e93bb9541cdcb4654ba0fd3fb615b48d829b7b365f03998512690600090a250505050565b610fa4613053565b6001600160a01b0316816001600160a01b031614610fd45760405162461bcd60e51b815260040161078690615d64565b6108f8828261317c565b610ff8600080516020615f23833981519152610519613053565b6110145760405162461bcd60e51b815260040161078690615603565b6107ca6131e5565b611034600080516020615f6383398151915233611969565b6110505760405162461bcd60e51b815260040161078690615a12565b60975460ff16156110735760405162461bcd60e51b8152600401610786906158fa565b6107ca613251565b60c954600090819060ff166110a25760405162461bcd60e51b815260040161078690615c7f565b60c9805460ff1916905560975460ff16156110cf5760405162461bcd60e51b8152600401610786906158fa565b6110d7614c1a565b6101c5546110ed906001600160a01b0316613605565b6001600160a01b0316638c7a63ae866040518263ffffffff1660e01b815260040161111891906153ca565b60a06040518083038186803b15801561113057600080fd5b505afa158015611144573d6000803e3d6000fd5b505050506040513d601f19601f820116820180604052508101906111689190615064565b905060006111798260200151613610565b9050611187818388886136c0565b93509350505060c9805460ff1916600117905590939092509050565b600281565b6101c3546001600160a01b031681565b6000806111c3614c1a565b6101c5546111d9906001600160a01b0316613605565b6001600160a01b0316638c7a63ae856040518263ffffffff1660e01b815260040161120491906153ca565b60a06040518083038186803b15801561121c57600080fd5b505afa158015611230573d6000803e3d6000fd5b505050506040513d601f19601f820116820180604052508101906112549190615064565b905060006112658260200151613610565b905080600401546112746139dd565b111561128f5761128481836139e1565b935093505050611299565b6000809350935050505b915091565b6101c5546000906112b7906001600160a01b0316613a4c565b6001600160a01b031663d505accf333089898989896040518863ffffffff1660e01b81526004016112ee97969594939291906151ce565b600060405180830381600087803b15801561130857600080fd5b505af115801561131c573d6000803e3d6000fd5b5050505061132a87876128a5565b979650505050505050565b600054610100900460ff168061134e575061134e612d30565b8061135c575060005460ff16155b6113785760405162461bcd60e51b815260040161078690615a82565b600054610100900460ff161580156113a3576000805460ff1961ff0019909116610100171660011790555b6113ab612db7565b8015610d6c576000805461ff001916905550565b6113c7612512565b6113e35760405162461bcd60e51b815260040161078690615ce2565b6001600160a01b0381166114095760405162461bcd60e51b81526004016107869061564f565b6101c3546101c5546001600160a01b039182169160009161142a911661300c565b6001600160a01b03166370a08231836040518263ffffffff1660e01b815260040161145591906151ba565b60206040518083038186803b15801561146d57600080fd5b505afa158015611481573d6000803e3d6000fd5b505050506040513d601f19601f820116820180604052508101906114a591906150c0565b905080156114cf576101c5546114cf906114c7906001600160a01b031661300c565b838584613017565b6040516302a7e68560e21b8152739BCE1F08012DD6e72756Cd015E50068f90963D2290630a9f9a14906115069085906004016151ba565b60006040518083038186803b15801561151e57600080fd5b505af4158015611532573d6000803e3d6000fd5b50506101c380546001600160a01b0319166001600160a01b0387811691909117918290556040805163a4d66daf60e01b8152905192909116935063a4d66daf9250600480820192602092909190829003018186803b15801561159357600080fd5b505afa1580156115a7573d6000803e3d6000fd5b505050506040513d601f19601f820116820180604052508101906115cb91906150c0565b506101c3546040516001600160a01b03918216918416907f987cdba0cba67c68d2c8aba6a4ba6545565eccfb3e2e5ff39579ffd94acaf9bb90600090a3505050565b60975460ff1690565b6101ca5481565b670de0b6b3a764000081565b6201518081565b611648600080516020615f6383398151915233611969565b6116645760405162461bcd60e51b815260040161078690615a12565b60975460ff16156116875760405162461bcd60e51b8152600401610786906158fa565b61168f613a64565b6116ab5760405162461bcd60e51b81526004016107869061571c565b6101c360009054906101000a90046001600160a01b03166001600160a01b03166381c17a156040518163ffffffff1660e01b815260040160206040518083038186803b1580156116fa57600080fd5b505afa15801561170e573d6000803e3d6000fd5b505050506040513d601f19601f820116820180604052508101906117329190614f8b565b1561174f5760405162461bcd60e51b815260040161078690615954565b6101c360009054906101000a90046001600160a01b03166001600160a01b031663457147a76040518163ffffffff1660e01b815260040160206040518083038186803b15801561179e57600080fd5b505afa1580156117b2573d6000803e3d6000fd5b505050506040513d601f19601f820116820180604052508101906117d69190614f8b565b6117f25760405162461bcd60e51b8152600401610786906156bd565b6117fb81613a9e565b6101cb5430907f3420dd9c54d6a8846edd2fb39a41c30c31e7bc95b43655dae59f47cc913b60d59061182e906001612be6565b60405161183b91906153ca565b60405180910390a250565b6101c5546001600160a01b031681565b6101cb5490565b6101cb818154811061186b57fe5b90600052602060002090600c0201600091509050806000016040518060a00160405290816000820154815260200160018201548152602001600282015481526020016003820154815260200160048201548152505090806005016040518060a0016040529081600082015481526020016001820154815260200160028201548152602001600382015481526020016004820154815250509080600a01549080600b0154905084565b61192d600080516020615f23833981519152610519613053565b6119495760405162461bcd60e51b815260040161078690615603565b6107ca613c05565b60008281526065602052604081206107499083613c5e565b60008281526065602052604081206107499083613c6a565b8281146119a05760405162461bcd60e51b8152600401610786906157b7565b60005b81811015610d67576119d98585838181106119ba57fe5b905060200201358484848181106119cd57fe5b9050602002013561107b565b50506001016119a3565b6119fb600080516020615f6383398151915233611969565b611a175760405162461bcd60e51b815260040161078690615a12565b60975460ff1615611a3a5760405162461bcd60e51b8152600401610786906158fa565b6101c75460ff1615611a5e5760405162461bcd60e51b8152600401610786906159b5565b611a66613a64565b611a7257611a72613251565b6101cb805460009190611a86906001612be6565b81548110611a9057fe5b90600052602060002090600c020190506000611aba826005016002015483600501600101546106bd565b9050611ade611ad7836000016002015484600001600101546106bd565b8290613c7f565b905080831115611b005760405162461bcd60e51b81526004016107869061556e565b6101c35460405163a079a4dd60e01b81526001600160a01b039091169063a079a4dd90611b319086906004016153ca565b600060405180830381600087803b158015611b4b57600080fd5b505af1158015611b5f573d6000803e3d6000fd5b505050506000611b788483612be690919063ffffffff16565b600784015460028501546040805160a081018252600588015481526006880154602082015280820184905260088801546060820152600988015460808201529051634ec167e960e11b815293945091929091739BCE1F08012DD6e72756Cd015E50068f90963D2291639d82cfd291611bf69187908a90600401615e16565b60206040518083038186803b158015611c0e57600080fd5b505af4158015611c22573d6000803e3d6000fd5b505050506040513d601f19601f82011682018060405250810190611c4691906150c0565b60078601556040805160a08101825286548152600187015460208201526002870154818301526003870154606082015260048088015460808301529151634ec167e960e11b8152739BCE1F08012DD6e72756Cd015E50068f90963D2292639d82cfd292611cb992909188918b9101615e16565b60206040518083038186803b158015611cd157600080fd5b505af4158015611ce5573d6000803e3d6000fd5b505050506040513d601f19601f82011682018060405250810190611d0991906150c0565b6002860155600b850154611d1d9087613c7f565b600b8601556101c954611d309087613c7f565b6101c9556101c35460408051637df1f1b960e01b815290516000926001600160a01b031691637df1f1b9916004808301926020929190829003018186803b158015611d7a57600080fd5b505afa158015611d8e573d6000803e3d6000fd5b505050506040513d601f19601f82011682018060405250810190611db29190614db2565b6101c554909150600090611dce906001600160a01b0316613ca4565b6101cb54909150600090611de3906001612be6565b6040516301c293dd60e71b81529091506001600160a01b0383169063e149ee8090611e129084906004016153ca565b600060405180830381600087803b158015611e2c57600080fd5b505af1158015611e40573d6000803e3d6000fd5b50506101c554611e669250611e5e91506001600160a01b031661300c565b30858c613017565b826001600160a01b03167f7411b87a3c039bdfd8f3510b21e8bd0736265f53513735e1f4aa7b4f306b728d8a604051611e9f91906153ca565b60405180910390a26005880154600789015430907f42a55d7508b1c40b53524cf7cc2558b0f6bc7c4f262a3e929b65cd48bec2b68790611edf8982612be6565b60088d0154604051611ef8939260009081039291615e67565b60405180910390a38754600289015430907f42a55d7508b1c40b53524cf7cc2558b0f6bc7c4f262a3e929b65cd48bec2b68790611f358882612be6565b60038d0154604051611f4e939260009081039291615e67565b60405180910390a3505050505050505050565b600081565b60975460ff1615611f895760405162461bcd60e51b8152600401610786906158fa565b6107ca613cbc565b600054610100900460ff1680611faa5750611faa612d30565b80611fb8575060005460ff16155b611fd45760405162461bcd60e51b815260040161078690615a82565b600054610100900460ff16158015611fff576000805460ff1961ff0019909116610100171660011790555b6001600160a01b038d161580159061201f57506001600160a01b038c1615155b61203b5760405162461bcd60e51b815260040161078690615c1f565b8c6101c560006101000a8154816001600160a01b0302191690836001600160a01b03160217905550600061208d6101c560009054906101000a90046001600160a01b03166001600160a01b0316614300565b90506001600160a01b0381166120b55760405162461bcd60e51b8152600401610786906155dc565b6120be816107cc565b6120c785613a9e565b6120d68d8c8c8c8c8c8c612ee7565b426101c4556101c68c90558261219a576120ee614c52565b60408051602081019091526101c5548190612111906001600160a01b0316614318565b6001600160a01b0316639b56d7886040518163ffffffff1660e01b815260040160206040518083038186803b15801561214957600080fd5b505afa15801561215d573d6000803e3d6000fd5b505050506040513d601f19601f8201168201806040525081019061218191906150c0565b905290506121936101c8826001614c70565b50506121a9565b6121a76101c88585614cbb565b505b6121c1600080516020615f638339815191528e610dbb565b6121d9600080516020615f6383398151915282610dbb565b6121ff600080516020615f63833981519152600080516020615ee3833981519152612ed2565b612225600080516020615f43833981519152600080516020615ee3833981519152612ed2565b6101c55461225490600080516020615f438339815191529061224f906001600160a01b0316614323565b610dbb565b6101c55460009061226d906001600160a01b031661300c565b6001600160a01b031663095ea7b3306000196040518363ffffffff1660e01b815260040161229c92919061520f565b602060405180830381600087803b1580156122b657600080fd5b505af11580156122ca573d6000803e3d6000fd5b505050506040513d601f19601f820116820180604052508101906122ee9190614f8b565b90508061230d5760405162461bcd60e51b8152600401610786906154e5565b50508015612321576000805461ff00191690555b50505050505050505050505050565b612338612512565b6123545760405162461bcd60e51b815260040161078690615ce2565b6101c7805460ff1916600117905560405130907f90d9b09c68a7e1312ce22801552b47265d77db9496383d51374b4058545447d790600090a2565b60c954600090819060ff166123b65760405162461bcd60e51b815260040161078690615c7f565b60c9805460ff1916905560975460ff16156123e35760405162461bcd60e51b8152600401610786906158fa565b6123eb614c1a565b6101c554612401906001600160a01b0316613605565b6001600160a01b0316638c7a63ae856040518263ffffffff1660e01b815260040161242c91906153ca565b60a06040518083038186803b15801561244457600080fd5b505afa158015612458573d6000803e3d6000fd5b505050506040513d601f19601f8201168201806040525081019061247c9190615064565b9050600061248d8260200151613610565b905060008061249c83856139e1565b909250905060006124ad8383613c7f565b90506124bb84868a846136c0565b96509650505050505060c9805460ff191660011790559092909150565b6124f0600080516020615f6383398151915233611969565b61250c5760405162461bcd60e51b815260040161078690615a12565b6101ca55565b600061252e600080516020615ee3833981519152610519613053565b905090565b61254b600080516020615f6383398151915233611969565b6125675760405162461bcd60e51b815260040161078690615a12565b6101cb60008154811061257657fe5b90600052602060002090600c02016005016001015460001480156125bd57506101cb6000815481106125a457fe5b90600052602060002090600c0201600001600101546000145b6125d95760405162461bcd60e51b815260040161078690615c50565b6125e66101c88383614cbb565b505050565b6125f3612512565b61260f5760405162461bcd60e51b815260040161078690615ce2565b6101c7805460ff1916905560405130907f7184039938737267597232635b117c924371ac877d4329f2dfa5ca674c5cc4a590600090a2565b61264f612512565b61266b5760405162461bcd60e51b815260040161078690615ce2565b6101c354604051632fe2f3b960e21b81526001600160a01b039091169063bf8bcee490610d399084906004016153ca565b606481565b60975460ff16156126c45760405162461bcd60e51b8152600401610786906158fa565b600081116126e45760405162461bcd60e51b815260040161078690615bee565b6126ed8161432e565b610d6c613cbc565b6101c65481565b60606101c880548060200260200160405190810160405280929190818152602001828054801561274b57602002820191906000526020600020905b815481526020019060010190808311612737575b5050505050905090565b600081815260656020526040812061074c9061438f565b60405163cde8884560e01b8152600090739BCE1F08012DD6e72756Cd015E50068f90963D229063cde88845906106f99086908690600401615e82565b6101c45481565b6000828152606560205260409020600201546127cd90610519613053565b610fd45760405162461bcd60e51b815260040161078690615852565b6127f1614cf6565b6127fa82613610565b6040805160a081018252825481526001830154602082015260028301549181019190915260038201546060820152600490910154608082015292915050565b60008060005b6101cb54811015612880576128766101cb828154811061285b57fe5b600091825260209091206006600c9092020101548390613c7f565b915060010161283f565b50905090565b6101c8818154811061289457fe5b600091825260209091200154905081565b60c95460009060ff166128ca5760405162461bcd60e51b815260040161078690615c7f565b60c9805460ff1916905560975460ff16156128f75760405162461bcd60e51b8152600401610786906158fa565b600061290284613610565b905080600401546000146129285760405162461bcd60e51b8152600401610786906156f4565b600083116129485760405162461bcd60e51b8152600401610786906158cd565b61295133612b4e565b61296d5760405162461bcd60e51b8152600401610786906159e3565b6101ca54421161298f5760405162461bcd60e51b815260040161078690615b30565b805461299a9061439a565b156129d5576129b9600080516020615f43833981519152610519613053565b6129d55760405162461bcd60e51b815260040161078690615545565b60018101546129e49084613c7f565b60018201556129f1614d25565b5060408051808201909152838152602081018590526101c554612a1c906001600160a01b0316613605565b6001600160a01b0316635be57b6a82336040518363ffffffff1660e01b8152600401612a49929190615db3565b602060405180830381600087803b158015612a6357600080fd5b505af1158015612a77573d6000803e3d6000fd5b505050506040513d601f19601f82011682018060405250810190612a9b91906150c0565b6101c554909350612ac090612ab8906001600160a01b031661300c565b333087613017565b8285336001600160a01b03167fcb3ef4109dcd006671348924f00aac8398190a5ff283d6e470d74581513e103687604051612afb91906153ca565b60405180910390a4505060c9805460ff1916600117905592915050565b600080516020615ee383398151915281565b600080516020615f2383398151915281565b600080516020615f6383398151915281565b6101c554600090612b67906001600160a01b0316614318565b6001600160a01b0316631852f200836101c86040518363ffffffff1660e01b8152600401612b969291906152b6565b60206040518083038186803b158015612bae57600080fd5b505afa158015612bc2573d6000803e3d6000fd5b505050506040513d601f19601f8201168201806040525081019061074c9190614f8b565b600061074983836040518060400160405280601e81526020017f536166654d6174683a207375627472616374696f6e206f766572666c6f7700008152506143b0565b612c30613a64565b15612c4d5760405162461bcd60e51b815260040161078690615825565b6101cb8181548110612c5b57fe5b90600052602060002090600c020160050160040154600014612c8f5760405162461bcd60e51b815260040161078690615d2d565b6101c554600090612cba90612cac906001600160a01b03166143dc565b612cb46139dd565b90613c7f565b9050806101cb8381548110612ccb57fe5b600091825260209091206009600c9092020101556101cb80543091600080516020615f038339815191529185908110612d0057fe5b90600052602060002090600c02016005016000015483604051612d24929190615e82565b60405180910390a25050565b303b1590565b600054610100900460ff1680612d4f5750612d4f612d30565b80612d5d575060005460ff16155b612d795760405162461bcd60e51b815260040161078690615a82565b600054610100900460ff161580156113ab576000805460ff1961ff0019909116610100171660011790558015610d6c576000805461ff001916905550565b600054610100900460ff1680612dd05750612dd0612d30565b80612dde575060005460ff16155b612dfa5760405162461bcd60e51b815260040161078690615a82565b600054610100900460ff16158015612e25576000805460ff1961ff0019909116610100171660011790555b6097805460ff191690558015610d6c576000805461ff001916905550565b600054610100900460ff1680612e5c5750612e5c612d30565b80612e6a575060005460ff16155b612e865760405162461bcd60e51b815260040161078690615a82565b600054610100900460ff16158015612eb1576000805460ff1961ff0019909116610100171660011790555b60c9805460ff191660011790558015610d6c576000805461ff001916905550565b60009182526065602052604090912060020155565b6101c554600090612f00906001600160a01b031661445c565b6001600160a01b03166301b215516040518163ffffffff1660e01b8152600401602060405180830381600087803b158015612f3a57600080fd5b505af1158015612f4e573d6000803e3d6000fd5b505050506040513d601f19601f82011682018060405250810190612f729190614db2565b6101c380546001600160a01b0319166001600160a01b0383811691909117918290556101c55460405163bb4a250960e01b81529394509181169263bb4a250992612fd092169030908d908d908d908d908d908d908d90600401615242565b600060405180830381600087803b158015612fea57600080fd5b505af1158015612ffe573d6000803e3d6000fd5b505050505050505050505050565b600061074c82613a4c565b60408051808201909152601881527704661696c656420746f207472616e736665722045524332360441b6020820152610d678585858585614467565b3390565b600082815260656020526040902061306f908261453c565b156108f85761307c613053565b6001600160a01b0316816001600160a01b0316837f2f8788117e7eff1d82e926ec794901d17c78024a50270940304540a733656f0d60405160405180910390a45050565b60006001600160a01b03821663b93f9b0a60065b6040518263ffffffff1660e01b81526004016130f091906153ca565b60206040518083038186803b15801561310857600080fd5b505afa15801561311c573d6000803e3d6000fd5b505050506040513d601f19601f8201168201806040525081019061074c9190614db2565b6125e68383836040518060400160405280601881526020017704661696c656420746f207472616e736665722045524332360441b815250614551565b60008281526065602052604090206131949082614623565b156108f8576131a1613053565b6001600160a01b0316816001600160a01b0316837ff6391f5c32d9c69d2a47ea670b442974b53935d1edc7fd64eb21e047a839171b60405160405180910390a45050565b60975460ff166132075760405162461bcd60e51b8152600401610786906154b7565b6097805460ff191690557f5db9ee0a495bf2e6ff9c91a7834c1ba4fdd244a5e8aa4e537bd38aeae4b073aa61323a613053565b60405161324791906151ba565b60405180910390a1565b6101cb54600090613263906001612be6565b905060006101cb828154811061327557fe5b90600052602060002090600c020160050160040154116132a75760405162461bcd60e51b815260040161078690615753565b6101cb81815481106132b557fe5b90600052602060002090600c0201600001600401546000146132e95760405162461bcd60e51b815260040161078690615ad0565b60006133396101cb83815481106132fc57fe5b90600052602060002090600c0201600001600101546101cb848154811061331f57fe5b600091825260209091206006600c90920201015490613c7f565b6101c3546040805163a4d66daf60e01b815290519293506001600160a01b03909116916327ea6f2b91613457916133cb918691869163a4d66daf916004808301926020929190829003018186803b15801561339357600080fd5b505afa1580156133a7573d6000803e3d6000fd5b505050506040513d601f19601f82011682018060405250810190612cb491906150c0565b6101c360009054906101000a90046001600160a01b03166001600160a01b0316631a861d266040518163ffffffff1660e01b815260040160206040518083038186803b15801561341a57600080fd5b505afa15801561342e573d6000803e3d6000fd5b505050506040513d601f19601f8201168201806040525081019061345291906150c0565b614638565b6040518263ffffffff1660e01b815260040161347391906153ca565b600060405180830381600087803b15801561348d57600080fd5b505af11580156134a1573d6000803e3d6000fd5b50506101c554600092506134be91506001600160a01b03166143dc565b90506134cc81612cb46139dd565b6101cb84815481106134da57fe5b600091825260209091206004600c9092020101556134fa81612cb46139dd565b6101cb848154811061350857fe5b600091825260209091206009600c9092020101556101cb80543091600080516020615f03833981519152918690811061353d57fe5b90600052602060002090600c0201600001600001546101cb868154811061356057fe5b90600052602060002090600c020160000160040154604051613583929190615e82565b60405180910390a2306001600160a01b0316600080516020615f038339815191526101cb85815481106135b257fe5b90600052602060002090600c0201600501600001546101cb86815481106135d557fe5b90600052602060002090600c0201600501600401546040516135f8929190615e82565b60405180910390a2505050565b600061074c8261464e565b6000808211801561362f57506101cb5461362b906002614666565b8211155b61364b5760405162461bcd60e51b81526004016107869061578a565b60006136776001613671600261366b61366488836146a0565b8890613c7f565b906146dd565b90612be6565b905060006101cb828154811061368957fe5b600091825260208220600c9091020191506136a58560026146a0565b6001146136b557816005016136b7565b815b95945050505050565b6101c55460009081906136db906001600160a01b0316613605565b6001600160a01b031663430c208133866040518363ffffffff1660e01b815260040161370892919061520f565b60206040518083038186803b15801561372057600080fd5b505afa158015613734573d6000803e3d6000fd5b505050506040513d601f19601f820116820180604052508101906137589190614f8b565b6137745760405162461bcd60e51b815260040161078690615b95565b61377d33612b4e565b6137995760405162461bcd60e51b8152600401610786906159e3565b600083116137b95760405162461bcd60e51b815260040161078690615b5e565b6000806137c688886139e1565b909250905060006137d78383613c7f565b9050808611156137f95760405162461bcd60e51b815260040161078690615b01565b88600401546138066139dd565b116138235760405162461bcd60e51b8152600401610786906158a2565b6000808a60040154600014156138c45760018b01546138429089612be6565b60018c0155506101c5548790613860906001600160a01b0316613605565b6001600160a01b03166366cbb0378a836040518363ffffffff1660e01b815260040161388d929190615e82565b600060405180830381600087803b1580156138a757600080fd5b505af11580156138bb573d6000803e3d6000fd5b50505050613959565b6138ce8589614638565b91506138de846134528a85612be6565b6101c5549091506138f7906001600160a01b0316613605565b6001600160a01b031663b81922058a83856040518463ffffffff1660e01b815260040161392693929190615e90565b600060405180830381600087803b15801561394057600080fd5b505af1158015613954573d6000803e3d6000fd5b505050505b6101c55461398490613973906001600160a01b031661300c565b303361397f8587613c7f565b613017565b888a60200151336001600160a01b03167f92f2787b755dae547f1701582fe74c7abf277ec14db316dd01abc69cacf7a25985856040516139c5929190615e82565b60405180910390a4909a909950975050505050505050565b4290565b60008060006139f8856002015485604001516106bd565b90506000613a0e866003015486604001516106bd565b9050613a27856080015182612be690919063ffffffff16565b9350613a40856060015183612be690919063ffffffff16565b925050505b9250929050565b60006001600160a01b03821663b93f9b0a60056130d4565b6101cb80546000918291613a79906001612be6565b81548110613a8357fe5b90600052602060002090600c02016000016004015411905090565b6101cb5460058110613ac25760405162461bcd60e51b815260040161078690615515565b6040805161012081019091526101cb90806080810180613ae86001612cb4886002614666565b815260200160008152602001613aff60018061276c565b815260200160008152602001600081525081526020016040518060a00160405280613b396002612cb460028961466690919063ffffffff16565b815260200160008152602001613b5060018061276c565b81526000602080830182905260409283018290529284528383018190529281018390528454600181810187559584529282902084518051600c90950290910193845580830151958401959095558481015160028401556060808601516003850155608095860151600485015584830151805160058601559283015160068501558282015160078501558281015160088501559190940151600983015592820151600a820155910151600b90910155506101ca55565b60975460ff1615613c285760405162461bcd60e51b8152600401610786906158fa565b6097805460ff191660011790557f62e78cea01bee320cd4e420270b5ea74000d11b0c9f74754ebdbfc544b05a25861323a613053565b6000610749838361471f565b6000610749836001600160a01b038416614764565b6000828201838110156107495760405162461bcd60e51b815260040161078690615686565b60006001600160a01b03821663b93f9b0a60146130d4565b613cc4613a64565b613ce05760405162461bcd60e51b815260040161078690615cb6565b6101c35460408051630735c92b60e21b815290516000926001600160a01b031691631cd724ac916004808301926020929190829003018186803b158015613d2657600080fd5b505afa158015613d3a573d6000803e3d6000fd5b505050506040513d601f19601f82011682018060405250810190613d5e91906150c0565b905060008060006101c360009054906101000a90046001600160a01b03166001600160a01b031663a6a25e886040518163ffffffff1660e01b8152600401606060405180830381600087803b158015613db657600080fd5b505af1158015613dca573d6000803e3d6000fd5b505050506040513d601f19601f82011682018060405250810190613dee91906150d8565b925092509250613e7f846101c360009054906101000a90046001600160a01b03166001600160a01b0316631cd724ac6040518163ffffffff1660e01b815260040160206040518083038186803b158015613e4757600080fd5b505afa158015613e5b573d6000803e3d6000fd5b505050506040513d601f19601f8201168201806040525081019061367191906150c0565b6101cb5490945060609067ffffffffffffffff81118015613e9f57600080fd5b50604051908082528060200260200182016040528015613ec9578160200160208202803683370190505b50905060005b6101cb548110156140ad576000739BCE1F08012DD6e72756Cd015E50068f90963D2263cee38ee4886101cb8581548110613f0557fe5b90600052602060002090600c0201600b01546101c9546040518463ffffffff1660e01b8152600401613f3993929190615e90565b60206040518083038186803b158015613f5157600080fd5b505af4158015613f65573d6000803e3d6000fd5b505050506040513d601f19601f82011682018060405250810190613f8991906150c0565b9050739BCE1F08012DD6e72756Cd015E50068f90963D2263cee38ee4856101cb8581548110613fb457fe5b90600052602060002090600c0201600b01546101c9546040518463ffffffff1660e01b8152600401613fe893929190615e90565b60206040518083038186803b15801561400057600080fd5b505af4158015614014573d6000803e3d6000fd5b505050506040513d601f19601f8201168201806040525081019061403891906150c0565b83838151811061404457fe5b602002602001018181525050614082816101cb848154811061406257fe5b90600052602060002090600c0201600a0154613c7f90919063ffffffff16565b6101cb838154811061409057fe5b60009182526020909120600a600c90920201015550600101613ecf565b5060008311806140bd5750600082115b156142ce576101c3546000906140e6906001600160a01b0316856140e18689613c7f565b61477c565b905060005b6101cb548110156141935761413b83828151811061410557fe5b60200260200101516101cb838154811061411b57fe5b90600052602060002090600c0201600b0154612be690919063ffffffff16565b6101cb828154811061414957fe5b90600052602060002090600c0201600b018190555061418783828151811061416d57fe5b60200260200101516101c954612be690919063ffffffff16565b6101c9556001016140eb565b506101c5546141aa906001600160a01b0316614985565b6001600160a01b03166328fc33c7856040518263ffffffff1660e01b81526004016141d591906153ca565b600060405180830381600087803b1580156141ef57600080fd5b505af1158015614203573d6000803e3d6000fd5b50506101c35460408051637df1f1b960e01b815290513094506001600160a01b039092169250637df1f1b9916004808301926020929190829003018186803b15801561424e57600080fd5b505afa158015614262573d6000803e3d6000fd5b505050506040513d601f19601f820116820180604052508101906142869190614db2565b6001600160a01b03167fd1055dc2c2a003a83dfacb1c38db776eab5ef89d77a8f05a3512e8cf57f953ce868689866040516142c49493929190615e67565b60405180910390a3505b60405130907fa2380b088ee4df06f20f2bbd1971331d0a68504a9f120cc3b029aeb934f87b3c90600090a25050505050565b60006001600160a01b03821663b93f9b0a60076130d4565b600061074c82614990565b600061074c826149a8565b6101c554610d6c90614348906001600160a01b031661300c565b6101c35460408051808201909152601981527811985a5b1959081d1bc818dbdb1b1958dd081c185e5b595b9d603a1b602082015233916001600160a01b0316908590614467565b600061074c826149c0565b60006143a78260026146a0565b60011492915050565b600081848411156143d45760405162461bcd60e51b815260040161078691906153d3565b505050900390565b60006001600160a01b03821663fc56365860075b6040518263ffffffff1660e01b815260040161440c91906153ca565b60206040518083038186803b15801561442457600080fd5b505afa158015614438573d6000803e3d6000fd5b505050506040513d601f19601f8201168201806040525081019061074c91906150c0565b600061074c826149c4565b6001600160a01b03831661448d5760405162461bcd60e51b8152600401610786906155a5565b6040516323b872dd60e01b81526000906001600160a01b038716906323b872dd906144c090889088908890600401615292565b602060405180830381600087803b1580156144da57600080fd5b505af11580156144ee573d6000803e3d6000fd5b505050506040513d601f19601f820116820180604052508101906145129190614f8b565b905081816145335760405162461bcd60e51b815260040161078691906153d3565b50505050505050565b6000610749836001600160a01b0384166149dc565b6001600160a01b0383166145775760405162461bcd60e51b8152600401610786906155a5565b60405163a9059cbb60e01b81526000906001600160a01b0386169063a9059cbb906145a8908790879060040161520f565b602060405180830381600087803b1580156145c257600080fd5b505af11580156145d6573d6000803e3d6000fd5b505050506040513d601f19601f820116820180604052508101906145fa9190614f8b565b9050818161461b5760405162461bcd60e51b815260040161078691906153d3565b505050505050565b6000610749836001600160a01b038416614a26565b60008183106146475781610749565b5090919050565b60006001600160a01b03821663b93f9b0a600c6130d4565b6000826146755750600061074c565b8282028284828161468257fe5b04146107495760405162461bcd60e51b815260040161078690615a41565b6000610749838360405180604001604052806018815260200177536166654d6174683a206d6f64756c6f206279207a65726f60401b815250614aec565b600061074983836040518060400160405280601a81526020017f536166654d6174683a206469766973696f6e206279207a65726f000000000000815250614b20565b815460009082106147425760405162461bcd60e51b815260040161078690615426565b82600001828154811061475157fe5b9060005260206000200154905092915050565b60009081526001919091016020526040902054151590565b6101c5546000906147dc90614799906001600160a01b031661300c565b85306147a58688613c7f565b6040518060400160405280601981526020017811985a5b1959081d1bc818dbdb1b1958dd081c185e5b595b9d603a1b815250614467565b6101c554600090614801906147f9906001600160a01b0316614b57565b6064906146dd565b905061480b614cf6565b6101c9546101c3546101c6546040516385bd324d60e01b8152739BCE1F08012DD6e72756Cd015E50068f90963D22936385bd324d93614865936101cb938c938c938b9391926001600160a01b039091169190600401615342565b60a06040518083038186803b15801561487d57600080fd5b505af4158015614891573d6000803e3d6000fd5b505050506040513d601f19601f820116820180604052508101906148b59190615013565b805160208201516101c9546101c35460405163060f0a6d60e31b815294955061497194739BCE1F08012DD6e72756Cd015E50068f90963D2294633078536894614916946101cb94929391928b926001600160a01b0390911690600401615311565b60206040518083038186803b15801561492e57600080fd5b505af4158015614942573d6000803e3d6000fd5b505050506040513d601f19601f8201168201806040525081019061496691906150c0565b604083015190613c7f565b925061497c83614b6f565b50509392505050565b600061074c82613ca4565b60006001600160a01b03821663b93f9b0a60136130d4565b60006001600160a01b03821663b93f9b0a600e6130d4565b5490565b60006001600160a01b03821663b93f9b0a60026130d4565b60006149e88383614764565b614a1e5750815460018181018455600084815260208082209093018490558454848252828601909352604090209190915561074c565b50600061074c565b60008181526001830160205260408120548015614ae25783546000198083019190810190600090879083908110614a5957fe5b9060005260206000200154905080876000018481548110614a7657fe5b600091825260208083209091019290925582815260018981019092526040902090840190558654879080614aa657fe5b6001900381819060005260206000200160009055905586600101600087815260200190815260200160002060009055600194505050505061074c565b600091505061074c565b60008183614b0d5760405162461bcd60e51b815260040161078691906153d3565b50828481614b1757fe5b06949350505050565b60008183614b415760405162461bcd60e51b815260040161078691906153d3565b506000838581614b4d57fe5b0495945050505050565b60006001600160a01b03821663fc56365860036143f0565b306001600160a01b03167ff3583f178a8d4f8888c3683f8e948faf9b6eb701c4f1fab265a6ecad1a1ddebb82604051614ba891906153ca565b60405180910390a26101c554610d6c90614bca906001600160a01b031661300c565b6101c5543090614be2906001600160a01b03166130c0565b84604051806040016040528060198152602001784661696c656420746f2073656e6420746f207265736572766560381b815250614467565b6040518060a0016040528060006001600160a01b03168152602001600081526020016000815260200160008152602001600081525090565b60405180602001604052806001906020820280368337509192915050565b828054828255906000526020600020908101928215614cab579160200282015b82811115614cab578251825591602001919060010190614c90565b50614cb7929150614d3f565b5090565b828054828255906000526020600020908101928215614cab579160200282015b82811115614cab578235825591602001919060010190614cdb565b6040518060a0016040528060008152602001600081526020016000815260200160008152602001600081525090565b604051806040016040528060008152602001600081525090565b5b80821115614cb75760008155600101614d40565b60008083601f840112614d65578182fd5b50813567ffffffffffffffff811115614d7c578182fd5b6020830191508360208083028501011115613a4557600080fd5b600060208284031215614da7578081fd5b813561074981615ecd565b600060208284031215614dc3578081fd5b815161074981615ecd565b6000806000806000806000806000806000806101608d8f031215614df0578788fd5b614dfa8d35615ecd565b8c359b50614e0b60208e0135615ecd565b60208d01359a5060408d0135995060608d0135985060808d0135975060a08d0135965060c08d0135955060e08d013594506101008d013593506101208d0135925067ffffffffffffffff6101408e01351115614e65578081fd5b614e768e6101408f01358f01614d54565b81935080925050509295989b509295989b509295989b565b600080600080600080600060e0888a031215614ea8578283fd5b8735614eb381615ecd565b9960208901359950604089013598606081013598506080810135975060a0810135965060c00135945092505050565b60008060208385031215614ef4578182fd5b823567ffffffffffffffff811115614f0a578283fd5b614f1685828601614d54565b90969095509350505050565b60008060008060408587031215614f37578384fd5b843567ffffffffffffffff80821115614f4e578586fd5b614f5a88838901614d54565b90965094506020870135915080821115614f72578384fd5b50614f7f87828801614d54565b95989497509550505050565b600060208284031215614f9c578081fd5b81518015158114610749578182fd5b600060208284031215614fbc578081fd5b5035919050565b60008060408385031215614fd5578182fd5b823591506020830135614fe781615ecd565b809150509250929050565b60008060408385031215615004578182fd5b50508035926020909101359150565b600060a08284031215615024578081fd5b61502e60a0615ea6565b82518152602083015160208201526040830151604082015260608301516060820152608083015160808201528091505092915050565b600060a08284031215615075578081fd5b61507f60a0615ea6565b825161508a81615ecd565b80825250602083015160208201526040830151604082015260608301516060820152608083015160808201528091505092915050565b6000602082840312156150d1578081fd5b5051919050565b6000806000606084860312156150ec578081fd5b8351925060208401519150604084015190509250925092565b60008060008060008060c0878903121561511d578384fd5b863595506020870135945060408701359350606087013560ff81168114615142578283fd5b9598949750929560808101359460a0909101359350915050565b80518252602081015160208301526040810151604083015260608101516060830152608081015160808301525050565b8054825260018101546020830152600281015460408301526003810154606083015260040154608090910152565b6001600160a01b0391909116815260200190565b6001600160a01b0397881681529590961660208601526040850193909352606084019190915260ff16608083015260a082015260c081019190915260e00190565b6001600160a01b03929092168252602082015260400190565b6001600160a01b0392831681529116602082015260400190565b6001600160a01b03998a16815297891660208901529590971660408701526060860193909352608085019190915260a084015260c083015260e08201929092526101008101919091526101200190565b6001600160a01b039384168152919092166020820152604081019190915260600190565b6001600160a01b0383168152604060208083018290528354918301829052600084815281812090929091906060850190845b81811015615304578454835260019485019492840192016152e8565b5090979650505050505050565b95865260208601949094526040850192909252606084015260808301526001600160a01b031660a082015260c00190565b96875260208701959095526040860193909352606085019190915260808401526001600160a01b031660a083015260c082015260e00190565b6020808252825182820181905260009190848201906040850190845b818110156153b357835183529284019291840191600101615397565b50909695505050505050565b901515815260200190565b90815260200190565b6000602080835283518082850152825b818110156153ff578581018301518582016040015282016153e3565b818111156154105783604083870101525b50601f01601f1916929092016040019392505050565b60208082526022908201527f456e756d657261626c655365743a20696e646578206f7574206f6620626f756e604082015261647360f01b606082015260800190565b6020808252602f908201527f416363657373436f6e74726f6c3a2073656e646572206d75737420626520616e60408201526e0818591b5a5b881d1bc819dc985b9d608a1b606082015260800190565b60208082526014908201527314185d5cd8589b194e881b9bdd081c185d5cd95960621b604082015260600190565b6020808252601690820152754661696c656420746f20617070726f7665205553444360501b604082015260600190565b60208082526016908201527543616e6e6f7420657863656564203520736c6963657360501b604082015260600190565b6020808252600f908201526e5265712053454e494f525f524f4c4560881b604082015260600190565b6020808252601b908201527f496e73756666696369656e742066756e647320696e20736c6963650000000000604082015260600190565b6020808252601a908201527f43616e27742073656e6420746f207a65726f2061646472657373000000000000604082015260600190565b6020808252600d908201526c13dddb995c881a5b9d985b1a59609a1b604082015260600190565b6020808252602c908201527f4d75737420686176652070617573657220726f6c6520746f20706572666f726d60408201526b103a3434b99030b1ba34b7b760a11b606082015260800190565b6020808252601a908201527f4372656469746c696e652063616e6e6f7420626520656d707479000000000000604082015260600190565b6020808252601b908201527f536166654d6174683a206164646974696f6e206f766572666c6f770000000000604082015260600190565b6020808252601d908201527f4265796f6e64207072696e636970616c20677261636520706572696f64000000604082015260600190565b6020808252600e908201526d151c985b98da19481b1bd8dad95960921b604082015260600190565b6020808252601a908201527f43757272656e7420736c696365207374696c6c20616374697665000000000000604082015260600190565b6020808252601d908201527f4a756e696f72207472616e636865206d757374206265206c6f636b6564000000604082015260600190565b602080825260139082015272556e737570706f72746564207472616e63686560681b604082015260600190565b6020808252601e908201527f546f6b656e7349647320616e6420416d6f756e7473206d69736d617463680000604082015260600190565b6020808252601a908201527f426f72726f776572206d757374206e6f7420626520656d707479000000000000604082015260600190565b602080825260139082015272141bdbdb08185b1c9958591e481b1bd8dad959606a1b604082015260600190565b60208082526030908201527f416363657373436f6e74726f6c3a2073656e646572206d75737420626520616e60408201526f2061646d696e20746f207265766f6b6560801b606082015260800190565b602080825260119082015270151c985b98da19481a5cc81b1bd8dad959607a1b604082015260600190565b6020808252601390820152724d757374206465706f736974203e207a65726f60681b604082015260600190565b60208082526010908201526f14185d5cd8589b194e881c185d5cd95960821b604082015260600190565b60208082526016908201527514185e5b595b9d081c195c9a5bd9081a5b9d985b1a5960521b604082015260600190565b6020808252601290820152714372656469746c696e65206973206c61746560701b604082015260600190565b6020808252818101527f4f776e65722063616e6e6f7420626520746865207a65726f2061646472657373604082015260600190565b602080825260149082015273111c985dd91bdddb9cc8185c99481c185d5cd95960621b604082015260600190565b6020808252601590820152741059191c995cdcc81b9bdd0819dbcb5b1a5cdd1959605a1b604082015260600190565b6020808252601590820152744d7573742068617665206c6f636b657220726f6c6560581b604082015260600190565b60208082526021908201527f536166654d6174683a206d756c7469706c69636174696f6e206f766572666c6f6040820152607760f81b606082015260800190565b6020808252602e908201527f436f6e747261637420696e7374616e63652068617320616c726561647920626560408201526d195b881a5b9a5d1a585b1a5e995960921b606082015260800190565b602080825260179082015276131bd8dac818d85b9b9bdd08189948195e1d195b991959604a1b604082015260600190565b602080825260159082015274125b9d985b1a59081c995919595b48185b5bdd5b9d605a1b604082015260600190565b6020808252601490820152734e6f74206f70656e20666f722066756e64696e6760601b604082015260600190565b6020808252601c908201527f4d757374207769746864726177206d6f7265207468616e207a65726f00000000604082015260600190565b6020808252600f908201526e2737ba103a37b5b2b71037bbb732b960891b604082015260600190565b6020808252601690820152755465726d206d757374206e6f7420626520656d70747960501b604082015260600190565b6020808252601790820152764d75737420706179206d6f7265207468616e207a65726f60481b604082015260600190565b60208082526017908201527610dbdb999a59cbd89bdc9c9bddd95c881a5b9d985b1a59604a1b604082015260600190565b6020808252601590820152744d757374206e6f7420686176652062616c616e636560581b604082015260600190565b6020808252601f908201527f5265656e7472616e637947756172643a207265656e7472616e742063616c6c00604082015260600190565b602080825260129082015271141bdbdb081a5cc81b9bdd081b1bd8dad95960721b604082015260600190565b6020808252602b908201527f4d75737420686176652061646d696e20726f6c6520746f20706572666f726d2060408201526a3a3434b99030b1ba34b7b760a91b606082015260800190565b6020808252601d908201527f4a756e696f72207472616e63686520616c7265616479206c6f636b6564000000604082015260600190565b6020808252602f908201527f416363657373436f6e74726f6c3a2063616e206f6e6c792072656e6f756e636560408201526e103937b632b9903337b91039b2b63360891b606082015260800190565b82518152602092830151928101929092526001600160a01b0316604082015260600190565b60a0810161074c828461515c565b6101808101615df5828761515c565b615e0260a083018661515c565b610140820193909352610160015292915050565b6102408101615e25828661515c565b8360a0830152615e3860c083018461518c565b615e4961016083016005850161518c565b600a830154610200830152600b830154610220830152949350505050565b93845260208401929092526040830152606082015260800190565b918252602082015260400190565b9283526020830191909152604082015260600190565b60405181810167ffffffffffffffff81118282101715615ec557600080fd5b604052919050565b6001600160a01b0381168114610d6c57600080fdfeb19546dff01e856fb3f010c267a7b1c60363cf8a4664e21cc89c26224620214ef839b119f21fb055e13aebac51bca6b308f52ec2d8db8306ce4d092d964e5bd065d7a28e3265b37a6474929f336521b332c1681b933f6cb9f3376673440d862a956624bfbe09c0e98e645d61eba0de4ce88e8cceabdb00fead208d19a8e1209baf9a8bb3cbd6b84fbccefa71ff73e26e798553c6914585a84886212a46a90279a26469706673582212202d7eee4678e05d213d9d7a77505aa11a5607e55ff86b75774792e6c95add683564736f6c634300060c0033",
  "deployedBytecode": "0x608060405234801561001057600080fd5b50600436106103245760003560e01c80639010d07c116101a9578063c290d691116100ef578063d972e8ad1161009d578063d972e8ad14610644578063dd0ec24114610664578063e2a657f91461066c578063e2bbb1581461067f578063e58378bb14610692578063e63ab1e91461069a578063f3621367146106a2578063f94f5a12146106aa57610324565b8063c290d691146105d3578063c77d5698146105e6578063c78bed86146105ee578063ca15c87314610603578063cde8884514610616578063cf09e0d014610629578063d547741f1461063157610324565b8063a8f9c4fe11610157578063a8f9c4fe14610567578063aa2a7c4c1461056f578063ae6c857a14610582578063b6db75a014610595578063b9317d861461059d578063bf6c87c7146105b0578063bf8bcee4146105b8578063bfaa8cca146105cb57610324565b80639010d07c146104f857806391d148541461050b5780639d1105301461051e578063a079a4dd14610531578063a217fddf14610544578063a6a25e881461054c578063a8deac0e1461055457610324565b806344c08f231161026e5780635eb185a21161021c5780635eb185a21461049257806368dcfdc01461049a57806374f0314f146104a257806378bcd604146104aa57806379502c55146104bd5780637976323d146104c557806380b65431146104cd5780638456cb59146104f057610324565b806344c08f231461042c57806347195e13146104345780634d02fe6f14610449578063515bc3231461045c578063526d81f61461046f57806356ce1560146104775780635c975abb1461048a57610324565b806327ea6f2b116102d657806327ea6f2b146103b25780632ae754be146103c55780632f2ff15d146103cd5780633403c2fc146103e057806336568abe146103e85780633f4ba83a146103fb5780634026478e14610403578063441a3e701461040b57610324565b80630174b449146103295780630881806c14610352578063097616a31461035c5780630cfb14b01461036f57806317f76941146103775780631fe032be1461038c578063248a9ca31461039f575b600080fd5b61033c610337366004614ff2565b6106bd565b60405161034991906153ca565b60405180910390f35b61035a610752565b005b61035a61036a366004614d96565b6107cc565b61033c6108fc565b61037f610903565b60405161034991906153bf565b61035a61039a366004614e8e565b61090d565b61033c6103ad366004614fab565b610ccf565b61035a6103c0366004614fab565b610ce4565b61033c610d6f565b61035a6103db366004614fc3565b610d81565b61035a610dc5565b61035a6103f6366004614fc3565b610f9c565b61035a610fde565b61035a61101c565b61041e610419366004614ff2565b61107b565b604051610349929190615e82565b61033c6111a3565b61043c6111a8565b60405161034991906151ba565b61041e610457366004614fab565b6111b8565b61033c61046a366004615105565b61129e565b61035a611335565b61035a610485366004614d96565b6113bf565b61037f61160d565b61033c611616565b61033c61161d565b61033c611629565b61035a6104b8366004614fab565b611630565b61043c611846565b61033c611856565b6104e06104db366004614fab565b61185d565b6040516103499493929190615de6565b61035a611913565b61043c610506366004614ff2565b611951565b61037f610519366004614fc3565b611969565b61035a61052c366004614f22565b611981565b61035a61053f366004614fab565b6119e3565b61033c611f61565b61035a611f66565b61035a610562366004614dce565b611f91565b61035a612330565b61041e61057d366004614fab565b61238f565b61035a610590366004614fab565b6124d8565b61037f612512565b61035a6105ab366004614ee2565b612533565b61035a6125eb565b61035a6105c6366004614fab565b612647565b61033c61269c565b61035a6105e1366004614fab565b6126a1565b61033c6126f5565b6105f66126fc565b604051610349919061537b565b61033c610611366004614fab565b612755565b61033c610624366004614ff2565b61276c565b61033c6127a8565b61035a61063f366004614fc3565b6127af565b610657610652366004614fab565b6127e9565b6040516103499190615dd8565b61033c612839565b61033c61067a366004614fab565b612886565b61033c61068d366004614ff2565b6128a5565b61033c612b18565b61033c612b2a565b61033c612b3c565b61037f6106b8366004614d96565b612b4e565b604051630174b44960e01b815260009073__$07e8ed413e81d51a5dfb2d8e1b1fa75af5$__90630174b449906106f99086908690600401615e82565b60206040518083038186803b15801561071157600080fd5b505af4158015610725573d6000803e3d6000fd5b505050506040513d601f19601f8201168201806040525081019061074991906150c0565b90505b92915050565b61076a600080516020615f6383398151915233611969565b61078f5760405162461bcd60e51b815260040161078690615a12565b60405180910390fd5b60975460ff16156107b25760405162461bcd60e51b8152600401610786906158fa565b6101cb546107ca906107c5906001612be6565b612c28565b565b600054610100900460ff16806107e557506107e5612d30565b806107f3575060005460ff16155b61080f5760405162461bcd60e51b815260040161078690615a82565b600054610100900460ff1615801561083a576000805460ff1961ff0019909116610100171660011790555b6001600160a01b0382166108605760405162461bcd60e51b815260040161078690615980565b610868612d36565b610870612db7565b610878612e43565b610890600080516020615ee383398151915283610dbb565b6108a8600080516020615f2383398151915283610dbb565b6108ce600080516020615f23833981519152600080516020615ee3833981519152612ed2565b6108e6600080516020615ee383398151915280612ed2565b80156108f8576000805461ff00191690555b5050565b6101c95481565b6101c75460ff1681565b610915612512565b6109315760405162461bcd60e51b815260040161078690615ce2565b6001600160a01b0387166109575760405162461bcd60e51b8152600401610786906157ee565b836109745760405162461bcd60e51b815260040161078690615924565b826109915760405162461bcd60e51b815260040161078690615bbe565b6101c3546001600160a01b03166109ad88888888888888612ee7565b6101c3546040516001623df69160e21b031981526001600160a01b039091169073__$07e8ed413e81d51a5dfb2d8e1b1fa75af5$__9063ff0825bc906109f99085908590600401615228565b60006040518083038186803b158015610a1157600080fd5b505af4158015610a25573d6000803e3d6000fd5b50506040516302a7e68560e21b815273__$07e8ed413e81d51a5dfb2d8e1b1fa75af5$__9250630a9f9a149150610a609085906004016151ba565b60006040518083038186803b158015610a7857600080fd5b505af4158015610a8c573d6000803e3d6000fd5b505050506000826001600160a01b0316637df1f1b96040518163ffffffff1660e01b815260040160206040518083038186803b158015610acb57600080fd5b505afa158015610adf573d6000803e3d6000fd5b505050506040513d601f19601f82011682018060405250810190610b039190614db2565b90506000826001600160a01b0316637df1f1b96040518163ffffffff1660e01b815260040160206040518083038186803b158015610b4057600080fd5b505afa158015610b54573d6000803e3d6000fd5b505050506040513d601f19601f82011682018060405250810190610b789190614db2565b9050806001600160a01b0316826001600160a01b031614610bc357610bab600080516020615f63833981519152836127af565b610bc3600080516020615f6383398151915282610d81565b6101c554600090610bdc906001600160a01b031661300c565b6001600160a01b03166370a08231866040518263ffffffff1660e01b8152600401610c0791906151ba565b60206040518083038186803b158015610c1f57600080fd5b505afa158015610c33573d6000803e3d6000fd5b505050506040513d601f19601f82011682018060405250810190610c5791906150c0565b90508015610c81576101c554610c8190610c79906001600160a01b031661300c565b868684613017565b836001600160a01b0316856001600160a01b03167f987cdba0cba67c68d2c8aba6a4ba6545565eccfb3e2e5ff39579ffd94acaf9bb60405160405180910390a3505050505050505050505050565b60009081526065602052604090206002015490565b610cec612512565b610d085760405162461bcd60e51b815260040161078690615ce2565b6101c3546040516327ea6f2b60e01b81526001600160a01b03909116906327ea6f2b90610d399084906004016153ca565b600060405180830381600087803b158015610d5357600080fd5b505af1158015610d67573d6000803e3d6000fd5b505050505b50565b600080516020615f4383398151915281565b600082815260656020526040902060020154610d9f90610519613053565b610dbb5760405162461bcd60e51b815260040161078690615468565b6108f88282613057565b610dcd612512565b610de95760405162461bcd60e51b815260040161078690615ce2565b610df161160d565b610dfd57610dfd611913565b6101c554600090610e16906001600160a01b031661300c565b6101c554909150600090610e32906001600160a01b03166130c0565b90506000826001600160a01b03166370a08231306040518263ffffffff1660e01b8152600401610e6291906151ba565b60206040518083038186803b158015610e7a57600080fd5b505afa158015610e8e573d6000803e3d6000fd5b505050506040513d601f19601f82011682018060405250810190610eb291906150c0565b90508015610ec557610ec5838383613140565b6101c3546040516370a0823160e01b81526000916001600160a01b03808716926370a0823192610ef99216906004016151ba565b60206040518083038186803b158015610f1157600080fd5b505afa158015610f25573d6000803e3d6000fd5b505050506040513d601f19601f82011682018060405250810190610f4991906150c0565b90508015610f6b576101c354610f6b9085906001600160a01b03168584613017565b60405130907f1fc1e771236d2e93bb9541cdcb4654ba0fd3fb615b48d829b7b365f03998512690600090a250505050565b610fa4613053565b6001600160a01b0316816001600160a01b031614610fd45760405162461bcd60e51b815260040161078690615d64565b6108f8828261317c565b610ff8600080516020615f23833981519152610519613053565b6110145760405162461bcd60e51b815260040161078690615603565b6107ca6131e5565b611034600080516020615f6383398151915233611969565b6110505760405162461bcd60e51b815260040161078690615a12565b60975460ff16156110735760405162461bcd60e51b8152600401610786906158fa565b6107ca613251565b60c954600090819060ff166110a25760405162461bcd60e51b815260040161078690615c7f565b60c9805460ff1916905560975460ff16156110cf5760405162461bcd60e51b8152600401610786906158fa565b6110d7614c1a565b6101c5546110ed906001600160a01b0316613605565b6001600160a01b0316638c7a63ae866040518263ffffffff1660e01b815260040161111891906153ca565b60a06040518083038186803b15801561113057600080fd5b505afa158015611144573d6000803e3d6000fd5b505050506040513d601f19601f820116820180604052508101906111689190615064565b905060006111798260200151613610565b9050611187818388886136c0565b93509350505060c9805460ff1916600117905590939092509050565b600281565b6101c3546001600160a01b031681565b6000806111c3614c1a565b6101c5546111d9906001600160a01b0316613605565b6001600160a01b0316638c7a63ae856040518263ffffffff1660e01b815260040161120491906153ca565b60a06040518083038186803b15801561121c57600080fd5b505afa158015611230573d6000803e3d6000fd5b505050506040513d601f19601f820116820180604052508101906112549190615064565b905060006112658260200151613610565b905080600401546112746139dd565b111561128f5761128481836139e1565b935093505050611299565b6000809350935050505b915091565b6101c5546000906112b7906001600160a01b0316613a4c565b6001600160a01b031663d505accf333089898989896040518863ffffffff1660e01b81526004016112ee97969594939291906151ce565b600060405180830381600087803b15801561130857600080fd5b505af115801561131c573d6000803e3d6000fd5b5050505061132a87876128a5565b979650505050505050565b600054610100900460ff168061134e575061134e612d30565b8061135c575060005460ff16155b6113785760405162461bcd60e51b815260040161078690615a82565b600054610100900460ff161580156113a3576000805460ff1961ff0019909116610100171660011790555b6113ab612db7565b8015610d6c576000805461ff001916905550565b6113c7612512565b6113e35760405162461bcd60e51b815260040161078690615ce2565b6001600160a01b0381166114095760405162461bcd60e51b81526004016107869061564f565b6101c3546101c5546001600160a01b039182169160009161142a911661300c565b6001600160a01b03166370a08231836040518263ffffffff1660e01b815260040161145591906151ba565b60206040518083038186803b15801561146d57600080fd5b505afa158015611481573d6000803e3d6000fd5b505050506040513d601f19601f820116820180604052508101906114a591906150c0565b905080156114cf576101c5546114cf906114c7906001600160a01b031661300c565b838584613017565b6040516302a7e68560e21b815273__$07e8ed413e81d51a5dfb2d8e1b1fa75af5$__90630a9f9a14906115069085906004016151ba565b60006040518083038186803b15801561151e57600080fd5b505af4158015611532573d6000803e3d6000fd5b50506101c380546001600160a01b0319166001600160a01b0387811691909117918290556040805163a4d66daf60e01b8152905192909116935063a4d66daf9250600480820192602092909190829003018186803b15801561159357600080fd5b505afa1580156115a7573d6000803e3d6000fd5b505050506040513d601f19601f820116820180604052508101906115cb91906150c0565b506101c3546040516001600160a01b03918216918416907f987cdba0cba67c68d2c8aba6a4ba6545565eccfb3e2e5ff39579ffd94acaf9bb90600090a3505050565b60975460ff1690565b6101ca5481565b670de0b6b3a764000081565b6201518081565b611648600080516020615f6383398151915233611969565b6116645760405162461bcd60e51b815260040161078690615a12565b60975460ff16156116875760405162461bcd60e51b8152600401610786906158fa565b61168f613a64565b6116ab5760405162461bcd60e51b81526004016107869061571c565b6101c360009054906101000a90046001600160a01b03166001600160a01b03166381c17a156040518163ffffffff1660e01b815260040160206040518083038186803b1580156116fa57600080fd5b505afa15801561170e573d6000803e3d6000fd5b505050506040513d601f19601f820116820180604052508101906117329190614f8b565b1561174f5760405162461bcd60e51b815260040161078690615954565b6101c360009054906101000a90046001600160a01b03166001600160a01b031663457147a76040518163ffffffff1660e01b815260040160206040518083038186803b15801561179e57600080fd5b505afa1580156117b2573d6000803e3d6000fd5b505050506040513d601f19601f820116820180604052508101906117d69190614f8b565b6117f25760405162461bcd60e51b8152600401610786906156bd565b6117fb81613a9e565b6101cb5430907f3420dd9c54d6a8846edd2fb39a41c30c31e7bc95b43655dae59f47cc913b60d59061182e906001612be6565b60405161183b91906153ca565b60405180910390a250565b6101c5546001600160a01b031681565b6101cb5490565b6101cb818154811061186b57fe5b90600052602060002090600c0201600091509050806000016040518060a00160405290816000820154815260200160018201548152602001600282015481526020016003820154815260200160048201548152505090806005016040518060a0016040529081600082015481526020016001820154815260200160028201548152602001600382015481526020016004820154815250509080600a01549080600b0154905084565b61192d600080516020615f23833981519152610519613053565b6119495760405162461bcd60e51b815260040161078690615603565b6107ca613c05565b60008281526065602052604081206107499083613c5e565b60008281526065602052604081206107499083613c6a565b8281146119a05760405162461bcd60e51b8152600401610786906157b7565b60005b81811015610d67576119d98585838181106119ba57fe5b905060200201358484848181106119cd57fe5b9050602002013561107b565b50506001016119a3565b6119fb600080516020615f6383398151915233611969565b611a175760405162461bcd60e51b815260040161078690615a12565b60975460ff1615611a3a5760405162461bcd60e51b8152600401610786906158fa565b6101c75460ff1615611a5e5760405162461bcd60e51b8152600401610786906159b5565b611a66613a64565b611a7257611a72613251565b6101cb805460009190611a86906001612be6565b81548110611a9057fe5b90600052602060002090600c020190506000611aba826005016002015483600501600101546106bd565b9050611ade611ad7836000016002015484600001600101546106bd565b8290613c7f565b905080831115611b005760405162461bcd60e51b81526004016107869061556e565b6101c35460405163a079a4dd60e01b81526001600160a01b039091169063a079a4dd90611b319086906004016153ca565b600060405180830381600087803b158015611b4b57600080fd5b505af1158015611b5f573d6000803e3d6000fd5b505050506000611b788483612be690919063ffffffff16565b600784015460028501546040805160a081018252600588015481526006880154602082015280820184905260088801546060820152600988015460808201529051634ec167e960e11b81529394509192909173__$07e8ed413e81d51a5dfb2d8e1b1fa75af5$__91639d82cfd291611bf69187908a90600401615e16565b60206040518083038186803b158015611c0e57600080fd5b505af4158015611c22573d6000803e3d6000fd5b505050506040513d601f19601f82011682018060405250810190611c4691906150c0565b60078601556040805160a08101825286548152600187015460208201526002870154818301526003870154606082015260048088015460808301529151634ec167e960e11b815273__$07e8ed413e81d51a5dfb2d8e1b1fa75af5$__92639d82cfd292611cb992909188918b9101615e16565b60206040518083038186803b158015611cd157600080fd5b505af4158015611ce5573d6000803e3d6000fd5b505050506040513d601f19601f82011682018060405250810190611d0991906150c0565b6002860155600b850154611d1d9087613c7f565b600b8601556101c954611d309087613c7f565b6101c9556101c35460408051637df1f1b960e01b815290516000926001600160a01b031691637df1f1b9916004808301926020929190829003018186803b158015611d7a57600080fd5b505afa158015611d8e573d6000803e3d6000fd5b505050506040513d601f19601f82011682018060405250810190611db29190614db2565b6101c554909150600090611dce906001600160a01b0316613ca4565b6101cb54909150600090611de3906001612be6565b6040516301c293dd60e71b81529091506001600160a01b0383169063e149ee8090611e129084906004016153ca565b600060405180830381600087803b158015611e2c57600080fd5b505af1158015611e40573d6000803e3d6000fd5b50506101c554611e669250611e5e91506001600160a01b031661300c565b30858c613017565b826001600160a01b03167f7411b87a3c039bdfd8f3510b21e8bd0736265f53513735e1f4aa7b4f306b728d8a604051611e9f91906153ca565b60405180910390a26005880154600789015430907f42a55d7508b1c40b53524cf7cc2558b0f6bc7c4f262a3e929b65cd48bec2b68790611edf8982612be6565b60088d0154604051611ef8939260009081039291615e67565b60405180910390a38754600289015430907f42a55d7508b1c40b53524cf7cc2558b0f6bc7c4f262a3e929b65cd48bec2b68790611f358882612be6565b60038d0154604051611f4e939260009081039291615e67565b60405180910390a3505050505050505050565b600081565b60975460ff1615611f895760405162461bcd60e51b8152600401610786906158fa565b6107ca613cbc565b600054610100900460ff1680611faa5750611faa612d30565b80611fb8575060005460ff16155b611fd45760405162461bcd60e51b815260040161078690615a82565b600054610100900460ff16158015611fff576000805460ff1961ff0019909116610100171660011790555b6001600160a01b038d161580159061201f57506001600160a01b038c1615155b61203b5760405162461bcd60e51b815260040161078690615c1f565b8c6101c560006101000a8154816001600160a01b0302191690836001600160a01b03160217905550600061208d6101c560009054906101000a90046001600160a01b03166001600160a01b0316614300565b90506001600160a01b0381166120b55760405162461bcd60e51b8152600401610786906155dc565b6120be816107cc565b6120c785613a9e565b6120d68d8c8c8c8c8c8c612ee7565b426101c4556101c68c90558261219a576120ee614c52565b60408051602081019091526101c5548190612111906001600160a01b0316614318565b6001600160a01b0316639b56d7886040518163ffffffff1660e01b815260040160206040518083038186803b15801561214957600080fd5b505afa15801561215d573d6000803e3d6000fd5b505050506040513d601f19601f8201168201806040525081019061218191906150c0565b905290506121936101c8826001614c70565b50506121a9565b6121a76101c88585614cbb565b505b6121c1600080516020615f638339815191528e610dbb565b6121d9600080516020615f6383398151915282610dbb565b6121ff600080516020615f63833981519152600080516020615ee3833981519152612ed2565b612225600080516020615f43833981519152600080516020615ee3833981519152612ed2565b6101c55461225490600080516020615f438339815191529061224f906001600160a01b0316614323565b610dbb565b6101c55460009061226d906001600160a01b031661300c565b6001600160a01b031663095ea7b3306000196040518363ffffffff1660e01b815260040161229c92919061520f565b602060405180830381600087803b1580156122b657600080fd5b505af11580156122ca573d6000803e3d6000fd5b505050506040513d601f19601f820116820180604052508101906122ee9190614f8b565b90508061230d5760405162461bcd60e51b8152600401610786906154e5565b50508015612321576000805461ff00191690555b50505050505050505050505050565b612338612512565b6123545760405162461bcd60e51b815260040161078690615ce2565b6101c7805460ff1916600117905560405130907f90d9b09c68a7e1312ce22801552b47265d77db9496383d51374b4058545447d790600090a2565b60c954600090819060ff166123b65760405162461bcd60e51b815260040161078690615c7f565b60c9805460ff1916905560975460ff16156123e35760405162461bcd60e51b8152600401610786906158fa565b6123eb614c1a565b6101c554612401906001600160a01b0316613605565b6001600160a01b0316638c7a63ae856040518263ffffffff1660e01b815260040161242c91906153ca565b60a06040518083038186803b15801561244457600080fd5b505afa158015612458573d6000803e3d6000fd5b505050506040513d601f19601f8201168201806040525081019061247c9190615064565b9050600061248d8260200151613610565b905060008061249c83856139e1565b909250905060006124ad8383613c7f565b90506124bb84868a846136c0565b96509650505050505060c9805460ff191660011790559092909150565b6124f0600080516020615f6383398151915233611969565b61250c5760405162461bcd60e51b815260040161078690615a12565b6101ca55565b600061252e600080516020615ee3833981519152610519613053565b905090565b61254b600080516020615f6383398151915233611969565b6125675760405162461bcd60e51b815260040161078690615a12565b6101cb60008154811061257657fe5b90600052602060002090600c02016005016001015460001480156125bd57506101cb6000815481106125a457fe5b90600052602060002090600c0201600001600101546000145b6125d95760405162461bcd60e51b815260040161078690615c50565b6125e66101c88383614cbb565b505050565b6125f3612512565b61260f5760405162461bcd60e51b815260040161078690615ce2565b6101c7805460ff1916905560405130907f7184039938737267597232635b117c924371ac877d4329f2dfa5ca674c5cc4a590600090a2565b61264f612512565b61266b5760405162461bcd60e51b815260040161078690615ce2565b6101c354604051632fe2f3b960e21b81526001600160a01b039091169063bf8bcee490610d399084906004016153ca565b606481565b60975460ff16156126c45760405162461bcd60e51b8152600401610786906158fa565b600081116126e45760405162461bcd60e51b815260040161078690615bee565b6126ed8161432e565b610d6c613cbc565b6101c65481565b60606101c880548060200260200160405190810160405280929190818152602001828054801561274b57602002820191906000526020600020905b815481526020019060010190808311612737575b5050505050905090565b600081815260656020526040812061074c9061438f565b60405163cde8884560e01b815260009073__$07e8ed413e81d51a5dfb2d8e1b1fa75af5$__9063cde88845906106f99086908690600401615e82565b6101c45481565b6000828152606560205260409020600201546127cd90610519613053565b610fd45760405162461bcd60e51b815260040161078690615852565b6127f1614cf6565b6127fa82613610565b6040805160a081018252825481526001830154602082015260028301549181019190915260038201546060820152600490910154608082015292915050565b60008060005b6101cb54811015612880576128766101cb828154811061285b57fe5b600091825260209091206006600c9092020101548390613c7f565b915060010161283f565b50905090565b6101c8818154811061289457fe5b600091825260209091200154905081565b60c95460009060ff166128ca5760405162461bcd60e51b815260040161078690615c7f565b60c9805460ff1916905560975460ff16156128f75760405162461bcd60e51b8152600401610786906158fa565b600061290284613610565b905080600401546000146129285760405162461bcd60e51b8152600401610786906156f4565b600083116129485760405162461bcd60e51b8152600401610786906158cd565b61295133612b4e565b61296d5760405162461bcd60e51b8152600401610786906159e3565b6101ca54421161298f5760405162461bcd60e51b815260040161078690615b30565b805461299a9061439a565b156129d5576129b9600080516020615f43833981519152610519613053565b6129d55760405162461bcd60e51b815260040161078690615545565b60018101546129e49084613c7f565b60018201556129f1614d25565b5060408051808201909152838152602081018590526101c554612a1c906001600160a01b0316613605565b6001600160a01b0316635be57b6a82336040518363ffffffff1660e01b8152600401612a49929190615db3565b602060405180830381600087803b158015612a6357600080fd5b505af1158015612a77573d6000803e3d6000fd5b505050506040513d601f19601f82011682018060405250810190612a9b91906150c0565b6101c554909350612ac090612ab8906001600160a01b031661300c565b333087613017565b8285336001600160a01b03167fcb3ef4109dcd006671348924f00aac8398190a5ff283d6e470d74581513e103687604051612afb91906153ca565b60405180910390a4505060c9805460ff1916600117905592915050565b600080516020615ee383398151915281565b600080516020615f2383398151915281565b600080516020615f6383398151915281565b6101c554600090612b67906001600160a01b0316614318565b6001600160a01b0316631852f200836101c86040518363ffffffff1660e01b8152600401612b969291906152b6565b60206040518083038186803b158015612bae57600080fd5b505afa158015612bc2573d6000803e3d6000fd5b505050506040513d601f19601f8201168201806040525081019061074c9190614f8b565b600061074983836040518060400160405280601e81526020017f536166654d6174683a207375627472616374696f6e206f766572666c6f7700008152506143b0565b612c30613a64565b15612c4d5760405162461bcd60e51b815260040161078690615825565b6101cb8181548110612c5b57fe5b90600052602060002090600c020160050160040154600014612c8f5760405162461bcd60e51b815260040161078690615d2d565b6101c554600090612cba90612cac906001600160a01b03166143dc565b612cb46139dd565b90613c7f565b9050806101cb8381548110612ccb57fe5b600091825260209091206009600c9092020101556101cb80543091600080516020615f038339815191529185908110612d0057fe5b90600052602060002090600c02016005016000015483604051612d24929190615e82565b60405180910390a25050565b303b1590565b600054610100900460ff1680612d4f5750612d4f612d30565b80612d5d575060005460ff16155b612d795760405162461bcd60e51b815260040161078690615a82565b600054610100900460ff161580156113ab576000805460ff1961ff0019909116610100171660011790558015610d6c576000805461ff001916905550565b600054610100900460ff1680612dd05750612dd0612d30565b80612dde575060005460ff16155b612dfa5760405162461bcd60e51b815260040161078690615a82565b600054610100900460ff16158015612e25576000805460ff1961ff0019909116610100171660011790555b6097805460ff191690558015610d6c576000805461ff001916905550565b600054610100900460ff1680612e5c5750612e5c612d30565b80612e6a575060005460ff16155b612e865760405162461bcd60e51b815260040161078690615a82565b600054610100900460ff16158015612eb1576000805460ff1961ff0019909116610100171660011790555b60c9805460ff191660011790558015610d6c576000805461ff001916905550565b60009182526065602052604090912060020155565b6101c554600090612f00906001600160a01b031661445c565b6001600160a01b03166301b215516040518163ffffffff1660e01b8152600401602060405180830381600087803b158015612f3a57600080fd5b505af1158015612f4e573d6000803e3d6000fd5b505050506040513d601f19601f82011682018060405250810190612f729190614db2565b6101c380546001600160a01b0319166001600160a01b0383811691909117918290556101c55460405163bb4a250960e01b81529394509181169263bb4a250992612fd092169030908d908d908d908d908d908d908d90600401615242565b600060405180830381600087803b158015612fea57600080fd5b505af1158015612ffe573d6000803e3d6000fd5b505050505050505050505050565b600061074c82613a4c565b60408051808201909152601881527704661696c656420746f207472616e736665722045524332360441b6020820152610d678585858585614467565b3390565b600082815260656020526040902061306f908261453c565b156108f85761307c613053565b6001600160a01b0316816001600160a01b0316837f2f8788117e7eff1d82e926ec794901d17c78024a50270940304540a733656f0d60405160405180910390a45050565b60006001600160a01b03821663b93f9b0a60065b6040518263ffffffff1660e01b81526004016130f091906153ca565b60206040518083038186803b15801561310857600080fd5b505afa15801561311c573d6000803e3d6000fd5b505050506040513d601f19601f8201168201806040525081019061074c9190614db2565b6125e68383836040518060400160405280601881526020017704661696c656420746f207472616e736665722045524332360441b815250614551565b60008281526065602052604090206131949082614623565b156108f8576131a1613053565b6001600160a01b0316816001600160a01b0316837ff6391f5c32d9c69d2a47ea670b442974b53935d1edc7fd64eb21e047a839171b60405160405180910390a45050565b60975460ff166132075760405162461bcd60e51b8152600401610786906154b7565b6097805460ff191690557f5db9ee0a495bf2e6ff9c91a7834c1ba4fdd244a5e8aa4e537bd38aeae4b073aa61323a613053565b60405161324791906151ba565b60405180910390a1565b6101cb54600090613263906001612be6565b905060006101cb828154811061327557fe5b90600052602060002090600c020160050160040154116132a75760405162461bcd60e51b815260040161078690615753565b6101cb81815481106132b557fe5b90600052602060002090600c0201600001600401546000146132e95760405162461bcd60e51b815260040161078690615ad0565b60006133396101cb83815481106132fc57fe5b90600052602060002090600c0201600001600101546101cb848154811061331f57fe5b600091825260209091206006600c90920201015490613c7f565b6101c3546040805163a4d66daf60e01b815290519293506001600160a01b03909116916327ea6f2b91613457916133cb918691869163a4d66daf916004808301926020929190829003018186803b15801561339357600080fd5b505afa1580156133a7573d6000803e3d6000fd5b505050506040513d601f19601f82011682018060405250810190612cb491906150c0565b6101c360009054906101000a90046001600160a01b03166001600160a01b0316631a861d266040518163ffffffff1660e01b815260040160206040518083038186803b15801561341a57600080fd5b505afa15801561342e573d6000803e3d6000fd5b505050506040513d601f19601f8201168201806040525081019061345291906150c0565b614638565b6040518263ffffffff1660e01b815260040161347391906153ca565b600060405180830381600087803b15801561348d57600080fd5b505af11580156134a1573d6000803e3d6000fd5b50506101c554600092506134be91506001600160a01b03166143dc565b90506134cc81612cb46139dd565b6101cb84815481106134da57fe5b600091825260209091206004600c9092020101556134fa81612cb46139dd565b6101cb848154811061350857fe5b600091825260209091206009600c9092020101556101cb80543091600080516020615f03833981519152918690811061353d57fe5b90600052602060002090600c0201600001600001546101cb868154811061356057fe5b90600052602060002090600c020160000160040154604051613583929190615e82565b60405180910390a2306001600160a01b0316600080516020615f038339815191526101cb85815481106135b257fe5b90600052602060002090600c0201600501600001546101cb86815481106135d557fe5b90600052602060002090600c0201600501600401546040516135f8929190615e82565b60405180910390a2505050565b600061074c8261464e565b6000808211801561362f57506101cb5461362b906002614666565b8211155b61364b5760405162461bcd60e51b81526004016107869061578a565b60006136776001613671600261366b61366488836146a0565b8890613c7f565b906146dd565b90612be6565b905060006101cb828154811061368957fe5b600091825260208220600c9091020191506136a58560026146a0565b6001146136b557816005016136b7565b815b95945050505050565b6101c55460009081906136db906001600160a01b0316613605565b6001600160a01b031663430c208133866040518363ffffffff1660e01b815260040161370892919061520f565b60206040518083038186803b15801561372057600080fd5b505afa158015613734573d6000803e3d6000fd5b505050506040513d601f19601f820116820180604052508101906137589190614f8b565b6137745760405162461bcd60e51b815260040161078690615b95565b61377d33612b4e565b6137995760405162461bcd60e51b8152600401610786906159e3565b600083116137b95760405162461bcd60e51b815260040161078690615b5e565b6000806137c688886139e1565b909250905060006137d78383613c7f565b9050808611156137f95760405162461bcd60e51b815260040161078690615b01565b88600401546138066139dd565b116138235760405162461bcd60e51b8152600401610786906158a2565b6000808a60040154600014156138c45760018b01546138429089612be6565b60018c0155506101c5548790613860906001600160a01b0316613605565b6001600160a01b03166366cbb0378a836040518363ffffffff1660e01b815260040161388d929190615e82565b600060405180830381600087803b1580156138a757600080fd5b505af11580156138bb573d6000803e3d6000fd5b50505050613959565b6138ce8589614638565b91506138de846134528a85612be6565b6101c5549091506138f7906001600160a01b0316613605565b6001600160a01b031663b81922058a83856040518463ffffffff1660e01b815260040161392693929190615e90565b600060405180830381600087803b15801561394057600080fd5b505af1158015613954573d6000803e3d6000fd5b505050505b6101c55461398490613973906001600160a01b031661300c565b303361397f8587613c7f565b613017565b888a60200151336001600160a01b03167f92f2787b755dae547f1701582fe74c7abf277ec14db316dd01abc69cacf7a25985856040516139c5929190615e82565b60405180910390a4909a909950975050505050505050565b4290565b60008060006139f8856002015485604001516106bd565b90506000613a0e866003015486604001516106bd565b9050613a27856080015182612be690919063ffffffff16565b9350613a40856060015183612be690919063ffffffff16565b925050505b9250929050565b60006001600160a01b03821663b93f9b0a60056130d4565b6101cb80546000918291613a79906001612be6565b81548110613a8357fe5b90600052602060002090600c02016000016004015411905090565b6101cb5460058110613ac25760405162461bcd60e51b815260040161078690615515565b6040805161012081019091526101cb90806080810180613ae86001612cb4886002614666565b815260200160008152602001613aff60018061276c565b815260200160008152602001600081525081526020016040518060a00160405280613b396002612cb460028961466690919063ffffffff16565b815260200160008152602001613b5060018061276c565b81526000602080830182905260409283018290529284528383018190529281018390528454600181810187559584529282902084518051600c90950290910193845580830151958401959095558481015160028401556060808601516003850155608095860151600485015584830151805160058601559283015160068501558282015160078501558281015160088501559190940151600983015592820151600a820155910151600b90910155506101ca55565b60975460ff1615613c285760405162461bcd60e51b8152600401610786906158fa565b6097805460ff191660011790557f62e78cea01bee320cd4e420270b5ea74000d11b0c9f74754ebdbfc544b05a25861323a613053565b6000610749838361471f565b6000610749836001600160a01b038416614764565b6000828201838110156107495760405162461bcd60e51b815260040161078690615686565b60006001600160a01b03821663b93f9b0a60146130d4565b613cc4613a64565b613ce05760405162461bcd60e51b815260040161078690615cb6565b6101c35460408051630735c92b60e21b815290516000926001600160a01b031691631cd724ac916004808301926020929190829003018186803b158015613d2657600080fd5b505afa158015613d3a573d6000803e3d6000fd5b505050506040513d601f19601f82011682018060405250810190613d5e91906150c0565b905060008060006101c360009054906101000a90046001600160a01b03166001600160a01b031663a6a25e886040518163ffffffff1660e01b8152600401606060405180830381600087803b158015613db657600080fd5b505af1158015613dca573d6000803e3d6000fd5b505050506040513d601f19601f82011682018060405250810190613dee91906150d8565b925092509250613e7f846101c360009054906101000a90046001600160a01b03166001600160a01b0316631cd724ac6040518163ffffffff1660e01b815260040160206040518083038186803b158015613e4757600080fd5b505afa158015613e5b573d6000803e3d6000fd5b505050506040513d601f19601f8201168201806040525081019061367191906150c0565b6101cb5490945060609067ffffffffffffffff81118015613e9f57600080fd5b50604051908082528060200260200182016040528015613ec9578160200160208202803683370190505b50905060005b6101cb548110156140ad57600073__$07e8ed413e81d51a5dfb2d8e1b1fa75af5$__63cee38ee4886101cb8581548110613f0557fe5b90600052602060002090600c0201600b01546101c9546040518463ffffffff1660e01b8152600401613f3993929190615e90565b60206040518083038186803b158015613f5157600080fd5b505af4158015613f65573d6000803e3d6000fd5b505050506040513d601f19601f82011682018060405250810190613f8991906150c0565b905073__$07e8ed413e81d51a5dfb2d8e1b1fa75af5$__63cee38ee4856101cb8581548110613fb457fe5b90600052602060002090600c0201600b01546101c9546040518463ffffffff1660e01b8152600401613fe893929190615e90565b60206040518083038186803b15801561400057600080fd5b505af4158015614014573d6000803e3d6000fd5b505050506040513d601f19601f8201168201806040525081019061403891906150c0565b83838151811061404457fe5b602002602001018181525050614082816101cb848154811061406257fe5b90600052602060002090600c0201600a0154613c7f90919063ffffffff16565b6101cb838154811061409057fe5b60009182526020909120600a600c90920201015550600101613ecf565b5060008311806140bd5750600082115b156142ce576101c3546000906140e6906001600160a01b0316856140e18689613c7f565b61477c565b905060005b6101cb548110156141935761413b83828151811061410557fe5b60200260200101516101cb838154811061411b57fe5b90600052602060002090600c0201600b0154612be690919063ffffffff16565b6101cb828154811061414957fe5b90600052602060002090600c0201600b018190555061418783828151811061416d57fe5b60200260200101516101c954612be690919063ffffffff16565b6101c9556001016140eb565b506101c5546141aa906001600160a01b0316614985565b6001600160a01b03166328fc33c7856040518263ffffffff1660e01b81526004016141d591906153ca565b600060405180830381600087803b1580156141ef57600080fd5b505af1158015614203573d6000803e3d6000fd5b50506101c35460408051637df1f1b960e01b815290513094506001600160a01b039092169250637df1f1b9916004808301926020929190829003018186803b15801561424e57600080fd5b505afa158015614262573d6000803e3d6000fd5b505050506040513d601f19601f820116820180604052508101906142869190614db2565b6001600160a01b03167fd1055dc2c2a003a83dfacb1c38db776eab5ef89d77a8f05a3512e8cf57f953ce868689866040516142c49493929190615e67565b60405180910390a3505b60405130907fa2380b088ee4df06f20f2bbd1971331d0a68504a9f120cc3b029aeb934f87b3c90600090a25050505050565b60006001600160a01b03821663b93f9b0a60076130d4565b600061074c82614990565b600061074c826149a8565b6101c554610d6c90614348906001600160a01b031661300c565b6101c35460408051808201909152601981527811985a5b1959081d1bc818dbdb1b1958dd081c185e5b595b9d603a1b602082015233916001600160a01b0316908590614467565b600061074c826149c0565b60006143a78260026146a0565b60011492915050565b600081848411156143d45760405162461bcd60e51b815260040161078691906153d3565b505050900390565b60006001600160a01b03821663fc56365860075b6040518263ffffffff1660e01b815260040161440c91906153ca565b60206040518083038186803b15801561442457600080fd5b505afa158015614438573d6000803e3d6000fd5b505050506040513d601f19601f8201168201806040525081019061074c91906150c0565b600061074c826149c4565b6001600160a01b03831661448d5760405162461bcd60e51b8152600401610786906155a5565b6040516323b872dd60e01b81526000906001600160a01b038716906323b872dd906144c090889088908890600401615292565b602060405180830381600087803b1580156144da57600080fd5b505af11580156144ee573d6000803e3d6000fd5b505050506040513d601f19601f820116820180604052508101906145129190614f8b565b905081816145335760405162461bcd60e51b815260040161078691906153d3565b50505050505050565b6000610749836001600160a01b0384166149dc565b6001600160a01b0383166145775760405162461bcd60e51b8152600401610786906155a5565b60405163a9059cbb60e01b81526000906001600160a01b0386169063a9059cbb906145a8908790879060040161520f565b602060405180830381600087803b1580156145c257600080fd5b505af11580156145d6573d6000803e3d6000fd5b505050506040513d601f19601f820116820180604052508101906145fa9190614f8b565b9050818161461b5760405162461bcd60e51b815260040161078691906153d3565b505050505050565b6000610749836001600160a01b038416614a26565b60008183106146475781610749565b5090919050565b60006001600160a01b03821663b93f9b0a600c6130d4565b6000826146755750600061074c565b8282028284828161468257fe5b04146107495760405162461bcd60e51b815260040161078690615a41565b6000610749838360405180604001604052806018815260200177536166654d6174683a206d6f64756c6f206279207a65726f60401b815250614aec565b600061074983836040518060400160405280601a81526020017f536166654d6174683a206469766973696f6e206279207a65726f000000000000815250614b20565b815460009082106147425760405162461bcd60e51b815260040161078690615426565b82600001828154811061475157fe5b9060005260206000200154905092915050565b60009081526001919091016020526040902054151590565b6101c5546000906147dc90614799906001600160a01b031661300c565b85306147a58688613c7f565b6040518060400160405280601981526020017811985a5b1959081d1bc818dbdb1b1958dd081c185e5b595b9d603a1b815250614467565b6101c554600090614801906147f9906001600160a01b0316614b57565b6064906146dd565b905061480b614cf6565b6101c9546101c3546101c6546040516385bd324d60e01b815273__$07e8ed413e81d51a5dfb2d8e1b1fa75af5$__936385bd324d93614865936101cb938c938c938b9391926001600160a01b039091169190600401615342565b60a06040518083038186803b15801561487d57600080fd5b505af4158015614891573d6000803e3d6000fd5b505050506040513d601f19601f820116820180604052508101906148b59190615013565b805160208201516101c9546101c35460405163060f0a6d60e31b81529495506149719473__$07e8ed413e81d51a5dfb2d8e1b1fa75af5$__94633078536894614916946101cb94929391928b926001600160a01b0390911690600401615311565b60206040518083038186803b15801561492e57600080fd5b505af4158015614942573d6000803e3d6000fd5b505050506040513d601f19601f8201168201806040525081019061496691906150c0565b604083015190613c7f565b925061497c83614b6f565b50509392505050565b600061074c82613ca4565b60006001600160a01b03821663b93f9b0a60136130d4565b60006001600160a01b03821663b93f9b0a600e6130d4565b5490565b60006001600160a01b03821663b93f9b0a60026130d4565b60006149e88383614764565b614a1e5750815460018181018455600084815260208082209093018490558454848252828601909352604090209190915561074c565b50600061074c565b60008181526001830160205260408120548015614ae25783546000198083019190810190600090879083908110614a5957fe5b9060005260206000200154905080876000018481548110614a7657fe5b600091825260208083209091019290925582815260018981019092526040902090840190558654879080614aa657fe5b6001900381819060005260206000200160009055905586600101600087815260200190815260200160002060009055600194505050505061074c565b600091505061074c565b60008183614b0d5760405162461bcd60e51b815260040161078691906153d3565b50828481614b1757fe5b06949350505050565b60008183614b415760405162461bcd60e51b815260040161078691906153d3565b506000838581614b4d57fe5b0495945050505050565b60006001600160a01b03821663fc56365860036143f0565b306001600160a01b03167ff3583f178a8d4f8888c3683f8e948faf9b6eb701c4f1fab265a6ecad1a1ddebb82604051614ba891906153ca565b60405180910390a26101c554610d6c90614bca906001600160a01b031661300c565b6101c5543090614be2906001600160a01b03166130c0565b84604051806040016040528060198152602001784661696c656420746f2073656e6420746f207265736572766560381b815250614467565b6040518060a0016040528060006001600160a01b03168152602001600081526020016000815260200160008152602001600081525090565b60405180602001604052806001906020820280368337509192915050565b828054828255906000526020600020908101928215614cab579160200282015b82811115614cab578251825591602001919060010190614c90565b50614cb7929150614d3f565b5090565b828054828255906000526020600020908101928215614cab579160200282015b82811115614cab578235825591602001919060010190614cdb565b6040518060a0016040528060008152602001600081526020016000815260200160008152602001600081525090565b604051806040016040528060008152602001600081525090565b5b80821115614cb75760008155600101614d40565b60008083601f840112614d65578182fd5b50813567ffffffffffffffff811115614d7c578182fd5b6020830191508360208083028501011115613a4557600080fd5b600060208284031215614da7578081fd5b813561074981615ecd565b600060208284031215614dc3578081fd5b815161074981615ecd565b6000806000806000806000806000806000806101608d8f031215614df0578788fd5b614dfa8d35615ecd565b8c359b50614e0b60208e0135615ecd565b60208d01359a5060408d0135995060608d0135985060808d0135975060a08d0135965060c08d0135955060e08d013594506101008d013593506101208d0135925067ffffffffffffffff6101408e01351115614e65578081fd5b614e768e6101408f01358f01614d54565b81935080925050509295989b509295989b509295989b565b600080600080600080600060e0888a031215614ea8578283fd5b8735614eb381615ecd565b9960208901359950604089013598606081013598506080810135975060a0810135965060c00135945092505050565b60008060208385031215614ef4578182fd5b823567ffffffffffffffff811115614f0a578283fd5b614f1685828601614d54565b90969095509350505050565b60008060008060408587031215614f37578384fd5b843567ffffffffffffffff80821115614f4e578586fd5b614f5a88838901614d54565b90965094506020870135915080821115614f72578384fd5b50614f7f87828801614d54565b95989497509550505050565b600060208284031215614f9c578081fd5b81518015158114610749578182fd5b600060208284031215614fbc578081fd5b5035919050565b60008060408385031215614fd5578182fd5b823591506020830135614fe781615ecd565b809150509250929050565b60008060408385031215615004578182fd5b50508035926020909101359150565b600060a08284031215615024578081fd5b61502e60a0615ea6565b82518152602083015160208201526040830151604082015260608301516060820152608083015160808201528091505092915050565b600060a08284031215615075578081fd5b61507f60a0615ea6565b825161508a81615ecd565b80825250602083015160208201526040830151604082015260608301516060820152608083015160808201528091505092915050565b6000602082840312156150d1578081fd5b5051919050565b6000806000606084860312156150ec578081fd5b8351925060208401519150604084015190509250925092565b60008060008060008060c0878903121561511d578384fd5b863595506020870135945060408701359350606087013560ff81168114615142578283fd5b9598949750929560808101359460a0909101359350915050565b80518252602081015160208301526040810151604083015260608101516060830152608081015160808301525050565b8054825260018101546020830152600281015460408301526003810154606083015260040154608090910152565b6001600160a01b0391909116815260200190565b6001600160a01b0397881681529590961660208601526040850193909352606084019190915260ff16608083015260a082015260c081019190915260e00190565b6001600160a01b03929092168252602082015260400190565b6001600160a01b0392831681529116602082015260400190565b6001600160a01b03998a16815297891660208901529590971660408701526060860193909352608085019190915260a084015260c083015260e08201929092526101008101919091526101200190565b6001600160a01b039384168152919092166020820152604081019190915260600190565b6001600160a01b0383168152604060208083018290528354918301829052600084815281812090929091906060850190845b81811015615304578454835260019485019492840192016152e8565b5090979650505050505050565b95865260208601949094526040850192909252606084015260808301526001600160a01b031660a082015260c00190565b96875260208701959095526040860193909352606085019190915260808401526001600160a01b031660a083015260c082015260e00190565b6020808252825182820181905260009190848201906040850190845b818110156153b357835183529284019291840191600101615397565b50909695505050505050565b901515815260200190565b90815260200190565b6000602080835283518082850152825b818110156153ff578581018301518582016040015282016153e3565b818111156154105783604083870101525b50601f01601f1916929092016040019392505050565b60208082526022908201527f456e756d657261626c655365743a20696e646578206f7574206f6620626f756e604082015261647360f01b606082015260800190565b6020808252602f908201527f416363657373436f6e74726f6c3a2073656e646572206d75737420626520616e60408201526e0818591b5a5b881d1bc819dc985b9d608a1b606082015260800190565b60208082526014908201527314185d5cd8589b194e881b9bdd081c185d5cd95960621b604082015260600190565b6020808252601690820152754661696c656420746f20617070726f7665205553444360501b604082015260600190565b60208082526016908201527543616e6e6f7420657863656564203520736c6963657360501b604082015260600190565b6020808252600f908201526e5265712053454e494f525f524f4c4560881b604082015260600190565b6020808252601b908201527f496e73756666696369656e742066756e647320696e20736c6963650000000000604082015260600190565b6020808252601a908201527f43616e27742073656e6420746f207a65726f2061646472657373000000000000604082015260600190565b6020808252600d908201526c13dddb995c881a5b9d985b1a59609a1b604082015260600190565b6020808252602c908201527f4d75737420686176652070617573657220726f6c6520746f20706572666f726d60408201526b103a3434b99030b1ba34b7b760a11b606082015260800190565b6020808252601a908201527f4372656469746c696e652063616e6e6f7420626520656d707479000000000000604082015260600190565b6020808252601b908201527f536166654d6174683a206164646974696f6e206f766572666c6f770000000000604082015260600190565b6020808252601d908201527f4265796f6e64207072696e636970616c20677261636520706572696f64000000604082015260600190565b6020808252600e908201526d151c985b98da19481b1bd8dad95960921b604082015260600190565b6020808252601a908201527f43757272656e7420736c696365207374696c6c20616374697665000000000000604082015260600190565b6020808252601d908201527f4a756e696f72207472616e636865206d757374206265206c6f636b6564000000604082015260600190565b602080825260139082015272556e737570706f72746564207472616e63686560681b604082015260600190565b6020808252601e908201527f546f6b656e7349647320616e6420416d6f756e7473206d69736d617463680000604082015260600190565b6020808252601a908201527f426f72726f776572206d757374206e6f7420626520656d707479000000000000604082015260600190565b602080825260139082015272141bdbdb08185b1c9958591e481b1bd8dad959606a1b604082015260600190565b60208082526030908201527f416363657373436f6e74726f6c3a2073656e646572206d75737420626520616e60408201526f2061646d696e20746f207265766f6b6560801b606082015260800190565b602080825260119082015270151c985b98da19481a5cc81b1bd8dad959607a1b604082015260600190565b6020808252601390820152724d757374206465706f736974203e207a65726f60681b604082015260600190565b60208082526010908201526f14185d5cd8589b194e881c185d5cd95960821b604082015260600190565b60208082526016908201527514185e5b595b9d081c195c9a5bd9081a5b9d985b1a5960521b604082015260600190565b6020808252601290820152714372656469746c696e65206973206c61746560701b604082015260600190565b6020808252818101527f4f776e65722063616e6e6f7420626520746865207a65726f2061646472657373604082015260600190565b602080825260149082015273111c985dd91bdddb9cc8185c99481c185d5cd95960621b604082015260600190565b6020808252601590820152741059191c995cdcc81b9bdd0819dbcb5b1a5cdd1959605a1b604082015260600190565b6020808252601590820152744d7573742068617665206c6f636b657220726f6c6560581b604082015260600190565b60208082526021908201527f536166654d6174683a206d756c7469706c69636174696f6e206f766572666c6f6040820152607760f81b606082015260800190565b6020808252602e908201527f436f6e747261637420696e7374616e63652068617320616c726561647920626560408201526d195b881a5b9a5d1a585b1a5e995960921b606082015260800190565b602080825260179082015276131bd8dac818d85b9b9bdd08189948195e1d195b991959604a1b604082015260600190565b602080825260159082015274125b9d985b1a59081c995919595b48185b5bdd5b9d605a1b604082015260600190565b6020808252601490820152734e6f74206f70656e20666f722066756e64696e6760601b604082015260600190565b6020808252601c908201527f4d757374207769746864726177206d6f7265207468616e207a65726f00000000604082015260600190565b6020808252600f908201526e2737ba103a37b5b2b71037bbb732b960891b604082015260600190565b6020808252601690820152755465726d206d757374206e6f7420626520656d70747960501b604082015260600190565b6020808252601790820152764d75737420706179206d6f7265207468616e207a65726f60481b604082015260600190565b60208082526017908201527610dbdb999a59cbd89bdc9c9bddd95c881a5b9d985b1a59604a1b604082015260600190565b6020808252601590820152744d757374206e6f7420686176652062616c616e636560581b604082015260600190565b6020808252601f908201527f5265656e7472616e637947756172643a207265656e7472616e742063616c6c00604082015260600190565b602080825260129082015271141bdbdb081a5cc81b9bdd081b1bd8dad95960721b604082015260600190565b6020808252602b908201527f4d75737420686176652061646d696e20726f6c6520746f20706572666f726d2060408201526a3a3434b99030b1ba34b7b760a91b606082015260800190565b6020808252601d908201527f4a756e696f72207472616e63686520616c7265616479206c6f636b6564000000604082015260600190565b6020808252602f908201527f416363657373436f6e74726f6c3a2063616e206f6e6c792072656e6f756e636560408201526e103937b632b9903337b91039b2b63360891b606082015260800190565b82518152602092830151928101929092526001600160a01b0316604082015260600190565b60a0810161074c828461515c565b6101808101615df5828761515c565b615e0260a083018661515c565b610140820193909352610160015292915050565b6102408101615e25828661515c565b8360a0830152615e3860c083018461518c565b615e4961016083016005850161518c565b600a830154610200830152600b830154610220830152949350505050565b93845260208401929092526040830152606082015260800190565b918252602082015260400190565b9283526020830191909152604082015260600190565b60405181810167ffffffffffffffff81118282101715615ec557600080fd5b604052919050565b6001600160a01b0381168114610d6c57600080fdfeb19546dff01e856fb3f010c267a7b1c60363cf8a4664e21cc89c26224620214ef839b119f21fb055e13aebac51bca6b308f52ec2d8db8306ce4d092d964e5bd065d7a28e3265b37a6474929f336521b332c1681b933f6cb9f3376673440d862a956624bfbe09c0e98e645d61eba0de4ce88e8cceabdb00fead208d19a8e1209baf9a8bb3cbd6b84fbccefa71ff73e26e798553c6914585a84886212a46a90279a26469706673582212202d7eee4678e05d213d9d7a77505aa11a5607e55ff86b75774792e6c95add683564736f6c634300060c0033",
  "libraries": {
    "TranchingLogic": "0x9BCE1F08012DD6e72756Cd015E50068f90963D22"
  },
  "devdoc": {
    "kind": "dev",
    "methods": {
      "availableToWithdraw(uint256)": {
        "params": {
          "tokenId": "The token representing the position"
        },
        "returns": {
          "interestRedeemable": "The interest available to redeem",
          "principalRedeemable": "The principal available to redeem"
        }
      },
      "deposit(uint256,uint256)": {
        "params": {
          "amount": "The USDC amount to tranfer from the caller to the pool",
          "tranche": "The number representing the tranche to deposit into"
        },
        "returns": {
          "tokenId": "The tokenId of the NFT"
        }
      },
      "drawdown(uint256)": {
        "params": {
          "amount": "The amount to drawdown from the creditline (must be < limit)"
        }
      },
      "getRoleAdmin(bytes32)": {
        "details": "Returns the admin role that controls `role`. See {grantRole} and {revokeRole}. To change a role's admin, use {_setRoleAdmin}."
      },
      "getRoleMember(bytes32,uint256)": {
        "details": "Returns one of the accounts that have `role`. `index` must be a value between 0 and {getRoleMemberCount}, non-inclusive. Role bearers are not sorted in any particular way, and their ordering may change at any point. WARNING: When using {getRoleMember} and {getRoleMemberCount}, make sure you perform all queries on the same block. See the following https://forum.openzeppelin.com/t/iterating-over-elements-on-enumerableset-in-openzeppelin-contracts/2296[forum post] for more information."
      },
      "getRoleMemberCount(bytes32)": {
        "details": "Returns the number of accounts that have `role`. Can be used together with {getRoleMember} to enumerate all bearers of a role."
      },
      "grantRole(bytes32,address)": {
        "details": "Grants `role` to `account`. If `account` had not been already granted `role`, emits a {RoleGranted} event. Requirements: - the caller must have ``role``'s admin role."
      },
      "hasRole(bytes32,address)": {
        "details": "Returns `true` if `account` has been granted `role`."
      },
      "migrateCreditLine(address,uint256,uint256,uint256,uint256,uint256,uint256)": {
        "params": {
          "_borrower": "The borrower address",
          "_interestApr": "The new interest APR",
          "_lateFeeApr": "The new late fee APR",
          "_maxLimit": "The new max limit",
          "_paymentPeriodInDays": "The new payment period in days",
          "_termInDays": "The new term in days"
        }
      },
      "pause()": {
        "details": "Pauses all functions guarded by Pause See {Pausable-_pause}. Requirements: - the caller must have the PAUSER_ROLE."
      },
      "paused()": {
        "details": "Returns true if the contract is paused, and false otherwise."
      },
      "pay(uint256)": {
        "params": {
          "amount": "The amount to repay"
        }
      },
      "renounceRole(bytes32,address)": {
        "details": "Revokes `role` from the calling account. Roles are often managed via {grantRole} and {revokeRole}: this function's purpose is to provide a mechanism for accounts to lose their privileges if they are compromised (such as when a trusted device is misplaced). If the calling account had been granted `role`, emits a {RoleRevoked} event. Requirements: - the caller must be `account`."
      },
      "revokeRole(bytes32,address)": {
        "details": "Revokes `role` from `account`. If `account` had been granted `role`, emits a {RoleRevoked} event. Requirements: - the caller must have ``role``'s admin role."
      },
      "sharePriceToUsdc(uint256,uint256)": {
        "params": {
          "sharePrice": "The share price to convert",
          "totalShares": "The total shares outstanding"
        },
        "returns": {
          "_0": "The USDC amount of the input share price"
        }
      },
      "totalJuniorDeposits()": {
        "returns": {
          "_0": "The total USDC amount deposited into all junior tranches"
        }
      },
      "unpause()": {
        "details": "Unpauses the contract See {Pausable-_unpause}. Requirements: - the caller must have the Pauser role"
      },
      "usdcToSharePrice(uint256,uint256)": {
        "params": {
          "amount": "The USDC amount to convert",
          "totalShares": "The total shares outstanding"
        },
        "returns": {
          "_0": "The share price of the input amount"
        }
      },
      "withdraw(uint256,uint256)": {
        "params": {
          "amount": "The amount to withdraw (must be <= interest+principal currently available to withdraw)",
          "tokenId": "The NFT representing the position"
        },
        "returns": {
          "interestWithdrawn": "The interest amount that was withdrawn",
          "principalWithdrawn": "The principal amount that was withdrawn"
        }
      },
      "withdrawMax(uint256)": {
        "params": {
          "tokenId": "The NFT representing the position"
        },
        "returns": {
          "interestWithdrawn": "The interest amount that was withdrawn",
          "principalWithdrawn": "The principal amount that was withdrawn"
        }
      },
      "withdrawMultiple(uint256[],uint256[])": {
        "params": {
          "amounts": "An array of amounts to withdraw from the corresponding tokenIds",
          "tokenIds": "An array of tokens ids representing the position"
        }
      }
    },
    "version": 1
  },
  "userdoc": {
    "kind": "user",
    "methods": {
      "assess()": {
        "notice": "Triggers an assessment of the creditline and the applies the payments according the tranche waterfall"
      },
      "availableToWithdraw(uint256)": {
        "notice": "Determines the amount of interest and principal redeemable by a particular tokenId"
      },
      "deposit(uint256,uint256)": {
        "notice": "Deposit a USDC amount into the pool for a tranche. Mints an NFT to the caller representing the position"
      },
      "drawdown(uint256)": {
        "notice": "Draws down the funds (and locks the pool) to the borrower address. Can only be called by the borrower"
      },
      "emergencyShutdown()": {
        "notice": "Pauses the pool and sweeps any remaining funds to the treasury reserve."
      },
      "lockJuniorCapital()": {
        "notice": "Locks the junior tranche, preventing more junior deposits. Gives time for the senior to determine how much to invest (ensure leverage ratio cannot change for the period)"
      },
      "lockPool()": {
        "notice": "Locks the pool (locks both senior and junior tranches and starts the drawdown period). Beyond the drawdown period, any unused capital is available to withdraw by all depositors"
      },
      "migrateAndSetNewCreditLine(address)": {
        "notice": "Migrates to a new creditline without copying the accounting variables"
      },
      "migrateCreditLine(address,uint256,uint256,uint256,uint256,uint256,uint256)": {
        "notice": "Migrates the accounting variables from the current creditline to a brand new one"
      },
      "pauseDrawdowns()": {
        "notice": "Pauses all drawdowns (but not deposits/withdraws)"
      },
      "pay(uint256)": {
        "notice": "Allows repaying the creditline. Collects the USDC amount from the sender and triggers an assess"
      },
      "sharePriceToUsdc(uint256,uint256)": {
        "notice": "Converts share price to USDC amounts"
      },
      "totalJuniorDeposits()": {
        "notice": "Returns the total junior capital deposited"
      },
      "unpauseDrawdowns()": {
        "notice": "Unpause drawdowns"
      },
      "usdcToSharePrice(uint256,uint256)": {
        "notice": "Converts USDC amounts to share price"
      },
      "withdraw(uint256,uint256)": {
        "notice": "Withdraw an already deposited amount if the funds are available"
      },
      "withdrawMax(uint256)": {
        "notice": "Similar to withdraw but will withdraw all available funds"
      },
      "withdrawMultiple(uint256[],uint256[])": {
        "notice": "Withdraw from many tokens (that the sender owns) in a single transaction"
      }
    },
    "version": 1
  },
  "storageLayout": {
    "storage": [
      {
        "astId": 151,
        "contract": "contracts/protocol/core/TranchedPool.sol:TranchedPool",
        "label": "initialized",
        "offset": 0,
        "slot": "0",
        "type": "t_bool"
      },
      {
        "astId": 154,
        "contract": "contracts/protocol/core/TranchedPool.sol:TranchedPool",
        "label": "initializing",
        "offset": 1,
        "slot": "0",
        "type": "t_bool"
      },
      {
        "astId": 219,
        "contract": "contracts/protocol/core/TranchedPool.sol:TranchedPool",
        "label": "______gap",
        "offset": 0,
        "slot": "1",
        "type": "t_array(t_uint256)50_storage"
      },
      {
        "astId": 144,
        "contract": "contracts/protocol/core/TranchedPool.sol:TranchedPool",
        "label": "__gap",
        "offset": 0,
        "slot": "51",
        "type": "t_array(t_uint256)50_storage"
      },
      {
        "astId": 264,
        "contract": "contracts/protocol/core/TranchedPool.sol:TranchedPool",
        "label": "_roles",
        "offset": 0,
        "slot": "101",
        "type": "t_mapping(t_bytes32,t_struct(RoleData)260_storage)"
      },
      {
        "astId": 509,
        "contract": "contracts/protocol/core/TranchedPool.sol:TranchedPool",
        "label": "__gap",
        "offset": 0,
        "slot": "102",
        "type": "t_array(t_uint256)49_storage"
      },
      {
        "astId": 4429,
        "contract": "contracts/protocol/core/TranchedPool.sol:TranchedPool",
        "label": "_paused",
        "offset": 0,
        "slot": "151",
        "type": "t_bool"
      },
      {
        "astId": 4518,
        "contract": "contracts/protocol/core/TranchedPool.sol:TranchedPool",
        "label": "__gap",
        "offset": 0,
        "slot": "152",
        "type": "t_array(t_uint256)49_storage"
      },
      {
        "astId": 4527,
        "contract": "contracts/protocol/core/TranchedPool.sol:TranchedPool",
        "label": "_notEntered",
        "offset": 0,
        "slot": "201",
        "type": "t_bool"
      },
      {
        "astId": 4568,
        "contract": "contracts/protocol/core/TranchedPool.sol:TranchedPool",
        "label": "__gap",
        "offset": 0,
        "slot": "202",
        "type": "t_array(t_uint256)49_storage"
      },
      {
        "astId": 12067,
        "contract": "contracts/protocol/core/TranchedPool.sol:TranchedPool",
        "label": "__gap1",
        "offset": 0,
        "slot": "251",
        "type": "t_array(t_uint256)50_storage"
      },
      {
        "astId": 12071,
        "contract": "contracts/protocol/core/TranchedPool.sol:TranchedPool",
        "label": "__gap2",
        "offset": 0,
        "slot": "301",
        "type": "t_array(t_uint256)50_storage"
      },
      {
        "astId": 12075,
        "contract": "contracts/protocol/core/TranchedPool.sol:TranchedPool",
        "label": "__gap3",
        "offset": 0,
        "slot": "351",
        "type": "t_array(t_uint256)50_storage"
      },
      {
        "astId": 12079,
        "contract": "contracts/protocol/core/TranchedPool.sol:TranchedPool",
        "label": "__gap4",
        "offset": 0,
        "slot": "401",
        "type": "t_array(t_uint256)50_storage"
      },
      {
        "astId": 10442,
        "contract": "contracts/protocol/core/TranchedPool.sol:TranchedPool",
        "label": "creditLine",
        "offset": 0,
        "slot": "451",
        "type": "t_contract(IV2CreditLine)10805"
      },
      {
        "astId": 10444,
        "contract": "contracts/protocol/core/TranchedPool.sol:TranchedPool",
        "label": "createdAt",
        "offset": 0,
        "slot": "452",
        "type": "t_uint256"
      },
      {
        "astId": 22542,
        "contract": "contracts/protocol/core/TranchedPool.sol:TranchedPool",
        "label": "config",
        "offset": 0,
        "slot": "453",
        "type": "t_contract(GoldfinchConfig)17564"
      },
      {
        "astId": 22579,
        "contract": "contracts/protocol/core/TranchedPool.sol:TranchedPool",
        "label": "juniorFeePercent",
        "offset": 0,
        "slot": "454",
        "type": "t_uint256"
      },
      {
        "astId": 22581,
        "contract": "contracts/protocol/core/TranchedPool.sol:TranchedPool",
        "label": "drawdownsPaused",
        "offset": 0,
        "slot": "455",
        "type": "t_bool"
      },
      {
        "astId": 22584,
        "contract": "contracts/protocol/core/TranchedPool.sol:TranchedPool",
        "label": "allowedUIDTypes",
        "offset": 0,
        "slot": "456",
        "type": "t_array(t_uint256)dyn_storage"
      },
      {
        "astId": 22586,
        "contract": "contracts/protocol/core/TranchedPool.sol:TranchedPool",
        "label": "totalDeployed",
        "offset": 0,
        "slot": "457",
        "type": "t_uint256"
      },
      {
        "astId": 22588,
        "contract": "contracts/protocol/core/TranchedPool.sol:TranchedPool",
        "label": "fundableAt",
        "offset": 0,
        "slot": "458",
        "type": "t_uint256"
      },
      {
        "astId": 22591,
        "contract": "contracts/protocol/core/TranchedPool.sol:TranchedPool",
        "label": "poolSlices",
        "offset": 0,
        "slot": "459",
        "type": "t_array(t_struct(PoolSlice)10468_storage)dyn_storage"
      }
    ],
    "types": {
      "t_array(t_bytes32)dyn_storage": {
        "base": "t_bytes32",
        "encoding": "dynamic_array",
        "label": "bytes32[]",
        "numberOfBytes": "32"
      },
      "t_array(t_struct(PoolSlice)10468_storage)dyn_storage": {
        "base": "t_struct(PoolSlice)10468_storage",
        "encoding": "dynamic_array",
        "label": "struct ITranchedPool.PoolSlice[]",
        "numberOfBytes": "32"
      },
      "t_array(t_uint256)49_storage": {
        "base": "t_uint256",
        "encoding": "inplace",
        "label": "uint256[49]",
        "numberOfBytes": "1568"
      },
      "t_array(t_uint256)50_storage": {
        "base": "t_uint256",
        "encoding": "inplace",
        "label": "uint256[50]",
        "numberOfBytes": "1600"
      },
      "t_array(t_uint256)dyn_storage": {
        "base": "t_uint256",
        "encoding": "dynamic_array",
        "label": "uint256[]",
        "numberOfBytes": "32"
      },
      "t_bool": {
        "encoding": "inplace",
        "label": "bool",
        "numberOfBytes": "1"
      },
      "t_bytes32": {
        "encoding": "inplace",
        "label": "bytes32",
        "numberOfBytes": "32"
      },
      "t_contract(GoldfinchConfig)17564": {
        "encoding": "inplace",
        "label": "contract GoldfinchConfig",
        "numberOfBytes": "20"
      },
      "t_contract(IV2CreditLine)10805": {
        "encoding": "inplace",
        "label": "contract IV2CreditLine",
        "numberOfBytes": "20"
      },
      "t_mapping(t_bytes32,t_struct(RoleData)260_storage)": {
        "encoding": "mapping",
        "key": "t_bytes32",
        "label": "mapping(bytes32 => struct AccessControlUpgradeSafe.RoleData)",
        "numberOfBytes": "32",
        "value": "t_struct(RoleData)260_storage"
      },
      "t_mapping(t_bytes32,t_uint256)": {
        "encoding": "mapping",
        "key": "t_bytes32",
        "label": "mapping(bytes32 => uint256)",
        "numberOfBytes": "32",
        "value": "t_uint256"
      },
      "t_struct(AddressSet)4204_storage": {
        "encoding": "inplace",
        "label": "struct EnumerableSet.AddressSet",
        "members": [
          {
            "astId": 4203,
            "contract": "contracts/protocol/core/TranchedPool.sol:TranchedPool",
            "label": "_inner",
            "offset": 0,
            "slot": "0",
            "type": "t_struct(Set)4024_storage"
          }
        ],
        "numberOfBytes": "64"
      },
      "t_struct(PoolSlice)10468_storage": {
        "encoding": "inplace",
        "label": "struct ITranchedPool.PoolSlice",
        "members": [
          {
            "astId": 10461,
            "contract": "contracts/protocol/core/TranchedPool.sol:TranchedPool",
            "label": "seniorTranche",
            "offset": 0,
            "slot": "0",
            "type": "t_struct(TrancheInfo)10459_storage"
          },
          {
            "astId": 10463,
            "contract": "contracts/protocol/core/TranchedPool.sol:TranchedPool",
            "label": "juniorTranche",
            "offset": 0,
            "slot": "5",
            "type": "t_struct(TrancheInfo)10459_storage"
          },
          {
            "astId": 10465,
            "contract": "contracts/protocol/core/TranchedPool.sol:TranchedPool",
            "label": "totalInterestAccrued",
            "offset": 0,
            "slot": "10",
            "type": "t_uint256"
          },
          {
            "astId": 10467,
            "contract": "contracts/protocol/core/TranchedPool.sol:TranchedPool",
            "label": "principalDeployed",
            "offset": 0,
            "slot": "11",
            "type": "t_uint256"
          }
        ],
        "numberOfBytes": "384"
      },
      "t_struct(RoleData)260_storage": {
        "encoding": "inplace",
        "label": "struct AccessControlUpgradeSafe.RoleData",
        "members": [
          {
            "astId": 257,
            "contract": "contracts/protocol/core/TranchedPool.sol:TranchedPool",
            "label": "members",
            "offset": 0,
            "slot": "0",
            "type": "t_struct(AddressSet)4204_storage"
          },
          {
            "astId": 259,
            "contract": "contracts/protocol/core/TranchedPool.sol:TranchedPool",
            "label": "adminRole",
            "offset": 0,
            "slot": "2",
            "type": "t_bytes32"
          }
        ],
        "numberOfBytes": "96"
      },
      "t_struct(Set)4024_storage": {
        "encoding": "inplace",
        "label": "struct EnumerableSet.Set",
        "members": [
          {
            "astId": 4019,
            "contract": "contracts/protocol/core/TranchedPool.sol:TranchedPool",
            "label": "_values",
            "offset": 0,
            "slot": "0",
            "type": "t_array(t_bytes32)dyn_storage"
          },
          {
            "astId": 4023,
            "contract": "contracts/protocol/core/TranchedPool.sol:TranchedPool",
            "label": "_indexes",
            "offset": 0,
            "slot": "1",
            "type": "t_mapping(t_bytes32,t_uint256)"
          }
        ],
        "numberOfBytes": "64"
      },
      "t_struct(TrancheInfo)10459_storage": {
        "encoding": "inplace",
        "label": "struct ITranchedPool.TrancheInfo",
        "members": [
          {
            "astId": 10450,
            "contract": "contracts/protocol/core/TranchedPool.sol:TranchedPool",
            "label": "id",
            "offset": 0,
            "slot": "0",
            "type": "t_uint256"
          },
          {
            "astId": 10452,
            "contract": "contracts/protocol/core/TranchedPool.sol:TranchedPool",
            "label": "principalDeposited",
            "offset": 0,
            "slot": "1",
            "type": "t_uint256"
          },
          {
            "astId": 10454,
            "contract": "contracts/protocol/core/TranchedPool.sol:TranchedPool",
            "label": "principalSharePrice",
            "offset": 0,
            "slot": "2",
            "type": "t_uint256"
          },
          {
            "astId": 10456,
            "contract": "contracts/protocol/core/TranchedPool.sol:TranchedPool",
            "label": "interestSharePrice",
            "offset": 0,
            "slot": "3",
            "type": "t_uint256"
          },
          {
            "astId": 10458,
            "contract": "contracts/protocol/core/TranchedPool.sol:TranchedPool",
            "label": "lockedUntil",
            "offset": 0,
            "slot": "4",
            "type": "t_uint256"
          }
        ],
        "numberOfBytes": "160"
      },
      "t_uint256": {
        "encoding": "inplace",
        "label": "uint256",
        "numberOfBytes": "32"
      }
    }
  }
}